:10000000F8FF022099010000E9970000A197000085
:10001000A1970000A1970000A1970000A197000000
:10002000A1970000A1970000A1970000E9970000A8
:10003000E9970000A1970000E1AF0000E5AF0000E4
:10004000E9970000E9970000E9970000E9970000B0
:10005000E9970000E9970000E9970000E9970000A0
:10006000E9970000E9970000E9970000E997000090
:10007000E9970000E9970000E9970000E997000080
:10008000E9970000E9970000E9970000E997000070
:10009000E9970000E9970000E9970000E997000060
:1000A0004590000051900000E9970000E99700009A
:1000B000E9970000E9970000E9970000E997000040
:1000C000E9970000E9970000E9970000E997000030
:1000D000E9970000E9970000E9970000E997000020
:1000E000E9970000E9970000E9970000E997000010
:1000F000E9970000E9970000E9970000E997000000
:10010000E9970000E9970000E9970000E9970000EF
:10011000C5880000A9A00000E9970000E997000049
:10012000E9970000E9970000E9970000E9970000CF
:10013000E9970000E9970000E9970000E9970000BF
:10014000E9970000E9970000E9970000E9970000AF
:10015000E9970000E9970000E9970000E99700009F
:10016000E9970000E99700005D900000E997000022
:10017000E9970000E9970000E9970000E99700007F
:10018000E9970000E9970000E9970000E99700006F
:10019000E9970000E9970000584B4CF2205210B547
:1001A0001A804DF628121A8000BF00BF09F020FB0C
:1001B000534B4FF030621A60524A9A60524ADA60EA
:1001C000524B4FF470021A60514A136813F4807353
:1001D00004D150490B604FF4A85313604E4B1A786A
:1001E000110703D51A7842F008021A704B4B4C499C
:1001F0002A221A704B4A4C4B8B4204D252F8040FFD
:1002000043F8040BF8E7494B494900228B4202D2DC
:1002100043F8042BFAE74749474A002352F82300E2
:1002200041F823000133662BF8D1444B444A802126
:1002300003F8011B9342FBD1424B3E4A1A60424BEA
:100240008A221A70A3F5805324225A70A0221A70B1
:100250009A799207FCD59A79D406FCD43B4A9379D3
:1002600003F00C03082B394BF9D103221A714622F3
:100270005A719A799006FCD5344A9179334B4906E4
:10028000FBD5334A4FF08271116009215160202261
:100290001A709A7902F00C020C2AFAD12D4B2E4AD0
:1002A0001A602E4B2E4A1A6000225A60072243F829
:1002B000042C2C4AC3F80C2D62B609F087FD154BAF
:1002C0001B68DA0705D5284809F090FB274B284A18
:1002D0001A60284B1B785B0609D5244C244B2268F6
:1002E0009A4204D1204809F081FB002323600CF0DE
:1002F0006FFE09F083FA0AF07DFEFEE70E2005404E
:1003000030800440823F04000100002B88ED00E0B3
:1003100010D0034014D0034002D0074000E0074053
:100320004815FF1F001D0100F806FF1F4815FF1F9D
:10033000A820FF1F0002FF1F0000000000E400E0F3
:1003400056E400E008ED00E00050064000400640A2
:100350004480044004800440C010050014E000E024
:10036000BFD4010000002020A63F5F601CE00340D6
:10037000A5C3945A00F00740FFFFFFFFFFFFFFFFF8
:10038000FFFFFFFFFFFFFFFFFFFFFFFFFFFFFFFF7D
:10039000FFFFFFFFFFFFFFFFFFFFFFFFFFFFFFFF6D
:1003A000FFFFFFFFFFFFFFFFFFFFFFFFFFFFFFFF5D
:1003B000FFFFFFFFFFFFFFFFFFFFFFFFFFFFFFFF4D
:1003C000FFFFFFFFFFFFFFFFFFFFFFFFFFFFFFFF3D
:1003D000FFFFFFFFFFFFFFFFFFFFFFFFFFFFFFFF2D
:1003E000FFFFFFFFFFFFFFFFFFFFFFFFFFFFFFFF1D
:1003F000FFFFFFFFFFFFFFFFFFFFFFFFFFFFFFFF0D
:10040000FFFFFFFFFFFFFFFFFFFFFFFFDEF9FFFF23
:1004100010B5054C237833B9044B13B10448AFF33E
:1004200000800123237010BD4815FF1F000000004D
:10043000FC1C0100084B10B51BB108490848AFF37C
:1004400000800848036803B910BD074B002BFBD0A0
:10045000BDE81040184700BF000000004C15FF1F0A
:10046000FC1C01004815FF1F0000000043680B70D2
:1004700043681B0A4B70C3888B70C379CB70836849
:100480000B7183681B0A4B7143898B71C37ACB71E3
:10049000082070470B7843604A7843EA02234360A0
:1004A0008A7843EA02434360CA7843EA02634360BE
:1004B0000B7983604A7943EA022383608A7943EAAD
:1004C00002438360CA7943EA02638360082070476D
:1004D00000487047C012010000487047D012010068
:1004E000F0B50C460A788280064614F8010F002306
:1004F00042EA0022B2801A4614F8010F98400833ED
:10050000202B42EA0002F7D1971D062F58D901F19E
:10051000050E551D73464C1913F8010F03F8010C15
:10052000A342F9D100234B5518460D44C6F808E004
:1005300015F8014F84400830202843EA0403F7D11E
:10054000381D0344834209D909320A440446013460
:1005500012F8015F02F8015CA342F8D80138CF1805
:100560000024084407F8014C2246F06017F8015BAC
:1005700095400832202A44EA0504F7D1181D0444A6
:10058000A04209D203330B440246013213F8015F43
:1005900003F8015CA242F8D30D1901380844002386
:1005A00005F8013C3061A8786B780A5DED780104AC
:1005B00041EA0323134343EA0563201D7361F0BD41
:1005C000551D01F1050EADE700487047F41201001A
:1005D00000487047101301000B78F0B4037100233A
:1005E00006460C461D4614F8012F9A400833202B6E
:1005F00045EA0205F7D1681D052801F1040708D96D
:100600002C1D3B460C4413F8012F03F8012C9C428F
:10061000F9D10D4400232B71B760F0BC704700BFC7
:100620000048704734130100004870474813010028
:1006300000487047A4120100004870476C13010085
:10064000004870479013010000487047A81301004C
:1006500000487047CC13010000487047E0130100C8
:10066000F0B48268C3680B711C0A180C170A160CC8
:10067000150E1B0E4F708E70CD704C7188710A7004
:100680000820CB71F0BC70470B684A68C260836079
:100690000820704700487047041401000048704764
:1006A00014140100004870473814010000487047D6
:1006B0004C14010090F8F804704700BF406B70477D
:1006C00000487047CC13010000487047E013010058
:1006D00010B5D0ED027A1A4C1A4A90ED087A1A4BEE
:1006E000C168C4ED007AF5EEC07AF1EE10FA82B07E
:1006F000116083ED007A09DCB5EE407AF1EE10FA74
:1007000014D0F5EEC07AF1EE10FA0FDB00211120C3
:1007100009F002FB00210E2009F0FEFA0B4A0C4BF7
:1007200012680192019A1A6002B010BD01211120D5
:1007300009F0F2FA01210E2009F0EEFAEEE700BF0F
:100740004817FF1F4C17FF1FA416FF1F2C1FFF1F6A
:100750004016FF1F0AF0B8BA43682DE9F0470B7046
:1007600043681B0A4B70C3888B70C379CB70436896
:10077000002B00F085800A4600250426C36853F844
:10078000253013711C0C1F0A1B0E94715771D37105
:1007900043680135AB42344602F1040206F1040617
:1007A000ECD804F1080204F1050A04F1060904F189
:1007B000070804F1090C04F10A0E04F10B051746B1
:1007C0000C3403698B5503691B0A01F80A30438A0C
:1007D00001F80930C37C01F808300369F3B101EB7B
:1007E000070E75460022836953F822300EF8223036
:1007F0001C0C1E0A1B0EAC706E70EB70036901328C
:1008000093423C4605F1040507F10407EBD804F1D7
:10081000050C04F1060EE51D3A460834C3698B54F5
:10082000C3691B0A01F80C30C38B01F80E30C37F7B
:100830004B55C3690BB30F4680460026D8F82430C9
:1008400053F826000CF05CFEB10005463A1900236F
:1008500025FA03F00833202B02F8010BF8D1D8F861
:1008600024300434381959582A4608F0FFFED8F8C5
:100870001C300136B3422C44E0D82046BDE8F08756
:10088000082217460C240B254FF00A0E4FF0090CD6
:100890004FF007084FF006094FF0050A042690E7CD
:1008A00070B503790B70064680680D460CF028FE83
:1008B0002A460446002324FA03F10833202B02F8C9
:1008C000011FF8D1B168681D224608F0CFFE601DF7
:1008D00070BD00BFF8B583880B7083881B0A4B700E
:1008E000064680680D460CF00BFE030E010A020C52
:1008F0006B71A8702A71E97002460446B168A81DA0
:1009000008F0B4FEF0680CF0FBFD611D02462944BE
:100910000634002322FA03F00833202B01F8010FDC
:10092000F8D104342819F168144408F09FFE3069A6
:100930000CF0E6FD2A190746002327FA03F10833D5
:10094000202B02F8011BF8D1043428193A463169EA
:1009500008F08CFE381973692B540544190A1A0CD7
:100960001B0E6970AA70EB700430F8BD08460AF0DF
:1009700095BA00BF2DE9F04F43680C689C4283B0E4
:1009800005460E4600F2B3806C60002C00F0B88083
:1009900005F1080C334600274FF0040E9C795A7974
:1009A000197993F80780E868240444EA02220A438C
:1009B00042EA0862AA60DCF8002040F827206A6852
:1009C0000137BA42714603F104030EF1040EE5D873
:1009D00001F1080847464B1D881DCA1D01F1090A8F
:1009E00001F10A0B01F10B0901F10C04305CF35C1D
:1009F00016F80E1016F802E02A69000440EA0323F4
:100A00000B4343EA0E63934200F290802B613BB3A9
:100A100005F1140CF3194FF0000E9C785A781978F0
:100A200093F80380A869240444EA02220A4342EAB4
:100A300008626A61DCF8002040F82E202A690EF175
:100A4000010E72453C4603F1040307F10407E4D8A4
:100A500004F1050A04F1060B04F10709B84608344D
:100A600016F80B2016F80A0016F8083016F8097068
:100A7000E969120442EA0022134343EA07678F42FE
:100A80004ED8EF617FB30027BC4605F1200E00234E
:100A90001946301910F8012B9A400833202B41EAEF
:100AA0000201F7D104F104084144884509D2E31C4E
:100AB00033444246013213F8010F03F8010C8A4215
:100AC000F8D3721808F1FF3802F801CC06EB0803DE
:100AD0002B626A6ADEF8003042F82730EB69013792
:100AE000BB420C46D3D8204603B0BDE8F08FA1002E
:100AF000C0680CF0E3FA6C60E860002C7FF448AF4B
:100B00004FF0080847460C244FF00B094FF00A0B32
:100B10004FF0090A0722062005234FF0040E65E76F
:100B2000B900686A0CF0CAFA6862AAE79900A86975
:100B300001930CF0C3FA019BA86167E7D0ED017A3D
:100B400017EE903AC3F3C75270B412B302F5607255
:100B5000140164B2C2F30712F5EEC07AC3F3C340C6
:100B6000F1EE10FA44EA00044FEA43164FF0000099
:100B70004FEAE30548BF62F07F02DB128C71087018
:100B800048708870CE700D7108204B71CA7170BCAE
:100B900070471446E0E700BFD0ED027A17EE903AB6
:100BA000C3F3C752F0B4002A00F0FD8002F5607272
:100BB00015016DB2C2F30712F5EEC07AC3F3C34458
:100BC000F1EE10FA45EA04054FEA43174FF000042E
:100BD0004FEAE30648BF62F07F02DB124B71CA7135
:100BE0008D710C704C708C70CF700E71D0ED037ADB
:100BF00017EE903AC3F3C752002A00F0DE8002F5E8
:100C0000607215016DB2C2F30712F5EEC07AC3F33C
:100C1000C344F1EE10FA45EA04054FEA43174FF0DA
:100C200000044FEAE30648BF62F07F02DB124B7319
:100C3000CA738D730C724C728C72CF720E73D0EDBE
:100C4000047A17EE903AC3F3C752002A00F0B3803B
:100C500002F5607215016DB2C2F30712F5EEC07AAB
:100C6000C3F3C344F1EE10FA45EA04054FEA431713
:100C70004FF000044FEAE30648BF62F07F02DB1248
:100C80004B75CA758D750C744C748C74CF740E755D
:100C9000D0ED067A17EE903AC3F3C752002A00F05F
:100CA000888002F5607215016DB2C2F30712F5EE8D
:100CB000C07AC3F3C344F1EE10FA45EA04054FEAE3
:100CC00043174FF000044FEAE30648BF62F07F028B
:100CD000DB124B77CA778D770C764C768C76CF7695
:100CE0000E77D0ED077A17EE903AC3F3C752002A79
:100CF0005DD002F5607215016DB2C2F30712F5EE18
:100D0000C07AC3F3C344F1EE10FA45EA04054FEA92
:100D100043174FF000044FEAE30648BF62F07F023A
:100D2000DB1281F8253081F8272081F8265081F8E0
:100D3000204081F8214081F8224081F8237081F819
:100D40002460D0ED087A17EE903AC3F3C75262B32D
:100D500002F56072140164B2C2F30712F5EEC07AB4
:100D6000C3F3C340F1EE10FA44EA00044FEA43161D
:100D70004FF000004FEAE30548BF62F07F02DB124C
:100D800081F82E4081F8280081F8290081F82A0096
:100D900081F82B6081F82C50302081F82D3081F8BB
:100DA0002F20F0BC7047154606E71446D6E71546D7
:100DB000A5E715467BE7154650E7154625E700BF32
:100DC000D0ED017A17EE903AC3F3C752F0B4002A7F
:100DD00071D002F5607215016DB2C2F30712F5EE23
:100DE000C07AC3F3C344F1EE10FA45EA04054FEAB2
:100DF00043174FF000044FEAE30648BF62F07F025A
:100E0000DB124B71CA718D710C704C708C70CF708D
:100E10000E71D0ED027A17EE903AC3F3C752002A52
:100E20004DD002F5607215016DB2C2F30712F5EEF6
:100E3000C07AC3F3C344F1EE10FA45EA04054FEA61
:100E400043174FF000044FEAE30648BF62F07F0209
:100E5000DB124B73CA738D730C724C728C72CF722F
:100E60000E73D0ED037A17EE903AC3F3C75222B354
:100E700002F56072140164B2C2F30712F5EEC07A93
:100E8000C3F3C340F1EE10FA44EA00044FEA4316FC
:100E90004FF000004FEAE30548BF62F07F02DB122B
:100EA0008C75087448748874CE740D7518204B7551
:100EB000CA75F0BC7047154691E71446DEE7154643
:100EC000B5E700BFCB785B0930B443600A7943EAE9
:100ED000C20343604A7943EAC22242608B79DB0451
:100EE00003F4F00313434360CC798D79220102F4BB
:100EF000FE6252EA151205D0A2F5607243EAC253AF
:100F00004360CC7924F07F0443EA0463436030BC3F
:100F100008207047CA78520970B4426103460879C4
:100F200042EAC0025A61487942EAC02058618A798F
:100F3000D20402F4F00202435A61CD798E792C0179
:100F400004F4FE6454EA161403F10C0005D0A4F571
:100F5000607442EAC4525A61CD7925F07F0542EAB5
:100F600005625A61CA7A52099A610C7B42EAC4024C
:100F70009A614C7B42EAC4249C618A7BD20402F4CD
:100F8000F00222439A61CD7B8E7B2C0104F4FE6437
:100F900054EA161405D0A4F5607442EAC4529A616A
:100FA000CD7B25F07F0542EA05629A61CA7C520931
:100FB000DA610C7D42EAC402DA614C7D42EAC42463
:100FC000DC618A7DD20402F4F0022243DA61CD7D35
:100FD0008E7D2C0104F4FE6454EA161405D0A4F5A9
:100FE000607442EAC452DA61CD7D25F07F0542EAA1
:100FF0000562DA61CA7E52095A620C7F42EAC40273
:101000005A624C7F42EAC4245C628A7FD20402F4B2
:10101000F00222435A62CD7F8E7F2C0104F4FE64DD
:1010200054EA161405D0A4F5607442EAC4525A6218
:10103000CD7F25F07F0542EA05625A6291F82320B0
:1010400052099A6291F8244042EAC4029A6291F8E5
:10105000254042EAC4249C6291F82620D20402F47E
:10106000F00222439A6291F8275091F826602C01F1
:1010700004F4FE6454EA161406D0A4F5607442EA3F
:10108000C4529A6291F8275025F07F0542EA056222
:101090009A6291F82B205209DA6291F82C4042EAC8
:1010A000C402DA6291F82D4042EAC424DC6291F86D
:1010B0002E20D20402F4F0022243DA6291F82F507B
:1010C00091F82E602C0104F4FE6454EA161406D044
:1010D000A4F5607442EAC452DA6291F82F5025F008
:1010E0007F0542EA0562DA6270BC1B6B184700BFDD
:1010F000CB785B0930B483600A7943EAC20383602A
:101100004A7943EAC22282608B79DB0403F4F0035C
:1011100013438360CC798D79220102F4FE6252EA96
:10112000151205D0A2F5607243EAC2538360CC79F0
:1011300024F07F0443EA04638360CB7A5B09C360D5
:101140000A7B43EAC203C3604A7B43EAC222C2600D
:101150008B7BDB0403F4F0031343C360CC7B8D7BF8
:10116000220102F4FE6252EA151205D0A2F5607265
:1011700043EAC253C360CC7B24F07F0443EA046398
:10118000C360CB7C5B0903610A7D43EAC203036150
:101190004A7D43EAC22202618B7DDB0403F4F00343
:1011A00013430361CC7D8D7D220102F4FE6252EA7D
:1011B000151205D0A2F5607243EAC2530361CC7DDB
:1011C00024F07F0443EA04630361CB7E5B098361FF
:1011D0000A7F43EAC20383614A7F43EAC2228261F3
:1011E0008B7FDB0403F4F00313438361CC7F8D7F9B
:1011F000220102F4FE6252EA151205D0A2F56072D5
:1012000043EAC2538361CC7F24F07F0443EA046342
:10121000836191F823305B09C36191F8242043EA8C
:10122000C203C36191F8252043EAC222C26191F84A
:101230002630DB0403F4F0031343C36191F8274025
:1012400091F82650220102F4FE6252EA151206D0ED
:10125000A2F5607243EAC253C36191F8274024F0BB
:101260007F0443EA0463C36191F82B305B09036296
:1012700091F82C2043EAC203036291F82D2043EA3F
:10128000C222026291F82E30DB0403F4F003134310
:10129000036291F82F4091F82E50220102F4FE6271
:1012A00052EA151206D0A2F5607243EAC2530362F5
:1012B00091F82F4024F07F0443EA0463036230BCBA
:1012C00030207047CB785B0930B443600A7943EA39
:1012D000C20343604A7943EAC22242608B79DB044D
:1012E00003F4F00313434360CC798D79220102F4B7
:1012F000FE6252EA151205D0A2F5607243EAC253AB
:101300004360CC7924F07F0443EA04634360CB7AE2
:101310005B0983600A7B43EAC20383604A7B43EA3A
:10132000C22282608B7BDB0403F4F00313438360EF
:10133000CC7B8D7B220102F4FE6252EA151205D0AD
:10134000A2F5607243EAC2538360CC7B24F07F0431
:1013500043EA04638360CB7C5B09C3600A7D43EA94
:10136000C203C3604A7D43EAC222C2608B7DDB04B4
:1013700003F4F0031343C360CC7D8D7D220102F49E
:10138000FE6252EA151205D0A2F5607243EAC2531A
:10139000C360CC7D24F07F0443EA0463C36030BCA7
:1013A00018207047F0B585B0364A01920368364D73
:1013B000039503228DF808201B6834498B425AD1CB
:1013C00000233821044680F8232205F1300E80F8EE
:1013D000241280F8253280F8263280F8273200F572
:1013E0000A772E460FCE764538607960BA60FB608A
:1013F000354607F11007F4D103CD00227960C223EE
:101400004FF0FF0EFE263D250721386084F820327C
:1014100084F81CE284F81D6284F81E5284F81F22AE
:1014200084F8222284F8211204F2212304F25F209E
:1014300001E013F8011F83420A44FAD1D243144E4B
:1014400084F8602204F21B2504F5187703E009F004
:1014500025FDBD420BD0626815F8011F13681B689B
:10146000B3420846F3D010469847BD42F3D14FF03F
:10147000FF3005B0F0BD01AA072198474FF0FF30BB
:1014800005B0F0BDF01101007014010095140000CA
:101490006D09000063292DE9F04103DD90F8F8742F
:1014A000002F53D0136805460F4610461B6805F2FF
:1014B00023219847C2B2C0F30721561885F81E228F
:1014C00047F30722F643FF234FF0FE0EFCB285F8E8
:1014D0002222421C85F8206285F81F1285F81C32F2
:1014E00085F81DE285F821420DDB00F22221294416
:1014F00005F22123002201E013F8014F9942224412
:10150000FAD1D343DBB22A1800F10807B7F5007F00
:1015100082F823321DDC002F05F5077616DD073033
:10152000DFF83880064405F21B2403E009F0B6FC1E
:10153000B4420BD06A6814F8011F13681B68434556
:101540000846F3D010469847B442F3D13846BDE878
:10155000F0812846BDE8F041FFF724BF6D09000087
:10156000214B10B4D3F8EC20136850681978047834
:10157000507A137A044201EA03011BD0937A03F0F4
:10158000030309B143F0040343F008039910013B3E
:1015900091720D2B0BD8DFE803F021071B070A150A
:1015A0002121150A071B0721D368013BD3605DF891
:1015B000044B7047937A03F003030029E6D043F00D
:1015C0000403E3E7D3685DF8044B023BD360704744
:1015D000D3685DF8044B0233D3607047D3685DF87D
:1015E000044B0133D36070472C1EFF1F214B10B4F6
:1015F0001A681368506819780478507A137A04428C
:1016000001EA03011BD0937A03F0030309B143F00D
:10161000040343F008039910013B91720D2B0BD882
:10162000DFE803F021071B070A152121150A071B14
:101630000721D368013BD3605DF8044B7047937A70
:1016400003F003030029E6D043F00403E3E7D36883
:101650005DF8044B023BD3607047D3685DF8044BE0
:101660000233D3607047D3685DF8044B0133D36015
:10167000704700BF2C1EFF1F214B10B45A6813681F
:10168000506819780478507A137A044201EA030109
:101690001BD0937A03F0030309B143F0040343F032
:1016A00008039910013B91720D2B0BD8DFE803F072
:1016B00021071B070A152121150A071B0721D368DB
:1016C000013BD3605DF8044B7047937A03F003034A
:1016D0000029E6D043F00403E3E7D3685DF8044B48
:1016E000023BD3607047D3685DF8044B0233D3608C
:1016F0007047D3685DF8044B0133D360704700BF77
:101700002C1EFF1F214B10B49A681368506819787B
:101710000478507A137A044201EA03011BD0937AC9
:1017200003F0030309B143F0040343F008039910E5
:10173000013B91720D2B0BD8DFE803F021071B074B
:101740000A152121150A071B0721D368013BD36025
:101750005DF8044B7047937A03F003030029E6D049
:1017600043F00403E3E7D3685DF8044B023BD36026
:101770007047D3685DF8044B0233D3607047D36879
:101780005DF8044B0133D360704700BF2C1EFF1F70
:10179000214B10B4DA681368506819780478507ACD
:1017A000137A044201EA03011BD0937A03F0030386
:1017B00009B143F0040343F008039910013B91720F
:1017C0000D2B0BD8DFE803F021071B070A15212199
:1017D000150A071B0721D368013BD3605DF8044B52
:1017E0007047937A03F003030029E6D043F0040323
:1017F000E3E7D3685DF8044B023BD3607047D368DE
:101800005DF8044B0233D3607047D3685DF8044B36
:101810000133D360704700BF2C1EFF1F214B10B453
:101820001A691368506819780478507A137A044258
:1018300001EA03011BD0937A03F0030309B143F0DB
:10184000040343F008039910013B91720D2B0BD850
:10185000DFE803F021071B070A152121150A071BE2
:101860000721D368013BD3605DF8044B7047937A3E
:1018700003F003030029E6D043F00403E3E7D36851
:101880005DF8044B023BD3607047D3685DF8044BAE
:101890000233D3607047D3685DF8044B0133D360E3
:1018A000704700BF2C1EFF1F214B10B45A691368EC
:1018B000506819780478507A137A044201EA0301D7
:1018C0001BD0937A03F0030309B143F0040343F000
:1018D00008039910013B91720D2B0BD8DFE803F040
:1018E00021071B070A152121150A071B0721D368A9
:1018F000013BD3605DF8044B7047937A03F0030318
:101900000029E6D043F00403E3E7D3685DF8044B15
:10191000023BD3607047D3685DF8044B0233D36059
:101920007047D3685DF8044B0133D360704700BF44
:101930002C1EFF1F214B10B49A6913685068197848
:101940000478507A137A044201EA03011BD0937A97
:1019500003F0030309B143F0040343F008039910B3
:10196000013B91720D2B0BD8DFE803F021071B0719
:101970000A152121150A071B0721D368013BD360F3
:101980005DF8044B7047937A03F003030029E6D017
:1019900043F00403E3E7D3685DF8044B023BD360F4
:1019A0007047D3685DF8044B0233D3607047D36847
:1019B0005DF8044B0133D360704700BF2C1EFF1F3E
:1019C000214B10B4DA691368506819780478507A9A
:1019D000137A044201EA03011BD0937A03F0030354
:1019E00009B143F0040343F008039910013B9172DD
:1019F0000D2B0BD8DFE803F021071B070A15212167
:101A0000150A071B0721D368013BD3605DF8044B1F
:101A10007047937A03F003030029E6D043F00403F0
:101A2000E3E7D3685DF8044B023BD3607047D368AB
:101A30005DF8044B0233D3607047D3685DF8044B04
:101A40000133D360704700BF2C1EFF1F214B10B421
:101A50001A6A1368506819780478507A137A044225
:101A600001EA03011BD0937A03F0030309B143F0A9
:101A7000040343F008039910013B91720D2B0BD81E
:101A8000DFE803F021071B070A152121150A071BB0
:101A90000721D368013BD3605DF8044B7047937A0C
:101AA00003F003030029E6D043F00403E3E7D3681F
:101AB0005DF8044B023BD3607047D3685DF8044B7C
:101AC0000233D3607047D3685DF8044B0133D360B1
:101AD000704700BF2C1EFF1F214B10B45A6A1368B9
:101AE000506819780478507A137A044201EA0301A5
:101AF0001BD0937A03F0030309B143F0040343F0CE
:101B000008039910013B91720D2B0BD8DFE803F00D
:101B100021071B070A152121150A071B0721D36876
:101B2000013BD3605DF8044B7047937A03F00303E5
:101B30000029E6D043F00403E3E7D3685DF8044BE3
:101B4000023BD3607047D3685DF8044B0233D36027
:101B50007047D3685DF8044B0133D360704700BF12
:101B60002C1EFF1F214B10B49A6A13685068197815
:101B70000478507A137A044201EA03011BD0937A65
:101B800003F0030309B143F0040343F00803991081
:101B9000013B91720D2B0BD8DFE803F021071B07E7
:101BA0000A152121150A071B0721D368013BD360C1
:101BB0005DF8044B7047937A03F003030029E6D0E5
:101BC00043F00403E3E7D3685DF8044B023BD360C2
:101BD0007047D3685DF8044B0233D3607047D36815
:101BE0005DF8044B0133D360704700BF2C1EFF1F0C
:101BF000214B10B4DA6A1368506819780478507A67
:101C0000137A044201EA03011BD0937A03F0030321
:101C100009B143F0040343F008039910013B9172AA
:101C20000D2B0BD8DFE803F021071B070A15212134
:101C3000150A071B0721D368013BD3605DF8044BED
:101C40007047937A03F003030029E6D043F00403BE
:101C5000E3E7D3685DF8044B023BD3607047D36879
:101C60005DF8044B0233D3607047D3685DF8044BD2
:101C70000133D360704700BF2C1EFF1F214B10B4EF
:101C80001A6B1368506819780478507A137A0442F2
:101C900001EA03011BD0937A03F0030309B143F077
:101CA000040343F008039910013B91720D2B0BD8EC
:101CB000DFE803F021071B070A152121150A071B7E
:101CC0000721D368013BD3605DF8044B7047937ADA
:101CD00003F003030029E6D043F00403E3E7D368ED
:101CE0005DF8044B023BD3607047D3685DF8044B4A
:101CF0000233D3607047D3685DF8044B0133D3607F
:101D0000704700BF2C1EFF1F214B10B45A6B136885
:101D1000506819780478507A137A044201EA030172
:101D20001BD0937A03F0030309B143F0040343F09B
:101D300008039910013B91720D2B0BD8DFE803F0DB
:101D400021071B070A152121150A071B0721D36844
:101D5000013BD3605DF8044B7047937A03F00303B3
:101D60000029E6D043F00403E3E7D3685DF8044BB1
:101D7000023BD3607047D3685DF8044B0233D360F5
:101D80007047D3685DF8044B0133D360704700BFE0
:101D90002C1EFF1F214B10B49A6B136850681978E2
:101DA0000478507A137A044201EA03011BD0937A33
:101DB00003F0030309B143F0040343F0080399104F
:101DC000013B91720D2B0BD8DFE803F021071B07B5
:101DD0000A152121150A071B0721D368013BD3608F
:101DE0005DF8044B7047937A03F003030029E6D0B3
:101DF00043F00403E3E7D3685DF8044B023BD36090
:101E00007047D3685DF8044B0233D3607047D368E2
:101E10005DF8044B0133D360704700BF2C1EFF1FD9
:101E2000214B10B4DA6B1368506819780478507A33
:101E3000137A044201EA03011BD0937A03F00303EF
:101E400009B143F0040343F008039910013B917278
:101E50000D2B0BD8DFE803F021071B070A15212102
:101E6000150A071B0721D368013BD3605DF8044BBB
:101E70007047937A03F003030029E6D043F004038C
:101E8000E3E7D3685DF8044B023BD3607047D36847
:101E90005DF8044B0233D3607047D3685DF8044BA0
:101EA0000133D360704700BF2C1EFF1F214B10B4BD
:101EB0001A6C1368506819780478507A137A0442BF
:101EC00001EA03011BD0937A03F0030309B143F045
:101ED000040343F008039910013B91720D2B0BD8BA
:101EE000DFE803F021071B070A152121150A071B4C
:101EF0000721D368013BD3605DF8044B7047937AA8
:101F000003F003030029E6D043F00403E3E7D368BA
:101F10005DF8044B023BD3607047D3685DF8044B17
:101F20000233D3607047D3685DF8044B0133D3604C
:101F3000704700BF2C1EFF1F214B10B45A6C136852
:101F4000506819780478507A137A044201EA030140
:101F50001BD0937A03F0030309B143F0040343F069
:101F600008039910013B91720D2B0BD8DFE803F0A9
:101F700021071B070A152121150A071B0721D36812
:101F8000013BD3605DF8044B7047937A03F0030381
:101F90000029E6D043F00403E3E7D3685DF8044B7F
:101FA000023BD3607047D3685DF8044B0233D360C3
:101FB0007047D3685DF8044B0133D360704700BFAE
:101FC0002C1EFF1F214B10B49A6C136850681978AF
:101FD0000478507A137A044201EA03011BD0937A01
:101FE00003F0030309B143F0040343F0080399101D
:101FF000013B91720D2B0BD8DFE803F021071B0783
:102000000A152121150A071B0721D368013BD3605C
:102010005DF8044B7047937A03F003030029E6D080
:1020200043F00403E3E7D3685DF8044B023BD3605D
:102030007047D3685DF8044B0233D3607047D368B0
:102040005DF8044B0133D360704700BF2C1EFF1FA7
:10205000214B10B4DA6C1368506819780478507A00
:10206000137A044201EA03011BD0937A03F00303BD
:1020700009B143F0040343F008039910013B917246
:102080000D2B0BD8DFE803F021071B070A152121D0
:10209000150A071B0721D368013BD3605DF8044B89
:1020A0007047937A03F003030029E6D043F004035A
:1020B000E3E7D3685DF8044B023BD3607047D36815
:1020C0005DF8044B0233D3607047D3685DF8044B6E
:1020D0000133D360704700BF2C1EFF1F214B10B48B
:1020E0001A6D1368506819780478507A137A04428C
:1020F00001EA03011BD0937A03F0030309B143F013
:10210000040343F008039910013B91720D2B0BD887
:10211000DFE803F021071B070A152121150A071B19
:102120000721D368013BD3605DF8044B7047937A75
:1021300003F003030029E6D043F00403E3E7D36888
:102140005DF8044B023BD3607047D3685DF8044BE5
:102150000233D3607047D3685DF8044B0133D3601A
:10216000704700BF2C1EFF1F214B10B45A6D13681F
:10217000506819780478507A137A044201EA03010E
:102180001BD0937A03F0030309B143F0040343F037
:1021900008039910013B91720D2B0BD8DFE803F077
:1021A00021071B070A152121150A071B0721D368E0
:1021B000013BD3605DF8044B7047937A03F003034F
:1021C0000029E6D043F00403E3E7D3685DF8044B4D
:1021D000023BD3607047D3685DF8044B0233D36091
:1021E0007047D3685DF8044B0133D360704700BF7C
:1021F0002C1EFF1F214B10B49A6D1368506819787C
:102200000478507A137A044201EA03011BD0937ACE
:1022100003F0030309B143F0040343F008039910EA
:10222000013B91720D2B0BD8DFE803F021071B0750
:102230000A152121150A071B0721D368013BD3602A
:102240005DF8044B7047937A03F003030029E6D04E
:1022500043F00403E3E7D3685DF8044B023BD3602B
:102260007047D3685DF8044B0233D3607047D3687E
:102270005DF8044B0133D360704700BF2C1EFF1F75
:10228000214B10B4DA6D1368506819780478507ACD
:10229000137A044201EA03011BD0937A03F003038B
:1022A00009B143F0040343F008039910013B917214
:1022B0000D2B0BD8DFE803F021071B070A1521219E
:1022C000150A071B0721D368013BD3605DF8044B57
:1022D0007047937A03F003030029E6D043F0040328
:1022E000E3E7D3685DF8044B023BD3607047D368E3
:1022F0005DF8044B0233D3607047D3685DF8044B3C
:102300000133D360704700BF2C1EFF1F214B10B458
:102310001A6E1368506819780478507A137A044258
:1023200001EA03011BD0937A03F0030309B143F0E0
:10233000040343F008039910013B91720D2B0BD855
:10234000DFE803F021071B070A152121150A071BE7
:102350000721D368013BD3605DF8044B7047937A43
:1023600003F003030029E6D043F00403E3E7D36856
:102370005DF8044B023BD3607047D3685DF8044BB3
:102380000233D3607047D3685DF8044B0133D360E8
:10239000704700BF2C1EFF1F214B10B45A6E1368EC
:1023A000506819780478507A137A044201EA0301DC
:1023B0001BD0937A03F0030309B143F0040343F005
:1023C00008039910013B91720D2B0BD8DFE803F045
:1023D00021071B070A152121150A071B0721D368AE
:1023E000013BD3605DF8044B7047937A03F003031D
:1023F0000029E6D043F00403E3E7D3685DF8044B1B
:10240000023BD3607047D3685DF8044B0233D3605E
:102410007047D3685DF8044B0133D360704700BF49
:102420002C1EFF1F214B10B49A6E13685068197848
:102430000478507A137A044201EA03011BD0937A9C
:1024400003F0030309B143F0040343F008039910B8
:10245000013B91720D2B0BD8DFE803F021071B071E
:102460000A152121150A071B0721D368013BD360F8
:102470005DF8044B7047937A03F003030029E6D01C
:1024800043F00403E3E7D3685DF8044B023BD360F9
:102490007047D3685DF8044B0233D3607047D3684C
:1024A0005DF8044B0133D360704700BF2C1EFF1F43
:1024B000214B10B4DA6E1368506819780478507A9A
:1024C000137A044201EA03011BD0937A03F0030359
:1024D00009B143F0040343F008039910013B9172E2
:1024E0000D2B0BD8DFE803F021071B070A1521216C
:1024F000150A071B0721D368013BD3605DF8044B25
:102500007047937A03F003030029E6D043F00403F5
:10251000E3E7D3685DF8044B023BD3607047D368B0
:102520005DF8044B0233D3607047D3685DF8044B09
:102530000133D360704700BF2C1EFF1F214B10B426
:102540001A6F1368506819780478507A137A044225
:1025500001EA03011BD0937A03F0030309B143F0AE
:10256000040343F008039910013B91720D2B0BD823
:10257000DFE803F021071B070A152121150A071BB5
:102580000721D368013BD3605DF8044B7047937A11
:1025900003F003030029E6D043F00403E3E7D36824
:1025A0005DF8044B023BD3607047D3685DF8044B81
:1025B0000233D3607047D3685DF8044B0133D360B6
:1025C000704700BF2C1EFF1F214B10B45A6F1368B9
:1025D000506819780478507A137A044201EA0301AA
:1025E0001BD0937A03F0030309B143F0040343F0D3
:1025F00008039910013B91720D2B0BD8DFE803F013
:1026000021071B070A152121150A071B0721D3687B
:10261000013BD3605DF8044B7047937A03F00303EA
:102620000029E6D043F00403E3E7D3685DF8044BE8
:10263000023BD3607047D3685DF8044B0233D3602C
:102640007047D3685DF8044B0133D360704700BF17
:102650002C1EFF1F214B10B49A6F13685068197815
:102660000478507A137A044201EA03011BD0937A6A
:1026700003F0030309B143F0040343F00803991086
:10268000013B91720D2B0BD8DFE803F021071B07EC
:102690000A152121150A071B0721D368013BD360C6
:1026A0005DF8044B7047937A03F003030029E6D0EA
:1026B00043F00403E3E7D3685DF8044B023BD360C7
:1026C0007047D3685DF8044B0233D3607047D3681A
:1026D0005DF8044B0133D360704700BF2C1EFF1F11
:1026E000214B10B4DA6F1368506819780478507A67
:1026F000137A044201EA03011BD0937A03F0030327
:1027000009B143F0040343F008039910013B9172AF
:102710000D2B0BD8DFE803F021071B070A15212139
:10272000150A071B0721D368013BD3605DF8044BF2
:102730007047937A03F003030029E6D043F00403C3
:10274000E3E7D3685DF8044B023BD3607047D3687E
:102750005DF8044B0233D3607047D3685DF8044BD7
:102760000133D360704700BF2C1EFF1F214B10B4F4
:10277000D3F880201368506819780478507A137A57
:10278000044201EA03011BD0937A03F0030309B169
:1027900043F0040343F008039910013B91720D2BA1
:1027A0000BD8DFE803F021071B070A152121150AC2
:1027B000071B0721D368013BD3605DF8044B7047CA
:1027C000937A03F003030029E6D043F00403E3E720
:1027D000D3685DF8044B023BD3607047D3685DF863
:1027E000044B0233D3607047D3685DF8044B013368
:1027F000D36070472C1EFF1F214B10B4D3F88420E8
:102800001368506819780478507A137A044201EA00
:1028100003011BD0937A03F0030309B143F00403CF
:1028200043F008039910013B91720D2B0BD8DFE8A0
:1028300003F021071B070A152121150A071B072191
:10284000D368013BD3605DF8044B7047937A03F083
:1028500003030029E6D043F00403E3E7D3685DF8FF
:10286000044B023BD3607047D3685DF8044B0233DE
:10287000D3607047D3685DF8044B0133D360704771
:102880002C1EFF1F214B10B4D3F88820136850680A
:1028900019780478507A137A044201EA03011BD0B4
:1028A000937A03F0030309B143F0040343F00803F0
:1028B0009910013B91720D2B0BD8DFE803F0210733
:1028C0001B070A152121150A071B0721D368013BA5
:1028D000D3605DF8044B7047937A03F0030300293B
:1028E000E6D043F00403E3E7D3685DF8044B023B12
:1028F000D3607047D3685DF8044B0233D3607047F0
:10290000D3685DF8044B0133D36070472C1EFF1F62
:10291000214B10B4D3F88C201368506819780478D0
:10292000507A137A044201EA03011BD0937A03F030
:10293000030309B143F0040343F008039910013B7A
:1029400091720D2B0BD8DFE803F021071B070A1546
:102950002121150A071B0721D368013BD3605DF8CD
:10296000044B7047937A03F003030029E6D043F049
:102970000403E3E7D3685DF8044B023BD360704780
:10298000D3685DF8044B0233D3607047D3685DF8B9
:10299000044B0133D36070472C1EFF1F214B10B432
:1029A000D3F890201368506819780478507A137A15
:1029B000044201EA03011BD0937A03F0030309B137
:1029C00043F0040343F008039910013B91720D2B6F
:1029D0000BD8DFE803F021071B070A152121150A90
:1029E000071B0721D368013BD3605DF8044B704798
:1029F000937A03F003030029E6D043F00403E3E7EE
:102A0000D3685DF8044B023BD3607047D3685DF830
:102A1000044B0233D3607047D3685DF8044B013335
:102A2000D36070472C1EFF1F214B10B4D3F89420A5
:102A30001368506819780478507A137A044201EACE
:102A400003011BD0937A03F0030309B143F004039D
:102A500043F008039910013B91720D2B0BD8DFE86E
:102A600003F021071B070A152121150A071B07215F
:102A7000D368013BD3605DF8044B7047937A03F051
:102A800003030029E6D043F00403E3E7D3685DF8CD
:102A9000044B023BD3607047D3685DF8044B0233AC
:102AA000D3607047D3685DF8044B0133D36070473F
:102AB0002C1EFF1F214B10B4D3F8982013685068C8
:102AC00019780478507A137A044201EA03011BD082
:102AD000937A03F0030309B143F0040343F00803BE
:102AE0009910013B91720D2B0BD8DFE803F0210701
:102AF0001B070A152121150A071B0721D368013B73
:102B0000D3605DF8044B7047937A03F00303002908
:102B1000E6D043F00403E3E7D3685DF8044B023BDF
:102B2000D3607047D3685DF8044B0233D3607047BD
:102B3000D3685DF8044B0133D36070472C1EFF1F30
:102B4000214B10B4D3F89C2013685068197804788E
:102B5000507A137A044201EA03011BD0937A03F0FE
:102B6000030309B143F0040343F008039910013B48
:102B700091720D2B0BD8DFE803F021071B070A1514
:102B80002121150A071B0721D368013BD3605DF89B
:102B9000044B7047937A03F003030029E6D043F017
:102BA0000403E3E7D3685DF8044B023BD36070474E
:102BB000D3685DF8044B0233D3607047D3685DF887
:102BC000044B0133D36070472C1EFF1F214B10B400
:102BD000D3F8A0201368506819780478507A137AD3
:102BE000044201EA03011BD0937A03F0030309B105
:102BF00043F0040343F008039910013B91720D2B3D
:102C00000BD8DFE803F021071B070A152121150A5D
:102C1000071B0721D368013BD3605DF8044B704765
:102C2000937A03F003030029E6D043F00403E3E7BB
:102C3000D3685DF8044B023BD3607047D3685DF8FE
:102C4000044B0233D3607047D3685DF8044B013303
:102C5000D36070472C1EFF1F214B10B4D3F8A42063
:102C60001368506819780478507A137A044201EA9C
:102C700003011BD0937A03F0030309B143F004036B
:102C800043F008039910013B91720D2B0BD8DFE83C
:102C900003F021071B070A152121150A071B07212D
:102CA000D368013BD3605DF8044B7047937A03F01F
:102CB00003030029E6D043F00403E3E7D3685DF89B
:102CC000044B023BD3607047D3685DF8044B02337A
:102CD000D3607047D3685DF8044B0133D36070470D
:102CE0002C1EFF1F214B10B4D3F8A8201368506886
:102CF00019780478507A137A044201EA03011BD050
:102D0000937A03F0030309B143F0040343F008038B
:102D10009910013B91720D2B0BD8DFE803F02107CE
:102D20001B070A152121150A071B0721D368013B40
:102D3000D3605DF8044B7047937A03F003030029D6
:102D4000E6D043F00403E3E7D3685DF8044B023BAD
:102D5000D3607047D3685DF8044B0233D36070478B
:102D6000D3685DF8044B0133D36070472C1EFF1FFE
:102D7000214B10B4D3F8AC2013685068197804784C
:102D8000507A137A044201EA03011BD0937A03F0CC
:102D9000030309B143F0040343F008039910013B16
:102DA00091720D2B0BD8DFE803F021071B070A15E2
:102DB0002121150A071B0721D368013BD3605DF869
:102DC000044B7047937A03F003030029E6D043F0E5
:102DD0000403E3E7D3685DF8044B023BD36070471C
:102DE000D3685DF8044B0233D3607047D3685DF855
:102DF000044B0133D36070472C1EFF1F214B10B4CE
:102E0000D3F8B0201368506819780478507A137A90
:102E1000044201EA03011BD0937A03F0030309B1D2
:102E200043F0040343F008039910013B91720D2B0A
:102E30000BD8DFE803F021071B070A152121150A2B
:102E4000071B0721D368013BD3605DF8044B704733
:102E5000937A03F003030029E6D043F00403E3E789
:102E6000D3685DF8044B023BD3607047D3685DF8CC
:102E7000044B0233D3607047D3685DF8044B0133D1
:102E8000D36070472C1EFF1F214B10B4D3F8B42021
:102E90001368506819780478507A137A044201EA6A
:102EA00003011BD0937A03F0030309B143F0040339
:102EB00043F008039910013B91720D2B0BD8DFE80A
:102EC00003F021071B070A152121150A071B0721FB
:102ED000D368013BD3605DF8044B7047937A03F0ED
:102EE00003030029E6D043F00403E3E7D3685DF869
:102EF000044B023BD3607047D3685DF8044B023348
:102F0000D3607047D3685DF8044B0133D3607047DA
:102F10002C1EFF1F214B10B4D3F8B8201368506843
:102F200019780478507A137A044201EA03011BD01D
:102F3000937A03F0030309B143F0040343F0080359
:102F40009910013B91720D2B0BD8DFE803F021079C
:102F50001B070A152121150A071B0721D368013B0E
:102F6000D3605DF8044B7047937A03F003030029A4
:102F7000E6D043F00403E3E7D3685DF8044B023B7B
:102F8000D3607047D3685DF8044B0233D360704759
:102F9000D3685DF8044B0133D36070472C1EFF1FCC
:102FA000214B10B4D3F8BC2013685068197804780A
:102FB000507A137A044201EA03011BD0937A03F09A
:102FC000030309B143F0040343F008039910013BE4
:102FD00091720D2B0BD8DFE803F021071B070A15B0
:102FE0002121150A071B0721D368013BD3605DF837
:102FF000044B7047937A03F003030029E6D043F0B3
:103000000403E3E7D3685DF8044B023BD3607047E9
:10301000D3685DF8044B0233D3607047D3685DF822
:10302000044B0133D36070472C1EFF1F214B10B49B
:10303000D3F8C0201368506819780478507A137A4E
:10304000044201EA03011BD0937A03F0030309B1A0
:1030500043F0040343F008039910013B91720D2BD8
:103060000BD8DFE803F021071B070A152121150AF9
:10307000071B0721D368013BD3605DF8044B704701
:10308000937A03F003030029E6D043F00403E3E757
:10309000D3685DF8044B023BD3607047D3685DF89A
:1030A000044B0233D3607047D3685DF8044B01339F
:1030B000D36070472C1EFF1F214B10B4D3F8C420DF
:1030C0001368506819780478507A137A044201EA38
:1030D00003011BD0937A03F0030309B143F0040307
:1030E00043F008039910013B91720D2B0BD8DFE8D8
:1030F00003F021071B070A152121150A071B0721C9
:10310000D368013BD3605DF8044B7047937A03F0BA
:1031100003030029E6D043F00403E3E7D3685DF836
:10312000044B023BD3607047D3685DF8044B023315
:10313000D3607047D3685DF8044B0133D3607047A8
:103140002C1EFF1F214B10B4D3F8C8201368506801
:1031500019780478507A137A044201EA03011BD0EB
:10316000937A03F0030309B143F0040343F0080327
:103170009910013B91720D2B0BD8DFE803F021076A
:103180001B070A152121150A071B0721D368013BDC
:10319000D3605DF8044B7047937A03F00303002972
:1031A000E6D043F00403E3E7D3685DF8044B023B49
:1031B000D3607047D3685DF8044B0233D360704727
:1031C000D3685DF8044B0133D36070472C1EFF1F9A
:1031D000214B10B4D3F8CC201368506819780478C8
:1031E000507A137A044201EA03011BD0937A03F068
:1031F000030309B143F0040343F008039910013BB2
:1032000091720D2B0BD8DFE803F021071B070A157D
:103210002121150A071B0721D368013BD3605DF804
:10322000044B7047937A03F003030029E6D043F080
:103230000403E3E7D3685DF8044B023BD3607047B7
:10324000D3685DF8044B0233D3607047D3685DF8F0
:10325000044B0133D36070472C1EFF1F214B10B469
:10326000D3F8D0201368506819780478507A137A0C
:10327000044201EA03011BD0937A03F0030309B16E
:1032800043F0040343F008039910013B91720D2BA6
:103290000BD8DFE803F021071B070A152121150AC7
:1032A000071B0721D368013BD3605DF8044B7047CF
:1032B000937A03F003030029E6D043F00403E3E725
:1032C000D3685DF8044B023BD3607047D3685DF868
:1032D000044B0233D3607047D3685DF8044B01336D
:1032E000D36070472C1EFF1F214B10B4D3F8D4209D
:1032F0001368506819780478507A137A044201EA06
:1033000003011BD0937A03F0030309B143F00403D4
:1033100043F008039910013B91720D2B0BD8DFE8A5
:1033200003F021071B070A152121150A071B072196
:10333000D368013BD3605DF8044B7047937A03F088
:1033400003030029E6D043F00403E3E7D3685DF804
:10335000044B023BD3607047D3685DF8044B0233E3
:10336000D3607047D3685DF8044B0133D360704776
:103370002C1EFF1F214B10B4D3F8D82013685068BF
:1033800019780478507A137A044201EA03011BD0B9
:10339000937A03F0030309B143F0040343F00803F5
:1033A0009910013B91720D2B0BD8DFE803F0210738
:1033B0001B070A152121150A071B0721D368013BAA
:1033C000D3605DF8044B7047937A03F00303002940
:1033D000E6D043F00403E3E7D3685DF8044B023B17
:1033E000D3607047D3685DF8044B0233D3607047F5
:1033F000D3685DF8044B0133D36070472C1EFF1F68
:10340000214B10B4D3F8DC20136850681978047885
:10341000507A137A044201EA03011BD0937A03F035
:10342000030309B143F0040343F008039910013B7F
:1034300091720D2B0BD8DFE803F021071B070A154B
:103440002121150A071B0721D368013BD3605DF8D2
:10345000044B7047937A03F003030029E6D043F04E
:103460000403E3E7D3685DF8044B023BD360704785
:10347000D3685DF8044B0233D3607047D3685DF8BE
:10348000044B0133D36070472C1EFF1F214B10B437
:10349000D3F8E0201368506819780478507A137ACA
:1034A000044201EA03011BD0937A03F0030309B13C
:1034B00043F0040343F008039910013B91720D2B74
:1034C0000BD8DFE803F021071B070A152121150A95
:1034D000071B0721D368013BD3605DF8044B70479D
:1034E000937A03F003030029E6D043F00403E3E7F3
:1034F000D3685DF8044B023BD3607047D3685DF836
:10350000044B0233D3607047D3685DF8044B01333A
:10351000D36070472C1EFF1F214B10B4D3F8E4205A
:103520001368506819780478507A137A044201EAD3
:1035300003011BD0937A03F0030309B143F00403A2
:1035400043F008039910013B91720D2B0BD8DFE873
:1035500003F021071B070A152121150A071B072164
:10356000D368013BD3605DF8044B7047937A03F056
:1035700003030029E6D043F00403E3E7D3685DF8D2
:10358000044B023BD3607047D3685DF8044B0233B1
:10359000D3607047D3685DF8044B0133D360704744
:1035A0002C1EFF1F214B10B4D3F8E820136850687D
:1035B00019780478507A137A044201EA03011BD087
:1035C000937A03F0030309B143F0040343F00803C3
:1035D0009910013B91720D2B0BD8DFE803F0210706
:1035E0001B070A152121150A071B0721D368013B78
:1035F000D3605DF8044B7047937A03F0030300290E
:10360000E6D043F00403E3E7D3685DF8044B023BE4
:10361000D3607047D3685DF8044B0233D3607047C2
:10362000D3685DF8044B0133D36070472C1EFF1F35
:1036300008B50B463B2800F2C682DFE810F0BB025B
:10364000B202A902A00297028E0285027C027302D6
:103650006A02610258024F0246023D0234022B0206
:103660002202190210020702AE01A5019C0193017A
:103670008A01810178016F0166015D0154014A01EF
:10368000400136012C01220118010E010401FA004B
:10369000F000E600DC00D200C800BE00B400AA00C2
:1036A000A00096008C00820078006E0064005A0032
:1036B000500046003C00BD4ABD49C2F8EC303B20FA
:1036C000042206F017F9012008BDB84AB949C2F82A
:1036D000E8303A20042206F00DF9012008BDB34A73
:1036E000B549C2F8E4303920042206F003F901207C
:1036F00008BDAE4AB149C2F8E0303820042206F0D5
:10370000F9F8012008BDA94AAD49C2F8DC303720DC
:10371000042206F0EFF8012008BDA44AA949C2F826
:10372000D8303620042206F0E5F8012008BD9F4A73
:10373000A549C2F8D4303520042206F0DBF8012078
:1037400008BD9A4AA149C2F8D0303420042206F0BC
:10375000D1F8012008BD954A9D49C2F8CC303320EC
:10376000042206F0C7F8012008BD904A9949C2F822
:10377000C8303220042206F0BDF8012008BD8B4A73
:103780009549C2F8C4303120042206F0B3F8012074
:1037900008BD864A9149C2F8C0303020042206F0A4
:1037A000A9F8012008BD814A8D49C2F8BC302F20FC
:1037B000042206F09FF8012008BD7C4A8949C2F81E
:1037C000B8302E20042206F095F8012008BD774A73
:1037D0008549C2F8B4302D20042206F08BF8012070
:1037E00008BD724A8149C2F8B0302C20042206F08C
:1037F00081F8012008BD6D4A7D49C2F8AC302B200C
:10380000042206F077F8012008BD684A7949C2F819
:10381000A8302A20042206F06DF8012008BD634A72
:103820007549C2F8A4302920042206F063F801206B
:1038300008BD5E4A7149C2F8A0302820042206F073
:1038400059F8012008BD594A6D49C2F89C3027201B
:10385000042206F04FF8012008BD544A6949C2F815
:1038600098302620042206F045F8012008BD4F4A72
:103870006549C2F894302520042206F03BF8012067
:1038800008BD4A4A6149C2F890302420042206F05B
:1038900031F8012008BD454A5D49C2F88C3023202B
:1038A000042206F027F8012008BD404A5949C2F811
:1038B00088302220042206F01DF8012008BD3B4A72
:1038C0005549C2F884302120042206F013F8012063
:1038D00008BD364A5149C2F880302020042206F043
:1038E00009F8012008BD314A4D49D3671F20042241
:1038F00006F000F8012008BD2C4A4A4993671E20B3
:10390000042205F0F7FF012008BD284A4649536705
:103910001D20042205F0EEFF012008BD234A434983
:1039200013671C20042205F0E5FF012008BD1F4A93
:103930003F49D3661B20042205F0DCFF012008BDAF
:103940001A4A3C4993661A20042205F0D3FF01204D
:1039500008BD164A384953661920042205F0CAFFEB
:10396000012008BD114A354913661820042205F0CC
:10397000C1FF012008BD0D4A3149D365172004223B
:1039800005F0B8FF012008BD084A2E4993651620AE
:10399000042205F0AFFF012008BD044A2A495365FF
:1039A0001520042205F0A6FF012008BD2C1EFF1FD4
:1039B00061150000A5350000193500008D340000A8
:1039C0000134000075330000E93200005D32000070
:1039D000D131000045310000B93000002D30000029
:1039E000A12F0000152F0000892E0000FD2D0000E2
:1039F000712D0000E52C0000592C0000CD2B00009B
:103A0000412B0000B52A0000292A00009D29000052
:103A10001129000085280000F92700006D2700000B
:103A2000E126000055260000C92500003D250000C4
:103A3000B124000025240000992300000D2300007C
:103A400081220000F5210000692100005F4A6049E1
:103A500013651420042205F04DFF012008BD5B4AC8
:103A60005C49D3641320042205F044FF012008BD03
:103A7000564A594993641220042205F03BFF012065
:103A800008BD524A554953641120042205F032FF03
:103A9000012008BD4D4A524913641020042205F04C
:103AA00029FF012008BD494A4E49D3630F20042253
:103AB00005F020FF012008BD444A4B4993630E20C6
:103AC000042205F017FF012008BD404A474953630F
:103AD0000D20042205F00EFF012008BD3B4A444999
:103AE00013630C20042205F005FF012008BD374AAE
:103AF0004049D3620B20042205F0FCFE012008BDE2
:103B0000324A3D4993620A20042205F0F3FE012067
:103B100008BD2E4A394953620920042205F0EAFE05
:103B2000012008BD294A364913620820042205F005
:103B3000E1FE012008BD254A3249D3610720042255
:103B400005F0D8FE012008BD204A2F4993610620C8
:103B5000042205F0CFFE012008BD1C4A2B49536109
:103B60000520042205F0C6FE012008BD174A284999
:103B700013610422104605F0BDFE012008BD134A62
:103B80002449D3600320042205F0B4FE012008BDBF
:103B90000E4A214993600220042205F0ABFE012069
:103BA00008BD0A4A1D4953600120042205F0A2FE07
:103BB000012008BD054A1A4913600020042205F0BF
:103BC00099FE012008BD002008BD00BF2C1EFF1F6C
:103BD000DD20000051200000C51F0000391F00003B
:103BE000AD1E0000211E0000951D0000091D0000F3
:103BF0007D1C0000F11B0000651B0000D91A0000AD
:103C00004D1A0000C119000035190000A918000064
:103C10001D1800009117000005170000791600001C
:103C2000ED150000F8B5044616460D46084602217B
:103C30001F4606F077F83046022106F073F8AE49C9
:103C4000AE4A51F835002760012300F50077E760A0
:103C5000237551F83610637501F500770023A361D1
:103C600027611346013BFDD190F8003291F8002204
:103C700003F00103D20744BF43F00203DBB2A37594
:103C800004F10C073B2D00F2B582DFE815F0AA0223
:103C9000A10298028F0286027D0274026B02620208
:103CA0005902500247023E0235022C0223021A0238
:103CB00011020802FF01F601ED01E401DB01D2016E
:103CC000C901C001B701AE01A5019C0193018901A1
:103CD0007F0175016B012B01210117010D0103010A
:103CE000F900EF00E500DB00D100C700BD00B30024
:103CF000A9009F0095008B00810077006D00630094
:103D000059004F003C007E4B7E49C3F8EC70042202
:103D10003B2005F0EFFD0123237739463046FFF7BE
:103D200087FC237F184420772046F8BD744B7649E2
:103D3000C3F8E87004223A2005F0DCFD0123EBE72C
:103D40006F4B7249C3F8E4700422392005F0D2FDAC
:103D50000123E1E76A4B6E49C3F8E0700422382082
:103D600005F0C8FD0123D7E7654B6A49C3F8DC704D
:103D70000422372005F0BEFD0123CDE7604B6649E4
:103D8000C3F8D8700422362005F0B4FD0123C3E740
:103D90005B4B6249C3F8D4700422352005F0AAFDBC
:103DA0000123B9E7564B5E49C3F8D0700422342092
:103DB00005F0A0FD0123AFE7514B5A49C3F8CC7081
:103DC0000422332005F096FD0123A5E74C4B56490C
:103DD000C3F8C8700422322005F08CFD01239BE754
:103DE000474B5249C3F8C4700422312005F082FDCC
:103DF000012391E7424B4E49C3F8C07004223020A2
:103E000005F078FD012387E73D4B4A49C3F8BC70B4
:103E100004222F2005F06EFD01237DE7384B464933
:103E2000C3F8B87004222E2005F064FD012373E767
:103E3000334B4249C3F8B47004222D2005F05AFDDB
:103E4000012369E72E4B3E49C3F8B07004222C20B1
:103E500005F050FD01235FE7294B3A49C3F8AC70E8
:103E600004222B2005F046FD012355E7244B36495B
:103E7000C3F8A87004222A2005F03CFD01234BE77B
:103E80001F4B3249C3F8A4700422292005F032FDEB
:103E9000012341E71A4B2E49C3F8A07004222820C1
:103EA00005F028FD012337E7154B2A49C3F89C701C
:103EB0000422272005F01EFD01232DE7104B264983
:103EC000C3F898700422262005F014FD012323E78F
:103ED0000B4B2249C3F894700422252005F00AFDFB
:103EE000012319E7064B1E49C3F8907004222420D1
:103EF00005F000FD01230FE70016010080380100E6
:103F00002C1EFF1F61150000A535000019350000AB
:103F10008D3400000134000075330000E9320000E8
:103F20005D320000D131000045310000B9300000A1
:103F30002D300000A12F0000152F0000892E000059
:103F4000FD2D0000712D0000E52C0000592C000013
:103F5000CD2B0000412B0000B52A0000292A0000CB
:103F60009D290000A44BA549C3F88C70042223208E
:103F700005F0C0FC0123CFE69F4BA149C3F8887030
:103F80000422222005F0B6FC0123C5E69A4B9D4988
:103F9000C3F884700422212005F0ACFC0123BBE6A9
:103FA000954B9949C3F880700422202005F0A2FCAB
:103FB0000123B1E6904B9549DF6704221F2005F0ED
:103FC00099FC0123A8E68C4B91499F6704221E208F
:103FD00005F090FC01239FE6874B8E495F67042222
:103FE0001D2005F087FC012396E6834B8A491F6755
:103FF00004221C2005F07EFC01238DE67E4B8749C0
:10400000DF6604221B2005F075FC012384E67A4B51
:1040100083499F6604221A2005F06CFC01237BE68D
:10402000754B80495F660422192005F063FC01236B
:1040300072E6714B7C491F660422182005F05AFC79
:10404000012369E66C4B7949DF650422172005F0EE
:1040500051FC012360E6684B75499F6504221620D8
:1040600005F048FC012357E6634B72495F65042263
:10407000152005F03FFC01234EE65F4B6E491F659E
:104080000422142005F036FC012345E65A4B6B4907
:10409000DF640422132005F02DFC01233CE6564B7F
:1040A00067499F640422122005F024FC012333E6B3
:1040B000514B64495F640422112005F01BFC01236D
:1040C0002AE64D4B60491F640422102005F012FCC3
:1040D000012321E6484B5D49DF6304220F2005F0F0
:1040E00009FC012318E6444B59499F6304220E2022
:1040F00005F000FC01230FE63F4B56495F630422A5
:104100000D2005F0F7FB012306E63B4B52491F63E8
:1041100004220C2005F0EEFB0123FDE5364B4F4950
:10412000DF6204220B2005F0E5FB0123F4E5324BAE
:104130004B499F6204220A2005F0DCFB0123EBE5DA
:104140002D4B48495F620422092005F0D3FB01236F
:10415000E2E5294B44491F620422082005F0CAFB0E
:104160000123D9E5244B4149DF610422072005F0F2
:10417000C1FB0123D0E5204B3D499F61042206206D
:1041800005F0B8FB0123C7E51B4B3A495F610422E8
:10419000052005F0AFFB0123BEE5174B36491F6133
:1041A0000422104605F0A6FB0123B5E5124B334966
:1041B000DF600422032005F09DFB0123ACE50E4BDC
:1041C0002F499F600422022005F094FB0123A3E500
:1041D000094B2C495F600422012005F08BFB012371
:1041E0009AE5054B28491F600422002005F082FB58
:1041F000012391E500238FE52C1EFF1F11290000EC
:1042000085280000F92700006D270000E126000046
:1042100055260000C92500003D250000B1240000FE
:1042200025240000992300000D23000081220000B6
:10423000F521000069210000DD2000005120000070
:10424000C51F0000391F0000AD1E0000211E000028
:10425000951D0000091D00007D1C0000F11B0000E1
:10426000651B0000D91A00004D1A0000C11900009A
:1042700035190000A91800001D1800009117000052
:104280000517000079160000ED1500002DE9F04F2C
:10429000072193B09848994C04F0B8FA5A219648EF
:1042A00004F0BAFA0121112005F03CFD01210E2095
:1042B00005F038FD0121112005F02EFD01210E2011
:1042C00005F02AFD8E4804F0D9FE00234FF4614228
:1042D000A260C4F8E43404F27C42C4F8E834C4F8C0
:1042E000F034C4F8EC3402E00133192B0AD052F850
:1042F000041F0029F8D103F59071824A44F8212067
:1043000064335360804A002302E00133192B0BD041
:1043100052F8041F0029F8D17C4A04EB83017D3355
:10432000C1F81C249360D460774A002302E0013373
:10433000192B0BD052F8041F0029F8D1744A04EB52
:1043400083017D33C1F81C249360D4606E4A00233E
:1043500002E00133192B0BD052F8041F0029F8D1C9
:104360006C4A04EB83017D33C1F81C249360D46054
:10437000654A002302E00133192B0BD052F8041FC9
:104380000029F8D1644A04EB83017D33C1F81C2471
:104390009360D4605C4A002302E00133192B0BD0F8
:1043A00052F8041F0029F8D15C4A04EB83017D33E5
:1043B000C1F81C249360D460534A002302E0013307
:1043C000192B0BD052F8041F0029F8D1544A04EBE2
:1043D00083017D33C1F81C249360D4604A4A0023D2
:1043E00002E00133192B0BD052F8041F0029F8D139
:1043F0004C4A04EB83017D33C1F81C249360D460E4
:10440000414A002302E00133192B0BD052F8041F5C
:104410000029F8D1444A04EB83017D33C1F81C2400
:104420009360D460384A002302E00133192B0BD08B
:1044300052F8041F0029F8D13C4A04EB83017D3374
:10444000C1F81C249360D46094F8F8342B4DDFF845
:10445000E4B0374EDFF8E0900093009B002B40F073
:10446000248233680793DDF81CA0D4F8003542F6A7
:10447000F822C3EB0A03934284BF9DF8003085F80D
:10448000F834D4F8E43433B1D5F804359A4584BF10
:104490000023C5F8E434A2693AB133680B930B9B4F
:1044A000CAEB03039A42C0F0F782606803685B6955
:1044B0004B4540F08C8106F007FC0028C0F28B8150
:1044C000D4F8F434D4F8E4240344072AC4F8F434C8
:1044D00000F0398292BBFF2800F0488233680A93CB
:1044E0000A9B41F28831CAEB03038B42D3D9034BB9
:1044F00083F8F824B5E700BF1417FF1F5017FF1FFC
:10450000901DFF1F6C16FF1F681BFF1F981DFF1FCC
:10451000481DFF1F2C16FF1F1C17FF1F1416FF1F1F
:10452000AC15FF1F3017FF1FC01CFF1FE415FF1F36
:104530002C1FFF1F6D09000055070000012A00F025
:104540001D82022A00F06D82032A00F07582042A7F
:1045500000F07C82052A00F08882062A00F08D8215
:10456000082A98D1BE4A1A4000239A42C4F8E4347B
:10457000C0F29C82FF2A8ED1D4F8EC34002B00F0DC
:1045800003840A2B00F09D82062B00F0EB820B2B9C
:1045900000F09182BC3355F82330002B3FF47BAF01
:1045A0001A68B04912688A4240F0C082EA7F520914
:1045B0005A6195F8201042EAC1025A6195F821101B
:1045C00042EAC1225A6195F82210C90401F4F001AF
:1045D0000A435A6195F8237095F822E0380100F4F7
:1045E000FE6151EA1E1103F10C0000F06882A1F592
:1045F000607142EAC1525A6195F8231021F07F019F
:1046000042EA01625A6194F8272052099A6194F8AB
:10461000281042EAC1029A6194F8291042EAC122A4
:104620009A6194F82A10C90401F4F0010A439A61CE
:1046300094F82BE094F82AC04FEA0E1707F4FE61B5
:1046400051EA1C1100F08C83A1F5607142EAC1525D
:104650009A6195F82B1021F07F0142EA01629A617C
:1046600094F82F205209DA6194F8301042EAC1021E
:10467000DA6194F8311042EAC122DA6194F832101A
:10468000C90401F4F0010A43DA6194F833E094F8C4
:1046900032C04FEA0E1707F4FE6151EA1C1100F018
:1046A0005D83A1F5607142EAC152DA6195F8331079
:1046B00021F07F0142EA0162DA6194F83720520961
:1046C0005A6294F8381042EAC1025A6294F83910DA
:1046D00042EAC1225A6294F83A10C90401F4F00186
:1046E0000A435A6294F83BE094F83AC04FEA0E1736
:1046F00007F4FE6151EA1C1100F02E83A1F56071F0
:1047000042EAC1525A6295F83B1021F07F0142EA19
:1047100001625A6294F83F2052099A6294F840105C
:1047200042EAC1029A6294F8411042EAC1229A62B6
:1047300094F84210C90401F4F0010A439A6294F813
:1047400043E094F842C04FEA0E1707F4FE6151EAC5
:104750001C1100F0FF82A1F5607142EAC1529A6219
:1047600095F8431021F07F0142EA01629A6294F8C1
:1047700047205209DA6294F8481042EAC102DA622C
:1047800094F8491042EAC122DA6294F84A10C90446
:1047900001F4F0010A43DA6294F84BE094F84AC05D
:1047A0004FEA0E1707F4FE6151EA1C1100F0C281B6
:1047B000A1F5607142EAC152DA6295F84B1021F01E
:1047C0007F0142EA0162DA621B6B984763E6984711
:1047D0000028BFF675AE94F8F8340093002B3FF430
:1047E00040AED5F8FC3440F6C412C3EB0A03934242
:1047F0007FF633AEFF21FE271B4B85F81C120821E4
:10480000002285F81D7285F81E12F7270A2103F190
:10481000090085F8232285F8242285F8252285F8C9
:10482000262285F8272285F8282285F8292285F86E
:104830002A2285F81F2285F8222285F8207285F821
:10484000211201E013F8011F98420A44FAD1074FE0
:10485000D24384F82B2207F10F08FF210EE000BF9E
:10486000FF000080150F00007119FF1F6C19FF1F5A
:1048700006F014FBB8450BD017F8011F62681368E7
:104880001B685B450846F3D010469847B845F3D1FE
:1048900033680693069BE36094F8F8340093009B1A
:1048A000C4F8FCA4002B3FF4DCADA34BA34D0FCB0D
:1048B00007C52A46002101270E2622F81339E819D8
:1048C0004FF0FF0E84F8237284F82462FE2713262B
:1048D00084F8251284F8261284F8271284F81F120F
:1048E00084F822120B46EC25072184F81CE284F898
:1048F0001D7284F81E6284F8205284F8211201E0AF
:1049000012F8011F90420B44FAD18D4DDB4384F81D
:10491000363205F11A06FF2105E006F0BFFAB5426E
:104920000BD015F8011F626813681B685B450846C9
:10493000F3D010469847B542F3D1012005F0F8F9BD
:1049400013B0BDE8F08FD5F8F024D5F8E834A918F5
:10495000013B01320877C5F8F024C5F8E834002B94
:104960007FF499AD0823C4F8E43494E501220AF1F8
:104970001403C5F8E424C5F804358CE5FE2870D08E
:1049800095F8F8240023C5F8E434002A7FF483ADB9
:10499000FF21FE276B4B85F81C12082185F81D723C
:1049A00085F81E12F7270A2185F8232285F824228C
:1049B00085F8252285F8262285F8272285F82822E1
:1049C00085F8292285F82A2285F81F2285F82222D7
:1049D00003F1090085F8207285F8211201E013F82F
:1049E000011F98420A44FAD1554FD24384F82B2232
:1049F00007F10F08FF2105E006F050FA47450BD0FC
:104A000017F8011F626813681B685B450846F3D0FE
:104A1000104698474745F3D133680993099BE360F3
:104A200039E500220323C5F8E804C5F8F404C5F805
:104A3000F024C5F8E4342EE5D5F8E834042203EB7D
:104A40000020C5F8E804C5F8E42424E53E4A1A40ED
:104A5000002A26DBFF2A0CBF05230023C4F8E43418
:104A600019E50223C5F8E43415E50623C5F8EC047E
:104A7000C5F8F404C5F8E4340DE5D5F8EC34D5F800
:104A8000E82403EB00230721C5F8EC34C5F8E4144F
:104A9000002A3FF467AFFEE42C4B93F8F834009300
:104AA000DBE4013A62F0FF020132D3E7013A62F03F
:104AB000FF0201325EE5002385F8F834EBE4394665
:104AC0009CE533680C930C9BEA68214831680E9191
:104AD0009B1A296ADFF884E0DFF88480DDF838C0AB
:104AE000EA69A0FB0307BF094FF47A708E4400FB0C
:104AF000173308FB03E30193154B1649A3FB0C3E48
:104B00004FEA9E1E019B013A00FB1EC03A4408FB7F
:104B10001033CEEB0202081F6B612A6104F03CFBEC
:104B200033680D930D9BC5F80035B4E418460A4967
:104B30009047B0E4714642E6AC1401007819FF1FBB
:104B40006C19FF1F7119FF1FFF0000805017FF1F16
:104B5000D34D62106417FF1F6C17FF1F00CA9A3BEA
:104B600040420F00EF69D5F810359F4206D9B900D1
:104B7000D5F8180508F0A2FAC5F81805C4F810759C
:104B8000002F00F0EF80A54A042302F2145E0027F4
:104B900092F8221092F821C092F82000090441EA0C
:104BA0000C2192F823C0014341EA0C61C4F81415AA
:104BB000D4F81815DEF8000041F82700D4F81005E5
:104BC0000137B842194602F1040203F10403DFD8A9
:104BD000049301F10B0301F1090201F108080293AA
:104BE00001F10C0301924746481D01F1060E01F147
:104BF000070C01F10A020393A644049B21182344E5
:104C00009EF81C0091F81CE01B7FD4F81C15A444EE
:104C100000049CF81CC040EA0E20034343EA0C63E6
:104C20008B420AD99900D5F824050592049308F01F
:104C300045FA059A049BC5F82405C4F81C35002BD9
:104C400000F0E980DFF8E0E1EB1900219A7F93F8AA
:104C50001DC0187F120442EA0C2293F81FC00243C1
:104C600042EA0C62CEF80020D4F82425DEF80000D9
:104C700042F82100D4F81C2501318A42384603F15C
:104C8000040307F10407E1D8431D0193C31DB8468F
:104C9000821D029300F10807019B23442244187FE0
:104CA000029B117FD4F82825A04423449E46090482
:104CB00098F81C309EF81C8041EA00210B4343EA1F
:104CC0000868904507D94FEA8801D5F8300508F003
:104CD000F5F9C5F83005C4F82885B8F1000F34D0CF
:104CE000DFF848E100210EF5A26C07F11C08002353
:104CF000A0441A4618F8010B98400833202B42EACA
:104D00000002F7D1381D024490420AD207F11F0376
:104D100023440746013793F8018003F8018B97423B
:104D2000F8D3A3184FF000070138DF767044D4F8A9
:104D30003035C4F82C05DCF8000043F82100D4F825
:104D4000283501318B421746CFD8012384F8083526
:104D5000FFF7A1BB714605E57146D6E47146A7E4AD
:104D6000714678E40C2303930B23029309234FF03D
:104D700008080193042347460A224FF0070C4FF01E
:104D8000060E0520049337E72548A0F22A2100F8F3
:104D9000073CFE2781F81C224FF0080C0A4681F8D8
:104DA000243281F8253281F8263281F8273281F8C1
:104DB000283281F8293281F82A3281F81D7281F86F
:104DC0001F3281F82232A0F1090EF72781F81EC2A6
:104DD0000A2182F8207282F82112724601E012F84C
:104DE000011F82420B44FAD10E4FDB4384F82B3271
:104DF00007F10F08FF2105E006F050F8474517D0EE
:104E000017F8011F626813681B685B450846F3D0FA
:104E100010469847F2E7039F3EE700BF5017FF1F79
:104E20007A19FF1F6C19FF1F701CFF1F6C17FF1FE3
:104E300033680893D34BCDF800A01A46089BE36073
:104E400092465AF8043F002B00F0BF8058689A68D9
:104E500001680192D3F800908B689847DAF8003027
:104E6000804658680368DB689847DAF80030019A92
:104E70001E69632E074604DD94F8F834002B00F019
:104E8000A480C2F30723484684F8232284F82432FE
:104E900008F036FB0346020A000C4FEA136E49463F
:104EA00084F8262284F827021A46B74884F8253267
:104EB000019384F828E204F0D9FB404608F020FB77
:104EC000019B024603F2292020440633002122FAE6
:104ED00001FE0831202900F801EBF8D1AB4804337A
:104EE0004146184402EB030804F0C0FB384608F0C2
:104EF00007FB08F2232281462244002329FA03F10A
:104F00000833202B02F8011BF8D1A04B08F104084C
:104F1000394603EB08004A4604F0A8FB09EB0800F9
:104F2000071D5FFA87FCC7F3072E04EB00080CEBA4
:104F30000E010022C943022388F8243288F8232274
:104F400088F8252288F8262284F82012F1B246F348
:104F50000726FF234FF0FE0884F822627E1C84F8A7
:104F60001EC284F81FE284F81C3284F81D8284F883
:104F700021120BDB00F22626854B2E4401E013F8AC
:104F8000011FB3420A44FAD1D343DBB2E219083716
:104F9000B7F5007F82F8233200F31881002F14DD6B
:104FA00000F227207B4E2F1803E005F077FFBE426A
:104FB0000BD0626816F8011F13681B685B45084632
:104FC000F3D010469847BE42F3D1734B9A457FF415
:104FD00038AFDDF800A0CDF804A0994659F8040FC9
:104FE000002800F0BD8090E8480081689A68009130
:104FF0006A498A4240F0E480DFF8B081DA686849A3
:105000008A4240F0D780DFF8A8A15B68654A9342E6
:1050100040F0B580476B632F04DD94F8F834002B23
:1050200000F09E80C6F30723009884F8236284F87A
:10503000243208F065FA0646020A000C330E009985
:1050400084F8262284F8270232464F4884F8283212
:1050500084F8256204F00AFB404608F051FA06F293
:105060002921024621440636002322FA03F00833A0
:10507000202B01F8010BF8D1444B00930436414634
:105080009819164404F0F2FA504608F039FA06F27C
:105090002321009B80462144002228FA02F0083296
:1050A000202A01F8010BF8D10436981942465146DE
:1050B000464404F0DBFA301D5FFA80FCC0F3072E93
:1050C00004EB06080CEB0E010022C943022388F80A
:1050D000243288F8232288F8252288F8262284F8AA
:1050E0002012F9B247F30727FF234FF0FE0884F898
:1050F0002272471C84F81EC284F81FE284F81C3216
:1051000084F81D8284F821120BDB06F22627204B3F
:105110002F4401E013F8011FBB420A44FAD1D343E4
:10512000DBB222180830B0F5007F82F8233200F39A
:105130009E80002814DD06F22726164F2E4403E039
:1051400005F0ACFEB7420BD0626817F8011F136878
:105150001B685B450846F3D010469847B742F3D129
:10516000114B99457FF43AAFDDF804A0C4F8FCA4D4
:105170000123C4F800A584F8F834FFF796BB9847DC
:10518000074648E7681BFF1F7919FF1F7319FF1FA8
:105190007119FF1F6B19FF1FCC1BFF1FC1060000F9
:1051A000C9060000BD060000301CFF1FCC13010023
:1051B000E013010090478246D9F80000036824E715
:1051C00090478046D9F80000036817E7304A314B12
:1051D00031490F920FA803228DF840201193FBF75D
:1051E0005FFBC6B2C0F307217218D243FF2385F8D4
:1051F0001E6285F82022FE26072285F81F1200274E
:10520000411C85F81C3285F81D6285F8212285F83D
:1052100022720CDB00F22221204E3B46294401E0A1
:1052200016F8012F8E421344FAD1DB43DBB2221869
:1052300000F10801B1F5007F82F8233224DC002957
:105240007FF7C3AE00F22320154F2E1804E005F0BF
:1052500025FEB7423FF4B9AE626817F8011F136824
:105260001B685B450846F2D010469847F1E7084AAC
:10527000084B0F9203218DF840100FAA072109480F
:105280001193FCF707F96BE70648FCF78BF89CE6EF
:10529000F0110100701401007319FF1F7119FF1F35
:1052A0006B19FF1F5017FF1F2DE9F04100212DED55
:1052B000028BBC4803F042FF01210446B94803F0C9
:1052C0003DFFB94BD3ED007AF8EEE77AF5EE407A80
:1052D000F1EE10FA0AD1B54BD3ED007AF8EEE77A89
:1052E000F5EE407AF1EE10FA00F04781B04B1B6802
:1052F000B04AD2ED007AF8EEE77AF5EE407AF1EEB8
:1053000010FA14D1AC4AD2ED007AF8EEE77AF5EE55
:10531000407AF1EE10FA0AD1A84D2E6801B28A1B2C
:10532000C832B2F5C87F84BF29600E4601E0A34AA7
:105330001668DFEDA35A9FEDA36A9FEDA38A9FED48
:10534000A35AA34FA34AE41A24B207EE904AB8EE38
:10535000E77A801B27EE257A00B2C7EE066A9E4BDD
:10536000DC68996825682B689C4DAB4207EE900A73
:10537000F8EEE77A76EE886A67EEA57A86EE857AA9
:10538000C7EE866A87ED007A36EE888A82ED017A6A
:1053900040F0FE80632903DD94F8F834002B60D0E0
:1053A00017EE103AC3F3C752002A40F0DF801646CA
:1053B000C3F3C340B5EEC07A0643F1EE10FA4FF0E6
:1053C00000004FEA431748BF62F07F0284F8296269
:1053D00084F82302DE1084F82402DB1284F825020C
:1053E000FF2084F8267284F8276284F8283284F833
:1053F0002A22F723FE270826002284F81C02C8B2BE
:1054000041F3072184F8203284F8221284F81D72B7
:1054100084F81E6284F81F2284F8210204F22123FA
:1054200004F22A2101E013F8010F99420244FAD153
:10543000D2436B4F84F82B2204F21B2604F22B2854
:1054400003E005F02BFDB0450BD0626816F8011F94
:1054500013681B68BB420846F3D010469847B04516
:10546000F3D19FED5A7A5F4B5F48DC6899682668F4
:105470005E4A3368C8EE077AAB42C0ED007AC2EDEF
:10548000017A40F08880632903DD94F8F834002B1A
:1054900061D017EE903AC3F3C752002A5FD1154688
:1054A000F5EEC07AC3F3C340F1EE10FA45EA000509
:1054B0004FEA43174FF000004FEAE30648BF62F09F
:1054C0007F02DB1284F8295284F8230284F8240234
:1054D00084F8250284F82672C8B284F8276241F362
:1054E000072184F8283284F82A22F723FF27FE2692
:1054F0000825002284F8203284F8221284F81C72D5
:1055000084F81D6284F81E5284F81F2284F8210258
:1055100004F2212304F22A2101E013F8010F994239
:105520000244FAD1D2432E4F84F82B2204F21B25D9
:1055300004F22B2603E005F0B1FCAE420BD062680A
:1055400015F8011F13681B68BB420846F3D01046CC
:105550009847AE42F3D1BDEC028BBDE8F08102F575
:10556000607215016DB2C2F3071299E702F560721D
:10557000160176B2C2F307121AE70D4D2B6821B25D
:10558000CA1AC832B2F5C87F84BF29600B46AFE69D
:105590002046984765E7BDEC028B2046BDE8F04108
:1055A000184700BF901DFF1FE015FF1F0C1DFF1FB8
:1055B000D407FF1F2816FF1FD816FF1FD807FF1F8D
:1055C000A69BC44000FEFF4600000000022B873D62
:1055D000AC1DFF1FB81CFF1F481DFF1F95140000C6
:1055E0006D0900002C16FF1FB01DFF1FE81DFF1FD7
:1055F00010B50849084C094A00230B60112001210D
:105600002360136004F088FB01210E20BDE81040E8
:1056100004F082BB4817FF1F4C17FF1FA416FF1F83
:1056200008B5DFED1C7AB4EEE70AF1EE10FA2DEDC5
:10563000028B2AD4DFED187AB4EEE70AF1EE10FA05
:10564000B0EE408A1DDC30EE277ADFED146ADFED24
:10565000145ADFED147A9FED146A67EE266A86EE1F
:10566000A57A77EE277A67EE867AFDEEE77A17EE6F
:10567000901A0E4803F0D0F8B0EE480ABDEC028B49
:1056800008BDB0EE678A0021F3E7B0EE678AB42167
:10569000EFE700BFE17AD4BEE17AD43EDB0F49C028
:1056A000E17A543FDB0F4940E02E65421417FF1F9B
:1056B0002DE9F04F2DED048BC34AC44BC449C54DB1
:1056C00091ED001AD2ED000A93ED000AC24999B09B
:1056D00014A803F081FE2B7F149A0992012B159ACE
:1056E000089240F2908572B6AB69B3F1000AB8BF78
:1056F0000AF1030A4FEAAA0A62B6DFF820B3686823
:10570000DBF800301093109EB44C301A07F0D2F83A
:10571000ABA3D3E9002307F06DFACDE90201A86835
:10572000C0EB0A0007F0D6F86E608046C5F808A006
:105730002868894607F0CEF802460B46404649469F
:1057400007F058FADDE9022307F054FA07F0C2FB2C
:10575000237F0590012B40F28F8572B6A369B3F1C8
:105760000008B8BF08F103084FEAA80862B6DBF8E2
:1057700000300F93DDF83CA06068DFF8A492C0EB26
:105780000A0007F097F88EA3D3E9002307F032FA56
:10579000CDE90201A068C0EB080007F09BF8C4F84F
:1057A00004A00646C4F8088020680F4607F092F867
:1057B00002460B463046394607F01CFADDE9022363
:1057C00007F018FA07F086FB99F81C300290012BBD
:1057D00040F28C8572B6D9F81860002EB8BF033637
:1057E000B61062B6DBF800300E93DDF83880D9F8D9
:1057F00004007B4FC0EB080007F05CF870A3D3E90E
:10580000002307F0F7F9CDE90601D9F80800301AAE
:1058100007F060F8C9F80480CDE90A01C9F808600A
:10582000D9F8000007F056F802460B46DDE90A01F8
:1058300007F0E0F9DDE9062307F0DCF907F04AFBA1
:105840003B7F0690012B40F2918572B6BE69002E17
:10585000B8BF0336B61062B6DBF800300D93DDF842
:1058600034A07868C0EB0A0007F024F854A3D3E909
:10587000002307F0BFF9CDE90A01B868301A07F034
:1058800029F8BE608046C7F804A03868894607F04A
:1058900021F802460B464046494607F0ABF9DDE9E0
:1058A0000A2307F0A7F907F015FB2A7F494B012AC5
:1058B000064640F2548472B69B6962B6002BB8BFAC
:1058C0000333207FDFF85C819B101A4601284FEAE2
:1058D000E373C8E90223414B40F26B8472B69B69C3
:1058E00062B6404A089CD2ED007A3F4ADFF8389110
:1058F000099F1460002BB8BF03339B101A463B4D21
:105900003B499DED057A3B4C0F60DB17C9E902234B
:10591000059A2A60FA1713463A46F8EEC78A3649BE
:105920009DED027ADFF804A181ED007AC4E902233B
:10593000089B1946DA1713460A46CAE902232F4B79
:10594000B8EEC78AC3ED018A2D4B83ED018A2D4B3A
:1059500093ED007A2C4BF5EEC07AF1EE10FAB5EE2D
:10596000C07AD8BFF1EE677AF1EE10FAD8BFB1EE87
:10597000477A77EE877A93ED007AF4EEC77AF1EE04
:1059800010FA40F13F83DDED097A2048204DF8EE12
:10599000E79AF0EE680AB0EE690A03F0DFFD51EC19
:1059A000100B07F097FADDED087A2860B8EEE79A59
:1059B0001848194DB0EE490A3AE000BFAFF3008035
:1059C00000000000004CED404C17FF1F4817FF1F60
:1059D000A416FF1F4416FF1FF815FF1FC015FF1F59
:1059E000281DFF1FAC1DFF1F2816FF1F0C1DFF1FCA
:1059F000E015FF1F0017FF1FD816FF1FF01DFF1F28
:105A00009015FF1FB01DFF1FDC07FF1F601DFF1F4C
:105A10001017FF1FD81CFF1F241DFF1F2C1FFF1F67
:105A2000DC16FF1FA816FF1FC816FF1FB816FF1FA2
:105A3000F0EE480A03F092FD51EC100B07F04AFA21
:105A4000B0EE690A2860F0EE680AB24803F086FDFD
:105A500051EC100B07F03EFA0146AF4803F0ECFBA7
:105A6000AE48F0EE480AB0EE490A03F077FD51EC7B
:105A7000100B07F02FFA0146A94803F0DDFBDDED1E
:105A8000167AA848B8EEE70ADDED067AF8EEE70ADE
:105A900003F064FD51EC100B07F01CFA0146A2481C
:105AA00003F0CAFBDDED177AA048B8EEE70A07EE6F
:105AB000906AF8EEE70A03F051FD51EC100B07F085
:105AC00009FA01469A4803F0B7FB9A480378023B6B
:105AD000012B40F232830096029A0599069B03F04F
