:10000000F8FF022099010000CD97000085970000BD
:100010008597000085970000859700008597000070
:10002000859700008597000085970000CD97000018
:10003000CD97000085970000C5AF0000C9AF000054
:10004000CD970000CD970000CD970000CD97000020
:10005000CD970000CD970000CD970000CD97000010
:10006000CD970000CD970000CD970000CD97000000
:10007000CD970000CD970000CD970000CD970000F0
:10008000CD970000CD970000CD970000CD970000E0
:10009000CD970000CD970000CD970000CD970000D0
:1000A0002990000035900000CD970000CD9700000A
:1000B000CD970000CD970000CD970000CD970000B0
:1000C000CD970000CD970000CD970000CD970000A0
:1000D000CD970000CD970000CD970000CD97000090
:1000E000CD970000CD970000CD970000CD97000080
:1000F000CD970000CD970000CD970000CD97000070
:10010000CD970000CD970000CD970000CD9700005F
:10011000A98800008DA00000CD970000CD970000B9
:10012000CD970000CD970000CD970000CD9700003F
:10013000CD970000CD970000CD970000CD9700002F
:10014000CD970000CD970000CD970000CD9700001F
:10015000CD970000CD970000CD970000CD9700000F
:10016000CD970000CD97000041900000CD97000092
:10017000CD970000CD970000CD970000CD970000EF
:10018000CD970000CD970000CD970000CD970000DF
:10019000CD970000CD970000584B4CF2205210B57F
:1001A0001A804DF628121A8000BF00BF09F012FB1A
:1001B000534B4FF030621A60524A9A60524ADA60EA
:1001C000524B4FF470021A60514A136813F4807353
:1001D00004D150490B604FF4A85313604E4B1A786A
:1001E000110703D51A7842F008021A704B4B4C499C
:1001F0002A221A704B4A4C4B8B4204D252F8040FFD
:1002000043F8040BF8E7494B494900228B4202D2DC
:1002100043F8042BFAE74749474A002352F82300E2
:1002200041F823000133662BF8D1444B444A802126
:1002300003F8011B9342FBD1424B3E4A1A60424BEA
:100240008A221A70A3F5805324225A70A0221A70B1
:100250009A799207FCD59A79D406FCD43B4A9379D3
:1002600003F00C03082B394BF9D103221A714622F3
:100270005A719A799006FCD5344A9179334B4906E4
:10028000FBD5334A4FF08271116009215160202261
:100290001A709A7902F00C020C2AFAD12D4B2E4AD0
:1002A0001A602E4B2E4A1A6000225A60072243F829
:1002B000042C2C4AC3F80C2D62B609F079FD154BBD
:1002C0001B68DA0705D5284809F082FB274B284A26
:1002D0001A60284B1B785B0609D5244C244B2268F6
:1002E0009A4204D1204809F073FB002323600CF0EC
:1002F00063FE09F075FA0AF06FFEFEE70E20054076
:1003000030800440823F04000100002B88ED00E0B3
:1003100010D0034014D0034002D0074000E0074053
:100320004815FF1F081D0100F806FF1F4815FF1F95
:10033000A820FF1F0002FF1F0000000000E400E0F3
:1003400056E400E008ED00E00050064000400640A2
:100350004480044004800440C010050014E000E024
:10036000BFD4010000002020A031D15F1CE0034079
:10037000A5C3945A00F00740FFFFFFFFFFFFFFFFF8
:10038000FFFFFFFFFFFFFFFFFFFFFFFFFFFFFFFF7D
:10039000FFFFFFFFFFFFFFFFFFFFFFFFFFFFFFFF6D
:1003A000FFFFFFFFFFFFFFFFFFFFFFFFFFFFFFFF5D
:1003B000FFFFFFFFFFFFFFFFFFFFFFFFFFFFFFFF4D
:1003C000FFFFFFFFFFFFFFFFFFFFFFFFFFFFFFFF3D
:1003D000FFFFFFFFFFFFFFFFFFFFFFFFFFFFFFFF2D
:1003E000FFFFFFFFFFFFFFFFFFFFFFFFFFFFFFFF1D
:1003F000FFFFFFFFFFFFFFFFFFFFFFFFFFFFFFFF0D
:10040000FFFFFFFFFFFFFFFFFFFFFFFFDEF9FFFF23
:1004100010B5054C237833B9044B13B10448AFF33E
:1004200000800123237010BD4815FF1F000000004D
:10043000041D0100084B10B51BB108490848AFF373
:1004400000800848036803B910BD074B002BFBD0A0
:10045000BDE81040184700BF000000004C15FF1F0A
:10046000041D01004815FF1F0000000043680B70C9
:1004700043681B0A4B70C3888B70C379CB70836849
:100480000B7183681B0A4B7143898B71C37ACB71E3
:10049000082070470B7843604A7843EA02234360A0
:1004A0008A7843EA02434360CA7843EA02634360BE
:1004B0000B7983604A7943EA022383608A7943EAAD
:1004C00002438360CA7943EA02638360082070476D
:1004D00000487047C012010000487047D012010068
:1004E000F0B50C460A788280064614F8010F002306
:1004F00042EA0022B2801A4614F8010F98400833ED
:10050000202B42EA0002F7D1971D062F58D901F19E
:10051000050E551D73464C1913F8010F03F8010C15
:10052000A342F9D100234B5518460D44C6F808E004
:1005300015F8014F84400830202843EA0403F7D11E
:10054000381D0344834209D909320A440446013460
:1005500012F8015F02F8015CA342F8D80138CF1805
:100560000024084407F8014C2246F06017F8015BAC
:1005700095400832202A44EA0504F7D1181D0444A6
:10058000A04209D203330B440246013213F8015F43
:1005900003F8015CA242F8D30D1901380844002386
:1005A00005F8013C3061A8786B780A5DED780104AC
:1005B00041EA0323134343EA0563201D7361F0BD41
:1005C000551D01F1050EADE700487047F41201001A
:1005D00000487047101301000B78F0B4037100233A
:1005E00006460C461D4614F8012F9A400833202B6E
:1005F00045EA0205F7D1681D052801F1040708D96D
:100600002C1D3B460C4413F8012F03F8012C9C428F
:10061000F9D10D4400232B71B760F0BC704700BFC7
:100620000048704734130100004870474813010028
:1006300000487047A4120100004870476C13010085
:10064000004870479013010000487047A81301004C
:1006500000487047CC13010000487047E0130100C8
:10066000F0B48268C3680B711C0A180C170A160CC8
:10067000150E1B0E4F708E70CD704C7188710A7004
:100680000820CB71F0BC70470B684A68C260836079
:100690000820704700487047041401000048704764
:1006A00014140100004870473814010000487047D6
:1006B0004C14010090F8F804704700BF406B70477D
:1006C00000487047CC13010000487047E013010058
:1006D00010B5D0ED027A1A4C1A4A90ED087A1A4BEE
:1006E000C168C4ED007AF5EEC07AF1EE10FA82B07E
:1006F000116083ED007A09DCB5EE407AF1EE10FA74
:1007000014D0F5EEC07AF1EE10FA0FDB00211120C3
:1007100009F0F4FA00210E2009F0F0FA0B4A0C4B14
:1007200012680192019A1A6002B010BD01211120D5
:1007300009F0E4FA01210E2009F0E0FAEEE700BF2B
:100740004817FF1F4C17FF1FA416FF1F2C1FFF1F6A
:100750004016FF1F0AF0AABA43682DE9F0470B7054
:1007600043681B0A4B70C3888B70C379CB70436896
:10077000002B00F085800A4600250426C36853F844
:10078000253013711C0C1F0A1B0E94715771D37105
:1007900043680135AB42344602F1040206F1040617
:1007A000ECD804F1080204F1050A04F1060904F189
:1007B000070804F1090C04F10A0E04F10B051746B1
:1007C0000C3403698B5503691B0A01F80A30438A0C
:1007D00001F80930C37C01F808300369F3B101EB7B
:1007E000070E75460022836953F822300EF8223036
:1007F0001C0C1E0A1B0EAC706E70EB70036901328C
:1008000093423C4605F1040507F10407EBD804F1D7
:10081000050C04F1060EE51D3A460834C3698B54F5
:10082000C3691B0A01F80C30C38B01F80E30C37F7B
:100830004B55C3690BB30F4680460026D8F82430C9
:1008400053F826000CF05CFEB10005463A1900236F
:1008500025FA03F00833202B02F8010BF8D1D8F861
:1008600024300434381959582A4608F0F1FED8F8D3
:100870001C300136B3422C44E0D82046BDE8F08756
:10088000082217460C240B254FF00A0E4FF0090CD6
:100890004FF007084FF006094FF0050A042690E7CD
:1008A00070B503790B70064680680D460CF028FE83
:1008B0002A460446002324FA03F10833202B02F8C9
:1008C000011FF8D1B168681D224608F0C1FE601D05
:1008D00070BD00BFF8B583880B7083881B0A4B700E
:1008E000064680680D460CF00BFE030E010A020C52
:1008F0006B71A8702A71E97002460446B168A81DA0
:1009000008F0A6FEF0680CF0FBFD611D02462944CC
:100910000634002322FA03F00833202B01F8010FDC
:10092000F8D104342819F168144408F091FE3069B4
:100930000CF0E6FD2A190746002327FA03F10833D5
:10094000202B02F8011BF8D1043428193A463169EA
:1009500008F07EFE381973692B540544190A1A0CE5
:100960001B0E6970AA70EB700430F8BD08460AF0DF
:1009700087BA00BF2DE9F04F43680C689C4283B0F2
:1009800005460E4600F2B3806C60002C00F0B88083
:1009900005F1080C334600274FF0040E9C795A7974
:1009A000197993F80780E868240444EA02220A438C
:1009B00042EA0862AA60DCF8002040F827206A6852
:1009C0000137BA42714603F104030EF1040EE5D873
:1009D00001F1080847464B1D881DCA1D01F1090A8F
:1009E00001F10A0B01F10B0901F10C04305CF35C1D
:1009F00016F80E1016F802E02A69000440EA0323F4
:100A00000B4343EA0E63934200F290802B613BB3A9
:100A100005F1140CF3194FF0000E9C785A781978F0
:100A200093F80380A869240444EA02220A4342EAB4
:100A300008626A61DCF8002040F82E202A690EF175
:100A4000010E72453C4603F1040307F10407E4D8A4
:100A500004F1050A04F1060B04F10709B84608344D
:100A600016F80B2016F80A0016F8083016F8097068
:100A7000E969120442EA0022134343EA07678F42FE
:100A80004ED8EF617FB30027BC4605F1200E00234E
:100A90001946301910F8012B9A400833202B41EAEF
:100AA0000201F7D104F104084144884509D2E31C4E
:100AB00033444246013213F8010F03F8010C8A4215
:100AC000F8D3721808F1FF3802F801CC06EB0803DE
:100AD0002B626A6ADEF8003042F82730EB69013792
:100AE000BB420C46D3D8204603B0BDE8F08FA1002E
:100AF000C0680CF0D7FA6C60E860002C7FF448AF57
:100B00004FF0080847460C244FF00B094FF00A0B32
:100B10004FF0090A0722062005234FF0040E65E76F
:100B2000B900686A0CF0BEFA6862AAE79900A86981
:100B300001930CF0B7FA019BA86167E7D0ED017A49
:100B400017EE903AC3F3C75270B412B302F5607255
:100B5000140164B2C2F30712F5EEC07AC3F3C340C6
:100B6000F1EE10FA44EA00044FEA43164FF0000099
:100B70004FEAE30548BF62F07F02DB128C71087018
:100B800048708870CE700D7108204B71CA7170BCAE
:100B900070471446E0E700BFD0ED027A17EE903AB6
:100BA000C3F3C752F0B4002A00F0FD8002F5607272
:100BB00015016DB2C2F30712F5EEC07AC3F3C34458
:100BC000F1EE10FA45EA04054FEA43174FF000042E
:100BD0004FEAE30648BF62F07F02DB124B71CA7135
:100BE0008D710C704C708C70CF700E71D0ED037ADB
:100BF00017EE903AC3F3C752002A00F0DE8002F5E8
:100C0000607215016DB2C2F30712F5EEC07AC3F33C
:100C1000C344F1EE10FA45EA04054FEA43174FF0DA
:100C200000044FEAE30648BF62F07F02DB124B7319
:100C3000CA738D730C724C728C72CF720E73D0EDBE
:100C4000047A17EE903AC3F3C752002A00F0B3803B
:100C500002F5607215016DB2C2F30712F5EEC07AAB
:100C6000C3F3C344F1EE10FA45EA04054FEA431713
:100C70004FF000044FEAE30648BF62F07F02DB1248
:100C80004B75CA758D750C744C748C74CF740E755D
:100C9000D0ED067A17EE903AC3F3C752002A00F05F
:100CA000888002F5607215016DB2C2F30712F5EE8D
:100CB000C07AC3F3C344F1EE10FA45EA04054FEAE3
:100CC00043174FF000044FEAE30648BF62F07F028B
:100CD000DB124B77CA778D770C764C768C76CF7695
:100CE0000E77D0ED077A17EE903AC3F3C752002A79
:100CF0005DD002F5607215016DB2C2F30712F5EE18
:100D0000C07AC3F3C344F1EE10FA45EA04054FEA92
:100D100043174FF000044FEAE30648BF62F07F023A
:100D2000DB1281F8253081F8272081F8265081F8E0
:100D3000204081F8214081F8224081F8237081F819
:100D40002460D0ED087A17EE903AC3F3C75262B32D
:100D500002F56072140164B2C2F30712F5EEC07AB4
:100D6000C3F3C340F1EE10FA44EA00044FEA43161D
:100D70004FF000004FEAE30548BF62F07F02DB124C
:100D800081F82E4081F8280081F8290081F82A0096
:100D900081F82B6081F82C50302081F82D3081F8BB
:100DA0002F20F0BC7047154606E71446D6E71546D7
:100DB000A5E715467BE7154650E7154625E700BF32
:100DC000D0ED017A17EE903AC3F3C752F0B4002A7F
:100DD00071D002F5607215016DB2C2F30712F5EE23
:100DE000C07AC3F3C344F1EE10FA45EA04054FEAB2
:100DF00043174FF000044FEAE30648BF62F07F025A
:100E0000DB124B71CA718D710C704C708C70CF708D
:100E10000E71D0ED027A17EE903AC3F3C752002A52
:100E20004DD002F5607215016DB2C2F30712F5EEF6
:100E3000C07AC3F3C344F1EE10FA45EA04054FEA61
:100E400043174FF000044FEAE30648BF62F07F0209
:100E5000DB124B73CA738D730C724C728C72CF722F
:100E60000E73D0ED037A17EE903AC3F3C75222B354
:100E700002F56072140164B2C2F30712F5EEC07A93
:100E8000C3F3C340F1EE10FA44EA00044FEA4316FC
:100E90004FF000004FEAE30548BF62F07F02DB122B
:100EA0008C75087448748874CE740D7518204B7551
:100EB000CA75F0BC7047154691E71446DEE7154643
:100EC000B5E700BFCB785B0930B443600A7943EAE9
:100ED000C20343604A7943EAC22242608B79DB0451
:100EE00003F4F00313434360CC798D79220102F4BB
:100EF000FE6252EA151205D0A2F5607243EAC253AF
:100F00004360CC7924F07F0443EA0463436030BC3F
:100F100008207047CA78520970B4426103460879C4
:100F200042EAC0025A61487942EAC02058618A798F
:100F3000D20402F4F00202435A61CD798E792C0179
:100F400004F4FE6454EA161403F10C0005D0A4F571
:100F5000607442EAC4525A61CD7925F07F0542EAB5
:100F600005625A61CA7A52099A610C7B42EAC4024C
:100F70009A614C7B42EAC4249C618A7BD20402F4CD
:100F8000F00222439A61CD7B8E7B2C0104F4FE6437
:100F900054EA161405D0A4F5607442EAC4529A616A
:100FA000CD7B25F07F0542EA05629A61CA7C520931
:100FB000DA610C7D42EAC402DA614C7D42EAC42463
:100FC000DC618A7DD20402F4F0022243DA61CD7D35
:100FD0008E7D2C0104F4FE6454EA161405D0A4F5A9
:100FE000607442EAC452DA61CD7D25F07F0542EAA1
:100FF0000562DA61CA7E52095A620C7F42EAC40273
:101000005A624C7F42EAC4245C628A7FD20402F4B2
:10101000F00222435A62CD7F8E7F2C0104F4FE64DD
:1010200054EA161405D0A4F5607442EAC4525A6218
:10103000CD7F25F07F0542EA05625A6291F82320B0
:1010400052099A6291F8244042EAC4029A6291F8E5
:10105000254042EAC4249C6291F82620D20402F47E
:10106000F00222439A6291F8275091F826602C01F1
:1010700004F4FE6454EA161406D0A4F5607442EA3F
:10108000C4529A6291F8275025F07F0542EA056222
:101090009A6291F82B205209DA6291F82C4042EAC8
:1010A000C402DA6291F82D4042EAC424DC6291F86D
:1010B0002E20D20402F4F0022243DA6291F82F507B
:1010C00091F82E602C0104F4FE6454EA161406D044
:1010D000A4F5607442EAC452DA6291F82F5025F008
:1010E0007F0542EA0562DA6270BC1B6B184700BFDD
:1010F000CB785B0930B483600A7943EAC20383602A
:101100004A7943EAC22282608B79DB0403F4F0035C
:1011100013438360CC798D79220102F4FE6252EA96
:10112000151205D0A2F5607243EAC2538360CC79F0
:1011300024F07F0443EA04638360CB7A5B09C360D5
:101140000A7B43EAC203C3604A7B43EAC222C2600D
:101150008B7BDB0403F4F0031343C360CC7B8D7BF8
:10116000220102F4FE6252EA151205D0A2F5607265
:1011700043EAC253C360CC7B24F07F0443EA046398
:10118000C360CB7C5B0903610A7D43EAC203036150
:101190004A7D43EAC22202618B7DDB0403F4F00343
:1011A00013430361CC7D8D7D220102F4FE6252EA7D
:1011B000151205D0A2F5607243EAC2530361CC7DDB
:1011C00024F07F0443EA04630361CB7E5B098361FF
:1011D0000A7F43EAC20383614A7F43EAC2228261F3
:1011E0008B7FDB0403F4F00313438361CC7F8D7F9B
:1011F000220102F4FE6252EA151205D0A2F56072D5
:1012000043EAC2538361CC7F24F07F0443EA046342
:10121000836191F823305B09C36191F8242043EA8C
:10122000C203C36191F8252043EAC222C26191F84A
:101230002630DB0403F4F0031343C36191F8274025
:1012400091F82650220102F4FE6252EA151206D0ED
:10125000A2F5607243EAC253C36191F8274024F0BB
:101260007F0443EA0463C36191F82B305B09036296
:1012700091F82C2043EAC203036291F82D2043EA3F
:10128000C222026291F82E30DB0403F4F003134310
:10129000036291F82F4091F82E50220102F4FE6271
:1012A00052EA151206D0A2F5607243EAC2530362F5
:1012B00091F82F4024F07F0443EA0463036230BCBA
:1012C00030207047CB785B0930B443600A7943EA39
:1012D000C20343604A7943EAC22242608B79DB044D
:1012E00003F4F00313434360CC798D79220102F4B7
:1012F000FE6252EA151205D0A2F5607243EAC253AB
:101300004360CC7924F07F0443EA04634360CB7AE2
:101310005B0983600A7B43EAC20383604A7B43EA3A
:10132000C22282608B7BDB0403F4F00313438360EF
:10133000CC7B8D7B220102F4FE6252EA151205D0AD
:10134000A2F5607243EAC2538360CC7B24F07F0431
:1013500043EA04638360CB7C5B09C3600A7D43EA94
:10136000C203C3604A7D43EAC222C2608B7DDB04B4
:1013700003F4F0031343C360CC7D8D7D220102F49E
:10138000FE6252EA151205D0A2F5607243EAC2531A
:10139000C360CC7D24F07F0443EA0463C36030BCA7
:1013A00018207047F0B585B0364A01920368364D73
:1013B000039503228DF808201B6834498B425AD1CB
:1013C00000233821044680F8232205F1300E80F8EE
:1013D000241280F8253280F8263280F8273200F572
:1013E0000A772E460FCE764538607960BA60FB608A
:1013F000354607F11007F4D103CD00227960C223EE
:101400004FF0FF0EFE263D250721386084F820327C
:1014100084F81CE284F81D6284F81E5284F81F22AE
:1014200084F8222284F8211204F2212304F25F209E
:1014300001E013F8011F83420A44FAD1D243144E4B
:1014400084F8602204F21B2504F5187703E009F004
:1014500017FDBD420BD0626815F8011F13681B68A9
:10146000B3420846F3D010469847BD42F3D14FF03F
:10147000FF3005B0F0BD01AA072198474FF0FF30BB
:1014800005B0F0BDF01101007014010095140000CA
:101490006D09000063292DE9F04103DD90F8F8742F
:1014A000002F53D0136805460F4610461B6805F2FF
:1014B00023219847C2B2C0F30721561885F81E228F
:1014C00047F30722F643FF234FF0FE0EFCB285F8E8
:1014D0002222421C85F8206285F81F1285F81C32F2
:1014E00085F81DE285F821420DDB00F22221294416
:1014F00005F22123002201E013F8014F9942224412
:10150000FAD1D343DBB22A1800F10807B7F5007F00
:1015100082F823321DDC002F05F5077616DD073033
:10152000DFF83880064405F21B2403E009F0A8FC2C
:10153000B4420BD06A6814F8011F13681B68434556
:101540000846F3D010469847B442F3D13846BDE878
:10155000F0812846BDE8F041FFF724BF6D09000087
:10156000214B10B4D3F8EC20136850681978047834
:10157000507A137A044201EA03011BD0937A03F0F4
:10158000030309B143F0040343F008039910013B3E
:1015900091720D2B0BD8DFE803F021071B070A150A
:1015A0002121150A071B0721D368013BD3605DF891
:1015B000044B7047937A03F003030029E6D043F00D
:1015C0000403E3E7D3685DF8044B023BD360704744
:1015D000D3685DF8044B0233D3607047D3685DF87D
:1015E000044B0133D36070472C1EFF1F214B10B4F6
:1015F0001A681368506819780478507A137A04428C
:1016000001EA03011BD0937A03F0030309B143F00D
:10161000040343F008039910013B91720D2B0BD882
:10162000DFE803F021071B070A152121150A071B14
:101630000721D368013BD3605DF8044B7047937A70
:1016400003F003030029E6D043F00403E3E7D36883
:101650005DF8044B023BD3607047D3685DF8044BE0
:101660000233D3607047D3685DF8044B0133D36015
:10167000704700BF2C1EFF1F214B10B45A6813681F
:10168000506819780478507A137A044201EA030109
:101690001BD0937A03F0030309B143F0040343F032
:1016A00008039910013B91720D2B0BD8DFE803F072
:1016B00021071B070A152121150A071B0721D368DB
:1016C000013BD3605DF8044B7047937A03F003034A
:1016D0000029E6D043F00403E3E7D3685DF8044B48
:1016E000023BD3607047D3685DF8044B0233D3608C
:1016F0007047D3685DF8044B0133D360704700BF77
:101700002C1EFF1F214B10B49A681368506819787B
:101710000478507A137A044201EA03011BD0937AC9
:1017200003F0030309B143F0040343F008039910E5
:10173000013B91720D2B0BD8DFE803F021071B074B
:101740000A152121150A071B0721D368013BD36025
:101750005DF8044B7047937A03F003030029E6D049
:1017600043F00403E3E7D3685DF8044B023BD36026
:101770007047D3685DF8044B0233D3607047D36879
:101780005DF8044B0133D360704700BF2C1EFF1F70
:10179000214B10B4DA681368506819780478507ACD
:1017A000137A044201EA03011BD0937A03F0030386
:1017B00009B143F0040343F008039910013B91720F
:1017C0000D2B0BD8DFE803F021071B070A15212199
:1017D000150A071B0721D368013BD3605DF8044B52
:1017E0007047937A03F003030029E6D043F0040323
:1017F000E3E7D3685DF8044B023BD3607047D368DE
:101800005DF8044B0233D3607047D3685DF8044B36
:101810000133D360704700BF2C1EFF1F214B10B453
:101820001A691368506819780478507A137A044258
:1018300001EA03011BD0937A03F0030309B143F0DB
:10184000040343F008039910013B91720D2B0BD850
:10185000DFE803F021071B070A152121150A071BE2
:101860000721D368013BD3605DF8044B7047937A3E
:1018700003F003030029E6D043F00403E3E7D36851
:101880005DF8044B023BD3607047D3685DF8044BAE
:101890000233D3607047D3685DF8044B0133D360E3
:1018A000704700BF2C1EFF1F214B10B45A691368EC
:1018B000506819780478507A137A044201EA0301D7
:1018C0001BD0937A03F0030309B143F0040343F000
:1018D00008039910013B91720D2B0BD8DFE803F040
:1018E00021071B070A152121150A071B0721D368A9
:1018F000013BD3605DF8044B7047937A03F0030318
:101900000029E6D043F00403E3E7D3685DF8044B15
:10191000023BD3607047D3685DF8044B0233D36059
:101920007047D3685DF8044B0133D360704700BF44
:101930002C1EFF1F214B10B49A6913685068197848
:101940000478507A137A044201EA03011BD0937A97
:1019500003F0030309B143F0040343F008039910B3
:10196000013B91720D2B0BD8DFE803F021071B0719
:101970000A152121150A071B0721D368013BD360F3
:101980005DF8044B7047937A03F003030029E6D017
:1019900043F00403E3E7D3685DF8044B023BD360F4
:1019A0007047D3685DF8044B0233D3607047D36847
:1019B0005DF8044B0133D360704700BF2C1EFF1F3E
:1019C000214B10B4DA691368506819780478507A9A
:1019D000137A044201EA03011BD0937A03F0030354
:1019E00009B143F0040343F008039910013B9172DD
:1019F0000D2B0BD8DFE803F021071B070A15212167
:101A0000150A071B0721D368013BD3605DF8044B1F
:101A10007047937A03F003030029E6D043F00403F0
:101A2000E3E7D3685DF8044B023BD3607047D368AB
:101A30005DF8044B0233D3607047D3685DF8044B04
:101A40000133D360704700BF2C1EFF1F214B10B421
:101A50001A6A1368506819780478507A137A044225
:101A600001EA03011BD0937A03F0030309B143F0A9
:101A7000040343F008039910013B91720D2B0BD81E
:101A8000DFE803F021071B070A152121150A071BB0
:101A90000721D368013BD3605DF8044B7047937A0C
:101AA00003F003030029E6D043F00403E3E7D3681F
:101AB0005DF8044B023BD3607047D3685DF8044B7C
:101AC0000233D3607047D3685DF8044B0133D360B1
:101AD000704700BF2C1EFF1F214B10B45A6A1368B9
:101AE000506819780478507A137A044201EA0301A5
:101AF0001BD0937A03F0030309B143F0040343F0CE
:101B000008039910013B91720D2B0BD8DFE803F00D
:101B100021071B070A152121150A071B0721D36876
:101B2000013BD3605DF8044B7047937A03F00303E5
:101B30000029E6D043F00403E3E7D3685DF8044BE3
:101B4000023BD3607047D3685DF8044B0233D36027
:101B50007047D3685DF8044B0133D360704700BF12
:101B60002C1EFF1F214B10B49A6A13685068197815
:101B70000478507A137A044201EA03011BD0937A65
:101B800003F0030309B143F0040343F00803991081
:101B9000013B91720D2B0BD8DFE803F021071B07E7
:101BA0000A152121150A071B0721D368013BD360C1
:101BB0005DF8044B7047937A03F003030029E6D0E5
:101BC00043F00403E3E7D3685DF8044B023BD360C2
:101BD0007047D3685DF8044B0233D3607047D36815
:101BE0005DF8044B0133D360704700BF2C1EFF1F0C
:101BF000214B10B4DA6A1368506819780478507A67
:101C0000137A044201EA03011BD0937A03F0030321
:101C100009B143F0040343F008039910013B9172AA
:101C20000D2B0BD8DFE803F021071B070A15212134
:101C3000150A071B0721D368013BD3605DF8044BED
:101C40007047937A03F003030029E6D043F00403BE
:101C5000E3E7D3685DF8044B023BD3607047D36879
:101C60005DF8044B0233D3607047D3685DF8044BD2
:101C70000133D360704700BF2C1EFF1F214B10B4EF
:101C80001A6B1368506819780478507A137A0442F2
:101C900001EA03011BD0937A03F0030309B143F077
:101CA000040343F008039910013B91720D2B0BD8EC
:101CB000DFE803F021071B070A152121150A071B7E
:101CC0000721D368013BD3605DF8044B7047937ADA
:101CD00003F003030029E6D043F00403E3E7D368ED
:101CE0005DF8044B023BD3607047D3685DF8044B4A
:101CF0000233D3607047D3685DF8044B0133D3607F
:101D0000704700BF2C1EFF1F214B10B45A6B136885
:101D1000506819780478507A137A044201EA030172
:101D20001BD0937A03F0030309B143F0040343F09B
:101D300008039910013B91720D2B0BD8DFE803F0DB
:101D400021071B070A152121150A071B0721D36844
:101D5000013BD3605DF8044B7047937A03F00303B3
:101D60000029E6D043F00403E3E7D3685DF8044BB1
:101D7000023BD3607047D3685DF8044B0233D360F5
:101D80007047D3685DF8044B0133D360704700BFE0
:101D90002C1EFF1F214B10B49A6B136850681978E2
:101DA0000478507A137A044201EA03011BD0937A33
:101DB00003F0030309B143F0040343F0080399104F
:101DC000013B91720D2B0BD8DFE803F021071B07B5
:101DD0000A152121150A071B0721D368013BD3608F
:101DE0005DF8044B7047937A03F003030029E6D0B3
:101DF00043F00403E3E7D3685DF8044B023BD36090
:101E00007047D3685DF8044B0233D3607047D368E2
:101E10005DF8044B0133D360704700BF2C1EFF1FD9
:101E2000214B10B4DA6B1368506819780478507A33
:101E3000137A044201EA03011BD0937A03F00303EF
:101E400009B143F0040343F008039910013B917278
:101E50000D2B0BD8DFE803F021071B070A15212102
:101E6000150A071B0721D368013BD3605DF8044BBB
:101E70007047937A03F003030029E6D043F004038C
:101E8000E3E7D3685DF8044B023BD3607047D36847
:101E90005DF8044B0233D3607047D3685DF8044BA0
:101EA0000133D360704700BF2C1EFF1F214B10B4BD
:101EB0001A6C1368506819780478507A137A0442BF
:101EC00001EA03011BD0937A03F0030309B143F045
:101ED000040343F008039910013B91720D2B0BD8BA
:101EE000DFE803F021071B070A152121150A071B4C
:101EF0000721D368013BD3605DF8044B7047937AA8
:101F000003F003030029E6D043F00403E3E7D368BA
:101F10005DF8044B023BD3607047D3685DF8044B17
:101F20000233D3607047D3685DF8044B0133D3604C
:101F3000704700BF2C1EFF1F214B10B45A6C136852
:101F4000506819780478507A137A044201EA030140
:101F50001BD0937A03F0030309B143F0040343F069
:101F600008039910013B91720D2B0BD8DFE803F0A9
:101F700021071B070A152121150A071B0721D36812
:101F8000013BD3605DF8044B7047937A03F0030381
:101F90000029E6D043F00403E3E7D3685DF8044B7F
:101FA000023BD3607047D3685DF8044B0233D360C3
:101FB0007047D3685DF8044B0133D360704700BFAE
:101FC0002C1EFF1F214B10B49A6C136850681978AF
:101FD0000478507A137A044201EA03011BD0937A01
:101FE00003F0030309B143F0040343F0080399101D
:101FF000013B91720D2B0BD8DFE803F021071B0783
:102000000A152121150A071B0721D368013BD3605C
:102010005DF8044B7047937A03F003030029E6D080
:1020200043F00403E3E7D3685DF8044B023BD3605D
:102030007047D3685DF8044B0233D3607047D368B0
:102040005DF8044B0133D360704700BF2C1EFF1FA7
:10205000214B10B4DA6C1368506819780478507A00
:10206000137A044201EA03011BD0937A03F00303BD
:1020700009B143F0040343F008039910013B917246
:102080000D2B0BD8DFE803F021071B070A152121D0
:10209000150A071B0721D368013BD3605DF8044B89
:1020A0007047937A03F003030029E6D043F004035A
:1020B000E3E7D3685DF8044B023BD3607047D36815
:1020C0005DF8044B0233D3607047D3685DF8044B6E
:1020D0000133D360704700BF2C1EFF1F214B10B48B
:1020E0001A6D1368506819780478507A137A04428C
:1020F00001EA03011BD0937A03F0030309B143F013
:10210000040343F008039910013B91720D2B0BD887
:10211000DFE803F021071B070A152121150A071B19
:102120000721D368013BD3605DF8044B7047937A75
:1021300003F003030029E6D043F00403E3E7D36888
:102140005DF8044B023BD3607047D3685DF8044BE5
:102150000233D3607047D3685DF8044B0133D3601A
:10216000704700BF2C1EFF1F214B10B45A6D13681F
:10217000506819780478507A137A044201EA03010E
:102180001BD0937A03F0030309B143F0040343F037
:1021900008039910013B91720D2B0BD8DFE803F077
:1021A00021071B070A152121150A071B0721D368E0
:1021B000013BD3605DF8044B7047937A03F003034F
:1021C0000029E6D043F00403E3E7D3685DF8044B4D
:1021D000023BD3607047D3685DF8044B0233D36091
:1021E0007047D3685DF8044B0133D360704700BF7C
:1021F0002C1EFF1F214B10B49A6D1368506819787C
:102200000478507A137A044201EA03011BD0937ACE
:1022100003F0030309B143F0040343F008039910EA
:10222000013B91720D2B0BD8DFE803F021071B0750
:102230000A152121150A071B0721D368013BD3602A
:102240005DF8044B7047937A03F003030029E6D04E
:1022500043F00403E3E7D3685DF8044B023BD3602B
:102260007047D3685DF8044B0233D3607047D3687E
:102270005DF8044B0133D360704700BF2C1EFF1F75
:10228000214B10B4DA6D1368506819780478507ACD
:10229000137A044201EA03011BD0937A03F003038B
:1022A00009B143F0040343F008039910013B917214
:1022B0000D2B0BD8DFE803F021071B070A1521219E
:1022C000150A071B0721D368013BD3605DF8044B57
:1022D0007047937A03F003030029E6D043F0040328
:1022E000E3E7D3685DF8044B023BD3607047D368E3
:1022F0005DF8044B0233D3607047D3685DF8044B3C
:102300000133D360704700BF2C1EFF1F214B10B458
:102310001A6E1368506819780478507A137A044258
:1023200001EA03011BD0937A03F0030309B143F0E0
:10233000040343F008039910013B91720D2B0BD855
:10234000DFE803F021071B070A152121150A071BE7
:102350000721D368013BD3605DF8044B7047937A43
:1023600003F003030029E6D043F00403E3E7D36856
:102370005DF8044B023BD3607047D3685DF8044BB3
:102380000233D3607047D3685DF8044B0133D360E8
:10239000704700BF2C1EFF1F214B10B45A6E1368EC
:1023A000506819780478507A137A044201EA0301DC
:1023B0001BD0937A03F0030309B143F0040343F005
:1023C00008039910013B91720D2B0BD8DFE803F045
:1023D00021071B070A152121150A071B0721D368AE
:1023E000013BD3605DF8044B7047937A03F003031D
:1023F0000029E6D043F00403E3E7D3685DF8044B1B
:10240000023BD3607047D3685DF8044B0233D3605E
:102410007047D3685DF8044B0133D360704700BF49
:102420002C1EFF1F214B10B49A6E13685068197848
:102430000478507A137A044201EA03011BD0937A9C
:1024400003F0030309B143F0040343F008039910B8
:10245000013B91720D2B0BD8DFE803F021071B071E
:102460000A152121150A071B0721D368013BD360F8
:102470005DF8044B7047937A03F003030029E6D01C
:1024800043F00403E3E7D3685DF8044B023BD360F9
:102490007047D3685DF8044B0233D3607047D3684C
:1024A0005DF8044B0133D360704700BF2C1EFF1F43
:1024B000214B10B4DA6E1368506819780478507A9A
:1024C000137A044201EA03011BD0937A03F0030359
:1024D00009B143F0040343F008039910013B9172E2
:1024E0000D2B0BD8DFE803F021071B070A1521216C
:1024F000150A071B0721D368013BD3605DF8044B25
:102500007047937A03F003030029E6D043F00403F5
:10251000E3E7D3685DF8044B023BD3607047D368B0
:102520005DF8044B0233D3607047D3685DF8044B09
:102530000133D360704700BF2C1EFF1F214B10B426
:102540001A6F1368506819780478507A137A044225
:1025500001EA03011BD0937A03F0030309B143F0AE
:10256000040343F008039910013B91720D2B0BD823
:10257000DFE803F021071B070A152121150A071BB5
:102580000721D368013BD3605DF8044B7047937A11
:1025900003F003030029E6D043F00403E3E7D36824
:1025A0005DF8044B023BD3607047D3685DF8044B81
:1025B0000233D3607047D3685DF8044B0133D360B6
:1025C000704700BF2C1EFF1F214B10B45A6F1368B9
:1025D000506819780478507A137A044201EA0301AA
:1025E0001BD0937A03F0030309B143F0040343F0D3
:1025F00008039910013B91720D2B0BD8DFE803F013
:1026000021071B070A152121150A071B0721D3687B
:10261000013BD3605DF8044B7047937A03F00303EA
:102620000029E6D043F00403E3E7D3685DF8044BE8
:10263000023BD3607047D3685DF8044B0233D3602C
:102640007047D3685DF8044B0133D360704700BF17
:102650002C1EFF1F214B10B49A6F13685068197815
:102660000478507A137A044201EA03011BD0937A6A
:1026700003F0030309B143F0040343F00803991086
:10268000013B91720D2B0BD8DFE803F021071B07EC
:102690000A152121150A071B0721D368013BD360C6
:1026A0005DF8044B7047937A03F003030029E6D0EA
:1026B00043F00403E3E7D3685DF8044B023BD360C7
:1026C0007047D3685DF8044B0233D3607047D3681A
:1026D0005DF8044B0133D360704700BF2C1EFF1F11
:1026E000214B10B4DA6F1368506819780478507A67
:1026F000137A044201EA03011BD0937A03F0030327
:1027000009B143F0040343F008039910013B9172AF
:102710000D2B0BD8DFE803F021071B070A15212139
:10272000150A071B0721D368013BD3605DF8044BF2
:102730007047937A03F003030029E6D043F00403C3
:10274000E3E7D3685DF8044B023BD3607047D3687E
:102750005DF8044B0233D3607047D3685DF8044BD7
:102760000133D360704700BF2C1EFF1F214B10B4F4
:10277000D3F880201368506819780478507A137A57
:10278000044201EA03011BD0937A03F0030309B169
:1027900043F0040343F008039910013B91720D2BA1
:1027A0000BD8DFE803F021071B070A152121150AC2
:1027B000071B0721D368013BD3605DF8044B7047CA
:1027C000937A03F003030029E6D043F00403E3E720
:1027D000D3685DF8044B023BD3607047D3685DF863
:1027E000044B0233D3607047D3685DF8044B013368
:1027F000D36070472C1EFF1F214B10B4D3F88420E8
:102800001368506819780478507A137A044201EA00
:1028100003011BD0937A03F0030309B143F00403CF
:1028200043F008039910013B91720D2B0BD8DFE8A0
:1028300003F021071B070A152121150A071B072191
:10284000D368013BD3605DF8044B7047937A03F083
:1028500003030029E6D043F00403E3E7D3685DF8FF
:10286000044B023BD3607047D3685DF8044B0233DE
:10287000D3607047D3685DF8044B0133D360704771
:102880002C1EFF1F214B10B4D3F88820136850680A
:1028900019780478507A137A044201EA03011BD0B4
:1028A000937A03F0030309B143F0040343F00803F0
:1028B0009910013B91720D2B0BD8DFE803F0210733
:1028C0001B070A152121150A071B0721D368013BA5
:1028D000D3605DF8044B7047937A03F0030300293B
:1028E000E6D043F00403E3E7D3685DF8044B023B12
:1028F000D3607047D3685DF8044B0233D3607047F0
:10290000D3685DF8044B0133D36070472C1EFF1F62
:10291000214B10B4D3F88C201368506819780478D0
:10292000507A137A044201EA03011BD0937A03F030
:10293000030309B143F0040343F008039910013B7A
:1029400091720D2B0BD8DFE803F021071B070A1546
:102950002121150A071B0721D368013BD3605DF8CD
:10296000044B7047937A03F003030029E6D043F049
:102970000403E3E7D3685DF8044B023BD360704780
:10298000D3685DF8044B0233D3607047D3685DF8B9
:10299000044B0133D36070472C1EFF1F214B10B432
:1029A000D3F890201368506819780478507A137A15
:1029B000044201EA03011BD0937A03F0030309B137
:1029C00043F0040343F008039910013B91720D2B6F
:1029D0000BD8DFE803F021071B070A152121150A90
:1029E000071B0721D368013BD3605DF8044B704798
:1029F000937A03F003030029E6D043F00403E3E7EE
:102A0000D3685DF8044B023BD3607047D3685DF830
:102A1000044B0233D3607047D3685DF8044B013335
:102A2000D36070472C1EFF1F214B10B4D3F89420A5
:102A30001368506819780478507A137A044201EACE
:102A400003011BD0937A03F0030309B143F004039D
:102A500043F008039910013B91720D2B0BD8DFE86E
:102A600003F021071B070A152121150A071B07215F
:102A7000D368013BD3605DF8044B7047937A03F051
:102A800003030029E6D043F00403E3E7D3685DF8CD
:102A9000044B023BD3607047D3685DF8044B0233AC
:102AA000D3607047D3685DF8044B0133D36070473F
:102AB0002C1EFF1F214B10B4D3F8982013685068C8
:102AC00019780478507A137A044201EA03011BD082
:102AD000937A03F0030309B143F0040343F00803BE
:102AE0009910013B91720D2B0BD8DFE803F0210701
:102AF0001B070A152121150A071B0721D368013B73
:102B0000D3605DF8044B7047937A03F00303002908
:102B1000E6D043F00403E3E7D3685DF8044B023BDF
:102B2000D3607047D3685DF8044B0233D3607047BD
:102B3000D3685DF8044B0133D36070472C1EFF1F30
:102B4000214B10B4D3F89C2013685068197804788E
:102B5000507A137A044201EA03011BD0937A03F0FE
:102B6000030309B143F0040343F008039910013B48
:102B700091720D2B0BD8DFE803F021071B070A1514
:102B80002121150A071B0721D368013BD3605DF89B
:102B9000044B7047937A03F003030029E6D043F017
:102BA0000403E3E7D3685DF8044B023BD36070474E
:102BB000D3685DF8044B0233D3607047D3685DF887
:102BC000044B0133D36070472C1EFF1F214B10B400
:102BD000D3F8A0201368506819780478507A137AD3
:102BE000044201EA03011BD0937A03F0030309B105
:102BF00043F0040343F008039910013B91720D2B3D
:102C00000BD8DFE803F021071B070A152121150A5D
:102C1000071B0721D368013BD3605DF8044B704765
:102C2000937A03F003030029E6D043F00403E3E7BB
:102C3000D3685DF8044B023BD3607047D3685DF8FE
:102C4000044B0233D3607047D3685DF8044B013303
:102C5000D36070472C1EFF1F214B10B4D3F8A42063
:102C60001368506819780478507A137A044201EA9C
:102C700003011BD0937A03F0030309B143F004036B
:102C800043F008039910013B91720D2B0BD8DFE83C
:102C900003F021071B070A152121150A071B07212D
:102CA000D368013BD3605DF8044B7047937A03F01F
:102CB00003030029E6D043F00403E3E7D3685DF89B
:102CC000044B023BD3607047D3685DF8044B02337A
:102CD000D3607047D3685DF8044B0133D36070470D
:102CE0002C1EFF1F214B10B4D3F8A8201368506886
:102CF00019780478507A137A044201EA03011BD050
:102D0000937A03F0030309B143F0040343F008038B
:102D10009910013B91720D2B0BD8DFE803F02107CE
:102D20001B070A152121150A071B0721D368013B40
:102D3000D3605DF8044B7047937A03F003030029D6
:102D4000E6D043F00403E3E7D3685DF8044B023BAD
:102D5000D3607047D3685DF8044B0233D36070478B
:102D6000D3685DF8044B0133D36070472C1EFF1FFE
:102D7000214B10B4D3F8AC2013685068197804784C
:102D8000507A137A044201EA03011BD0937A03F0CC
:102D9000030309B143F0040343F008039910013B16
:102DA00091720D2B0BD8DFE803F021071B070A15E2
:102DB0002121150A071B0721D368013BD3605DF869
:102DC000044B7047937A03F003030029E6D043F0E5
:102DD0000403E3E7D3685DF8044B023BD36070471C
:102DE000D3685DF8044B0233D3607047D3685DF855
:102DF000044B0133D36070472C1EFF1F214B10B4CE
:102E0000D3F8B0201368506819780478507A137A90
:102E1000044201EA03011BD0937A03F0030309B1D2
:102E200043F0040343F008039910013B91720D2B0A
:102E30000BD8DFE803F021071B070A152121150A2B
:102E4000071B0721D368013BD3605DF8044B704733
:102E5000937A03F003030029E6D043F00403E3E789
:102E6000D3685DF8044B023BD3607047D3685DF8CC
:102E7000044B0233D3607047D3685DF8044B0133D1
:102E8000D36070472C1EFF1F214B10B4D3F8B42021
:102E90001368506819780478507A137A044201EA6A
:102EA00003011BD0937A03F0030309B143F0040339
:102EB00043F008039910013B91720D2B0BD8DFE80A
:102EC00003F021071B070A152121150A071B0721FB
:102ED000D368013BD3605DF8044B7047937A03F0ED
:102EE00003030029E6D043F00403E3E7D3685DF869
:102EF000044B023BD3607047D3685DF8044B023348
:102F0000D3607047D3685DF8044B0133D3607047DA
:102F10002C1EFF1F214B10B4D3F8B8201368506843
:102F200019780478507A137A044201EA03011BD01D
:102F3000937A03F0030309B143F0040343F0080359
:102F40009910013B91720D2B0BD8DFE803F021079C
:102F50001B070A152121150A071B0721D368013B0E
:102F6000D3605DF8044B7047937A03F003030029A4
:102F7000E6D043F00403E3E7D3685DF8044B023B7B
:102F8000D3607047D3685DF8044B0233D360704759
:102F9000D3685DF8044B0133D36070472C1EFF1FCC
:102FA000214B10B4D3F8BC2013685068197804780A
:102FB000507A137A044201EA03011BD0937A03F09A
:102FC000030309B143F0040343F008039910013BE4
:102FD00091720D2B0BD8DFE803F021071B070A15B0
:102FE0002121150A071B0721D368013BD3605DF837
:102FF000044B7047937A03F003030029E6D043F0B3
:103000000403E3E7D3685DF8044B023BD3607047E9
:10301000D3685DF8044B0233D3607047D3685DF822
:10302000044B0133D36070472C1EFF1F214B10B49B
:10303000D3F8C0201368506819780478507A137A4E
:10304000044201EA03011BD0937A03F0030309B1A0
:1030500043F0040343F008039910013B91720D2BD8
:103060000BD8DFE803F021071B070A152121150AF9
:10307000071B0721D368013BD3605DF8044B704701
:10308000937A03F003030029E6D043F00403E3E757
:10309000D3685DF8044B023BD3607047D3685DF89A
:1030A000044B0233D3607047D3685DF8044B01339F
:1030B000D36070472C1EFF1F214B10B4D3F8C420DF
:1030C0001368506819780478507A137A044201EA38
:1030D00003011BD0937A03F0030309B143F0040307
:1030E00043F008039910013B91720D2B0BD8DFE8D8
:1030F00003F021071B070A152121150A071B0721C9
:10310000D368013BD3605DF8044B7047937A03F0BA
:1031100003030029E6D043F00403E3E7D3685DF836
:10312000044B023BD3607047D3685DF8044B023315
:10313000D3607047D3685DF8044B0133D3607047A8
:103140002C1EFF1F214B10B4D3F8C8201368506801
:1031500019780478507A137A044201EA03011BD0EB
:10316000937A03F0030309B143F0040343F0080327
:103170009910013B91720D2B0BD8DFE803F021076A
:103180001B070A152121150A071B0721D368013BDC
:10319000D3605DF8044B7047937A03F00303002972
:1031A000E6D043F00403E3E7D3685DF8044B023B49
:1031B000D3607047D3685DF8044B0233D360704727
:1031C000D3685DF8044B0133D36070472C1EFF1F9A
:1031D000214B10B4D3F8CC201368506819780478C8
:1031E000507A137A044201EA03011BD0937A03F068
:1031F000030309B143F0040343F008039910013BB2
:1032000091720D2B0BD8DFE803F021071B070A157D
:103210002121150A071B0721D368013BD3605DF804
:10322000044B7047937A03F003030029E6D043F080
:103230000403E3E7D3685DF8044B023BD3607047B7
:10324000D3685DF8044B0233D3607047D3685DF8F0
:10325000044B0133D36070472C1EFF1F214B10B469
:10326000D3F8D0201368506819780478507A137A0C
:10327000044201EA03011BD0937A03F0030309B16E
:1032800043F0040343F008039910013B91720D2BA6
:103290000BD8DFE803F021071B070A152121150AC7
:1032A000071B0721D368013BD3605DF8044B7047CF
:1032B000937A03F003030029E6D043F00403E3E725
:1032C000D3685DF8044B023BD3607047D3685DF868
:1032D000044B0233D3607047D3685DF8044B01336D
:1032E000D36070472C1EFF1F214B10B4D3F8D4209D
:1032F0001368506819780478507A137A044201EA06
:1033000003011BD0937A03F0030309B143F00403D4
:1033100043F008039910013B91720D2B0BD8DFE8A5
:1033200003F021071B070A152121150A071B072196
:10333000D368013BD3605DF8044B7047937A03F088
:1033400003030029E6D043F00403E3E7D3685DF804
:10335000044B023BD3607047D3685DF8044B0233E3
:10336000D3607047D3685DF8044B0133D360704776
:103370002C1EFF1F214B10B4D3F8D82013685068BF
:1033800019780478507A137A044201EA03011BD0B9
:10339000937A03F0030309B143F0040343F00803F5
:1033A0009910013B91720D2B0BD8DFE803F0210738
:1033B0001B070A152121150A071B0721D368013BAA
:1033C000D3605DF8044B7047937A03F00303002940
:1033D000E6D043F00403E3E7D3685DF8044B023B17
:1033E000D3607047D3685DF8044B0233D3607047F5
:1033F000D3685DF8044B0133D36070472C1EFF1F68
:10340000214B10B4D3F8DC20136850681978047885
:10341000507A137A044201EA03011BD0937A03F035
:10342000030309B143F0040343F008039910013B7F
:1034300091720D2B0BD8DFE803F021071B070A154B
:103440002121150A071B0721D368013BD3605DF8D2
:10345000044B7047937A03F003030029E6D043F04E
:103460000403E3E7D3685DF8044B023BD360704785
:10347000D3685DF8044B0233D3607047D3685DF8BE
:10348000044B0133D36070472C1EFF1F214B10B437
:10349000D3F8E0201368506819780478507A137ACA
:1034A000044201EA03011BD0937A03F0030309B13C
:1034B00043F0040343F008039910013B91720D2B74
:1034C0000BD8DFE803F021071B070A152121150A95
:1034D000071B0721D368013BD3605DF8044B70479D
:1034E000937A03F003030029E6D043F00403E3E7F3
:1034F000D3685DF8044B023BD3607047D3685DF836
:10350000044B0233D3607047D3685DF8044B01333A
:10351000D36070472C1EFF1F214B10B4D3F8E4205A
:103520001368506819780478507A137A044201EAD3
:1035300003011BD0937A03F0030309B143F00403A2
:1035400043F008039910013B91720D2B0BD8DFE873
:1035500003F021071B070A152121150A071B072164
:10356000D368013BD3605DF8044B7047937A03F056
:1035700003030029E6D043F00403E3E7D3685DF8D2
:10358000044B023BD3607047D3685DF8044B0233B1
:10359000D3607047D3685DF8044B0133D360704744
:1035A0002C1EFF1F214B10B4D3F8E820136850687D
:1035B00019780478507A137A044201EA03011BD087
:1035C000937A03F0030309B143F0040343F00803C3
:1035D0009910013B91720D2B0BD8DFE803F0210706
:1035E0001B070A152121150A071B0721D368013B78
:1035F000D3605DF8044B7047937A03F0030300290E
:10360000E6D043F00403E3E7D3685DF8044B023BE4
:10361000D3607047D3685DF8044B0233D3607047C2
:10362000D3685DF8044B0133D36070472C1EFF1F35
:1036300008B50B463B2800F2C682DFE810F0BB025B
:10364000B202A902A00297028E0285027C027302D6
:103650006A02610258024F0246023D0234022B0206
:103660002202190210020702AE01A5019C0193017A
:103670008A01810178016F0166015D0154014A01EF
:10368000400136012C01220118010E010401FA004B
:10369000F000E600DC00D200C800BE00B400AA00C2
:1036A000A00096008C00820078006E0064005A0032
:1036B000500046003C00BD4ABD49C2F8EC303B20FA
:1036C000042206F009F9012008BDB84AB949C2F838
:1036D000E8303A20042206F0FFF8012008BDB34A82
:1036E000B549C2F8E4303920042206F0F5F801208B
:1036F00008BDAE4AB149C2F8E0303820042206F0D5
:10370000EBF8012008BDA94AAD49C2F8DC303720EA
:10371000042206F0E1F8012008BDA44AA949C2F834
:10372000D8303620042206F0D7F8012008BD9F4A81
:10373000A549C2F8D4303520042206F0CDF8012086
:1037400008BD9A4AA149C2F8D0303420042206F0BC
:10375000C3F8012008BD954A9D49C2F8CC303320FA
:10376000042206F0B9F8012008BD904A9949C2F830
:10377000C8303220042206F0AFF8012008BD8B4A81
:103780009549C2F8C4303120042206F0A5F8012082
:1037900008BD864A9149C2F8C0303020042206F0A4
:1037A0009BF8012008BD814A8D49C2F8BC302F200A
:1037B000042206F091F8012008BD7C4A8949C2F82C
:1037C000B8302E20042206F087F8012008BD774A81
:1037D0008549C2F8B4302D20042206F07DF801207E
:1037E00008BD724A8149C2F8B0302C20042206F08C
:1037F00073F8012008BD6D4A7D49C2F8AC302B201A
:10380000042206F069F8012008BD684A7949C2F827
:10381000A8302A20042206F05FF8012008BD634A80
:103820007549C2F8A4302920042206F055F8012079
:1038300008BD5E4A7149C2F8A0302820042206F073
:103840004BF8012008BD594A6D49C2F89C30272029
:10385000042206F041F8012008BD544A6949C2F823
:1038600098302620042206F037F8012008BD4F4A80
:103870006549C2F894302520042206F02DF8012075
:1038800008BD4A4A6149C2F890302420042206F05B
:1038900023F8012008BD454A5D49C2F88C30232039
:1038A000042206F019F8012008BD404A5949C2F81F
:1038B00088302220042206F00FF8012008BD3B4A80
:1038C0005549C2F884302120042206F005F8012071
:1038D00008BD364A5149C2F880302020042205F044
:1038E000FBFF012008BD314A4D49D3671F20042248
:1038F00005F0F2FF012008BD2C4A4A4993671E20BB
:10390000042205F0E9FF012008BD284A4649536713
:103910001D20042205F0E0FF012008BD234A434991
:1039200013671C20042205F0D7FF012008BD1F4AA1
:103930003F49D3661B20042205F0CEFF012008BDBD
:103940001A4A3C4993661A20042205F0C5FF01205B
:1039500008BD164A384953661920042205F0BCFFF9
:10396000012008BD114A354913661820042205F0CC
:10397000B3FF012008BD0D4A3149D3651720042249
:1039800005F0AAFF012008BD084A2E4993651620BC
:10399000042205F0A1FF012008BD044A2A4953650D
:1039A0001520042205F098FF012008BD2C1EFF1FE2
:1039B00061150000A5350000193500008D340000A8
:1039C0000134000075330000E93200005D32000070
:1039D000D131000045310000B93000002D30000029
:1039E000A12F0000152F0000892E0000FD2D0000E2
:1039F000712D0000E52C0000592C0000CD2B00009B
:103A0000412B0000B52A0000292A00009D29000052
:103A10001129000085280000F92700006D2700000B
:103A2000E126000055260000C92500003D250000C4
:103A3000B124000025240000992300000D2300007C
:103A400081220000F5210000692100005F4A6049E1
:103A500013651420042205F03FFF012008BD5B4AD6
:103A60005C49D3641320042205F036FF012008BD11
:103A7000564A594993641220042205F02DFF012073
:103A800008BD524A554953641120042205F024FF11
:103A9000012008BD4D4A524913641020042205F04C
:103AA0001BFF012008BD494A4E49D3630F20042261
:103AB00005F012FF012008BD444A4B4993630E20D4
:103AC000042205F009FF012008BD404A474953631D
:103AD0000D20042205F000FF012008BD3B4A4449A7
:103AE00013630C20042205F0F7FE012008BD374ABD
:103AF0004049D3620B20042205F0EEFE012008BDF0
:103B0000324A3D4993620A20042205F0E5FE012075
:103B100008BD2E4A394953620920042205F0DCFE13
:103B2000012008BD294A364913620820042205F005
:103B3000D3FE012008BD254A3249D3610720042263
:103B400005F0CAFE012008BD204A2F4993610620D6
:103B5000042205F0C1FE012008BD1C4A2B49536117
:103B60000520042205F0B8FE012008BD174A2849A7
:103B700013610422104605F0AFFE012008BD134A70
:103B80002449D3600320042205F0A6FE012008BDCD
:103B90000E4A214993600220042205F09DFE012077
:103BA00008BD0A4A1D4953600120042205F094FE15
:103BB000012008BD054A1A4913600020042205F0BF
:103BC0008BFE012008BD002008BD00BF2C1EFF1F7A
:103BD000DD20000051200000C51F0000391F00003B
:103BE000AD1E0000211E0000951D0000091D0000F3
:103BF0007D1C0000F11B0000651B0000D91A0000AD
:103C00004D1A0000C119000035190000A918000064
:103C10001D1800009117000005170000791600001C
:103C2000ED150000F8B5044616460D46084602217B
:103C30001F4606F069F83046022106F065F8AE49E5
:103C4000AE4A51F835002760012300F50077E760A0
:103C5000237551F83610637501F500770023A361D1
:103C600027611346013BFDD190F8003291F8002204
:103C700003F00103D20744BF43F00203DBB2A37594
:103C800004F10C073B2D00F2B582DFE815F0AA0223
:103C9000A10298028F0286027D0274026B02620208
:103CA0005902500247023E0235022C0223021A0238
:103CB00011020802FF01F601ED01E401DB01D2016E
:103CC000C901C001B701AE01A5019C0193018901A1
:103CD0007F0175016B012B01210117010D0103010A
:103CE000F900EF00E500DB00D100C700BD00B30024
:103CF000A9009F0095008B00810077006D00630094
:103D000059004F003C007E4B7E49C3F8EC70042202
:103D10003B2005F0E1FD0123237739463046FFF7CC
:103D200087FC237F184420772046F8BD744B7649E2
:103D3000C3F8E87004223A2005F0CEFD0123EBE73A
:103D40006F4B7249C3F8E4700422392005F0C4FDBA
:103D50000123E1E76A4B6E49C3F8E0700422382082
:103D600005F0BAFD0123D7E7654B6A49C3F8DC705B
:103D70000422372005F0B0FD0123CDE7604B6649F2
:103D8000C3F8D8700422362005F0A6FD0123C3E74E
:103D90005B4B6249C3F8D4700422352005F09CFDCA
:103DA0000123B9E7564B5E49C3F8D0700422342092
:103DB00005F092FD0123AFE7514B5A49C3F8CC708F
:103DC0000422332005F088FD0123A5E74C4B56491A
:103DD000C3F8C8700422322005F07EFD01239BE762
:103DE000474B5249C3F8C4700422312005F074FDDA
:103DF000012391E7424B4E49C3F8C07004223020A2
:103E000005F06AFD012387E73D4B4A49C3F8BC70C2
:103E100004222F2005F060FD01237DE7384B464941
:103E2000C3F8B87004222E2005F056FD012373E775
:103E3000334B4249C3F8B47004222D2005F04CFDE9
:103E4000012369E72E4B3E49C3F8B07004222C20B1
:103E500005F042FD01235FE7294B3A49C3F8AC70F6
:103E600004222B2005F038FD012355E7244B364969
:103E7000C3F8A87004222A2005F02EFD01234BE789
:103E80001F4B3249C3F8A4700422292005F024FDF9
:103E9000012341E71A4B2E49C3F8A07004222820C1
:103EA00005F01AFD012337E7154B2A49C3F89C702A
:103EB0000422272005F010FD01232DE7104B264991
:103EC000C3F898700422262005F006FD012323E79D
:103ED0000B4B2249C3F894700422252005F0FCFC0A
:103EE000012319E7064B1E49C3F8907004222420D1
:103EF00005F0F2FC01230FE70416010080380100F1
:103F00002C1EFF1F61150000A535000019350000AB
:103F10008D3400000134000075330000E9320000E8
:103F20005D320000D131000045310000B9300000A1
:103F30002D300000A12F0000152F0000892E000059
:103F4000FD2D0000712D0000E52C0000592C000013
:103F5000CD2B0000412B0000B52A0000292A0000CB
:103F60009D290000A44BA549C3F88C70042223208E
:103F700005F0B2FC0123CFE69F4BA149C3F888703E
:103F80000422222005F0A8FC0123C5E69A4B9D4996
:103F9000C3F884700422212005F09EFC0123BBE6B7
:103FA000954B9949C3F880700422202005F094FCB9
:103FB0000123B1E6904B9549DF6704221F2005F0ED
:103FC0008BFC0123A8E68C4B91499F6704221E209D
:103FD00005F082FC01239FE6874B8E495F67042230
:103FE0001D2005F079FC012396E6834B8A491F6763
:103FF00004221C2005F070FC01238DE67E4B8749CE
:10400000DF6604221B2005F067FC012384E67A4B5F
:1040100083499F6604221A2005F05EFC01237BE69B
:10402000754B80495F660422192005F055FC012379
:1040300072E6714B7C491F660422182005F04CFC87
:10404000012369E66C4B7949DF650422172005F0EE
:1040500043FC012360E6684B75499F6504221620E6
:1040600005F03AFC012357E6634B72495F65042271
:10407000152005F031FC01234EE65F4B6E491F65AC
:104080000422142005F028FC012345E65A4B6B4915
:10409000DF640422132005F01FFC01233CE6564B8D
:1040A00067499F640422122005F016FC012333E6C1
:1040B000514B64495F640422112005F00DFC01237B
:1040C0002AE64D4B60491F640422102005F004FCD1
:1040D000012321E6484B5D49DF6304220F2005F0F0
:1040E000FBFB012318E6444B59499F6304220E2031
:1040F00005F0F2FB01230FE63F4B56495F630422B4
:104100000D2005F0E9FB012306E63B4B52491F63F6
:1041100004220C2005F0E0FB0123FDE5364B4F495E
:10412000DF6204220B2005F0D7FB0123F4E5324BBC
:104130004B499F6204220A2005F0CEFB0123EBE5E8
:104140002D4B48495F620422092005F0C5FB01237D
:10415000E2E5294B44491F620422082005F0BCFB1C
:104160000123D9E5244B4149DF610422072005F0F2
:10417000B3FB0123D0E5204B3D499F61042206207B
:1041800005F0AAFB0123C7E51B4B3A495F610422F6
:10419000052005F0A1FB0123BEE5174B36491F6141
:1041A0000422104605F098FB0123B5E5124B334974
:1041B000DF600422032005F08FFB0123ACE50E4BEA
:1041C0002F499F600422022005F086FB0123A3E50E
:1041D000094B2C495F600422012005F07DFB01237F
:1041E0009AE5054B28491F600422002005F074FB66
:1041F000012391E500238FE52C1EFF1F11290000EC
:1042000085280000F92700006D270000E126000046
:1042100055260000C92500003D250000B1240000FE
:1042200025240000992300000D23000081220000B6
:10423000F521000069210000DD2000005120000070
:10424000C51F0000391F0000AD1E0000211E000028
:10425000951D0000091D00007D1C0000F11B0000E1
:10426000651B0000D91A00004D1A0000C11900009A
:1042700035190000A91800001D1800009117000052
:104280000517000079160000ED1500002DE9F04F2C
:10429000072195B099489A4C04F0AAFA5A219748F8
:1042A00004F0ACFA0121112005F02EFD01210E20B1
:1042B00005F02AFD0121112005F020FD01210E202D
:1042C00005F01CFD8F4804F0CBFE00234FF4614243
:1042D000A260C4F8E43404F27C42C4F8E834C4F8C0
:1042E000F034C4F8EC3402E00133192B0AD052F850
:1042F000041F0029F8D103F59071834A44F8212066
:1043000064335360814A002302E00133192B0BD040
:1043100052F8041F0029F8D17D4A04EB83017D3354
:10432000C1F81C249360D460784A002302E0013372
:10433000192B0BD052F8041F0029F8D1754A04EB51
:1043400083017D33C1F81C249360D4606F4A00233D
:1043500002E00133192B0BD052F8041F0029F8D1C9
:104360006D4A04EB83017D33C1F81C249360D46053
:10437000664A002302E00133192B0BD052F8041FC8
:104380000029F8D1654A04EB83017D33C1F81C2470
:104390009360D4605D4A002302E00133192B0BD0F7
:1043A00052F8041F0029F8D15D4A04EB83017D33E4
:1043B000C1F81C249360D460544A002302E0013306
:1043C000192B0BD052F8041F0029F8D1554A04EBE1
:1043D00083017D33C1F81C249360D4604B4A0023D1
:1043E00002E00133192B0BD052F8041F0029F8D139
:1043F0004D4A04EB83017D33C1F81C249360D460E3
:10440000424A002302E00133192B0BD052F8041F5B
:104410000029F8D1454A04EB83017D33C1F81C24FF
:104420009360D460394A002302E00133192B0BD08A
:1044300052F8041F0029F8D13D4A04EB83017D3373
:10444000C1F81C249360D4603A4B94F8F824DFF848
:10445000ECB0394EDFF8E89002930192A3F50775AE
:10446000019B002B40F0238233680993DDF824A0E0
:10447000D4F8003542F6F822C3EB0A03934284BF16
:104480009DF8043085F8F834D4F8E43433B1D5F825
:1044900004359A4584BF0023C5F8E434A2693AB1D3
:1044A00033680D930D9BCAEB03039A42C0F0F78269
:1044B000606803685B694B4540F08D8106F0F6FB50
:1044C0000028C0F28C81D4F8F434D4F8E4240344F6
:1044D000072AC4F8F43400F038829ABBFF2800F0B1
:1044E000478233680C930C9B41F28831CAEB03037B
:1044F0008B42D3D9024B83F8F824B5E71417FF1F7A
:104500005017FF1F901DFF1F6C16FF1F681BFF1F1A
:10451000981DFF1F481DFF1F2C16FF1F1C17FF1F94
:104520001416FF1FAC15FF1F3017FF1FC01CFF1F05
:10453000E415FF1F6C19FF1F2C1FFF1F6D090000E2
:1045400055070000012A00F01B82022A00F06C824D
:10455000032A00F07482042A00F07B82052A00F00E
:104560008782062A00F08C82082A97D1BE4A1A4018
:1045700000239A42C4F8E434C0F29B82FF2A8DD112
:10458000D4F8EC34002B00F001840A2B00F09C825C
:10459000062B00F0E9820B2B00F09082BC3355F81B
:1045A0002330002B3FF47AAF1A68B04912688A4270
:1045B00040F0BF82EA7F52095A6195F8201042EA22
:1045C000C1025A6195F8211042EAC1225A6195F858
:1045D0002210C90401F4F0010A435A6195F82370CE
:1045E00095F822E0380100F4FE6151EA1E1103F152
:1045F0000C0000F06782A1F5607142EAC1525A6175
:1046000095F8231021F07F0142EA01625A6194F883
:10461000272052099A6194F8281042EAC1029A614F
:1046200094F8291042EAC1229A6194F82A10C90428
:1046300001F4F0010A439A6194F82BE094F82AC03F
:104640004FEA0E1707F4FE6151EA1C1100F08A834D
:10465000A1F5607142EAC1529A6195F82B1021F0E0
:104660007F0142EA01629A6194F82F205209DA61CF
:1046700094F8301042EAC102DA6194F8311042EA4B
:10468000C122DA6194F83210C90401F4F0010A433E
:10469000DA6194F833E094F832C04FEA0E1707F469
:1046A000FE6151EA1C1100F05B83A1F5607142EAE2
:1046B000C152DA6195F8331021F07F0142EA0162BC
:1046C000DA6194F8372052095A6294F8381042EAB5
:1046D000C1025A6294F8391042EAC1225A6294F82F
:1046E0003A10C90401F4F0010A435A6294F83BE01D
:1046F00094F83AC04FEA0E1707F4FE6151EA1C1114
:1047000000F02C83A1F5607142EAC1525A6295F81B
:104710003B1021F07F0142EA01625A6294F83F2087
:1047200052099A6294F8401042EAC1029A6294F8DF
:10473000411042EAC1229A6294F84210C90401F47D
:10474000F0010A439A6294F843E094F842C04FEAB9
:104750000E1707F4FE6151EA1C1100F0FD82A1F56D
:10476000607142EAC1529A6295F8431021F07F01CC
:1047700042EA01629A6294F847205209DA6294F898
:10478000481042EAC102DA6294F8491042EAC122B2
:10479000DA6294F84A10C90401F4F0010A43DA62BB
:1047A00094F84BE094F84AC04FEA0E1707F4FE6104
:1047B00051EA1C1100F0C181A1F5607142EAC152B9
:1047C000DA6295F84B1021F07F0142EA0162DA6269
:1047D0001B6B984762E698470028BFF674AE94F8C2
:1047E000F8340193002B3FF43FAED5F8FC3440F68B
:1047F000C412C3EB0A0393427FF632AEFF21FE27B9
:104800001B4B85F81C120821002285F81D7285F8C3
:104810001E12F7270A2103F1090085F8232285F8E3
:10482000242285F8252285F8262285F8272285F876
:10483000282285F8292285F82A2285F81F2285F862
:10484000222285F8207285F8211201E013F8011F59
:1048500098420A44FAD1029BD24384F82B2298460C
:1048600003F10F07FF210BE0FF000080150F000090
:104870007119FF1F06F004FB47450BD018F8011F04
:10488000626813681B685B450846F3D0104698477A
:104890004745F3D133680893089BE36094F8F834F4
:1048A0000193019BC4F8FCA4002B3FF4DDADA44EA2
:1048B000A44D0FCE0FC52B46326823F817290126C9
:1048C000FF210022A8194FF0120EFE2784F8236260
:1048D000E825172684F81C12072184F824E284F8BE
:1048E000252284F8262284F8272284F81F2284F8BF
:1048F000222284F81D7284F81E6284F8205284F803
:10490000211201E013F8011F83420A44FAD1029DEB
:10491000D24384F83A2205F11E06FF2105E006F095
:10492000AFFAAE420BD015F8011F626813681B681E
:104930005B450846F3D010469847AE42F3D10120BC
:1049400005F0E8F915B0BDE8F08FD5F8F024D5F8FA
:10495000E834A918013B01320877C5F8F024C5F8FE
:10496000E834002B7FF49AAD0823C4F8E43495E5CD
:1049700001220AF11403C5F8E424C5F804358DE5D5
:10498000FE2871D095F8F8240023C5F8E434002AF5
:104990007FF484ADFF21FE276B4B85F81C120821A4
:1049A00085F81D7285F81E12F7270A2185F8232243
:1049B00085F8242285F8252285F8262285F82722E5
:1049C00085F8282285F8292285F82A2285F81F22D1
:1049D00085F8222203F1090085F8207285F821125A
:1049E00001E013F8011F83420A44FAD1029BD2432B
:1049F00084F82B221F4603F10F08FF2105E006F083
:104A00003FFA47450BD017F8011F626813681B680F
:104A10005B450846F3D0104698474745F3D13368C5
:104A20000B930B9BE36039E500220323C5F8E804F0
:104A3000C5F8F404C5F8F024C5F8E4342EE5D5F83B
:104A4000E83403EB00200423C5F8E804C5F8E43497
:104A500024E53E4A1A40002A26DBFF2A0CBF052324
:104A60000023C4F8E43419E50223C5F8E43415E55D
:104A70000623C5F8EC04C5F8F404C5F8E4340DE5E4
:104A8000D5F8EC34D5F8E82403EB00230721C5F86A
:104A9000EC34C5F8E414002A3FF466AFFEE42C4B76
:104AA00093F8F8340193DBE4013A62F0FF0201323B
:104AB000D3E7013A62F0FF0201325FE5002385F897
:104AC000F834EBE439469DE533680E930E9BEA68B3
:104AD0002048316810919B1A296ADFF884E0DFF8DA
:104AE0008480DDF840C0EA69A0FB0307BF094FF4EA
:104AF0007A708E4400FB173308FB03E30393154BD6
:104B00001549A3FB0C3E4FEA9E1E039B013A00FB96
:104B10001EC03A4408FB1033CEEB0202081F6B6143
:104B20002A6104F02BFB33680F930F9BC5F8003507
:104B3000B4E4184609499047B0E4714643E600BF23
:104B4000AC1401007819FF1F7119FF1FFF000080CE
:104B50005017FF1FD34D62106417FF1F6C17FF1F04
:104B600000CA9A3B40420F00EF69D5F810359F42CA
:104B700006D9B900D5F8180508F094FAC5F8180553
:104B8000C4F81075002F00F0EF80A64A042302F24B
:104B9000145E002792F8221092F821C092F82000AB
:104BA000090441EA0C2192F823C0014341EA0C6157
:104BB000C4F81415D4F81815DEF8000041F82700E1
:104BC000D4F810050137B842194602F1040203F186
:104BD0000403DFD8069301F10B0301F1090201F18F
:104BE0000808039301F10C0304924746481D01F1A4
:104BF000060E01F1070C01F10A020593A644069B7B
:104C0000211823449EF81C0091F81CE01B7FD4F867
:104C10001C15A44400049CF81CC040EA0E20034369
:104C200043EA0C638B420AD99900D5F82405079210
:104C3000069308F037FA079A069BC5F82405C4F8CE
:104C40001C35002B00F0EB80DFF8E4E1EB190021CC
:104C50009A7F93F81DC0187F120442EA0C2293F841
:104C60001FC0024342EA0C62CEF80020D4F824258B
:104C7000DEF8000042F82100D4F81C2501318A42F8
:104C8000384603F1040307F10407E1D8431D0493F8
:104C9000C31DB846821D039300F10807049B2344FB
:104CA0002244187F039B117FD4F82825A044234475
:104CB0009E46090498F81C309EF81C8041EA0021A9
:104CC0000B4343EA0868904507D94FEA8801D5F8B5
:104CD000300508F0E7F9C5F83005C4F82885B8F1C3
:104CE000000F34D0DFF84CE100210EF5A26C07F183
:104CF0001C080023A0441A4618F8010B98400833FA
:104D0000202B42EA0002F7D1381D024490420AD219
:104D100007F11F0323440746013793F8018003F886
:104D2000018B9742F8D3A3184FF000070138DF76C4
:104D30007044D4F83035C4F82C05DCF8000043F892
:104D40002100D4F8283501318B421746CFD80123F2
:104D500084F80835FFF7A2BB714607E57146D8E431
:104D60007146A9E471467AE40C2305930B2303935F
:104D700009234FF008080493042347460A224FF002
:104D8000070C4FF0060E0520069337E72648A0F2E1
:104D90002A2100F8073CFE2781F81C224FF0080C5E
:104DA0000A4681F8243281F8253281F8263281F8CA
:104DB000273281F8283281F8293281F82A3281F8A5
:104DC0001D7281F81F3281F82232A0F1090EF727F7
:104DD00081F81EC20A2182F8207282F821127246DE
:104DE00001E012F8011F90420B44FAD10F4FDB4350
:104DF000A7F10F02029284F82B329046FF2105E0C2
:104E000006F03EF8B84517D018F8011F626813681D
:104E10001B685B450846F3D010469847F2E7059FAC
:104E20003CE700BF5017FF1F7A19FF1F7B19FF1FB8
:104E3000701CFF1F6C17FF1F33680A93D44BCDF80B
:104E400004A01A460A9BE36092465AF8043F002BDE
:104E500000F0BF8058689A6801680392D3F8009008
:104E60008B689847DAF80030804658680368DB683A
:104E70009847DAF80030039A1E69632E074604DD6E
:104E800094F8F834002B00F0A480C2F307234846BE
:104E900084F8232284F8243208F032FB0346020A05
:104EA000000C4FEA136E494684F8262284F8270244
:104EB0001A46B84884F82532039384F828E204F0AF
:104EC000C7FB404608F01CFB039B024603F2292067
:104ED00020440633002122FA01FE0831202900F87F
:104EE00001EBF8D1AC4804334146184402EB030807
:104EF00004F0AEFB384608F003FB08F2232281469B
:104F00002244002329FA03F10833202B02F8011B65
:104F1000F8D1A14B08F10408394603EB08004A46D2
:104F200004F096FB09EB0800071D5FFA87FCC7F346
:104F3000072E04EB00080CEB0E010022C9430223EC
:104F400088F8243288F8232288F8252288F8262237
:104F500084F82012F1B246F30726FF234FF0FE0833
:104F600084F822627E1C84F81EC284F81FE284F852
:104F70001C3284F81D8284F821120BDB00F22626F5
:104F8000864B2E4401E013F8011FB3420A44FAD1C4
:104F9000D343DBB2E2190837B7F5007F82F823323A
:104FA00000F31D81002F14DD00F227207C4E2F1806
:104FB00003E005F065FFBE420BD0626816F8011FE2
:104FC00013681B685B450846F3D010469847BE42FD
:104FD000F3D1744B9A457FF438AFDDF804A0CDF8D7
:104FE0000CA0994659F8040F002800F0C18090E801
:104FF000080481689A6801916B498A4240F0E9800F
:105000006A4EDA686A498A4240F0DD80DFF8AC8196
:105010005B68684A934240F0D380476B632F04DD9E
:1050200094F8F834002B00F0A380CAF3072301980A
:1050300084F8243284F823A208F062FA8246020A35
:10504000000C019984F826224FEA1A6E524684F821
:105050002702504884F828E284F825A204F0F8FAE0
:10506000304608F04DFA02460AF2292020440AF19F
:105070000603002122FA01FE0831202900F801EB85
:10508000F8D1DFF814A1043331460AEB0300D61837
:1050900004F0DEFA404608F033FA06F22321034614
:1050A0002144002223FA02F00832202A01F8010BE1
:1050B000F8D1043641461A460AEB0600019304F083
:1050C000C7FA019B33441E1D5FFA86FCC6F3072E08
:1050D00004EB03080CEB0E000021C043022288F809
:1050E000242288F8231288F8251288F8261284F8DA
:1050F0002002F8B247F30727FF224FF0FE0884F89A
:105100002272771C84F81EC284F81FE284F81C22E5
:1051100084F81D8284F821020BDB03F226271F4A44
:105120002F4401E012F8010FBA420144FAD1CA43F8
:10513000D2B2A1190836B6F5007F81F8232200F318
:105140009C80002E14DD03F22723154FEE1803E098
:1051500005F096FEBE420BD0626817F8011F136877
:105160001B685B450846F3D010469847BE42F3D112
:10517000114B99457FF436AFDDF80CA0C4F8FCA4C0
:105180000123C4F800A584F8F834FFF790BB00BFF2
:10519000681BFF1F7919FF1F7319FF1F7119FF1F6C
:1051A0006B19FF1FCC1BFF1FC1060000CC130100B1
:1051B000C9060000BD060000301CFF1FE0130100FF
:1051C000984707462AE790478046D9F800000368C9
:1051D0001EE790470646D9F80000036811E72D4FF7
:1051E0002D4E0FCF0FC60FCF0FC60FCF0FC697E8AC
:1051F000030000234FF0030E3827FF2285F823E237
:1052000085F824724FF0FE0E3D2785F8253285F88B
:10521000263285F8273286E80300C22185F81C2251
:105220000722F01D85F81F3285F82232373E85F8B7
:105230001DE285F81E7285F8201285F8212201E012
:1052400016F8012FB0421344FAD1144EDB4384F810
:105250006032A6F14407FF2006E005F011FEB742D8
:105260003FF4B7AE17F8010F626813681B685B451F
:105270000146F2D010469847F1E7094A054B1192D2
:1052800003218DF8481011AA072106481393FCF753
:1052900001F96DE7701401007819FF1FB019FF1FA5
:1052A000F01101005017FF1F2DE9F04100212DEDF5
:1052B000028BBC4803F034FF01210446B94803F0D7
:1052C0002FFFB94BD3ED007AF8EEE77AF5EE407A8E
:1052D000F1EE10FA0AD1B54BD3ED007AF8EEE77A89
:1052E000F5EE407AF1EE10FA00F04781B04B1B6802
:1052F000B04AD2ED007AF8EEE77AF5EE407AF1EEB8
:1053000010FA14D1AC4AD2ED007AF8EEE77AF5EE55
:10531000407AF1EE10FA0AD1A84D2E6801B28A1B2C
:10532000C832B2F5C87F84BF29600E4601E0A34AA7
:105330001668DFEDA35A9FEDA36A9FEDA38A9FED48
:10534000A35AA34FA34AE41A24B207EE904AB8EE38
:10535000E77A801B27EE257A00B2C7EE066A9E4BDD
:10536000DC68996825682B689C4DAB4207EE900A73
:10537000F8EEE77A76EE886A67EEA57A86EE857AA9
:10538000C7EE866A87ED007A36EE888A82ED017A6A
:1053900040F0FE80632903DD94F8F834002B60D0E0
:1053A00017EE103AC3F3C752002A40F0DF801646CA
:1053B000C3F3C340B5EEC07A0643F1EE10FA4FF0E6
:1053C00000004FEA431748BF62F07F0284F8296269
:1053D00084F82302DE1084F82402DB1284F825020C
:1053E000FF2084F8267284F8276284F8283284F833
:1053F0002A22F723FE270826002284F81C02C8B2BE
:1054000041F3072184F8203284F8221284F81D72B7
:1054100084F81E6284F81F2284F8210204F22123FA
:1054200004F22A2101E013F8010F99420244FAD153
:10543000D2436B4F84F82B2204F21B2604F22B2854
:1054400003E005F01DFDB0450BD0626816F8011FA2
:1054500013681B68BB420846F3D010469847B04516
:10546000F3D19FED5A7A5F4B5F48DC6899682668F4
:105470005E4A3368C8EE077AAB42C0ED007AC2EDEF
:10548000017A40F08880632903DD94F8F834002B1A
:1054900061D017EE903AC3F3C752002A5FD1154688
:1054A000F5EEC07AC3F3C340F1EE10FA45EA000509
:1054B0004FEA43174FF000004FEAE30648BF62F09F
:1054C0007F02DB1284F8295284F8230284F8240234
:1054D00084F8250284F82672C8B284F8276241F362
:1054E000072184F8283284F82A22F723FF27FE2692
:1054F0000825002284F8203284F8221284F81C72D5
:1055000084F81D6284F81E5284F81F2284F8210258
:1055100004F2212304F22A2101E013F8010F994239
:105520000244FAD1D2432E4F84F82B2204F21B25D9
:1055300004F22B2603E005F0A3FCAE420BD0626818
:1055400015F8011F13681B68BB420846F3D01046CC
:105550009847AE42F3D1BDEC028BBDE8F08102F575
:10556000607215016DB2C2F3071299E702F560721D
:10557000160176B2C2F307121AE70D4D2B6821B25D
:10558000CA1AC832B2F5C87F84BF29600B46AFE69D
:105590002046984765E7BDEC028B2046BDE8F04108
:1055A000184700BF901DFF1FE015FF1F0C1DFF1FB8
:1055B000D407FF1F2816FF1FD816FF1FD807FF1F8D
:1055C000A69BC44000FEFF4600000000022B873D62
:1055D000AC1DFF1FB81CFF1F481DFF1F95140000C6
:1055E0006D0900002C16FF1FB01DFF1FE81DFF1FD7
:1055F00008B5DFED1C7AB4EEE70AF1EE10FA2DEDF6
:10560000028B2AD4DFED187AB4EEE70AF1EE10FA35
:10561000B0EE408A1DDC30EE277ADFED146ADFED54
:10562000145ADFED147A9FED146A67EE266A86EE4F
:10563000A57A77EE277A67EE867AFDEEE77A17EE9F
:10564000901A0E4803F0DAF8B0EE480ABDEC028B6F
:1056500008BDB0EE678A0021F3E7B0EE678AB42197
:10566000EFE700BFE17AD4BEE17AD43EDB0F49C058
:10567000E17A543FDB0F4940E02E65421417FF1FCB
:105680002DE9F04F2DED048BC34AC44BC449C54DE1
:1056900091ED001AD2ED000A93ED000AC24999B0CB
:1056A00014A803F08BFE2B7F149A0992012B159AF4
:1056B000089240F2908572B6AB69B3F1000AB8BFA8
:1056C0000AF1030A4FEAAA0A62B6DFF820B3686853
:1056D000DBF800301093109EB44C301A07F0DEF85F
:1056E000ABA3D3E9002307F079FACDE90201A8685A
:1056F000C0EB0A0007F0E2F86E608046C5F808A02B
:105700002868894607F0DAF802460B4640464946C3
:1057100007F064FADDE9022307F060FA07F0CEFB38
:10572000237F0590012B40F28F8572B6A369B3F1F8
:105730000008B8BF08F103084FEAA80862B6DBF812
:1057400000300F93DDF83CA06068DFF8A492C0EB56
:105750000A0007F0A3F88EA3D3E9002307F03EFA6E
:10576000CDE90201A068C0EB080007F0A7F8C4F873
:1057700004A00646C4F8088020680F4607F09EF88B
:1057800002460B463046394607F028FADDE9022387
:1057900007F024FA07F092FB99F81C300290012BD5
:1057A00040F28C8572B6D9F81860002EB8BF033667
:1057B000B61062B6DBF800300E93DDF83880D9F809
:1057C00004007B4FC0EB080007F068F870A3D3E932
:1057D000002307F003FACDE90601D9F80800301AD2
:1057E00007F06CF8C9F80480CDE90A01C9F808602F
:1057F000D9F8000007F062F802460B46DDE90A011D
:1058000007F0ECF9DDE9062307F0E8F907F056FBAD
:105810003B7F0690012B40F2918572B6BE69002E47
:10582000B8BF0336B61062B6DBF800300D93DDF872
:1058300034A07868C0EB0A0007F030F854A3D3E92D
:10584000002307F0CBF9CDE90A01B868301A07F058
:1058500035F8BE608046C7F804A03868894607F06E
:105860002DF802460B464046494607F0B7F9DDE9F8
:105870000A2307F0B3F907F021FB2A7F494B012ADD
:10588000064640F2548472B69B6962B6002BB8BFDC
:105890000333207FDFF85C819B101A4601284FEA12
:1058A000E373C8E90223414B40F26B8472B69B69F3
:1058B00062B6404A089CD2ED007A3F4ADFF8389140
:1058C000099F1460002BB8BF03339B101A463B4D51
:1058D0003B499DED057A3B4C0F60DB17C9E902237C
:1058E000059A2A60FA1713463A46F8EEC78A3649EF
:1058F0009DED027ADFF804A181ED007AC4E902236C
:10590000089B1946DA1713460A46CAE902232F4BA9
:10591000B8EEC78AC3ED018A2D4B83ED018A2D4B6A
:1059200093ED007A2C4BF5EEC07AF1EE10FAB5EE5D
:10593000C07AD8BFF1EE677AF1EE10FAD8BFB1EEB7
:10594000477A77EE877A93ED007AF4EEC77AF1EE34
:1059500010FA40F13F83DDED097A2048204DF8EE42
:10596000E79AF0EE680AB0EE690A03F0E9FD51EC3F
:10597000100B07F0A3FADDED087A2860B8EEE79A7D
:105980001848194DB0EE490A3AE000BFAFF3008065
:1059900000000000004CED404C17FF1F4817FF1F90
:1059A000A416FF1F4416FF1FF815FF1FC015FF1F89
:1059B000281DFF1FAC1DFF1F2816FF1F0C1DFF1FFA
:1059C000E015FF1F0017FF1FD816FF1FF01DFF1F58
:1059D0009015FF1FB01DFF1FDC07FF1F601DFF1F7D
:1059E0001017FF1FD81CFF1F241DFF1F2C1FFF1F98
:1059F000DC16FF1FA816FF1FC816FF1FB816FF1FD3
:105A0000F0EE480A03F09CFD51EC100B07F056FA3B
:105A1000B0EE690A2860F0EE680AB24803F090FD23
:105A200051EC100B07F04AFA0146AF4803F0F6FBC1
:105A3000AE48F0EE480AB0EE490A03F081FD51ECA1
:105A4000100B07F03BFA0146A94803F0E7FBDDED38
:105A5000167AA848B8EEE70ADDED067AF8EEE70A0E
:105A600003F06EFD51EC100B07F028FA0146A24836
:105A700003F0D4FBDDED177AA048B8EEE70A07EE95
:105A8000906AF8EEE70A03F05BFD51EC100B07F0AB
:105A900015FA01469A4803F0C1FB9A480378023B85
:105AA000012B40F232830096029A0599069B03F07F
:105AB000EDFC8DED110ACDED120A8DED131A924B0E
:105AC000924EDD6899682B681B68B34240F01983D9
:105AD000632903DD95F8F834002B50D0A368E26801
