:10000000F8FF022099010000959000004D9000003B
:100010004D9000004D9000004D9000004D9000006C
:100020004D9000004D9000004D9000009590000014
:10003000959000004D9000008DA8000091A8000050
:10004000959000009590000095900000959000001C
:10005000959000009590000095900000959000000C
:1000600095900000959000009590000095900000FC
:1000700095900000959000009590000095900000EC
:1000800095900000959000009590000095900000DC
:1000900095900000959000009590000095900000CC
:1000A00095900000959000009590000095900000BC
:1000B00095900000959000009590000095900000AC
:1000C000959000009590000095900000959000009C
:1000D000959000009590000095900000959000008C
:1000E000959000009590000095900000959000007C
:1000F000959000009590000095900000959000006C
:10010000959000009590000095900000959000005B
:100110003D890000559900009590000095900000E1
:10012000959000009590000095900000959000003B
:10013000959000009590000095900000959000002B
:10014000959000009590000095900000959000001B
:10015000959000009590000095900000959000000B
:1001600095900000959000009590000095900000FB
:1001700095900000959000009590000095900000EB
:1001800095900000959000009590000095900000DB
:100190009590000095900000584B4CF2205210B5FD
:1001A0001A804DF628121A8000BF00BF08F076FFB3
:1001B000534B4FF030621A60524A9A60524ADA60EA
:1001C000524B4FF470021A60514A136813F4807353
:1001D00004D150490B604FF4A85313604E4B1A786A
:1001E000110703D51A7842F008021A704B4B4C499C
:1001F0002A221A704B4A4C4B8B4204D252F8040FFD
:1002000043F8040BF8E7494B494900228B4202D2DC
:1002100043F8042BFAE74749474A002352F82300E2
:1002200041F823000133662BF8D1444B444A802126
:1002300003F8011B9342FBD1424B3E4A1A60424BEA
:100240008A221A70A3F5805324225A70A0221A70B1
:100250009A799207FCD59A79D406FCD43B4A9379D3
:1002600003F00C03082B394BF9D103221A714622F3
:100270005A719A799006FCD5344A9179334B4906E4
:10028000FBD5334A4FF08271116009215160202261
:100290001A709A7902F00C020C2AFAD12D4B2E4AD0
:1002A0001A602E4B2E4A1A6000225A60072243F829
:1002B000042C2C4AC3F80C2D62B609F0DDF9154B5D
:1002C0001B68DA0705D5284808F0E6FF274B284ABF
:1002D0001A60284B1B785B0609D5244C244B2268F6
:1002E0009A4204D1204808F0D7FF002323600CF085
:1002F000C7FA08F0D9FE0AF0D3FAFEE70E2005404F
:1003000030800440823F04000100002B88ED00E0B3
:1003100010D0034014D0034002D0074000E0074053
:10032000F813FF1F28150100F806FF1FF813FF1F21
:10033000EC1EFF1F0002FF1F0000000000E400E0B1
:1003400056E400E008ED00E00050064000400640A2
:100350004480044004800440C010050014E000E024
:10036000BFD4010000002020DD06EE5F1CE003404A
:10037000A5C3945A00F00740FFFFFFFFFFFFFFFFF8
:10038000FFFFFFFFFFFFFFFFFFFFFFFFFFFFFFFF7D
:10039000FFFFFFFFFFFFFFFFFFFFFFFFFFFFFFFF6D
:1003A000FFFFFFFFFFFFFFFFFFFFFFFFFFFFFFFF5D
:1003B000FFFFFFFFFFFFFFFFFFFFFFFFFFFFFFFF4D
:1003C000FFFFFFFFFFFFFFFFFFFFFFFFFFFFFFFF3D
:1003D000FFFFFFFFFFFFFFFFFFFFFFFFFFFFFFFF2D
:1003E000FFFFFFFFFFFFFFFFFFFFFFFFFFFFFFFF1D
:1003F000FFFFFFFFFFFFFFFFFFFFFFFFFFFFFFFF0D
:10040000FFFFFFFFFFFFFFFFFFFFFFFFDEF9FFFF23
:1004100010B5054C237833B9044B13B10448AFF33E
:1004200000800123237010BDF813FF1F000000009F
:1004300024150100084B10B51BB108490848AFF35B
:1004400000800848036803B910BD074B002BFBD0A0
:10045000BDE81040184700BF00000000FC13FF1F5C
:1004600024150100F813FF1F0000000043680B7003
:1004700043681B0A4B70C3888B70C379CB70836849
:100480000B7183681B0A4B7143898B71C37ACB71E3
:10049000082070470B7843604A7843EA02234360A0
:1004A0008A7843EA02434360CA7843EA02634360BE
:1004B0000B7983604A7943EA022383608A7943EAAD
:1004C00002438360CA7943EA02638360082070476D
:1004D00000487047640B010000487047740B01002E
:1004E000F0B50C460A788280064614F8010F002306
:1004F00042EA0022B2801A4614F8010F98400833ED
:10050000202B42EA0002F7D1971D062F58D901F19E
:10051000050E551D73464C1913F8010F03F8010C15
:10052000A342F9D100234B5518460D44C6F808E004
:1005300015F8014F84400830202843EA0403F7D11E
:10054000381D0344834209D909320A440446013460
:1005500012F8015F02F8015CA342F8D80138CF1805
:100560000024084407F8014C2246F06017F8015BAC
:1005700095400832202A44EA0504F7D1181D0444A6
:10058000A04209D203330B440246013213F8015F43
:1005900003F8015CA242F8D30D1901380844002386
:1005A00005F8013C3061A8786B780A5DED780104AC
:1005B00041EA0323134343EA0563201D7361F0BD41
:1005C000551D01F1050EADE700487047980B01007D
:1005D00000487047B40B01000B78F0B4037100239E
:1005E00006460C461D4614F8012F9A400833202B6E
:1005F00045EA0205F7D1681D052801F1040708D96D
:100600002C1D3B460C4413F8012F03F8012C9C428F
:10061000F9D10D4400232B71B760F0BC704700BFC7
:1006200000487047D80B010000487047EC0B0100F0
:1006300000487047FC0D010000487047100C010095
:1006400000487047340C0100004870474C0C010012
:1006500000487047700C010000487047840C01008E
:10066000F0B48268C3680B711C0A180C170A160CC8
:10067000150E1B0E4F708E70CD704C7188710A7004
:100680000820CB71F0BC70470B684A68C260836079
:100690000820704700487047A80C010000487047C8
:1006A000B80C010000487047DC0C0100004870479E
:1006B000F00C010090F8F804704700BF406B7047E1
:1006C00000487047700C010000487047840C01001E
:1006D00010B5D0ED027A1A4C1A4A90ED087A1A4BEE
:1006E000C168C4ED007AF5EEC07AF1EE10FA82B07E
:1006F000116083ED007A09DCB5EE407AF1EE10FA74
:1007000014D0F5EEC07AF1EE10FA0FDB00211120C3
:1007100008F058FF00210E2008F054FF0B4A0C4B44
:1007200012680192019A1A6002B010BD01211120D5
:1007300008F048FF01210E2008F044FFEEE700BF5B
:10074000241CFF1F281CFF1F4C14FF1F701DFF1FC0
:100750006814FF1F09F00EBF43682DE9F0470B70C6
:1007600043681B0A4B70C3888B70C379CB70436896
:10077000002B00F085800A4600250426C36853F844
:10078000253013711C0C1F0A1B0E94715771D37105
:1007900043680135AB42344602F1040206F1040617
:1007A000ECD804F1080204F1050A04F1060904F189
:1007B000070804F1090C04F10A0E04F10B051746B1
:1007C0000C3403698B5503691B0A01F80A30438A0C
:1007D00001F80930C37C01F808300369F3B101EB7B
:1007E000070E75460022836953F822300EF8223036
:1007F0001C0C1E0A1B0EAC706E70EB70036901328C
:1008000093423C4605F1040507F10407EBD804F1D7
:10081000050C04F1060EE51D3A460834C3698B54F5
:10082000C3691B0A01F80C30C38B01F80E30C37F7B
:100830004B55C3690BB30F4680460026D8F82430C9
:1008400053F826000CF0BCFAB10005463A19002313
:1008500025FA03F00833202B02F8010BF8D1D8F861
:1008600024300434381959582A4608F055FBD8F872
:100870001C300136B3422C44E0D82046BDE8F08756
:10088000082217460C240B254FF00A0E4FF0090CD6
:100890004FF007084FF006094FF0050A042690E7CD
:1008A00070B503790B70064680680D460CF088FA27
:1008B0002A460446002324FA03F10833202B02F8C9
:1008C000011FF8D1B168681D224608F025FB601DA4
:1008D00070BD00BFF8B583880B7083881B0A4B700E
:1008E000064680680D460CF06BFA030E010A020CF6
:1008F0006B71A8702A71E97002460446B168A81DA0
:1009000008F00AFBF0680CF05BFA611D024629440E
:100910000634002322FA03F00833202B01F8010FDC
:10092000F8D104342819F168144408F0F5FA306954
:100930000CF046FA2A190746002327FA03F1083378
:10094000202B02F8011BF8D1043428193A463169EA
:1009500008F0E2FA381973692B540544190A1A0C85
:100960001B0E6970AA70EB700430F8BD084609F0E0
:10097000EBBE00BF2DE9F04F43680C689C4283B08A
:1009800005460E4600F2B3806C60002C00F0B88083
:1009900005F1080C334600274FF0040E9C795A7974
:1009A000197993F80780E868240444EA02220A438C
:1009B00042EA0862AA60DCF8002040F827206A6852
:1009C0000137BA42714603F104030EF1040EE5D873
:1009D00001F1080847464B1D881DCA1D01F1090A8F
:1009E00001F10A0B01F10B0901F10C04305CF35C1D
:1009F00016F80E1016F802E02A69000440EA0323F4
:100A00000B4343EA0E63934200F290802B613BB3A9
:100A100005F1140CF3194FF0000E9C785A781978F0
:100A200093F80380A869240444EA02220A4342EAB4
:100A300008626A61DCF8002040F82E202A690EF175
:100A4000010E72453C4603F1040307F10407E4D8A4
:100A500004F1050A04F1060B04F10709B84608344D
:100A600016F80B2016F80A0016F8083016F8097068
:100A7000E969120442EA0022134343EA07678F42FE
:100A80004ED8EF617FB30027BC4605F1200E00234E
:100A90001946301910F8012B9A400833202B41EAEF
:100AA0000201F7D104F104084144884509D2E31C4E
:100AB00033444246013213F8010F03F8010C8A4215
:100AC000F8D3721808F1FF3802F801CC06EB0803DE
:100AD0002B626A6ADEF8003042F82730EB69013792
:100AE000BB420C46D3D8204603B0BDE8F08FA1002E
:100AF000C0680BF03BFF6C60E860002C7FF448AFEF
:100B00004FF0080847460C244FF00B094FF00A0B32
:100B10004FF0090A0722062005234FF0040E65E76F
:100B2000B900686A0BF022FF6862AAE79900A86919
:100B300001930BF01BFF019BA86167E7D0ED017AE1
:100B400017EE903AC3F3C75270B412B302F5607255
:100B5000140164B2C2F30712F5EEC07AC3F3C340C6
:100B6000F1EE10FA44EA00044FEA43164FF0000099
:100B70004FEAE30548BF62F07F02DB128C71087018
:100B800048708870CE700D7108204B71CA7170BCAE
:100B900070471446E0E700BFD0ED027A17EE903AB6
:100BA000C3F3C752F0B4002A00F0FD8002F5607272
:100BB00015016DB2C2F30712F5EEC07AC3F3C34458
:100BC000F1EE10FA45EA04054FEA43174FF000042E
:100BD0004FEAE30648BF62F07F02DB124B71CA7135
:100BE0008D710C704C708C70CF700E71D0ED037ADB
:100BF00017EE903AC3F3C752002A00F0DE8002F5E8
:100C0000607215016DB2C2F30712F5EEC07AC3F33C
:100C1000C344F1EE10FA45EA04054FEA43174FF0DA
:100C200000044FEAE30648BF62F07F02DB124B7319
:100C3000CA738D730C724C728C72CF720E73D0EDBE
:100C4000047A17EE903AC3F3C752002A00F0B3803B
:100C500002F5607215016DB2C2F30712F5EEC07AAB
:100C6000C3F3C344F1EE10FA45EA04054FEA431713
:100C70004FF000044FEAE30648BF62F07F02DB1248
:100C80004B75CA758D750C744C748C74CF740E755D
:100C9000D0ED067A17EE903AC3F3C752002A00F05F
:100CA000888002F5607215016DB2C2F30712F5EE8D
:100CB000C07AC3F3C344F1EE10FA45EA04054FEAE3
:100CC00043174FF000044FEAE30648BF62F07F028B
:100CD000DB124B77CA778D770C764C768C76CF7695
:100CE0000E77D0ED077A17EE903AC3F3C752002A79
:100CF0005DD002F5607215016DB2C2F30712F5EE18
:100D0000C07AC3F3C344F1EE10FA45EA04054FEA92
:100D100043174FF000044FEAE30648BF62F07F023A
:100D2000DB1281F8253081F8272081F8265081F8E0
:100D3000204081F8214081F8224081F8237081F819
:100D40002460D0ED087A17EE903AC3F3C75262B32D
:100D500002F56072140164B2C2F30712F5EEC07AB4
:100D6000C3F3C340F1EE10FA44EA00044FEA43161D
:100D70004FF000004FEAE30548BF62F07F02DB124C
:100D800081F82E4081F8280081F8290081F82A0096
:100D900081F82B6081F82C50302081F82D3081F8BB
:100DA0002F20F0BC7047154606E71446D6E71546D7
:100DB000A5E715467BE7154650E7154625E700BF32
:100DC000D0ED017A17EE903AC3F3C752F0B4002A7F
:100DD00071D002F5607215016DB2C2F30712F5EE23
:100DE000C07AC3F3C344F1EE10FA45EA04054FEAB2
:100DF00043174FF000044FEAE30648BF62F07F025A
:100E0000DB124B71CA718D710C704C708C70CF708D
:100E10000E71D0ED027A17EE903AC3F3C752002A52
:100E20004DD002F5607215016DB2C2F30712F5EEF6
:100E3000C07AC3F3C344F1EE10FA45EA04054FEA61
:100E400043174FF000044FEAE30648BF62F07F0209
:100E5000DB124B73CA738D730C724C728C72CF722F
:100E60000E73D0ED037A17EE903AC3F3C75222B354
:100E700002F56072140164B2C2F30712F5EEC07A93
:100E8000C3F3C340F1EE10FA44EA00044FEA4316FC
:100E90004FF000004FEAE30548BF62F07F02DB122B
:100EA0008C75087448748874CE740D7518204B7551
:100EB000CA75F0BC7047154691E71446DEE7154643
:100EC000B5E700BFCB785B0930B443600A7943EAE9
:100ED000C20343604A7943EAC22242608B79DB0451
:100EE00003F4F00313434360CC798D79220102F4BB
:100EF000FE6252EA151205D0A2F5607243EAC253AF
:100F00004360CC7924F07F0443EA0463436030BC3F
:100F100008207047CA78520970B4426103460879C4
:100F200042EAC0025A61487942EAC02058618A798F
:100F3000D20402F4F00202435A61CD798E792C0179
:100F400004F4FE6454EA161403F10C0005D0A4F571
:100F5000607442EAC4525A61CD7925F07F0542EAB5
:100F600005625A61CA7A52099A610C7B42EAC4024C
:100F70009A614C7B42EAC4249C618A7BD20402F4CD
:100F8000F00222439A61CD7B8E7B2C0104F4FE6437
:100F900054EA161405D0A4F5607442EAC4529A616A
:100FA000CD7B25F07F0542EA05629A61CA7C520931
:100FB000DA610C7D42EAC402DA614C7D42EAC42463
:100FC000DC618A7DD20402F4F0022243DA61CD7D35
:100FD0008E7D2C0104F4FE6454EA161405D0A4F5A9
:100FE000607442EAC452DA61CD7D25F07F0542EAA1
:100FF0000562DA61CA7E52095A620C7F42EAC40273
:101000005A624C7F42EAC4245C628A7FD20402F4B2
:10101000F00222435A62CD7F8E7F2C0104F4FE64DD
:1010200054EA161405D0A4F5607442EAC4525A6218
:10103000CD7F25F07F0542EA05625A6291F82320B0
:1010400052099A6291F8244042EAC4029A6291F8E5
:10105000254042EAC4249C6291F82620D20402F47E
:10106000F00222439A6291F8275091F826602C01F1
:1010700004F4FE6454EA161406D0A4F5607442EA3F
:10108000C4529A6291F8275025F07F0542EA056222
:101090009A6291F82B205209DA6291F82C4042EAC8
:1010A000C402DA6291F82D4042EAC424DC6291F86D
:1010B0002E20D20402F4F0022243DA6291F82F507B
:1010C00091F82E602C0104F4FE6454EA161406D044
:1010D000A4F5607442EAC452DA6291F82F5025F008
:1010E0007F0542EA0562DA6270BC1B6B184700BFDD
:1010F000CB785B0930B483600A7943EAC20383602A
:101100004A7943EAC22282608B79DB0403F4F0035C
:1011100013438360CC798D79220102F4FE6252EA96
:10112000151205D0A2F5607243EAC2538360CC79F0
:1011300024F07F0443EA04638360CB7A5B09C360D5
:101140000A7B43EAC203C3604A7B43EAC222C2600D
:101150008B7BDB0403F4F0031343C360CC7B8D7BF8
:10116000220102F4FE6252EA151205D0A2F5607265
:1011700043EAC253C360CC7B24F07F0443EA046398
:10118000C360CB7C5B0903610A7D43EAC203036150
:101190004A7D43EAC22202618B7DDB0403F4F00343
:1011A00013430361CC7D8D7D220102F4FE6252EA7D
:1011B000151205D0A2F5607243EAC2530361CC7DDB
:1011C00024F07F0443EA04630361CB7E5B098361FF
:1011D0000A7F43EAC20383614A7F43EAC2228261F3
:1011E0008B7FDB0403F4F00313438361CC7F8D7F9B
:1011F000220102F4FE6252EA151205D0A2F56072D5
:1012000043EAC2538361CC7F24F07F0443EA046342
:10121000836191F823305B09C36191F8242043EA8C
:10122000C203C36191F8252043EAC222C26191F84A
:101230002630DB0403F4F0031343C36191F8274025
:1012400091F82650220102F4FE6252EA151206D0ED
:10125000A2F5607243EAC253C36191F8274024F0BB
:101260007F0443EA0463C36191F82B305B09036296
:1012700091F82C2043EAC203036291F82D2043EA3F
:10128000C222026291F82E30DB0403F4F003134310
:10129000036291F82F4091F82E50220102F4FE6271
:1012A00052EA151206D0A2F5607243EAC2530362F5
:1012B00091F82F4024F07F0443EA0463036230BCBA
:1012C00030207047CB785B0930B443600A7943EA39
:1012D000C20343604A7943EAC22242608B79DB044D
:1012E00003F4F00313434360CC798D79220102F4B7
:1012F000FE6252EA151205D0A2F5607243EAC253AB
:101300004360CC7924F07F0443EA04634360CB7AE2
:101310005B0983600A7B43EAC20383604A7B43EA3A
:10132000C22282608B7BDB0403F4F00313438360EF
:10133000CC7B8D7B220102F4FE6252EA151205D0AD
:10134000A2F5607243EAC2538360CC7B24F07F0431
:1013500043EA04638360CB7C5B09C3600A7D43EA94
:10136000C203C3604A7D43EAC222C2608B7DDB04B4
:1013700003F4F0031343C360CC7D8D7D220102F49E
:10138000FE6252EA151205D0A2F5607243EAC2531A
:10139000C360CC7D24F07F0443EA0463C36030BCA7
:1013A00018207047F0B585B0364A01920368364D73
:1013B000039503228DF808201B6834498B425AD1CB
:1013C00000233821044680F8232205F1300E80F8EE
:1013D000241280F8253280F8263280F8273200F572
:1013E0000A772E460FCE764538607960BA60FB608A
:1013F000354607F11007F4D103CD00227960C223EE
:101400004FF0FF0EFE263D250721386084F820327C
:1014100084F81CE284F81D6284F81E5284F81F22AE
:1014200084F8222284F8211204F2212304F25F209E
:1014300001E013F8011F83420A44FAD1D243144E4B
:1014400084F8602204F21B2504F5187703E009F004
:101450007BF9BD420BD0626815F8011F13681B6849
:10146000B3420846F3D010469847BD42F3D14FF03F
:10147000FF3005B0F0BD01AA072198474FF0FF30BB
:1014800005B0F0BDB00A0100140D01006535000083
:101490006D090000214B10B4D3F8EC20136850689C
:1014A00019780478507A137A044201EA03011BD0B8
:1014B000937A03F0030309B143F0040343F00803F4
:1014C0009910013B91720D2B0BD8DFE803F0210737
:1014D0001B070A152121150A071B0721D368013BA9
:1014E000D3605DF8044B7047937A03F0030300293F
:1014F000E6D043F00403E3E7D3685DF8044B023B16
:10150000D3607047D3685DF8044B0233D3607047F3
:10151000D3685DF8044B0133D3607047701CFF1F24
:10152000214B10B4D3F8E42013685068197804787C
:10153000507A137A044201EA03011BD0937A03F034
:10154000030309B143F0040343F008039910013B7E
:1015500091720D2B0BD8DFE803F021071B070A154A
:101560002121150A071B0721D368013BD3605DF8D1
:10157000044B7047937A03F003030029E6D043F04D
:101580000403E3E7D3685DF8044B023BD360704784
:10159000D3685DF8044B0233D3607047D3685DF8BD
:1015A000044B0133D3607047701CFF1F214B10B4F4
:1015B000D3F8E8201368506819780478507A137AC1
:1015C000044201EA03011BD0937A03F0030309B13B
:1015D00043F0040343F008039910013B91720D2B73
:1015E0000BD8DFE803F021071B070A152121150A94
:1015F000071B0721D368013BD3605DF8044B70479C
:10160000937A03F003030029E6D043F00403E3E7F1
:10161000D3685DF8044B023BD3607047D3685DF834
:10162000044B0233D3607047D3685DF8044B013339
:10163000D3607047701CFF1F214B10B45A6E1368A3
:10164000506819780478507A137A044201EA030149
:101650001BD0937A03F0030309B143F0040343F072
:1016600008039910013B91720D2B0BD8DFE803F0B2
:1016700021071B070A152121150A071B0721D3681B
:10168000013BD3605DF8044B7047937A03F003038A
:101690000029E6D043F00403E3E7D3685DF8044B88
:1016A000023BD3607047D3685DF8044B0233D360CC
:1016B0007047D3685DF8044B0133D360704700BFB7
:1016C000701CFF1F214B10B49A6E13685068197874
:1016D0000478507A137A044201EA03011BD0937A0A
:1016E00003F0030309B143F0040343F00803991026
:1016F000013B91720D2B0BD8DFE803F021071B078C
:101700000A152121150A071B0721D368013BD36065
:101710005DF8044B7047937A03F003030029E6D089
:1017200043F00403E3E7D3685DF8044B023BD36066
:101730007047D3685DF8044B0233D3607047D368B9
:101740005DF8044B0133D360704700BF701CFF1F6E
:10175000214B10B4DA6E1368506819780478507A07
:10176000137A044201EA03011BD0937A03F00303C6
:1017700009B143F0040343F008039910013B91724F
:101780000D2B0BD8DFE803F021071B070A152121D9
:10179000150A071B0721D368013BD3605DF8044B92
:1017A0007047937A03F003030029E6D043F0040363
:1017B000E3E7D3685DF8044B023BD3607047D3681E
:1017C0005DF8044B0233D3607047D3685DF8044B77
:1017D0000133D360704700BF701CFF1F214B10B452
:1017E0001A6F1368506819780478507A137A044293
:1017F00001EA03011BD0937A03F0030309B143F01C
:10180000040343F008039910013B91720D2B0BD890
:10181000DFE803F021071B070A152121150A071B22
:101820000721D368013BD3605DF8044B7047937A7E
:1018300003F003030029E6D043F00403E3E7D36891
:101840005DF8044B023BD3607047D3685DF8044BEE
:101850000233D3607047D3685DF8044B0133D36023
:10186000704700BF701CFF1F214B10B45A6F1368E4
:10187000506819780478507A137A044201EA030117
:101880001BD0937A03F0030309B143F0040343F040
:1018900008039910013B91720D2B0BD8DFE803F080
:1018A00021071B070A152121150A071B0721D368E9
:1018B000013BD3605DF8044B7047937A03F0030358
:1018C0000029E6D043F00403E3E7D3685DF8044B56
:1018D000023BD3607047D3685DF8044B0233D3609A
:1018E0007047D3685DF8044B0133D360704700BF85
:1018F000701CFF1F214B10B49A6F13685068197841
:101900000478507A137A044201EA03011BD0937AD7
:1019100003F0030309B143F0040343F008039910F3
:10192000013B91720D2B0BD8DFE803F021071B0759
:101930000A152121150A071B0721D368013BD36033
:101940005DF8044B7047937A03F003030029E6D057
:1019500043F00403E3E7D3685DF8044B023BD36034
:101960007047D3685DF8044B0233D3607047D36887
:101970005DF8044B0133D360704700BF701CFF1F3C
:10198000214B10B4DA6F1368506819780478507AD4
:10199000137A044201EA03011BD0937A03F0030394
:1019A00009B143F0040343F008039910013B91721D
:1019B0000D2B0BD8DFE803F021071B070A152121A7
:1019C000150A071B0721D368013BD3605DF8044B60
:1019D0007047937A03F003030029E6D043F0040331
:1019E000E3E7D3685DF8044B023BD3607047D368EC
:1019F0005DF8044B0233D3607047D3685DF8044B45
:101A00000133D360704700BF701CFF1F214B10B41F
:101A1000D3F880201368506819780478507A137AC4
:101A2000044201EA03011BD0937A03F0030309B1D6
:101A300043F0040343F008039910013B91720D2B0E
:101A40000BD8DFE803F021071B070A152121150A2F
:101A5000071B0721D368013BD3605DF8044B704737
:101A6000937A03F003030029E6D043F00403E3E78D
:101A7000D3685DF8044B023BD3607047D3685DF8D0
:101A8000044B0233D3607047D3685DF8044B0133D5
:101A9000D3607047701CFF1F214B10B4D3F8842013
:101AA0001368506819780478507A137A044201EA6E
:101AB00003011BD0937A03F0030309B143F004033D
:101AC00043F008039910013B91720D2B0BD8DFE80E
:101AD00003F021071B070A152121150A071B0721FF
:101AE000D368013BD3605DF8044B7047937A03F0F1
:101AF00003030029E6D043F00403E3E7D3685DF86D
:101B0000044B023BD3607047D3685DF8044B02334B
:101B1000D3607047D3685DF8044B0133D3607047DE
:101B2000701CFF1F214B10B4D3F888201368506835
:101B300019780478507A137A044201EA03011BD021
:101B4000937A03F0030309B143F0040343F008035D
:101B50009910013B91720D2B0BD8DFE803F02107A0
:101B60001B070A152121150A071B0721D368013B12
:101B7000D3605DF8044B7047937A03F003030029A8
:101B8000E6D043F00403E3E7D3685DF8044B023B7F
:101B9000D3607047D3685DF8044B0233D36070475D
:101BA000D3685DF8044B0133D3607047701CFF1F8E
:101BB000214B10B4D3F88C2013685068197804783E
:101BC000507A137A044201EA03011BD0937A03F09E
:101BD000030309B143F0040343F008039910013BE8
:101BE00091720D2B0BD8DFE803F021071B070A15B4
:101BF0002121150A071B0721D368013BD3605DF83B
:101C0000044B7047937A03F003030029E6D043F0B6
:101C10000403E3E7D3685DF8044B023BD3607047ED
:101C2000D3685DF8044B0233D3607047D3685DF826
:101C3000044B0133D3607047701CFF1F214B10B45D
:101C4000D3F890201368506819780478507A137A82
:101C5000044201EA03011BD0937A03F0030309B1A4
:101C600043F0040343F008039910013B91720D2BDC
:101C70000BD8DFE803F021071B070A152121150AFD
:101C8000071B0721D368013BD3605DF8044B704705
:101C9000937A03F003030029E6D043F00403E3E75B
:101CA000D3685DF8044B023BD3607047D3685DF89E
:101CB000044B0233D3607047D3685DF8044B0133A3
:101CC000D3607047701CFF1F214B10B4D3F89420D1
:101CD0001368506819780478507A137A044201EA3C
:101CE00003011BD0937A03F0030309B143F004030B
:101CF00043F008039910013B91720D2B0BD8DFE8DC
:101D000003F021071B070A152121150A071B0721CC
:101D1000D368013BD3605DF8044B7047937A03F0BE
:101D200003030029E6D043F00403E3E7D3685DF83A
:101D3000044B023BD3607047D3685DF8044B023319
:101D4000D3607047D3685DF8044B0133D3607047AC
:101D5000701CFF1F214B10B4D3F8982013685068F3
:101D600019780478507A137A044201EA03011BD0EF
:101D7000937A03F0030309B143F0040343F008032B
:101D80009910013B91720D2B0BD8DFE803F021076E
:101D90001B070A152121150A071B0721D368013BE0
:101DA000D3605DF8044B7047937A03F00303002976
:101DB000E6D043F00403E3E7D3685DF8044B023B4D
:101DC000D3607047D3685DF8044B0233D36070472B
:101DD000D3685DF8044B0133D3607047701CFF1F5C
:101DE000214B10B4D3F89C201368506819780478FC
:101DF000507A137A044201EA03011BD0937A03F06C
:101E0000030309B143F0040343F008039910013BB5
:101E100091720D2B0BD8DFE803F021071B070A1581
:101E20002121150A071B0721D368013BD3605DF808
:101E3000044B7047937A03F003030029E6D043F084
:101E40000403E3E7D3685DF8044B023BD3607047BB
:101E5000D3685DF8044B0233D3607047D3685DF8F4
:101E6000044B0133D3607047701CFF1F214B10B42B
:101E7000D3F8A0201368506819780478507A137A40
:101E8000044201EA03011BD0937A03F0030309B172
:101E900043F0040343F008039910013B91720D2BAA
:101EA0000BD8DFE803F021071B070A152121150ACB
:101EB000071B0721D368013BD3605DF8044B7047D3
:101EC000937A03F003030029E6D043F00403E3E729
:101ED000D3685DF8044B023BD3607047D3685DF86C
:101EE000044B0233D3607047D3685DF8044B013371
:101EF000D3607047701CFF1F214B10B4D3F8A4208F
:101F00001368506819780478507A137A044201EA09
:101F100003011BD0937A03F0030309B143F00403D8
:101F200043F008039910013B91720D2B0BD8DFE8A9
:101F300003F021071B070A152121150A071B07219A
:101F4000D368013BD3605DF8044B7047937A03F08C
:101F500003030029E6D043F00403E3E7D3685DF808
:101F6000044B023BD3607047D3685DF8044B0233E7
:101F7000D3607047D3685DF8044B0133D36070477A
:101F8000701CFF1F214B10B4D3F8A82013685068B1
:101F900019780478507A137A044201EA03011BD0BD
:101FA000937A03F0030309B143F0040343F00803F9
:101FB0009910013B91720D2B0BD8DFE803F021073C
:101FC0001B070A152121150A071B0721D368013BAE
:101FD000D3605DF8044B7047937A03F00303002944
:101FE000E6D043F00403E3E7D3685DF8044B023B1B
:101FF000D3607047D3685DF8044B0233D3607047F9
:10200000D3685DF8044B0133D3607047701CFF1F29
:10201000214B10B4D3F8AC201368506819780478B9
:10202000507A137A044201EA03011BD0937A03F039
:10203000030309B143F0040343F008039910013B83
:1020400091720D2B0BD8DFE803F021071B070A154F
:102050002121150A071B0721D368013BD3605DF8D6
:10206000044B7047937A03F003030029E6D043F052
:102070000403E3E7D3685DF8044B023BD360704789
:10208000D3685DF8044B0233D3607047D3685DF8C2
:10209000044B0133D3607047701CFF1F214B10B4F9
:1020A000D3F8B0201368506819780478507A137AFE
:1020B000044201EA03011BD0937A03F0030309B140
:1020C00043F0040343F008039910013B91720D2B78
:1020D0000BD8DFE803F021071B070A152121150A99
:1020E000071B0721D368013BD3605DF8044B7047A1
:1020F000937A03F003030029E6D043F00403E3E7F7
:10210000D3685DF8044B023BD3607047D3685DF839
:10211000044B0233D3607047D3685DF8044B01333E
:10212000D3607047701CFF1F214B10B4D3F8B4204C
:102130001368506819780478507A137A044201EAD7
:1021400003011BD0937A03F0030309B143F00403A6
:1021500043F008039910013B91720D2B0BD8DFE877
:1021600003F021071B070A152121150A071B072168
:10217000D368013BD3605DF8044B7047937A03F05A
:1021800003030029E6D043F00403E3E7D3685DF8D6
:10219000044B023BD3607047D3685DF8044B0233B5
:1021A000D3607047D3685DF8044B0133D360704748
:1021B000701CFF1F214B10B4D3F8B820136850686F
:1021C00019780478507A137A044201EA03011BD08B
:1021D000937A03F0030309B143F0040343F00803C7
:1021E0009910013B91720D2B0BD8DFE803F021070A
:1021F0001B070A152121150A071B0721D368013B7C
:10220000D3605DF8044B7047937A03F00303002911
:10221000E6D043F00403E3E7D3685DF8044B023BE8
:10222000D3607047D3685DF8044B0233D3607047C6
:10223000D3685DF8044B0133D3607047701CFF1FF7
:10224000214B10B4D3F8BC20136850681978047877
:10225000507A137A044201EA03011BD0937A03F007
:10226000030309B143F0040343F008039910013B51
:1022700091720D2B0BD8DFE803F021071B070A151D
:102280002121150A071B0721D368013BD3605DF8A4
:10229000044B7047937A03F003030029E6D043F020
:1022A0000403E3E7D3685DF8044B023BD360704757
:1022B000D3685DF8044B0233D3607047D3685DF890
:1022C000044B0133D3607047701CFF1F214B10B4C7
:1022D000D3F8C0201368506819780478507A137ABC
:1022E000044201EA03011BD0937A03F0030309B10E
:1022F00043F0040343F008039910013B91720D2B46
:102300000BD8DFE803F021071B070A152121150A66
:10231000071B0721D368013BD3605DF8044B70476E
:10232000937A03F003030029E6D043F00403E3E7C4
:10233000D3685DF8044B023BD3607047D3685DF807
:10234000044B0233D3607047D3685DF8044B01330C
:10235000D3607047701CFF1F214B10B4D3F8C4200A
:102360001368506819780478507A137A044201EAA5
:1023700003011BD0937A03F0030309B143F0040374
:1023800043F008039910013B91720D2B0BD8DFE845
:1023900003F021071B070A152121150A071B072136
:1023A000D368013BD3605DF8044B7047937A03F028
:1023B00003030029E6D043F00403E3E7D3685DF8A4
:1023C000044B023BD3607047D3685DF8044B023383
:1023D000D3607047D3685DF8044B0133D360704716
:1023E000701CFF1F214B10B4D3F8C820136850682D
:1023F00019780478507A137A044201EA03011BD059
:10240000937A03F0030309B143F0040343F0080394
:102410009910013B91720D2B0BD8DFE803F02107D7
:102420001B070A152121150A071B0721D368013B49
:10243000D3605DF8044B7047937A03F003030029DF
:10244000E6D043F00403E3E7D3685DF8044B023BB6
:10245000D3607047D3685DF8044B0233D360704794
:10246000D3685DF8044B0133D3607047701CFF1FC5
:10247000214B10B4D3F8CC20136850681978047835
:10248000507A137A044201EA03011BD0937A03F0D5
:10249000030309B143F0040343F008039910013B1F
:1024A00091720D2B0BD8DFE803F021071B070A15EB
:1024B0002121150A071B0721D368013BD3605DF872
:1024C000044B7047937A03F003030029E6D043F0EE
:1024D0000403E3E7D3685DF8044B023BD360704725
:1024E000D3685DF8044B0233D3607047D3685DF85E
:1024F000044B0133D3607047701CFF1F214B10B495
:10250000D3F8D0201368506819780478507A137A79
:10251000044201EA03011BD0937A03F0030309B1DB
:1025200043F0040343F008039910013B91720D2B13
:102530000BD8DFE803F021071B070A152121150A34
:10254000071B0721D368013BD3605DF8044B70473C
:10255000937A03F003030029E6D043F00403E3E792
:10256000D3685DF8044B023BD3607047D3685DF8D5
:10257000044B0233D3607047D3685DF8044B0133DA
:10258000D3607047701CFF1F214B10B4D3F8D420C8
:102590001368506819780478507A137A044201EA73
:1025A00003011BD0937A03F0030309B143F0040342
:1025B00043F008039910013B91720D2B0BD8DFE813
:1025C00003F021071B070A152121150A071B072104
:1025D000D368013BD3605DF8044B7047937A03F0F6
:1025E00003030029E6D043F00403E3E7D3685DF872
:1025F000044B023BD3607047D3685DF8044B023351
:10260000D3607047D3685DF8044B0133D3607047E3
:10261000701CFF1F214B10B4D3F8D82013685068EA
:1026200019780478507A137A044201EA03011BD026
:10263000937A03F0030309B143F0040343F0080362
:102640009910013B91720D2B0BD8DFE803F02107A5
:102650001B070A152121150A071B0721D368013B17
:10266000D3605DF8044B7047937A03F003030029AD
:10267000E6D043F00403E3E7D3685DF8044B023B84
:10268000D3607047D3685DF8044B0233D360704762
:10269000D3685DF8044B0133D3607047701CFF1F93
:1026A000214B10B4D3F8DC201368506819780478F3
:1026B000507A137A044201EA03011BD0937A03F0A3
:1026C000030309B143F0040343F008039910013BED
:1026D00091720D2B0BD8DFE803F021071B070A15B9
:1026E0002121150A071B0721D368013BD3605DF840
:1026F000044B7047937A03F003030029E6D043F0BC
:102700000403E3E7D3685DF8044B023BD3607047F2
:10271000D3685DF8044B0233D3607047D3685DF82B
:10272000044B0133D3607047701CFF1F214B10B462
:10273000D3F8E0201368506819780478507A137A37
:10274000044201EA03011BD0937A03F0030309B1A9
:1027500043F0040343F008039910013B91720D2BE1
:102760000BD8DFE803F021071B070A152121150A02
:10277000071B0721D368013BD3605DF8044B70470A
:10278000937A03F003030029E6D043F00403E3E760
:10279000D3685DF8044B023BD3607047D3685DF8A3
:1027A000044B0233D3607047D3685DF8044B0133A8
:1027B000D3607047701CFF1F214B10B45A6A136816
:1027C000506819780478507A137A044201EA0301B8
:1027D0001BD0937A03F0030309B143F0040343F0E1
:1027E00008039910013B91720D2B0BD8DFE803F021
:1027F00021071B070A152121150A071B0721D3688A
:10280000013BD3605DF8044B7047937A03F00303F8
:102810000029E6D043F00403E3E7D3685DF8044BF6
:10282000023BD3607047D3685DF8044B0233D3603A
:102830007047D3685DF8044B0133D360704700BF25
:10284000701CFF1F214B10B49A6A136850681978E6
:102850000478507A137A044201EA03011BD0937A78
:1028600003F0030309B143F0040343F00803991094
:10287000013B91720D2B0BD8DFE803F021071B07FA
:102880000A152121150A071B0721D368013BD360D4
:102890005DF8044B7047937A03F003030029E6D0F8
:1028A00043F00403E3E7D3685DF8044B023BD360D5
:1028B0007047D3685DF8044B0233D3607047D36828
:1028C0005DF8044B0133D360704700BF701CFF1FDD
:1028D000214B10B4DA6A1368506819780478507A7A
:1028E000137A044201EA03011BD0937A03F0030335
:1028F00009B143F0040343F008039910013B9172BE
:102900000D2B0BD8DFE803F021071B070A15212147
:10291000150A071B0721D368013BD3605DF8044B00
:102920007047937A03F003030029E6D043F00403D1
:10293000E3E7D3685DF8044B023BD3607047D3688C
:102940005DF8044B0233D3607047D3685DF8044BE5
:102950000133D360704700BF701CFF1F214B10B4C0
:102960001A6B1368506819780478507A137A044205
:1029700001EA03011BD0937A03F0030309B143F08A
:10298000040343F008039910013B91720D2B0BD8FF
:10299000DFE803F021071B070A152121150A071B91
:1029A0000721D368013BD3605DF8044B7047937AED
:1029B00003F003030029E6D043F00403E3E7D36800
:1029C0005DF8044B023BD3607047D3685DF8044B5D
:1029D0000233D3607047D3685DF8044B0133D36092
:1029E000704700BF701CFF1F214B10B45A6B136857
:1029F000506819780478507A137A044201EA030186
:102A00001BD0937A03F0030309B143F0040343F0AE
:102A100008039910013B91720D2B0BD8DFE803F0EE
:102A200021071B070A152121150A071B0721D36857
:102A3000013BD3605DF8044B7047937A03F00303C6
:102A40000029E6D043F00403E3E7D3685DF8044BC4
:102A5000023BD3607047D3685DF8044B0233D36008
:102A60007047D3685DF8044B0133D360704700BFF3
:102A7000701CFF1F214B10B49A6B136850681978B3
:102A80000478507A137A044201EA03011BD0937A46
:102A900003F0030309B143F0040343F00803991062
:102AA000013B91720D2B0BD8DFE803F021071B07C8
:102AB0000A152121150A071B0721D368013BD360A2
:102AC0005DF8044B7047937A03F003030029E6D0C6
:102AD00043F00403E3E7D3685DF8044B023BD360A3
:102AE0007047D3685DF8044B0233D3607047D368F6
:102AF0005DF8044B0133D360704700BF701CFF1FAB
:102B0000214B10B4DA6B1368506819780478507A46
:102B1000137A044201EA03011BD0937A03F0030302
:102B200009B143F0040343F008039910013B91728B
:102B30000D2B0BD8DFE803F021071B070A15212115
:102B4000150A071B0721D368013BD3605DF8044BCE
:102B50007047937A03F003030029E6D043F004039F
:102B6000E3E7D3685DF8044B023BD3607047D3685A
:102B70005DF8044B0233D3607047D3685DF8044BB3
:102B80000133D360704700BF701CFF1F214B10B48E
:102B90001A6C1368506819780478507A137A0442D2
:102BA00001EA03011BD0937A03F0030309B143F058
:102BB000040343F008039910013B91720D2B0BD8CD
:102BC000DFE803F021071B070A152121150A071B5F
:102BD0000721D368013BD3605DF8044B7047937ABB
:102BE00003F003030029E6D043F00403E3E7D368CE
:102BF0005DF8044B023BD3607047D3685DF8044B2B
:102C00000233D3607047D3685DF8044B0133D3605F
:102C1000704700BF701CFF1F214B10B45A6C136823
:102C2000506819780478507A137A044201EA030153
:102C30001BD0937A03F0030309B143F0040343F07C
:102C400008039910013B91720D2B0BD8DFE803F0BC
:102C500021071B070A152121150A071B0721D36825
:102C6000013BD3605DF8044B7047937A03F0030394
:102C70000029E6D043F00403E3E7D3685DF8044B92
:102C8000023BD3607047D3685DF8044B0233D360D6
:102C90007047D3685DF8044B0133D360704700BFC1
:102CA000701CFF1F214B10B49A6C13685068197880
:102CB0000478507A137A044201EA03011BD0937A14
:102CC00003F0030309B143F0040343F00803991030
:102CD000013B91720D2B0BD8DFE803F021071B0796
:102CE0000A152121150A071B0721D368013BD36070
:102CF0005DF8044B7047937A03F003030029E6D094
:102D000043F00403E3E7D3685DF8044B023BD36070
:102D10007047D3685DF8044B0233D3607047D368C3
:102D20005DF8044B0133D360704700BF701CFF1F78
:102D3000214B10B4DA6C1368506819780478507A13
:102D4000137A044201EA03011BD0937A03F00303D0
:102D500009B143F0040343F008039910013B917259
:102D60000D2B0BD8DFE803F021071B070A152121E3
:102D7000150A071B0721D368013BD3605DF8044B9C
:102D80007047937A03F003030029E6D043F004036D
:102D9000E3E7D3685DF8044B023BD3607047D36828
:102DA0005DF8044B0233D3607047D3685DF8044B81
:102DB0000133D360704700BF701CFF1F214B10B45C
:102DC0001A6D1368506819780478507A137A04429F
:102DD00001EA03011BD0937A03F0030309B143F026
:102DE000040343F008039910013B91720D2B0BD89B
:102DF000DFE803F021071B070A152121150A071B2D
:102E00000721D368013BD3605DF8044B7047937A88
:102E100003F003030029E6D043F00403E3E7D3689B
:102E20005DF8044B023BD3607047D3685DF8044BF8
:102E30000233D3607047D3685DF8044B0133D3602D
:102E4000704700BF701CFF1F214B10B45A6D1368F0
:102E5000506819780478507A137A044201EA030121
:102E60001BD0937A03F0030309B143F0040343F04A
:102E700008039910013B91720D2B0BD8DFE803F08A
:102E800021071B070A152121150A071B0721D368F3
:102E9000013BD3605DF8044B7047937A03F0030362
:102EA0000029E6D043F00403E3E7D3685DF8044B60
:102EB000023BD3607047D3685DF8044B0233D360A4
:102EC0007047D3685DF8044B0133D360704700BF8F
:102ED000701CFF1F214B10B49A6D1368506819784D
:102EE0000478507A137A044201EA03011BD0937AE2
:102EF00003F0030309B143F0040343F008039910FE
:102F0000013B91720D2B0BD8DFE803F021071B0763
:102F10000A152121150A071B0721D368013BD3603D
:102F20005DF8044B7047937A03F003030029E6D061
:102F300043F00403E3E7D3685DF8044B023BD3603E
:102F40007047D3685DF8044B0233D3607047D36891
:102F50005DF8044B0133D360704700BF701CFF1F46
:102F6000214B10B4DA6D1368506819780478507AE0
:102F7000137A044201EA03011BD0937A03F003039E
:102F800009B143F0040343F008039910013B917227
:102F90000D2B0BD8DFE803F021071B070A152121B1
:102FA000150A071B0721D368013BD3605DF8044B6A
:102FB0007047937A03F003030029E6D043F004033B
:102FC000E3E7D3685DF8044B023BD3607047D368F6
:102FD0005DF8044B0233D3607047D3685DF8044B4F
:102FE0000133D360704700BF701CFF1F214B10B42A
:102FF0001A6E1368506819780478507A137A04426C
:1030000001EA03011BD0937A03F0030309B143F0F3
:10301000040343F008039910013B91720D2B0BD868
:10302000DFE803F021071B070A152121150A071BFA
:103030000721D368013BD3605DF8044B7047937A56
:1030400003F003030029E6D043F00403E3E7D36869
:103050005DF8044B023BD3607047D3685DF8044BC6
:103060000233D3607047D3685DF8044B0133D360FB
:10307000704700BF701CFF1F214B10B45A681368C3
:10308000506819780478507A137A044201EA0301EF
:103090001BD0937A03F0030309B143F0040343F018
:1030A00008039910013B91720D2B0BD8DFE803F058
:1030B00021071B070A152121150A071B0721D368C1
:1030C000013BD3605DF8044B7047937A03F0030330
:1030D0000029E6D043F00403E3E7D3685DF8044B2E
:1030E000023BD3607047D3685DF8044B0233D36072
:1030F0007047D3685DF8044B0133D360704700BF5D
:10310000701CFF1F214B10B49A681368506819781F
:103110000478507A137A044201EA03011BD0937AAF
:1031200003F0030309B143F0040343F008039910CB
:10313000013B91720D2B0BD8DFE803F021071B0731
:103140000A152121150A071B0721D368013BD3600B
:103150005DF8044B7047937A03F003030029E6D02F
:1031600043F00403E3E7D3685DF8044B023BD3600C
:103170007047D3685DF8044B0233D3607047D3685F
:103180005DF8044B0133D360704700BF701CFF1F14
:10319000214B10B4DA681368506819780478507AB3
:1031A000137A044201EA03011BD0937A03F003036C
:1031B00009B143F0040343F008039910013B9172F5
:1031C0000D2B0BD8DFE803F021071B070A1521217F
:1031D000150A071B0721D368013BD3605DF8044B38
:1031E0007047937A03F003030029E6D043F0040309
:1031F000E3E7D3685DF8044B023BD3607047D368C4
:103200005DF8044B0233D3607047D3685DF8044B1C
:103210000133D360704700BF701CFF1F214B10B4F7
:103220001A691368506819780478507A137A04423E
:1032300001EA03011BD0937A03F0030309B143F0C1
:10324000040343F008039910013B91720D2B0BD836
:10325000DFE803F021071B070A152121150A071BC8
:103260000721D368013BD3605DF8044B7047937A24
:1032700003F003030029E6D043F00403E3E7D36837
:103280005DF8044B023BD3607047D3685DF8044B94
:103290000233D3607047D3685DF8044B0133D360C9
:1032A000704700BF701CFF1F214B10B45A69136890
:1032B000506819780478507A137A044201EA0301BD
:1032C0001BD0937A03F0030309B143F0040343F0E6
:1032D00008039910013B91720D2B0BD8DFE803F026
:1032E00021071B070A152121150A071B0721D3688F
:1032F000013BD3605DF8044B7047937A03F00303FE
:103300000029E6D043F00403E3E7D3685DF8044BFB
:10331000023BD3607047D3685DF8044B0233D3603F
:103320007047D3685DF8044B0133D360704700BF2A
:10333000701CFF1F214B10B49A69136850681978EC
:103340000478507A137A044201EA03011BD0937A7D
:1033500003F0030309B143F0040343F00803991099
:10336000013B91720D2B0BD8DFE803F021071B07FF
:103370000A152121150A071B0721D368013BD360D9
:103380005DF8044B7047937A03F003030029E6D0FD
:1033900043F00403E3E7D3685DF8044B023BD360DA
:1033A0007047D3685DF8044B0233D3607047D3682D
:1033B0005DF8044B0133D360704700BF701CFF1FE2
:1033C000214B10B4DA691368506819780478507A80
:1033D000137A044201EA03011BD0937A03F003033A
:1033E00009B143F0040343F008039910013B9172C3
:1033F0000D2B0BD8DFE803F021071B070A1521214D
:10340000150A071B0721D368013BD3605DF8044B05
:103410007047937A03F003030029E6D043F00403D6
:10342000E3E7D3685DF8044B023BD3607047D36891
:103430005DF8044B0233D3607047D3685DF8044BEA
:103440000133D360704700BF701CFF1F214B10B4C5
:103450001A6A1368506819780478507A137A04420B
:1034600001EA03011BD0937A03F0030309B143F08F
:10347000040343F008039910013B91720D2B0BD804
:10348000DFE803F021071B070A152121150A071B96
:103490000721D368013BD3605DF8044B7047937AF2
:1034A00003F003030029E6D043F00403E3E7D36805
:1034B0005DF8044B023BD3607047D3685DF8044B62
:1034C0000233D3607047D3685DF8044B0133D36097
:1034D000704700BF701CFF1F214B10B41A6813689F
:1034E000506819780478507A137A044201EA03018B
:1034F0001BD0937A03F0030309B143F0040343F0B4
:1035000008039910013B91720D2B0BD8DFE803F0F3
:1035100021071B070A152121150A071B0721D3685C
:10352000013BD3605DF8044B7047937A03F00303CB
:103530000029E6D043F00403E3E7D3685DF8044BC9
:10354000023BD3607047D3685DF8044B0233D3600D
:103550007047D3685DF8044B0133D360704700BFF8
:10356000701CFF1F2DE9F041632984B003DD90F842
:10357000F874002F53D0136805460F4610461B6899
:1035800005F223219847C2B2C0F30721561885F8E7
:103590001E2247F30722F643FF234FF0FE0EFCB234
:1035A00085F82222421C85F8206285F81F1285F8D2
:1035B0001C3285F81DE285F821420DDB00F2222144
:1035C000294405F22123002201E013F8014F99421A
:1035D0002244FAD1D343DBB22A1800F10807B7F529
:1035E000007F82F823321EDC002F05F5077616DDFA
:1035F0000730DFF81081064405F21B2403E007F0D2
:10360000A3F8B4420BD06A6814F8011F13681B6852
:1036100043450846F3D010469847B442F3D13846A4
:1036200004B0BDE8F081344A0192344C2B68039415
:1036300003228DF808201B6831498B4255D10023A5
:10364000382185F8232204F1300E85F8241285F8FC
:10365000253285F8263285F8273205F50A76274681
:103660000FCF774530607160B260F3603C4606F181
:103670001006F4D103CC00227160C2234FF0FF0E7C
:10368000FE273D240721306085F8203285F81CE2B2
:1036900085F81D7285F81E4285F81F2285F82222C2
:1036A00085F8211205F2212305F25F2001E013F8CD
:1036B000011F98420A44FAD1D243DFF8488085F8C6
:1036C000602205F21B2405F5187603E007F03CF8AC
:1036D000B4420ED06A6814F8011F13681B68434592
:1036E0000846F3D010469847F2E7284601AA07217A
:1036F00098474FF0FF3093E7B00A0100140D010026
:10370000653500006D090000F8B5044615460E4603
:10371000084602211F4605F05BFF2846022105F0FE
:1037200057FF9B499B4A51F836002760012300F55B
:103730000077E760237551F83510637501F5007760
:103740000023A36127611346013BFDD190F80032AD
:1037500091F8002203F00103D20744BF43F00203B3
:10376000DBB2A37504F10C073B2E00F20486DFE800
:1037700016F0F505EB05E105D705CD05C305B9053F
:10378000AF05A5059B05910587057D0573056905B1
:103790005F0555054B05410537052D052305190521
:1037A0000F050505FB04F104E704DD04D304C90497
:1037B000BF04B404A9049E04930488047D0429046E
:1037C0001F0415040B040104F703ED03E303D903FD
:1037D000CF03C503BB03B103A7039D039303890371
:1037E0007F0375036B0361033C006B4B6B49C3F8AC
:1037F000EC7004223B2005F0D3FC012323773B2D02
:1038000000F2B685DFE815F00C030203F802EE02C1
:10381000E402DA02D002C602BC02B202A8029E0290
:1038200094028A028002320228021E0214020A0254
:103830000002F601EC01E201D801CE01C401BA0197
:10384000B001A6019C01920187017C017101660112
:103850005B01500145013A012F01240119010E01BC
:103860000301F800ED00E200B800AD00A2009700EF
:103870008C00810076006B00600055004A003C001F
:10388000454B4649C3F8EC7004223B2005F088FC08
:10389000237F0122134423772046F8BD3E4B404945
:1038A000C3F8E87004223A2005F07AFC237F012255
:1038B000F0E7394B3B49C3F8E4700422392005F0A6
:1038C0006FFC237F0122E5E7334B3749C3F8E070F3
:1038D0000422382005F064FC237F0122DAE72E4B16
:1038E0003249C3F8DC700422372005F059FC237FED
:1038F0000122CFE7284B2E49C3F8D8700422362086
:1039000005F04EFC237F0122C4E7234B2949C3F86D
:10391000D4700422352005F043FC237F0122B9E74F
:103920001D4B2549C3F8D0700422342005F038FC23
:10393000237F0122AEE7184B2049C3F8CC70042244
:10394000332005F02DFC237F0122A3E7124B1C49F5
:10395000C3F8C8700422322005F022FC237F012224
:1039600098E70D4B1749C3F8C4700422312005F0C5
:1039700017FC237F01228DE7074B1349C3F8C07062
:103980000422302005F00CFC237F012282E700BFD7
:10399000280E010080380100701CFF1F95140000E4
:1039A000AD150000211500002D270000A126000004
:1039B0001526000089250000FD2400007124000068
:1039C000E523000059230000CD220000AC4BAD4997
:1039D000C3F8BC7004222F2005F0E2FB237F0122F4
:1039E00058E7A74BA849C3F8B87004222E2005F069
:1039F000D7FB237F01224DE7A14BA449C3F8B47044
:103A000004222D2005F0CCFB237F012242E79C4BB2
:103A10009F49C3F8B07004222C2005F0C1FB237F1E
:103A2000012237E7964B9B49C3F8AC7004222B2048
:103A300005F0B6FB237F01222CE7914B9649C3F892
:103A4000A87004222A2005F0ABFB237F012221E786
:103A50008B4B9249C3F8A4700422292005F0A0FBE7
:103A6000237F012216E7864B8D49C3F8A0700422FC
:103A7000282005F095FB237F01220BE7804B894925
:103A8000C3F89C700422272005F08AFB237F0122C3
:103A900000E77B4B8449C3F898700422262005F088
:103AA0007FFB237F0122F5E6754B8049C3F89470B4
:103AB0000422252005F074FB237F0122EAE6704BE7
:103AC0007B49C3F890700422242005F069FB237F12
:103AD0000122DFE66A4B7749C3F88C700422232069
:103AE00005F05EFB237F0122D4E6654B7249C3F8E3
:103AF00088700422222005F053FB237F0122C9E6AF
:103B00005F4B6E49C3F884700422212005F048FB06
:103B1000237F0122BEE65A4B6949C3F88070042214
:103B2000202005F03DFB237F0122B3E6544B65497D
:103B3000DF6704221F2005F033FB237F0122A9E663
:103B40004F4B61499F6704221E2005F029FB237F0C
:103B500001229FE64A4B5D495F6704221D2005F064
:103B60001FFB237F012295E6454B59491F6704221D
:103B70001C2005F015FB237F01228BE6404B5549A5
:103B8000DF6604221B2005F00BFB237F012281E668
:103B90003B4B51499F6604221A2005F001FB237F0D
:103BA000012277E6364B4D495F660422192005F065
:103BB000F7FA237F01226DE6314B49491F66042243
:103BC000182005F0EDFA237F012263E62C4B4549CE
:103BD000DF650422172005F0E3FA237F012259E66E
:103BE000274B41499F650422162005F0D9FA237F0F
:103BF00001224FE6224B3D495F650422152005F066
:103C0000CFFA237F012245E61D4B39491F65042267
:103C1000142005F0C5FA237F01223BE6184B3549F5
:103C2000DF640422132005F0BBFA237F012231E672
:103C3000134B31499F640422122005F0B1FA237F0F
:103C4000012227E60E4B2D495F640422112005F066
:103C5000A7FA237F01221DE6094B29491F6404228C
:103C6000102005F09DFA237F012213E6044B25491D
:103C7000DF6304220F2005F093FA237F012209E677
:103C8000701CFF1F41220000B52100002921000007
:103C90009D20000011200000851F0000F91E00007B
:103CA0006D1E0000E11D0000551D0000C91C000034
:103CB0003D1C0000B11B0000251B0000991A0000EC
:103CC0000D1A000081190000F518000069180000A5
:103CD000DD17000051170000C5160000391600005E
:103CE000ED2F0000612F0000D52E0000492E0000AE
:103CF000BD2D0000312D0000A52C0000192C000066
:103D00008D2B0000012B0000B34BB4499F630422AC
:103D10000E2005F045FA237F0122BBE5AE4BB049EA
:103D20005F6304220D2005F03BFA237F0122B1E5F9
:103D3000A94BAC491F6304220C2005F031FA237F04
:103D40000122A7E5A44BA849DF6204220B2005F05D
:103D500027FA237F01229DE59F4BA4499F620422FD
:103D60000A2005F01DFA237F012293E59A4BA04912
:103D70005F620422092005F013FA237F012289E5FE
:103D8000954B9C491F620422082005F009FA237F05
:103D900001227FE5904B9849DF610422072005F05E
:103DA000FFF9237F012275E58B4B94499F61042223
:103DB000062005F0F5F9237F01226BE5864B90493B
:103DC0005F610422052005F0EBF9237F012261E504
:103DD000814B8C491F610422104605F0E1F9237FD5
:103DE000012257E57C4B8849DF600422032005F05F
:103DF000D7F9237F01224DE5774B84499F60042248
:103E0000022005F0CDF9237F012243E5724B804962
:103E10005F600422012005F0C3F9237F012239E508
:103E20006D4B7C491F600422002005F0B9F9237F07
:103E300001222FE5684B7849C3F8E87004223A2044
:103E400005F0AEF90123D9E4634B7449C3F8E4707B
:103E50000422392005F0A4F90123CFE45E4B704918
:103E6000C3F8E0700422382005F09AF90123C5E474
:103E7000594B6C49C3F8DC700422372005F090F9E7
:103E80000123BBE4544B6849C3F8D87004223620A0
:103E900005F086F90123B1E44F4B6449C3F8D470AF
:103EA0000422352005F07CF90123A7E44A4B604940
:103EB000C3F8D0700422342005F072F901239DE488
:103EC000454B5C49C3F8CC700422332005F068F9F7
:103ED000012393E4404B5849C3F8C87004223220B0
:103EE00005F05EF9012389E43B4B5449C3F8C470E3
:103EF0000422312005F054F901237FE4364B504968
:103F0000C3F8C0700422302005F04AF9012375E49B
:103F1000314B4C49C3F8BC7004222F2005F040F906
:103F200001236BE42C4B4849C3F8B87004222E20BF
:103F300005F036F9012361E4274B4449C3F8B47016
:103F400004222D2005F02CF9012357E4224B40498F
:103F5000C3F8B07004222C2005F022F901234DE4AF
:103F60001D4B3C49C3F8AC7004222B2005F018F916
:103F7000012343E4184B3849C3F8A87004222A20CF
:103F800005F00EF9012339E4134B3449C3F8A4704A
:103F90000422292005F004F901232FE40E4B3049B7
:103FA000C3F8A0700422282005F0FAF8012325E4C4
:103FB000094B2C49C3F89C700422272005F0F0F827
:103FC00001231BE4044B2849C3F8987004222620DF
:103FD00005F0E6F8012311E4701CFF1F752A0000AC
:103FE000E92900005D290000D128000045280000D3
:103FF000B92700004D340000C13300003533000004
:10400000A93200001D32000091310000053100008E
:1040100079300000D9340000AD15000021150000F2
:104020002D270000A126000015260000892500008C
:10403000FD24000071240000E52300005923000046
:10404000CD22000041220000B521000029210000FE
:104050009D20000011200000851F0000F91E0000B7
:104060006D1E0000E11D0000551D0000C34BC4493A
:10407000C3F894700422252005F092F80123FFF77D
:10408000BDBBBE4BBF49C3F890700422242005F08D
:1040900087F80123FFF7B2BBB84BBB49C3F88C705C
:1040A0000422232005F07CF80123FFF7A7BBB34BC4
:1040B000B649C3F888700422222005F071F8012364
:1040C000FFF79CBBAD4BB249C3F88470042221209A
:1040D00005F066F80123FFF791BBA84BAD49C3F883
:1040E00080700422202005F05BF80123FFF786BBD7
:1040F000A24BA949DF6704221F2005F051F80123D4
:10410000FFF77CBB9D4BA5499F6704221E2005F04D
:1041100047F80123FFF772BB984BA1495F67042260
:104120001D2005F03DF80123FFF768BB934B9D4927
:104130001F6704221C2005F033F80123FFF75EBB44
:104140008E4B9949DF6604221B2005F029F80123D4
:10415000FFF754BB894B95499F6604221A2005F04E
:104160001FF80123FFF74ABB844B91495F66042285
:10417000192005F015F80123FFF740BB7F4B8D494F
:104180001F660422182005F00BF80123FFF736BB49
:104190007A4B8949DF650422172005F001F80123D5
:1041A000FFF72CBB754B85499F650422162004F050
:1041B000F7FF0123FFF722BB704B81495F650422A3
:1041C000152004F0EDFF0123FFF718BB6B4B7D4971
:1041D0001F650422142004F0E3FF0123FFF70EBB48
:1041E000664B7949DF640422132004F0D9FF0123D0
:1041F000FFF704BB614B75499F640422122004F051
:10420000CFFF0123FFF7FABA5C4B71495F640422C8
:10421000112004F0C5FF0123FFF7F0BA574B6D4999
:104220001F640422102004F0BBFF0123FFF7E6BA4D
:10423000524B6949DF6304220F2004F0B1FF0123D0
:10424000FFF7DCBA4D4B65499F6304220E2004F052
:10425000A7FF0123FFF7D2BA484B61495F630422ED
:104260000D2004F09DFF0123FFF7C8BA434B5D49C1
:104270001F6304220C2004F093FF0123FFF7BEBA52
:104280003E4B5949DF6204220B2004F089FF0123D1
:10429000FFF7B4BA394B55499F6204220A2004F053
:1042A0007FFF0123FFF7AABA344B51495F62042212
:1042B000092004F075FF0123FFF7A0BA2F4B4D49E9
:1042C0001F620422082004F06BFF0123FFF796BA57
:1042D0002A4B4949DF610422072004F061FF0123D2
:1042E000FFF78CBA254B45499F610422062004F054
:1042F00057FF0123FFF782BA204B41495F61042237
:10430000052004F04DFF0123FFF778BA1B4B3D4910
:104310001F610422104604F043FF0123FFF76EBA29
:10432000164B3949DF600422032004F039FF0123D2
:10433000FFF764BA114B35499F600422022004F054
:104340002FFF0123FFF75ABA0C4B31495F6004225B
:10435000012004F025FF0123FFF750BA074B2D4938
:104360001F600422002004F01BFF0123FFF746BA60
:104370000022FFF78FBA0023FFF740BA701CFF1F1F
:10438000C91C00003D1C0000B11B0000251B0000E3
:10439000991A00000D1A000081190000F51800009C
:1043A00069180000DD17000051170000C516000055
:1043B00039160000ED2F0000612F0000D52E0000FF
:1043C000492E0000BD2D0000312D0000A52C00005D
:1043D000192C00008D2B0000012B0000752A000015
:1043E000E92900005D290000D128000045280000CF
:1043F000B92700004D340000C13300003533000000
:10440000A93200001D32000091310000053100008A
:1044100079300000D93400002DE9F04F072193B026
:104420007D487E4C04F02EFA5A217B4804F030FA85
:104430000121112005F0CCF801210E2005F0C8F86B
:104440000121112005F0BEF801210E2005F0BAF877
:1044500000234FF46142A260C4F8E43404F27C42C9
:10446000C4F8E834C4F8F034C4F8EC3402E00133A2
:10447000192B0AD052F8041F0029F8D103F59071C6
:10448000674A44F8212064335360664A002302E0FF
:104490000133192B0BD052F8041F0029F8D1624ABE
:1044A00004EB83017D33C1F81C249360D4605D4A22
:1044B000002302E00133192B0BD052F8041F00290E
:1044C000F8D15A4A04EB83017D33C1F81C24936070
:1044D000D460544A002302E00133192B0BD052F868
:1044E000041F0029F8D1524A04EB83017D33C1F83F
:1044F0001C249360D4604B4A002302E00133192B43
:104500000BD052F8041F0029F8D14A4A04EB83016A
:104510007D33C1F81C249360D460424A002302E03A
:104520000133192B0BD052F8041F0029F8D1424A4D
:1045300004EB83017D33C1F81C249360D460394AB5
:10454000002302E00133192B0BD052F8041F00297D
:10455000F8D13A4A04EB83017D33C1F81C249360FF
:10456000D460374B94F8F824DFF8DCB0354EDFF830
:10457000DC9002930192A3F50775019B002B40F09C
:104580001C8233680A93DDF828A0D4F8003542F67F
:10459000F822C3EB0A03934284BF9DF8043085F8E8
:1045A000F834D4F8E43433B1D5F804359A4584BFEF
:1045B0000023C5F8E434A2693AB133680E930E9B28
:1045C000CAEB03039A42C0F0F082606803685B693B
:1045D0004B4540F0858105F0CDFF0028C0F2848175
:1045E000D4F8F434D4F8E4240344072AC4F8F434A7
:1045F00000F0318262BBFF2800F0408233680D93E7
:104600000D9B41F28831CAEB03038B42D3D9034B94
:1046100083F8F824B5E700BF941BFF1FC815FF1FE0
:104620001414FF1FE019FF1FD814FF1F801BFF1F6A
:10463000FC1AFF1F281BFF1F5414FF1FE81BFF1F3E
:10464000E417FF1F701DFF1F6D09000055070000D4
:10465000012A00F01B82022A00F06C82032A00F07B
:104660007482042A00F07B82052A00F08782062AE1
:1046700000F08C82082A9ED1BE4A1A4000239A423A
:10468000C4F8E434C0F29B82FF2A94D1D4F8EC340D
:10469000002B00F001840A2B00F09C82062B00F016
:1046A000E9820B2B00F09082BC3355F82330002BAD
:1046B00081D01A68B04912688A4240F0C082EA7F0D
:1046C00052095A6195F8201042EAC1025A6195F8E0
:1046D000211042EAC1225A6195F82210C90401F45E
:1046E000F0010A435A6195F8237095F822E03801E9
:1046F00000F4FE6151EA1E1103F10C0000F0688223
:10470000A1F5607142EAC1525A6195F8231021F077
:104710007F0142EA01625A6194F8272052099A61A6
:1047200094F8281042EAC1029A6194F8291042EAEA
:10473000C1229A6194F82A10C90401F4F0010A43D5
:104740009A6194F82BE094F82AC04FEA0E1707F408
:10475000FE6151EA1C1100F08B83A1F5607142EA01
:10476000C1529A6195F82B1021F07F0142EA016253
:104770009A6194F82F205209DA6194F8301042EAD5
:10478000C102DA6194F8311042EAC122DA6194F888
:104790003210C90401F4F0010A43DA6194F833E0FD
:1047A00094F832C04FEA0E1707F4FE6151EA1C116B
:1047B00000F05C83A1F5607142EAC152DA6195F8BC
:1047C000331021F07F0142EA0162DA6194F8372068
:1047D00052095A6294F8381042EAC1025A6294F8B7
:1047E000391042EAC1225A6294F83A10C90401F41D
:1047F000F0010A435A6294F83BE094F83AC04FEA59
:104800000E1707F4FE6151EA1C1100F02D83A1F58B
:10481000607142EAC1525A6295F83B1021F07F0163
:1048200042EA01625A6294F83F2052099A6294F86F
:10483000401042EAC1029A6294F8411042EAC12251
:104840009A6294F84210C90401F4F0010A439A6292
:1048500094F843E094F842C04FEA0E1707F4FE6163
:1048600051EA1C1100F0FE82A1F5607142EAC152CA
:104870009A6295F8431021F07F0142EA01629A6240
:1048800094F847205209DA6294F8481042EAC102CB
:10489000DA6294F8491042EAC122DA6294F84A10C6
:1048A000C90401F4F0010A43DA6294F84BE094F889
:1048B0004AC04FEA0E1707F4FE6151EA1C1100F0DE
:1048C000C281A1F5607142EAC152DA6295F84B10DB
:1048D00021F07F0142EA0162DA621B6B98476AE6C7
:1048E00098470028BFF67CAE94F8F8340193002B6B
:1048F0003FF447AED5F8FC3440F6C412C3EB0A03CC
:1049000093427FF63AAEFF21FE271C4B85F81C121E
:104910000821002285F81D7285F81E12F7270A214A
:1049200003F1090085F8232285F8242285F8252241
:1049300085F8262285F8272285F8282285F829225D
:1049400085F82A2285F81F2285F8222285F8207210
:1049500085F8211201E013F8011F98420A44FAD1A8
:10496000029BD24384F82B22984603F10F07FF21C4
:104970000CE000BFFF000080150F0000E917FF1FCB
:1049800005F0E2FE47450BD018F8011F6268136876
:104990001B685B450846F3D0104698474745F3D15E
:1049A00033680993099BE36094F8F8340193019B01
:1049B000C4F8FCA4002B3FF4E4ADA44EA44D0FCEEC
:1049C0000FC52B46326823F817290126FF21002244
:1049D000A8194FF0120EFE2784F82362E825172647
:1049E00084F81C12072184F824E284F8252284F834
:1049F000262284F8272284F81F2284F8222284F8B1
:104A00001D7284F81E6284F8205284F8211201E09D
:104A100013F8011F98420A44FAD1029DD24384F848
:104A20003A2205F11E06FF2105E005F08DFEAE429B
:104A30000BD015F8011F626813681B685B450846B8
:104A4000F3D010469847AE42F3D1012004F0C6FDE2
:104A500013B0BDE8F08FD5F8F024D5F8E834A918E4
:104A6000013B01320877C5F8F024C5F8E834002B83
:104A70007FF4A1AD0823C4F8E4349CE501220AF1D7
:104A80001403C5F8E424C5F8043594E5FE2871D074
:104A900095F8F8240023C5F8E434002A7FF48BADA0
:104AA000FF21FE276B4B85F81C12082185F81D722B
:104AB00085F81E12F7270A2185F8232285F824227B
:104AC00085F8252285F8262285F8272285F82822D0
:104AD00085F8292285F82A2285F81F2285F82222C6
:104AE00003F1090085F8207285F8211201E013F81E
:104AF000011F83420A44FAD1029BD24384F82B223D
:104B00001F4603F10F08FF2105E005F01DFE474594
:104B10000BD017F8011F626813681B685B450846D5
:104B2000F3D0104698474745F3D133680C930C9B5C
:104B3000E36040E500220323C5F8E804C5F8F40467
:104B4000C5F8F024C5F8E43435E5D5F8E83403EBCE
:104B500000200423C5F8E804C5F8E4342BE53E4AF8
:104B60001A40002A26DBFF2A0CBF05230023C4F8C5
:104B7000E43420E50223C5F8E4341CE50623C5F837
:104B8000EC04C5F8F404C5F8E43414E5D5F8EC34C5
:104B9000D5F8E82403EB00230721C5F8EC34C5F869
:104BA000E414002A3FF466AF05E52C4B93F8F83483
:104BB0000193E2E4013A62F0FF020132D3E7013AE5
:104BC00062F0FF0201325FE5002385F8F834F2E479
:104BD00039469CE533680F930F9BEA68204831689B
:104BE00011919B1A296ADFF884E0DFF88480DDF8F0
:104BF00044C0EA69A0FB0307BF094FF47A708E44F2
:104C000000FB173308FB03E30393154B1549A3FB84
:104C10000C3E4FEA9E1E039B013A00FB1EC03A4425
:104C200008FB1033CEEB0202081F6B612A6103F010
:104C3000FDFE33681093109BC5F80035BBE41846A1
:104C400009499047B7E4714642E600BF500D0100A4
:104C5000F017FF1FE917FF1FFF000080C815FF1F97
:104C6000D34D6210DC15FF1FE415FF1F00CA9A3BED
:104C700040420F00EF69D5F810359F4206D9B900C0
:104C8000D5F8180507F072FEC5F81805C4F81075B8
:104C9000002F00F0EF80A64A042302F2145E0027E2
:104CA00092F8221092F821C092F82000090441EAFB
:104CB0000C2192F823C0014341EA0C61C4F8141599
:104CC000D4F81815DEF8000041F82700D4F81005D4
:104CD0000137B842194602F1040203F10403DFD898
:104CE000059301F10B0301F1090201F10808039397
:104CF00001F10C0304924746481D01F1060E01F133
:104D0000070C01F10A020693A644059B21182344CF
:104D10009EF81C0091F81CE01B7FD4F81C15A444DD
:104D200000049CF81CC040EA0E20034343EA0C63D5
:104D30008B420AD99900D5F824050792059307F00C
:104D400015FE079A059BC5F82405C4F81C35002BF1
:104D500000F0EB80DFF8E4E1EB1900219A7F93F893
:104D60001DC0187F120442EA0C2293F81FC00243B0
:104D700042EA0C62CEF80020D4F82425DEF80000C8
:104D800042F82100D4F81C2501318A42384603F14B
:104D9000040307F10407E1D8431D0493C31DB8467B
:104DA000821D039300F10807049B23442244187FCB
:104DB000039B117FD4F82825A04423449E46090470
:104DC00098F81C309EF81C8041EA00210B4343EA0E
:104DD0000868904507D94FEA8801D5F8300507F0F3
:104DE000C5FDC5F83005C4F82885B8F1000F34D0EA
:104DF000DFF84CE100210EF5A26C07F11C0800233E
:104E0000A0441A4618F8010B98400833202B42EAB8
:104E10000002F7D1381D024490420AD207F11F0365
:104E200023440746013793F8018003F8018B97422A
:104E3000F8D3A3184FF000070138DF767044D4F898
:104E40003035C4F82C05DCF8000043F82100D4F814
:104E5000283501318B421746CFD8012384F8083515
:104E6000FFF7A9BB714606E57146D7E47146A8E491
:104E7000714679E40C2306930B23039309234FF027
:104E800008080493042347460A224FF0070C4FF00A
:104E9000060E0520059337E72648A0F22A2100F8E0
:104EA000073CFE2781F81C224FF0080C0A4681F8C7
:104EB000243281F8253281F8263281F8273281F8B0
:104EC000283281F8293281F82A3281F81D7281F85E
:104ED0001F3281F82232A0F1090EF72781F81EC295
:104EE0000A2182F8207282F82112724601E012F83B
:104EF000011F82420B44FAD10F4FDB43A7F10F028F
:104F0000029284F82B329046FF2105E005F01CFC4C
:104F1000B84517D018F8011F626813681B685B4515
:104F20000846F3D010469847F2E7069F3CE700BFDB
:104F3000C815FF1FF217FF1FF317FF1FE81AFF1F07
:104F4000E415FF1F33680B93D44BCDF804A01A4629
:104F50000B9BE36092465AF8043F002B00F0BF80A1
:104F600058689A6801680392D3F800908B68984754
:104F7000DAF80030804658680368DB689847DAF84A
:104F80000030039A1E69632E074604DD94F8F83456
:104F9000002B00F0A480C2F30723484684F82322A4
:104FA00084F8243207F00CFF0346020A000C4FEA93
:104FB000136E494684F8262284F827021A46B84818
:104FC00084F82532039384F828E203F0A5FF4046D5
:104FD00007F0F6FE039B024603F229202044063325
:104FE000002122FA01FE0831202900F801EBF8D156
:104FF000AC4804334146184402EB030803F08CFF2D
:10500000384607F0DDFE08F22322814622440023C1
:1050100029FA03F10833202B02F8011BF8D1A14B28
:1050200008F10408394603EB08004A4603F074FF10
:1050300009EB0800071D5FFA87FCC7F3072E04EB96
:1050400000080CEB0E010022C943022388F8243229
:1050500088F8232288F8252288F8262284F820124E
:10506000F1B246F30726FF234FF0FE0884F82262D0
:105070007E1C84F81EC284F81FE284F81C3284F877
:105080001D8284F821120BDB00F22626864B2E446B
:1050900001E013F8011FB3420A44FAD1D343DBB253
:1050A000E2190837B7F5007F82F8233200F31D813B
:1050B000002F14DD00F227207C4E2F1803E005F0AE
:1050C00043FBBE420BD0626816F8011F13681B68D1
:1050D0005B450846F3D010469847BE42F3D1744B67
:1050E0009A457FF438AFDDF804A0CDF80CA09946BE
:1050F00059F8040F002800F0C18090E80804816886
:105100009A6801916B498A4240F0E9806A4EDA68F8
:105110006A498A4240F0DD80DFF8AC815B68684A0A
:10512000934240F0D380476B632F04DD94F8F8344A
:10513000002B00F0A380CAF30723019884F82432DF
:1051400084F823A207F03CFE8246020A000C019973
:1051500084F826224FEA1A6E524684F827025048F5
:1051600084F828E284F825A203F0D6FE304607F042
:1051700027FE02460AF2292020440AF106030021F4
:1051800022FA01FE0831202900F801EBF8D1DFF8FE
:1051900014A1043331460AEB0300D61803F0BCFE19
:1051A000404607F00DFE06F223210346214400226B
:1051B00023FA02F00832202A01F8010BF8D1043654
:1051C00041461A460AEB0600019303F0A5FE019B37
:1051D00033441E1D5FFA86FCC6F3072E04EB03085A
:1051E0000CEB0E000021C043022288F8242288F82C
:1051F000231288F8251288F8261284F82002F8B2C3
:1052000047F30727FF224FF0FE0884F82272771C2D
:1052100084F81EC284F81FE284F81C2284F81D82E0
:1052200084F821020BDB03F226271F4A2F4401E0FA
:1052300012F8010FBA420144FAD1CA43D2B2A119FD
:105240000836B6F5007F81F8232200F39C80002EFB
:1052500014DD03F22723154FEE1803E005F074FA6E
:10526000BE420BD0626817F8011F13681B685B45CC
:105270000846F3D010469847BE42F3D1114B9945EA
:105280007FF436AFDDF80CA0C4F8FCA40123C4F809
:1052900000A584F8F834FFF790BB00BFE019FF1FAA
:1052A000F117FF1FEB17FF1FE917FF1FE317FF1F82
:1052B000441AFF1FC1060000700C0100C90600005F
:1052C000BD060000A81AFF1F840C0100984707467E
:1052D0002AE790478046D9F8000003681EE7904708
:1052E0000646D9F80000036811E74E4F4E4E0FCF27
:1052F0000FC60FCF0FC60FCF0FC697E803000023CE
:105300004FF0030E3827FF2285F823E285F8247238
:105310004FF0FE0E3D2785F8253285F8263285F8B8
:10532000273286E80300C22185F81C220722F01DDF
:1053300085F81F3285F82232373E85F81DE285F860
:105340001E7285F8201285F8212201E016F8012F3F
:1053500086421344FAD1354EDB4384F86032A6F11D
:105360004407FF2006E005F0EFF9B7423FF4B7AE7F
:1053700017F8010F626813681B685B450146F2D09D
:1053800010469847F1E7274F274E0FCF0FC60FCF94
:105390000FC60FCF0FC697E8030000234FF0030E90
:1053A0003827FF2285F823E285F824724FF0FE0E9D
:1053B0003D2785F8253285F8263285F8273286E89C
:1053C0000300C22185F81C220722F01D85F81F3238
:1053D00085F82232373E85F81DE285F81E7285F881
:1053E000201285F8212201E016F8012FB042134463
:1053F000FAD10E4EDB4384F86032A6F14407FF2059
:1054000006E005F0A1F9B7423FF438AF17F8010FF5
:10541000626813681B685B450146F2D010469847E6
:10542000F1E700BF140D0100F017FF1F2818FF1F40
:1054300008B5DFED1C7AB4EEE70AF1EE10FA2DEDB7
:10544000028B2AD4DFED187AB4EEE70AF1EE10FAF7
:10545000B0EE408A1DDC30EE277ADFED146ADFED16
:10546000145ADFED147A9FED146A67EE266A86EE11
:10547000A57A77EE277A67EE867AFDEEE77A17EE61
:10548000901A0E4803F004FAB0EE480ABDEC028B05
:1054900008BDB0EE678A0021F3E7B0EE678AB42159
:1054A000EFE700BFE17AD4BEE17AD43EDB0F49C01A
:1054B000E17A543FDB0F4940E02E6542941BFF1F09
:1054C0002DE9F04F2DED048BC14AC24BC249C34DAB
:1054D00091ED001AD2ED000A93ED000AC04999B08F
:1054E00014A803F0CFFB2B7F149A0892012B159A76
:1054F000099240F2058572B6AB69B3F1000AB8BFF4
:105500000AF1030A4FEAAA0A62B6DFF810B3686824
:10551000DBF800301093109EB24C301A06F022FED9
:10552000A9A3D3E9002306F0BDFFCDE90201A868D5
:10553000C0EB0A0006F026FE6E608046C5F808A0A3
:105540002868894606F01EFE02460B46404649463C
:1055500006F0A8FFDDE9022306F0A4FF07F012F928
:10556000237F0290012B40F2058572B6A369B3F147
:105570000008B8BF08F103084FEAA80862B6DBF8D4
:1055800000300F93DDF83CA06068DFF89492C0EB28
:105590000A0006F0E7FD8CA3D3E9002306F082FFA2
:1055A000CDE90401A068C0EB080006F0EBFDC4F8EB
:1055B00004A00646C4F8088020680F4606F0E2FD05
:1055C00002460B463046394606F06CFFDDE90423FF
:1055D00006F068FF07F0D6F899F81C300490012B0C
:1055E00040F2028572B6D9F81860002EB8BF0336B3
:1055F000B61062B6DBF800300E93DDF83880D9F8CB
:105600000400794FC0EB080006F0ACFD6EA3D3E9AF
:10561000002306F047FFCDE90601D9F80800301A4B
:1056200006F0B0FDC9F80480CDE90A01C9F80860A8
:10563000D9F8000006F0A6FD02460B46DDE90A0196
:1056400006F030FFDDE9062306F02CFF07F09AF89C
:105650003B7F0690012B40F2058572B6BE69002E95
:10566000B8BF0336B61062B6DBF800300D93786829
:10567000DDF834A0C0EB0A0006F074FD52A3D3E9B4
:10568000002306F00FFFCDE90A01B868301A06F0D2
:1056900079FDC7F804A08046BE603868894606F0E8
:1056A00071FD02460B464046494606F0FBFEDDE929
:1056B0000A2306F0F7FE07F065F82A7F474B012A18
:1056C000074640F2B58372B69B6962B6002BB8BF3D
:1056D0000333207FDFF84C819B101A4601284FEAE4
:1056E000E373C8E902233F4B40F2E08372B69B6943
:1056F00062B6DDED087A3D4A089E3D4DDFF82891FF
:105700002E60F8EEE79ADDED027A099D39493A4CB0
:105710003A48DFF818A10560002BB8BF0333F8EE54
:10572000E78A9B10C2ED018A1A46DB174FEAE67C36
:10573000C9E902233246324B049EC3ED007A07EEDC
:10574000906A6346B8EEE78A0E60C4E902232D49E9
:105750002D4881ED018AEA171346F0EE680A2A46C1
:10576000B0EE690ACAE9022303F04EFB51EC100BBC
:1057700007F008F807EE905A244B254E1860B8EE53
:10578000E79A2448164DF0EE480AB0EE490A03F0B5
:105790003BFB51EC100B06F0F5FFF0EE680A3060B1
:1057A000B0EE690A184803F02FFB51EC100B06F01D
:1057B000E9FF0146184803F08DF91648F0EE480A53
:1057C000B0EE490A34E000BF00000000004CED409C
:1057D000281CFF1F241CFF1F4C14FF1F2C15FF1F2C
:1057E000EC14FF1FA815FF1F8815FF1F4C15FF1F86
:1057F0008014FF1FD01BFF1F181BFF1F0815FF1F62
:105800002415FF1F101BFF1F401BFF1F5014FF1FFD
:105810002815FF1FA01BFF1FFC1BFF1F701DFF1F74
:105820008414FF1FD81BFF1F101CFF1F701BFF1FBE
:1058300003F0EAFA51EC100B06F0A4FF0146D04841
:1058400003F048F9DDED167ACE48B8EEE70ADDED53
:10585000067AF8EEE70A03F0D7FA51EC100B06F0DF
:1058600091FF0146C84803F035F9DDED177AC748C6
:10587000B8EEE70A07EE907AF8EEE70A03F0C4FA0A
:1058800051EC100B06F07EFF0146C14803F022F9EF
:105890002B78023B012B40F2BA820097049A0299BE
:1058A000069B284603F056FA8DED110ACDED120A3B
:1058B0008DED131AB74BB84EDD6899682B681B68DD
:1058C000B34240F0A082632903DD95F8F834002B41
:1058D00050D0A368E26885F82332180A1C0C85F8BA
:1058E00024021B0E100A85F8272285F8254285F828
:1058F0002632140CFF23120E85F82802FE2085F8AC
:10590000294285F82A220824002285F81C3285F8CD
:105910001D02F723C8B241F3072185F8203285F82C
:10592000221285F81E4285F81F2285F8210205F211
:10593000212305F22A2101E013F8010F99420244C4
:10594000FAD1D243954C85F82B2205F21B2B05F298
:105950002B2703E004F0F8FE5F450BD06A681BF8C4
:10596000011F13681B68A3420846F3D010469847EE
:105970005F45F3D18A4BDD6899682B681B68B34299
:1059800040F03D82632903DD95F8F834002B52D0B6
:10599000DAF80820DAF80C3085F82322100A140C03
:1059A00085F82402180A120E85F8273285F8254258
:1059B00085F828021C0CFE201B0E85F82622FF27E6
:1059C00085F8294285F82A320824F723002285F831
:1059D0001D02C8B241F3072185F8203285F8221252
:1059E00085F81C7285F81E4285F81F2285F8210271
:1059F00005F2212305F22A2101E013F8010F994253
:105A00000244FAD1D243654C85F82B2205F21B2AB9
:105A100005F22B2703E004F097FE57450BD06A6888
:105A20001AF8011F13681B68A3420846F3D01046FA
:105A300098475745F3D15B4BDD6899682B681B6825
:105A4000B34240F0D881632903DD95F8F834002B88
:105A500052D0D8F80820D8F80C3085F82322100A44
:105A6000140C85F82402180A120E85F8273285F8DE
:105A7000254285F828021C0CFE201B0E85F82622E4
:105A8000FF2785F8294285F82A320824F7230022C7
:105A900085F81D02C8B241F3072185F8203285F848
:105AA000221285F81C7285F81E4285F81F2285F89F
:105AB000210205F2212305F22A2101E013F8010F4A
:105AC00099420244FAD1D243344C85F82B2205F294
:105AD0001B2705F22B2803E004F036FEB8450BD057
