:10000000F8FF0220990100003D970000F5960000DE
:10001000F5960000F5960000F5960000F5960000B4
:10002000F5960000F5960000F59600003D9700005B
:100030003D970000F596000095AC000099AC0000DB
:100040003D9700003D9700003D9700003D97000060
:100050003D9700003D9700003D9700003D97000050
:100060003D9700003D9700003D9700003D97000040
:100070003D9700003D9700003D9700003D97000030
:100080003D9700003D9700003D9700003D97000020
:100090003D9700003D9700003D9700003D97000010
:1000A000258F0000318F00003D9700003D97000034
:1000B0003D9700003D9700003D9700003D970000F0
:1000C0003D9700003D9700003D9700003D970000E0
:1000D0003D9700003D9700003D9700003D970000D0
:1000E0003D9700003D9700003D9700003D970000C0
:1000F0003D9700003D9700003D9700003D970000B0
:100100003D9700003D9700003D9700003D9700009F
:10011000A5870000B99F00003D9700003D970000B3
:100120003D9700003D9700003D9700003D9700007F
:100130003D9700003D9700003D9700003D9700006F
:100140003D9700003D9700003D9700003D9700005F
:100150003D9700003D9700003D9700003D9700004F
:100160003D9700003D9700003D8F00003D97000047
:100170003D9700003D9700003D9700003D9700002F
:100180003D9700003D9700003D9700003D9700001F
:100190003D9700003D970000584B4CF2205210B59F
:1001A0001A804DF628121A8000BF00BF09F0CAFA63
:1001B000534B4FF030621A60524A9A60524ADA60EA
:1001C000524B4FF470021A60514A136813F4807353
:1001D00004D150490B604FF4A85313604E4B1A786A
:1001E000110703D51A7842F008021A704B4B4C499C
:1001F0002A221A704B4A4C4B8B4204D252F8040FFD
:1002000043F8040BF8E7494B494900228B4202D2DC
:1002100043F8042BFAE74749474A002352F82300E2
:1002200041F823000133662BF8D1444B444A802126
:1002300003F8011B9342FBD1424B3E4A1A60424BEA
:100240008A221A70A3F5805324225A70A0221A70B1
:100250009A799207FCD59A79D406FCD43B4A9379D3
:1002600003F00C03082B394BF9D103221A714622F3
:100270005A719A799006FCD5344A9179334B4906E4
:10028000FBD5334A4FF08271116009215160202261
:100290001A709A7902F00C020C2AFAD12D4B2E4AD0
:1002A0001A602E4B2E4A1A6000225A60072243F829
:1002B000042C2C4AC3F80C2D62B609F031FD154B05
:1002C0001B68DA0705D5284809F03AFB274B284A6E
:1002D0001A60284B1B785B0609D5244C244B2268F6
:1002E0009A4204D1204809F02BFB002323600CF034
:1002F000CBFC09F02DFA0AF0D7FCFEE70E200540F2
:1003000030800440823F04000100002B88ED00E0B3
:1003100010D0034014D0034002D0074000E0074053
:100320004815FF1F301A0100F806FF1F4815FF1F70
:10033000C820FF1F0002FF1F0000000000E400E0D3
:1003400056E400E008ED00E00050064000400640A2
:100350004480044004800440C010050014E000E024
:10036000BFD4010000002020CA5058611CE00340A7
:10037000A5C3945A00F00740FFFFFFFFFFFFFFFFF8
:10038000FFFFFFFFFFFFFFFFFFFFFFFFFFFFFFFF7D
:10039000FFFFFFFFFFFFFFFFFFFFFFFFFFFFFFFF6D
:1003A000FFFFFFFFFFFFFFFFFFFFFFFFFFFFFFFF5D
:1003B000FFFFFFFFFFFFFFFFFFFFFFFFFFFFFFFF4D
:1003C000FFFFFFFFFFFFFFFFFFFFFFFFFFFFFFFF3D
:1003D000FFFFFFFFFFFFFFFFFFFFFFFFFFFFFFFF2D
:1003E000FFFFFFFFFFFFFFFFFFFFFFFFFFFFFFFF1D
:1003F000FFFFFFFFFFFFFFFFFFFFFFFFFFFFFFFF0D
:10040000FFFFFFFFFFFFFFFFFFFFFFFFDEF9FFFF23
:1004100010B5054C237833B9044B13B10448AFF33E
:1004200000800123237010BD4815FF1F000000004D
:100430002C1A0100084B10B51BB108490848AFF34E
:1004400000800848036803B910BD074B002BFBD0A0
:10045000BDE81040184700BF000000004C15FF1F0A
:100460002C1A01004815FF1F0000000043680B70A4
:1004700043681B0A4B70C3888B70C379CB70836849
:100480000B7183681B0A4B7143898B71C37ACB71E3
:10049000082070470B7843604A7843EA02234360A0
:1004A0008A7843EA02434360CA7843EA02634360BE
:1004B0000B7983604A7943EA022383608A7943EAAD
:1004C00002438360CA7943EA02638360082070476D
:1004D00000487047B00F010000487047C00F01008E
:1004E000F0B50C460A788280064614F8010F002306
:1004F00042EA0022B2801A4614F8010F98400833ED
:10050000202B42EA0002F7D1971D062F58D901F19E
:10051000050E551D73464C1913F8010F03F8010C15
:10052000A342F9D100234B5518460D44C6F808E004
:1005300015F8014F84400830202843EA0403F7D11E
:10054000381D0344834209D909320A440446013460
:1005500012F8015F02F8015CA342F8D80138CF1805
:100560000024084407F8014C2246F06017F8015BAC
:1005700095400832202A44EA0504F7D1181D0444A6
:10058000A04209D203330B440246013213F8015F43
:1005900003F8015CA242F8D30D1901380844002386
:1005A00005F8013C3061A8786B780A5DED780104AC
:1005B00041EA0323134343EA0563201D7361F0BD41
:1005C000551D01F1050EADE700487047E40F01002D
:1005D00000487047001001000B78F0B4037100234D
:1005E00006460C461D4614F8012F9A400833202B6E
:1005F00045EA0205F7D1681D052801F1040708D96D
:100600002C1D3B460C4413F8012F03F8012C9C428F
:10061000F9D10D4400232B71B760F0BC704700BFC7
:10062000004870472410010000487047381001004E
:1006300000487047940F0100004870475C100100AB
:100640000048704780100100004870479810010072
:1006500000487047BC10010000487047D0100100EE
:1006600003790B70012070470B78037101207047EC
:1006700000487047F4100100004870470411010061
:10068000F0B48268C3680B711C0A180C170A160CA8
:10069000150E1B0E4F708E70CD704C7188710A70E4
:1006A0000820CB71F0BC7047F0B44E784D790C78CF
:1006B0000A798F788B7944EA062442EA0522CE78BB
:1006C000CD7942EA034344EA074141EA066243EA3C
:1006D00005638260C360F0BC082070470048704723
:1006E0002811010000487047381101000048704788
:1006F0005C110100004870477011010090F8F80487
:10070000704700BF0B78037443690C30184700BF73
:100710008069704700487047F41001000048704736
:1007200004110100406B704700487047BC10010085
:1007300000487047D010010010B5D0ED027A1A4C75
:100740001A4A90ED087A1A4BC168C4ED007AF5EEAA
:10075000C07AF1EE10FA82B0116083ED007A09DC04
:10076000B5EE407AF1EE10FA14D0F5EEC07AF1EE63
:1007700010FA0FDB0021112009F078FA00210E2079
:1007800009F074FA0B4A0C4B12680192019A1A6034
:1007900002B010BD0121112009F068FA01210E20DC
:1007A00009F064FAEEE700BF5017FF1F5417FF1F50
:1007B000A416FF1F4C1FFF1F4016FF1F0AF0DEB8D4
:1007C00043682DE9F0470B7043681B0A4B70C388E0
:1007D0008B70C379CB704368002B00F085800A468C
:1007E00000250426C36853F8253013711C0C1F0A1A
:1007F0001B0E94715771D37143680135AB42344677
:1008000002F1040206F10406ECD804F1080204F136
:10081000050A04F1060904F1070804F1090C04F1C2
:100820000A0E04F10B0517460C3403698B55036956
:100830001B0A01F80A30438A01F80930C37C01F829
:1008400008300369F3B101EB070E75460022836996
:1008500053F822300EF822301C0C1E0A1B0EAC700E
:100860006E70EB700369013293423C4605F104055A
:1008700007F10407EBD804F1050C04F1060EE51DA1
:100880003A460834C3698B54C3691B0A01F80C301B
:10089000C38B01F80E30C37F4B55C3690BB30F46B2
:1008A00080460026D8F8243053F826000CF088FC47
:1008B000B10005463A19002325FA03F00833202B2E
:1008C00002F8010BF8D1D8F82430043438195958FB
:1008D0002A4608F03BFED8F81C300136B3422C44BF
:1008E000E0D82046BDE8F087082217460C240B25E7
:1008F0004FF00A0E4FF0090C4FF007084FF00609B1
:100900004FF0050A042690E770B503790B70064690
:1009100080680D460CF054FC2A460446002324FA55
:1009200003F10833202B02F8011FF8D1B168681DCC
:10093000224608F00BFE601D70BD00BFF8B583882D
:100940000B7083881B0A4B70064680680D460CF0BE
:1009500037FC030E010A020C6B71A8702A71E97052
:1009600002460446B168A81D08F0F0FDF0680CF0DE
:1009700027FC611D024629440634002322FA03F0B5
:100980000833202B01F8010FF8D104342819F1683D
:10099000144408F0DBFD30690CF012FC2A190746FC
:1009A000002327FA03F10833202B02F8011BF8D1AA
:1009B000043428193A46316908F0C8FD38197369BA
:1009C0002B540544190A1A0C1B0E6970AA70EB709F
:1009D0000430F8BD08460AF0BBB800BF2DE9F04F5F
:1009E0000A784B788C78054642EA0323C8780E468D
:1009F00043EA0443696843EA00648C4283B000F22E
:100A0000BA806C60002C00F0BF8005F10809344604
:100A100000274FF00408A1796379227994F807E060
:100A2000E868090441EA0323134343EA0E63AB6019
:100A300000EB87000422494608F088FD6B68013707
:100A4000BB42424604F1040408F10408E3D802F171
:100A500008074146B94602F1050E901DD31D02F16B
:100A6000090B02F10A0802F10B0A02F10C04305CD6
:100A700016F80E20715C16F803E02B69000440EABA
:100A800002220A4342EA0E629A4200F292802A61EE
:100A90004AB305F1140A06EB09074FF00008B978CC
:100AA0007B783A78FC78A869090441EA0323134368
:100AB00043EA04636B6100EB88000422514608F0AE
:100AC00045FD2B6908F1010843454C4607F1040731
:100AD00009F10409E3D804F1050B04F1060804F157
:100AE000070A4F46083416F8082016F80B00F35D85
:100AF00016F80A70E969120442EA0022134343EA35
:100B000007678F424FD8EF618FB34FF00009C84697
:100B100005F1200700239E46311911F8012B9A4058
:100B20000833202B4EEA020EF7D1201D8644704573
:100B300009D2E31C33440246013213F8011F03F8C3
:100B4000011C7245F8D306EB0E02431E02F8018C1D
:100B5000686A33442B6200EB8900042239467446EC
:100B600008F0F4FCEB6909F101094B45D2D82046A5
:100B700003B0BDE8F08FA100E8680CF0FBF86C60F2
:100B8000E860002C7FF441AF0827B9460C244FF0F1
:100B90000B0A4FF00A084FF0090B072306204FF00D
:100BA000050E042163E7B900686A0CF0E3F8686297
:100BB000A9E79100A86901920CF0DCF8019AA861FC
:100BC00065E700BF10B590F904400D4B012C0BD028
:100BD0000121084602221A6009F048F800210D2080
:100BE000BDE8104009F042B8204600211C6009F021
:100BF0003DF821460D20BDE8104009F037B800BF90
:100C0000A816FF1FD0ED017A17EE903AC3F3C75232
:100C100070B412B302F56072140164B2C2F3071229
:100C2000F5EEC07AC3F3C340F1EE10FA44EA0004D3
:100C30004FEA43164FF000004FEAE30548BF62F069
:100C40007F02DB128C71087048708870CE700D7155
:100C500008204B71CA7170BC70471446E0E700BFB2
:100C6000D0ED027A17EE903AC3F3C752F0B4002ADF
:100C700000F0FD8002F5607215016DB2C2F307123B
:100C8000F5EEC07AC3F3C344F1EE10FA45EA040569
:100C90004FEA43174FF000044FEAE30648BF62F003
:100CA0007F02DB124B71CA718D710C704C708C70AD
:100CB000CF700E71D0ED037A17EE903AC3F3C7529E
:100CC000002A00F0DE8002F5607215016DB2C2F3F9
:100CD0000712F5EEC07AC3F3C344F1EE10FA45EA09
:100CE00004054FEA43174FF000044FEAE30648BFFC
:100CF00062F07F02DB124B73CA738D730C724C72FD
:100D00008C72CF720E73D0ED047A17EE903AC3F363
:100D1000C752002A00F0B38002F5607215016DB26F
:100D2000C2F30712F5EEC07AC3F3C344F1EE10FA32
:100D300045EA04054FEA43174FF000044FEAE30683
:100D400048BF62F07F02DB124B75CA758D750C745B
:100D50004C748C74CF740E75D0ED067A17EE903A01
:100D6000C3F3C752002A00F0888002F560721501B3
:100D70006DB2C2F30712F5EEC07AC3F3C344F1EECD
:100D800010FA45EA04054FEA43174FF000044FEA12
:100D9000E30648BF62F07F02DB124B77CA778D779C
:100DA0000C764C768C76CF760E77D0ED077A17EEF0
:100DB000903AC3F3C752002A5DD002F56072150164
:100DC0006DB2C2F30712F5EEC07AC3F3C344F1EE7D
:100DD00010FA45EA04054FEA43174FF000044FEAC2
:100DE000E30648BF62F07F02DB1281F8253081F80C
:100DF000272081F8265081F8204081F8214081F891
:100E0000224081F8237081F82460D0ED087A17EE33
:100E1000903AC3F3C75262B302F56072140164B230
:100E2000C2F30712F5EEC07AC3F3C340F1EE10FA35
:100E300044EA00044FEA43164FF000004FEAE3058E
:100E400048BF62F07F02DB1281F82E4081F8280053
:100E500081F8290081F82A0081F82B6081F82C5054
:100E6000302081F82D3081F82F20F0BC70471546D6
:100E700006E71446D6E71546A5E715467BE715466F
:100E800050E7154625E700BFD0ED017A17EE903AFE
:100E9000C3F3C752F0B4002A71D002F56072150195
:100EA0006DB2C2F30712F5EEC07AC3F3C344F1EE9C
:100EB00010FA45EA04054FEA43174FF000044FEAE1
:100EC000E30648BF62F07F02DB124B71CA718D717D
:100ED0000C704C708C70CF700E71D0ED027A17EEE2
:100EE000903AC3F3C752002A4DD002F56072150143
:100EF0006DB2C2F30712F5EEC07AC3F3C344F1EE4C
:100F000010FA45EA04054FEA43174FF000044FEA90
:100F1000E30648BF62F07F02DB124B73CA738D7326
:100F20000C724C728C72CF720E73D0ED037A17EE86
:100F3000903AC3F3C75222B302F56072140164B24F
:100F4000C2F30712F5EEC07AC3F3C340F1EE10FA14
:100F500044EA00044FEA43164FF000004FEAE3056D
:100F600048BF62F07F02DB128C7508744874887485
:100F7000CE740D7518204B75CA75F0BC70471546B8
:100F800091E71446DEE71546B5E700BFCB785B096D
:100F900030B443600A7943EAC20343604A7943EAC2
:100FA000C22242608B79DB0403F4F00313434360F5
:100FB000CC798D79220102F4FE6252EA151205D035
:100FC000A2F5607243EAC2534360CC7924F07F04F7
:100FD00043EA0463436030BC08207047CA78520972
:100FE00070B442610346087942EAC0025A61487906
:100FF00042EAC02058618A79D20402F4F002024326
:101000005A61CD798E792C0104F4FE6454EA1614E9
:1010100003F10C0005D0A4F5607442EAC4525A6191
:10102000CD7925F07F0542EA05625A61CA7A5209F4
:101030009A610C7B42EAC4029A614C7B42EAC42466
:101040009C618A7BD20402F4F00222439A61CD7B38
:101050008E7B2C0104F4FE6454EA161405D0A4F52A
:10106000607442EAC4529A61CD7B25F07F0542EA62
:1010700005629A61CA7C5209DA610C7D42EAC402B7
:10108000DA614C7D42EAC424DC618A7DD20402F438
:10109000F0022243DA61CD7D8E7D2C0104F4FE64E2
:1010A00054EA161405D0A4F5607442EAC452DA6119
:1010B000CD7D25F07F0542EA0562DA61CA7E5209DC
:1010C0005A620C7F42EAC4025A624C7F42EAC4244C
:1010D0005C628A7FD20402F4F00222435A62CD7F1E
:1010E0008E7F2C0104F4FE6454EA161405D0A4F596
:1010F000607442EAC4525A62CD7F25F07F0542EA0D
:1011000005625A6291F8232052099A6291F82440AC
:1011100042EAC4029A6291F8254042EAC4249C62E1
:1011200091F82620D20402F4F00222439A6291F848
:10113000275091F826602C0104F4FE6454EA16143A
:1011400006D0A4F5607442EAC4529A6291F827501E
:1011500025F07F0542EA05629A6291F82B20520938
:10116000DA6291F82C4042EAC402DA6291F82D402A
:1011700042EAC424DC6291F82E20D20402F4F00288
:101180002243DA6291F82F5091F82E602C0104F47A
:10119000FE6454EA161406D0A4F5607442EAC45200
:1011A000DA6291F82F5025F07F0542EA0562DA6293
:1011B00070BC1B6B184700BFCB785B0930B48360F1
:1011C0000A7943EAC20383604A7943EAC222826011
:1011D0008B79DB0403F4F00313438360CC798D79BE
:1011E000220102F4FE6252EA151205D0A2F56072E5
:1011F00043EAC2538360CC7924F07F0443EA04635A
:101200008360CB7A5B09C3600A7B43EAC203C36095
:101210004A7B43EAC222C2608B7BDB0403F4F00307
:101220001343C360CC7B8D7B220102F4FE6252EA41
:10123000151205D0A2F5607243EAC253C360CC7B9D
:1012400024F07F0443EA0463C360CB7C5B09036141
:101250000A7D43EAC20303614A7D43EAC222026176
:101260008B7DDB0403F4F00313430361CC7D8D7DA0
:10127000220102F4FE6252EA151205D0A2F5607254
:1012800043EAC2530361CC7D24F07F0443EA046344
:101290000361CB7E5B0983610A7F43EAC2038361FA
:1012A0004A7F43EAC22282618B7FDB0403F4F003AE
:1012B00013438361CC7F8D7F220102F4FE6252EAE8
:1012C000151205D0A2F5607243EAC2538361CC7F48
:1012D00024F07F0443EA0463836191F823305B09BF
:1012E000C36191F8242043EAC203C36191F8252029
:1012F00043EAC222C26191F82630DB0403F4F00312
:101300001343C36191F8274091F82650220102F45B
:10131000FE6252EA151206D0A2F5607243EAC25389
:10132000C36191F8274024F07F0443EA0463C3615A
:1013300091F82B305B09036291F82C2043EAC20339
:10134000036291F82D2043EAC222026291F82E3006
:10135000DB0403F4F0031343036291F82F4091F888
:101360002E50220102F4FE6252EA151206D0A2F5B6
:10137000607243EAC253036291F82F4024F07F0465
:1013800043EA0463036230BC30207047CB785B09CA
:1013900030B443600A7943EAC20343604A7943EABE
:1013A000C22242608B79DB0403F4F00313434360F1
:1013B000CC798D79220102F4FE6252EA151205D031
:1013C000A2F5607243EAC2534360CC7924F07F04F3
:1013D00043EA04634360CB7A5B0983600A7B43EA98
:1013E000C20383604A7B43EAC22282608B7BDB04B8
:1013F00003F4F00313438360CC7B8D7B220102F462
:10140000FE6252EA151205D0A2F5607243EAC25399
:101410008360CC7B24F07F0443EA04638360CB7C4D
:101420005B09C3600A7D43EAC203C3604A7D43EAA5
:10143000C222C2608B7DDB0403F4F0031343C3605C
:10144000CC7D8D7D220102F4FE6252EA151205D098
:10145000A2F5607243EAC253C360CC7D24F07F04DE
:1014600043EA0463C36030BC18207047F0B585B010
:101470002F4B026801932F49039103238DF8083005
:1014800014682D4A94424BD100243822054680F836
:10149000233280F8242280F8254280F8264280F802
:1014A000274200F50A7008F051F8FF273D20C223BB
:1014B000FE26072185F81E0285F8203285F81F4296
:1014C00085F82242224685F81C7285F81D6285F84F
:1014D000211205F2212305F25F2001E013F8011F1C
:1014E00083420A44FAD1D243144E85F8602205F2B1
:1014F0001B2405F5187703E009F02AFBBC420BD04A
:101500006A6814F8011F13681B68B3420846F3D0D9
:1015100010469847BC42F3D14FF0FF3005B0F0BD04
:1015200001AA0721A0474FF0FF3005B0F0BD00BF72
:10153000B00E01009411010011360000D509000021
:10154000214B10B4D3F8EC20136850681978047854
:10155000507A137A044201EA03011BD0937A03F014
:10156000030309B143F0040343F008039910013B5E
:1015700091720D2B0BD8DFE803F021071B070A152A
:101580002121150A071B0721D368013BD3605DF8B1
:10159000044B7047937A03F003030029E6D043F02D
:1015A0000403E3E7D3685DF8044B023BD360704764
:1015B000D3685DF8044B0233D3607047D3685DF89D
:1015C000044B0133D36070474C1EFF1F214B10B4F6
:1015D000D3F8DC201368506819780478507A137AAD
:1015E000044201EA03011BD0937A03F0030309B11B
:1015F00043F0040343F008039910013B91720D2B53
:101600000BD8DFE803F021071B070A152121150A73
:10161000071B0721D368013BD3605DF8044B70477B
:10162000937A03F003030029E6D043F00403E3E7D1
:10163000D3685DF8044B023BD3607047D3685DF814
:10164000044B0233D3607047D3685DF8044B013319
:10165000D36070474C1EFF1F214B10B4D3F8E0201D
:101660001368506819780478507A137A044201EAB2
:1016700003011BD0937A03F0030309B143F0040381
:1016800043F008039910013B91720D2B0BD8DFE852
:1016900003F021071B070A152121150A071B072143
:1016A000D368013BD3605DF8044B7047937A03F035
:1016B00003030029E6D043F00403E3E7D3685DF8B1
:1016C000044B023BD3607047D3685DF8044B023390
:1016D000D3607047D3685DF8044B0133D360704723
:1016E0004C1EFF1F214B10B4D3F8E4201368506840
:1016F00019780478507A137A044201EA03011BD066
:10170000937A03F0030309B143F0040343F00803A1
:101710009910013B91720D2B0BD8DFE803F02107E4
:101720001B070A152121150A071B0721D368013B56
:10173000D3605DF8044B7047937A03F003030029EC
:10174000E6D043F00403E3E7D3685DF8044B023BC3
:10175000D3607047D3685DF8044B0233D3607047A1
:10176000D3685DF8044B0133D36070474C1EFF1FF4
:10177000214B10B4D3F8E820136850681978047826
:10178000507A137A044201EA03011BD0937A03F0E2
:10179000030309B143F0040343F008039910013B2C
:1017A00091720D2B0BD8DFE803F021071B070A15F8
:1017B0002121150A071B0721D368013BD3605DF87F
:1017C000044B7047937A03F003030029E6D043F0FB
:1017D0000403E3E7D3685DF8044B023BD360704732
:1017E000D3685DF8044B0233D3607047D3685DF86B
:1017F000044B0133D36070474C1EFF1F214B10B4C4
:10180000DA6D1368506819780478507A137A0442B4
:1018100001EA03011BD0937A03F0030309B143F0FB
:10182000040343F008039910013B91720D2B0BD870
:10183000DFE803F021071B070A152121150A071B02
:101840000721D368013BD3605DF8044B7047937A5E
:1018500003F003030029E6D043F00403E3E7D36871
:101860005DF8044B023BD3607047D3685DF8044BCE
:101870000233D3607047D3685DF8044B0133D36003
:10188000704700BF4C1EFF1F214B10B41A6E136827
:10189000506819780478507A137A044201EA0301F7
:1018A0001BD0937A03F0030309B143F0040343F020
:1018B00008039910013B91720D2B0BD8DFE803F060
:1018C00021071B070A152121150A071B0721D368C9
:1018D000013BD3605DF8044B7047937A03F0030338
:1018E0000029E6D043F00403E3E7D3685DF8044B36
:1018F000023BD3607047D3685DF8044B0233D3607A
:101900007047D3685DF8044B0133D360704700BF64
:101910004C1EFF1F214B10B45A6E13685068197883
:101920000478507A137A044201EA03011BD0937AB7
:1019300003F0030309B143F0040343F008039910D3
:10194000013B91720D2B0BD8DFE803F021071B0739
:101950000A152121150A071B0721D368013BD36013
:101960005DF8044B7047937A03F003030029E6D037
:1019700043F00403E3E7D3685DF8044B023BD36014
:101980007047D3685DF8044B0233D3607047D36867
:101990005DF8044B0133D360704700BF4C1EFF1F3E
:1019A000214B10B49A6E1368506819780478507AF5
:1019B000137A044201EA03011BD0937A03F0030374
:1019C00009B143F0040343F008039910013B9172FD
:1019D0000D2B0BD8DFE803F021071B070A15212187
:1019E000150A071B0721D368013BD3605DF8044B40
:1019F0007047937A03F003030029E6D043F0040311
:101A0000E3E7D3685DF8044B023BD3607047D368CB
:101A10005DF8044B0233D3607047D3685DF8044B24
:101A20000133D360704700BF4C1EFF1F214B10B421
:101A3000DA6E1368506819780478507A137A044281
:101A400001EA03011BD0937A03F0030309B143F0C9
:101A5000040343F008039910013B91720D2B0BD83E
:101A6000DFE803F021071B070A152121150A071BD0
:101A70000721D368013BD3605DF8044B7047937A2C
:101A800003F003030029E6D043F00403E3E7D3683F
:101A90005DF8044B023BD3607047D3685DF8044B9C
:101AA0000233D3607047D3685DF8044B0133D360D1
:101AB000704700BF4C1EFF1F214B10B41A6F1368F4
:101AC000506819780478507A137A044201EA0301C5
:101AD0001BD0937A03F0030309B143F0040343F0EE
:101AE00008039910013B91720D2B0BD8DFE803F02E
:101AF00021071B070A152121150A071B0721D36897
:101B0000013BD3605DF8044B7047937A03F0030305
:101B10000029E6D043F00403E3E7D3685DF8044B03
:101B2000023BD3607047D3685DF8044B0233D36047
:101B30007047D3685DF8044B0133D360704700BF32
:101B40004C1EFF1F214B10B45A6F13685068197850
:101B50000478507A137A044201EA03011BD0937A85
:101B600003F0030309B143F0040343F008039910A1
:101B7000013B91720D2B0BD8DFE803F021071B0707
:101B80000A152121150A071B0721D368013BD360E1
:101B90005DF8044B7047937A03F003030029E6D005
:101BA00043F00403E3E7D3685DF8044B023BD360E2
:101BB0007047D3685DF8044B0233D3607047D36835
:101BC0005DF8044B0133D360704700BF4C1EFF1F0C
:101BD000214B10B49A6F1368506819780478507AC2
:101BE000137A044201EA03011BD0937A03F0030342
:101BF00009B143F0040343F008039910013B9172CB
:101C00000D2B0BD8DFE803F021071B070A15212154
:101C1000150A071B0721D368013BD3605DF8044B0D
:101C20007047937A03F003030029E6D043F00403DE
:101C3000E3E7D3685DF8044B023BD3607047D36899
:101C40005DF8044B0233D3607047D3685DF8044BF2
:101C50000133D360704700BF4C1EFF1F214B10B4EF
:101C6000DA6F1368506819780478507A137A04424E
:101C700001EA03011BD0937A03F0030309B143F097
:101C8000040343F008039910013B91720D2B0BD80C
:101C9000DFE803F021071B070A152121150A071B9E
:101CA0000721D368013BD3605DF8044B7047937AFA
:101CB00003F003030029E6D043F00403E3E7D3680D
:101CC0005DF8044B023BD3607047D3685DF8044B6A
:101CD0000233D3607047D3685DF8044B0133D3609F
:101CE000704700BF4C1EFF1F214B10B4D3F880205B
:101CF0001368506819780478507A137A044201EA1C
:101D000003011BD0937A03F0030309B143F00403EA
:101D100043F008039910013B91720D2B0BD8DFE8BB
:101D200003F021071B070A152121150A071B0721AC
:101D3000D368013BD3605DF8044B7047937A03F09E
:101D400003030029E6D043F00403E3E7D3685DF81A
:101D5000044B023BD3607047D3685DF8044B0233F9
:101D6000D3607047D3685DF8044B0133D36070478C
:101D70004C1EFF1F214B10B4D3F884201368506809
:101D800019780478507A137A044201EA03011BD0CF
:101D9000937A03F0030309B143F0040343F008030B
:101DA0009910013B91720D2B0BD8DFE803F021074E
:101DB0001B070A152121150A071B0721D368013BC0
:101DC000D3605DF8044B7047937A03F00303002956
:101DD000E6D043F00403E3E7D3685DF8044B023B2D
:101DE000D3607047D3685DF8044B0233D36070470B
:101DF000D3685DF8044B0133D36070474C1EFF1F5E
:101E0000214B10B4D3F888201368506819780478EF
:101E1000507A137A044201EA03011BD0937A03F04B
:101E2000030309B143F0040343F008039910013B95
:101E300091720D2B0BD8DFE803F021071B070A1561
:101E40002121150A071B0721D368013BD3605DF8E8
:101E5000044B7047937A03F003030029E6D043F064
:101E60000403E3E7D3685DF8044B023BD36070479B
:101E7000D3685DF8044B0233D3607047D3685DF8D4
:101E8000044B0133D36070474C1EFF1F214B10B42D
:101E9000D3F88C201368506819780478507A137A34
:101EA000044201EA03011BD0937A03F0030309B152
:101EB00043F0040343F008039910013B91720D2B8A
:101EC0000BD8DFE803F021071B070A152121150AAB
:101ED000071B0721D368013BD3605DF8044B7047B3
:101EE000937A03F003030029E6D043F00403E3E709
:101EF000D3685DF8044B023BD3607047D3685DF84C
:101F0000044B0233D3607047D3685DF8044B013350
:101F1000D36070474C1EFF1F214B10B4D3F89020A4
:101F20001368506819780478507A137A044201EAE9
:101F300003011BD0937A03F0030309B143F00403B8
:101F400043F008039910013B91720D2B0BD8DFE889
:101F500003F021071B070A152121150A071B07217A
:101F6000D368013BD3605DF8044B7047937A03F06C
:101F700003030029E6D043F00403E3E7D3685DF8E8
:101F8000044B023BD3607047D3685DF8044B0233C7
:101F9000D3607047D3685DF8044B0133D36070475A
:101FA0004C1EFF1F214B10B4D3F8942013685068C7
:101FB00019780478507A137A044201EA03011BD09D
:101FC000937A03F0030309B143F0040343F00803D9
:101FD0009910013B91720D2B0BD8DFE803F021071C
:101FE0001B070A152121150A071B0721D368013B8E
:101FF000D3605DF8044B7047937A03F00303002924
:10200000E6D043F00403E3E7D3685DF8044B023BFA
:10201000D3607047D3685DF8044B0233D3607047D8
:10202000D3685DF8044B0133D36070474C1EFF1F2B
:10203000214B10B4D3F898201368506819780478AD
:10204000507A137A044201EA03011BD0937A03F019
:10205000030309B143F0040343F008039910013B63
:1020600091720D2B0BD8DFE803F021071B070A152F
:102070002121150A071B0721D368013BD3605DF8B6
:10208000044B7047937A03F003030029E6D043F032
:102090000403E3E7D3685DF8044B023BD360704769
:1020A000D3685DF8044B0233D3607047D3685DF8A2
:1020B000044B0133D36070474C1EFF1F214B10B4FB
:1020C000D3F89C201368506819780478507A137AF2
:1020D000044201EA03011BD0937A03F0030309B120
:1020E00043F0040343F008039910013B91720D2B58
:1020F0000BD8DFE803F021071B070A152121150A79
:10210000071B0721D368013BD3605DF8044B704780
:10211000937A03F003030029E6D043F00403E3E7D6
:10212000D3685DF8044B023BD3607047D3685DF819
:10213000044B0233D3607047D3685DF8044B01331E
:10214000D36070474C1EFF1F214B10B4D3F8A02062
:102150001368506819780478507A137A044201EAB7
:1021600003011BD0937A03F0030309B143F0040386
:1021700043F008039910013B91720D2B0BD8DFE857
:1021800003F021071B070A152121150A071B072148
:10219000D368013BD3605DF8044B7047937A03F03A
:1021A00003030029E6D043F00403E3E7D3685DF8B6
:1021B000044B023BD3607047D3685DF8044B023395
:1021C000D3607047D3685DF8044B0133D360704728
:1021D0004C1EFF1F214B10B4D3F8A4201368506885
:1021E00019780478507A137A044201EA03011BD06B
:1021F000937A03F0030309B143F0040343F00803A7
:102200009910013B91720D2B0BD8DFE803F02107E9
:102210001B070A152121150A071B0721D368013B5B
:10222000D3605DF8044B7047937A03F003030029F1
:10223000E6D043F00403E3E7D3685DF8044B023BC8
:10224000D3607047D3685DF8044B0233D3607047A6
:10225000D3685DF8044B0133D36070474C1EFF1FF9
:10226000214B10B4D3F8A82013685068197804786B
:10227000507A137A044201EA03011BD0937A03F0E7
:10228000030309B143F0040343F008039910013B31
:1022900091720D2B0BD8DFE803F021071B070A15FD
:1022A0002121150A071B0721D368013BD3605DF884
:1022B000044B7047937A03F003030029E6D043F000
:1022C0000403E3E7D3685DF8044B023BD360704737
:1022D000D3685DF8044B0233D3607047D3685DF870
:1022E000044B0133D36070474C1EFF1F214B10B4C9
:1022F000D3F8AC201368506819780478507A137AB0
:10230000044201EA03011BD0937A03F0030309B1ED
:1023100043F0040343F008039910013B91720D2B25
:102320000BD8DFE803F021071B070A152121150A46
:10233000071B0721D368013BD3605DF8044B70474E
:10234000937A03F003030029E6D043F00403E3E7A4
:10235000D3685DF8044B023BD3607047D3685DF8E7
:10236000044B0233D3607047D3685DF8044B0133EC
:10237000D36070474C1EFF1F214B10B4D3F8B02020
:102380001368506819780478507A137A044201EA85
:1023900003011BD0937A03F0030309B143F0040354
:1023A00043F008039910013B91720D2B0BD8DFE825
:1023B00003F021071B070A152121150A071B072116
:1023C000D368013BD3605DF8044B7047937A03F008
:1023D00003030029E6D043F00403E3E7D3685DF884
:1023E000044B023BD3607047D3685DF8044B023363
:1023F000D3607047D3685DF8044B0133D3607047F6
:102400004C1EFF1F214B10B4D3F8B4201368506842
:1024100019780478507A137A044201EA03011BD038
:10242000937A03F0030309B143F0040343F0080374
:102430009910013B91720D2B0BD8DFE803F02107B7
:102440001B070A152121150A071B0721D368013B29
:10245000D3605DF8044B7047937A03F003030029BF
:10246000E6D043F00403E3E7D3685DF8044B023B96
:10247000D3607047D3685DF8044B0233D360704774
:10248000D3685DF8044B0133D36070474C1EFF1FC7
:10249000214B10B4D3F8B820136850681978047829
:1024A000507A137A044201EA03011BD0937A03F0B5
:1024B000030309B143F0040343F008039910013BFF
:1024C00091720D2B0BD8DFE803F021071B070A15CB
:1024D0002121150A071B0721D368013BD3605DF852
:1024E000044B7047937A03F003030029E6D043F0CE
:1024F0000403E3E7D3685DF8044B023BD360704705
:10250000D3685DF8044B0233D3607047D3685DF83D
:10251000044B0133D36070474C1EFF1F214B10B496
:10252000D3F8BC201368506819780478507A137A6D
:10253000044201EA03011BD0937A03F0030309B1BB
:1025400043F0040343F008039910013B91720D2BF3
:102550000BD8DFE803F021071B070A152121150A14
:10256000071B0721D368013BD3605DF8044B70471C
:10257000937A03F003030029E6D043F00403E3E772
:10258000D3685DF8044B023BD3607047D3685DF8B5
:10259000044B0233D3607047D3685DF8044B0133BA
:1025A000D36070474C1EFF1F214B10B4D3F8C020DE
:1025B0001368506819780478507A137A044201EA53
:1025C00003011BD0937A03F0030309B143F0040322
:1025D00043F008039910013B91720D2B0BD8DFE8F3
:1025E00003F021071B070A152121150A071B0721E4
:1025F000D368013BD3605DF8044B7047937A03F0D6
:1026000003030029E6D043F00403E3E7D3685DF851
:10261000044B023BD3607047D3685DF8044B023330
:10262000D3607047D3685DF8044B0133D3607047C3
:102630004C1EFF1F214B10B4D3F8C4201368506800
:1026400019780478507A137A044201EA03011BD006
:10265000937A03F0030309B143F0040343F0080342
:102660009910013B91720D2B0BD8DFE803F0210785
:102670001B070A152121150A071B0721D368013BF7
:10268000D3605DF8044B7047937A03F0030300298D
:10269000E6D043F00403E3E7D3685DF8044B023B64
:1026A000D3607047D3685DF8044B0233D360704742
:1026B000D3685DF8044B0133D36070474C1EFF1F95
:1026C000214B10B4D3F8C8201368506819780478E7
:1026D000507A137A044201EA03011BD0937A03F083
:1026E000030309B143F0040343F008039910013BCD
:1026F00091720D2B0BD8DFE803F021071B070A1599
:102700002121150A071B0721D368013BD3605DF81F
:10271000044B7047937A03F003030029E6D043F09B
:102720000403E3E7D3685DF8044B023BD3607047D2
:10273000D3685DF8044B0233D3607047D3685DF80B
:10274000044B0133D36070474C1EFF1F214B10B464
:10275000D3F8CC201368506819780478507A137A2B
:10276000044201EA03011BD0937A03F0030309B189
:1027700043F0040343F008039910013B91720D2BC1
:102780000BD8DFE803F021071B070A152121150AE2
:10279000071B0721D368013BD3605DF8044B7047EA
:1027A000937A03F003030029E6D043F00403E3E740
:1027B000D3685DF8044B023BD3607047D3685DF883
:1027C000044B0233D3607047D3685DF8044B013388
:1027D000D36070474C1EFF1F214B10B4D3F8D0209C
:1027E0001368506819780478507A137A044201EA21
:1027F00003011BD0937A03F0030309B143F00403F0
:1028000043F008039910013B91720D2B0BD8DFE8C0
:1028100003F021071B070A152121150A071B0721B1
:10282000D368013BD3605DF8044B7047937A03F0A3
:1028300003030029E6D043F00403E3E7D3685DF81F
:10284000044B023BD3607047D3685DF8044B0233FE
:10285000D3607047D3685DF8044B0133D360704791
:102860004C1EFF1F214B10B4D3F8D42013685068BE
:1028700019780478507A137A044201EA03011BD0D4
:10288000937A03F0030309B143F0040343F0080310
:102890009910013B91720D2B0BD8DFE803F0210753
:1028A0001B070A152121150A071B0721D368013BC5
:1028B000D3605DF8044B7047937A03F0030300295B
:1028C000E6D043F00403E3E7D3685DF8044B023B32
:1028D000D3607047D3685DF8044B0233D360704710
:1028E000D3685DF8044B0133D36070474C1EFF1F63
:1028F000214B10B4D3F8D8201368506819780478A5
:10290000507A137A044201EA03011BD0937A03F050
:10291000030309B143F0040343F008039910013B9A
:1029200091720D2B0BD8DFE803F021071B070A1566
:102930002121150A071B0721D368013BD3605DF8ED
:10294000044B7047937A03F003030029E6D043F069
:102950000403E3E7D3685DF8044B023BD3607047A0
:10296000D3685DF8044B0233D3607047D3685DF8D9
:10297000044B0133D36070474C1EFF1F214B10B432
:10298000DA691368506819780478507A137A044227
:1029900001EA03011BD0937A03F0030309B143F06A
:1029A000040343F008039910013B91720D2B0BD8DF
:1029B000DFE803F021071B070A152121150A071B71
:1029C0000721D368013BD3605DF8044B7047937ACD
:1029D00003F003030029E6D043F00403E3E7D368E0
:1029E0005DF8044B023BD3607047D3685DF8044B3D
:1029F0000233D3607047D3685DF8044B0133D36072
:102A0000704700BF4C1EFF1F214B10B41A6A136899
:102A1000506819780478507A137A044201EA030165
:102A20001BD0937A03F0030309B143F0040343F08E
:102A300008039910013B91720D2B0BD8DFE803F0CE
:102A400021071B070A152121150A071B0721D36837
:102A5000013BD3605DF8044B7047937A03F00303A6
:102A60000029E6D043F00403E3E7D3685DF8044BA4
:102A7000023BD3607047D3685DF8044B0233D360E8
:102A80007047D3685DF8044B0133D360704700BFD3
:102A90004C1EFF1F214B10B45A6A136850681978F6
:102AA0000478507A137A044201EA03011BD0937A26
:102AB00003F0030309B143F0040343F00803991042
:102AC000013B91720D2B0BD8DFE803F021071B07A8
:102AD0000A152121150A071B0721D368013BD36082
:102AE0005DF8044B7047937A03F003030029E6D0A6
:102AF00043F00403E3E7D3685DF8044B023BD36083
:102B00007047D3685DF8044B0233D3607047D368D5
:102B10005DF8044B0133D360704700BF4C1EFF1FAC
:102B2000214B10B49A6A1368506819780478507A67
:102B3000137A044201EA03011BD0937A03F00303E2
:102B400009B143F0040343F008039910013B91726B
:102B50000D2B0BD8DFE803F021071B070A152121F5
:102B6000150A071B0721D368013BD3605DF8044BAE
:102B70007047937A03F003030029E6D043F004037F
:102B8000E3E7D3685DF8044B023BD3607047D3683A
:102B90005DF8044B0233D3607047D3685DF8044B93
:102BA0000133D360704700BF4C1EFF1F214B10B490
:102BB000DA6A1368506819780478507A137A0442F4
:102BC00001EA03011BD0937A03F0030309B143F038
:102BD000040343F008039910013B91720D2B0BD8AD
:102BE000DFE803F021071B070A152121150A071B3F
:102BF0000721D368013BD3605DF8044B7047937A9B
:102C000003F003030029E6D043F00403E3E7D368AD
:102C10005DF8044B023BD3607047D3685DF8044B0A
:102C20000233D3607047D3685DF8044B0133D3603F
:102C3000704700BF4C1EFF1F214B10B41A6B136866
:102C4000506819780478507A137A044201EA030133
:102C50001BD0937A03F0030309B143F0040343F05C
:102C600008039910013B91720D2B0BD8DFE803F09C
:102C700021071B070A152121150A071B0721D36805
:102C8000013BD3605DF8044B7047937A03F0030374
:102C90000029E6D043F00403E3E7D3685DF8044B72
:102CA000023BD3607047D3685DF8044B0233D360B6
:102CB0007047D3685DF8044B0133D360704700BFA1
:102CC0004C1EFF1F214B10B45A6B136850681978C3
:102CD0000478507A137A044201EA03011BD0937AF4
:102CE00003F0030309B143F0040343F00803991010
:102CF000013B91720D2B0BD8DFE803F021071B0776
:102D00000A152121150A071B0721D368013BD3604F
:102D10005DF8044B7047937A03F003030029E6D073
:102D200043F00403E3E7D3685DF8044B023BD36050
:102D30007047D3685DF8044B0233D3607047D368A3
:102D40005DF8044B0133D360704700BF4C1EFF1F7A
:102D5000214B10B49A6B1368506819780478507A34
:102D6000137A044201EA03011BD0937A03F00303B0
:102D700009B143F0040343F008039910013B917239
:102D80000D2B0BD8DFE803F021071B070A152121C3
:102D9000150A071B0721D368013BD3605DF8044B7C
:102DA0007047937A03F003030029E6D043F004034D
:102DB000E3E7D3685DF8044B023BD3607047D36808
:102DC0005DF8044B0233D3607047D3685DF8044B61
:102DD0000133D360704700BF4C1EFF1F214B10B45E
:102DE000DA6B1368506819780478507A137A0442C1
:102DF00001EA03011BD0937A03F0030309B143F006
:102E0000040343F008039910013B91720D2B0BD87A
:102E1000DFE803F021071B070A152121150A071B0C
:102E20000721D368013BD3605DF8044B7047937A68
:102E300003F003030029E6D043F00403E3E7D3687B
:102E40005DF8044B023BD3607047D3685DF8044BD8
:102E50000233D3607047D3685DF8044B0133D3600D
:102E6000704700BF4C1EFF1F214B10B41A6C136833
:102E7000506819780478507A137A044201EA030101
:102E80001BD0937A03F0030309B143F0040343F02A
:102E900008039910013B91720D2B0BD8DFE803F06A
:102EA00021071B070A152121150A071B0721D368D3
:102EB000013BD3605DF8044B7047937A03F0030342
:102EC0000029E6D043F00403E3E7D3685DF8044B40
:102ED000023BD3607047D3685DF8044B0233D36084
:102EE0007047D3685DF8044B0133D360704700BF6F
:102EF0004C1EFF1F214B10B45A6C13685068197890
:102F00000478507A137A044201EA03011BD0937AC1
:102F100003F0030309B143F0040343F008039910DD
:102F2000013B91720D2B0BD8DFE803F021071B0743
:102F30000A152121150A071B0721D368013BD3601D
:102F40005DF8044B7047937A03F003030029E6D041
:102F500043F00403E3E7D3685DF8044B023BD3601E
:102F60007047D3685DF8044B0233D3607047D36871
:102F70005DF8044B0133D360704700BF4C1EFF1F48
:102F8000214B10B49A6C1368506819780478507A01
:102F9000137A044201EA03011BD0937A03F003037E
:102FA00009B143F0040343F008039910013B917207
:102FB0000D2B0BD8DFE803F021071B070A15212191
:102FC000150A071B0721D368013BD3605DF8044B4A
:102FD0007047937A03F003030029E6D043F004031B
:102FE000E3E7D3685DF8044B023BD3607047D368D6
:102FF0005DF8044B0233D3607047D3685DF8044B2F
:103000000133D360704700BF4C1EFF1F214B10B42B
:10301000DA6C1368506819780478507A137A04428D
:1030200001EA03011BD0937A03F0030309B143F0D3
:10303000040343F008039910013B91720D2B0BD848
:10304000DFE803F021071B070A152121150A071BDA
:103050000721D368013BD3605DF8044B7047937A36
:1030600003F003030029E6D043F00403E3E7D36849
:103070005DF8044B023BD3607047D3685DF8044BA6
:103080000233D3607047D3685DF8044B0133D360DB
:10309000704700BF4C1EFF1F214B10B41A6D136800
:1030A000506819780478507A137A044201EA0301CF
:1030B0001BD0937A03F0030309B143F0040343F0F8
:1030C00008039910013B91720D2B0BD8DFE803F038
:1030D00021071B070A152121150A071B0721D368A1
:1030E000013BD3605DF8044B7047937A03F0030310
:1030F0000029E6D043F00403E3E7D3685DF8044B0E
:10310000023BD3607047D3685DF8044B0233D36051
:103110007047D3685DF8044B0133D360704700BF3C
:103120004C1EFF1F214B10B45A6D1368506819785C
:103130000478507A137A044201EA03011BD0937A8F
:1031400003F0030309B143F0040343F008039910AB
:10315000013B91720D2B0BD8DFE803F021071B0711
:103160000A152121150A071B0721D368013BD360EB
:103170005DF8044B7047937A03F003030029E6D00F
:1031800043F00403E3E7D3685DF8044B023BD360EC
:103190007047D3685DF8044B0233D3607047D3683F
:1031A0005DF8044B0133D360704700BF4C1EFF1F16
:1031B000214B10B49A6D1368506819780478507ACE
:1031C000137A044201EA03011BD0937A03F003034C
:1031D00009B143F0040343F008039910013B9172D5
:1031E0000D2B0BD8DFE803F021071B070A1521215F
:1031F000150A071B0721D368013BD3605DF8044B18
:103200007047937A03F003030029E6D043F00403E8
:10321000E3E7D3685DF8044B023BD3607047D368A3
:103220005DF8044B0233D3607047D3685DF8044BFC
:103230000133D360704700BF4C1EFF1F214B10B4F9
:103240001A681368506819780478507A137A04421F
:1032500001EA03011BD0937A03F0030309B143F0A1
:10326000040343F008039910013B91720D2B0BD816
:10327000DFE803F021071B070A152121150A071BA8
:103280000721D368013BD3605DF8044B7047937A04
:1032900003F003030029E6D043F00403E3E7D36817
:1032A0005DF8044B023BD3607047D3685DF8044B74
:1032B0000233D3607047D3685DF8044B0133D360A9
:1032C000704700BF4C1EFF1F214B10B45A68136893
:1032D000506819780478507A137A044201EA03019D
:1032E0001BD0937A03F0030309B143F0040343F0C6
:1032F00008039910013B91720D2B0BD8DFE803F006
:1033000021071B070A152121150A071B0721D3686E
:10331000013BD3605DF8044B7047937A03F00303DD
:103320000029E6D043F00403E3E7D3685DF8044BDB
:10333000023BD3607047D3685DF8044B0233D3601F
:103340007047D3685DF8044B0133D360704700BF0A
:103350004C1EFF1F214B10B49A68136850681978EF
:103360000478507A137A044201EA03011BD0937A5D
:1033700003F0030309B143F0040343F00803991079
:10338000013B91720D2B0BD8DFE803F021071B07DF
:103390000A152121150A071B0721D368013BD360B9
:1033A0005DF8044B7047937A03F003030029E6D0DD
:1033B00043F00403E3E7D3685DF8044B023BD360BA
:1033C0007047D3685DF8044B0233D3607047D3680D
:1033D0005DF8044B0133D360704700BF4C1EFF1FE4
:1033E000214B10B4DA681368506819780478507A61
:1033F000137A044201EA03011BD0937A03F003031A
:1034000009B143F0040343F008039910013B9172A2
:103410000D2B0BD8DFE803F021071B070A1521212C
:10342000150A071B0721D368013BD3605DF8044BE5
:103430007047937A03F003030029E6D043F00403B6
:10344000E3E7D3685DF8044B023BD3607047D36871
:103450005DF8044B0233D3607047D3685DF8044BCA
:103460000133D360704700BF4C1EFF1F214B10B4C7
:103470001A691368506819780478507A137A0442EC
:1034800001EA03011BD0937A03F0030309B143F06F
:10349000040343F008039910013B91720D2B0BD8E4
:1034A000DFE803F021071B070A152121150A071B76
:1034B0000721D368013BD3605DF8044B7047937AD2
:1034C00003F003030029E6D043F00403E3E7D368E5
:1034D0005DF8044B023BD3607047D3685DF8044B42
:1034E0000233D3607047D3685DF8044B0133D36077
:1034F000704700BF4C1EFF1F214B10B45A69136860
:10350000506819780478507A137A044201EA03016A
:103510001BD0937A03F0030309B143F0040343F093
:1035200008039910013B91720D2B0BD8DFE803F0D3
:1035300021071B070A152121150A071B0721D3683C
:10354000013BD3605DF8044B7047937A03F00303AB
:103550000029E6D043F00403E3E7D3685DF8044BA9
:10356000023BD3607047D3685DF8044B0233D360ED
:103570007047D3685DF8044B0133D360704700BFD8
:103580004C1EFF1F214B10B49A69136850681978BC
:103590000478507A137A044201EA03011BD0937A2B
:1035A00003F0030309B143F0040343F00803991047
:1035B000013B91720D2B0BD8DFE803F021071B07AD
:1035C0000A152121150A071B0721D368013BD36087
:1035D0005DF8044B7047937A03F003030029E6D0AB
:1035E00043F00403E3E7D3685DF8044B023BD36088
:1035F0007047D3685DF8044B0233D3607047D368DB
:103600005DF8044B0133D360704700BF4C1EFF1FB1
:103610002DE9F041632984B003DD90F8F874002FA0
:1036200053D0136805460F4610461B6805F2232148
:103630009847C2B2C0F30721561885F81E2247F3F7
:103640000722F643FF234FF0FE0EFCB285F822223C
:10365000421C85F8206285F81F1285F81C3285F817
:103660001DE285F821420DDB00F22221294405F2FA
:103670002123002201E013F8014F99422244FAD19C
:10368000D343DBB22A1800F10807B7F5007F82F8B0
:1036900023321EDC002F05F5077616DD0730DFF834
:1036A000F480064405F21B2403E007F051FAB4420B
:1036B0000BD06A6814F8011F13681B68434508465D
:1036C000F3D010469847B442F3D1384604B0BDE871
:1036D000F0812D4A2D492B68019203208DF80800B6
:1036E00003911B682A4A934246D10024382285F868
:1036F000230285F8242285F8254285F8264285F89C
:10370000274205F50A7005F021FFFF273D20C2235F
:10371000FE26072185F81E0285F8203285F81F4213
:1037200085F82242224685F81C7285F81D6285F8CC
:10373000211205F2212305F25F2001E013F8011F99
:1037400098420A44FAD1D243DFF8488085F86022D3
:1037500005F21B2405F5187603E007F0F9F9B442E9
:103760000ED06A6814F8011F13681B6843450846A9
:10377000F3D010469847F2E7284601AA0721984758
:103780004FF0FF30A2E700BFB00E0100941101001E
:1037900011360000D5090000F8B5044615460E465E
:1037A000084602211F4606F067FA2846022106F065
:1037B00063FA9B499B4A51F836002760012300F5C4
:1037C0000077E760237551F83510637501F50077D0
:1037D0000023A36127611346013BFDD190F800321D
:1037E00091F8002203F00103D20744BF43F0020323
:1037F000DBB2A37504F10C073B2E00F20486DFE870
:1038000016F0F505EB05E105D705CD05C305B905AE
:10381000AF05A5059B05910587057D057305690520
:103820005F0555054B05410537052D052305190590
:103830000F050505FB04F104E704DD04D304C90406
:10384000BF04B404A9049E04930488047D042904DD
:103850001F0415040B040104F703ED03E303D9036C
:10386000CF03C503BB03B103A7039D0393038903E0
:103870007F0375036B0361033C006B4B6B49C3F81B
:10388000EC7004223B2005F0DFFF012323773B2D62
:1038900000F2B685DFE815F00C030203F802EE0231
:1038A000E402DA02D002C602BC02B202A8029E0200
:1038B00094028A028002320228021E0214020A02C4
:1038C0000002F601EC01E201D801CE01C401BA0107
:1038D000B001A6019C01920187017C017101660182
:1038E0005B01500145013A012F01240119010E012C
:1038F0000301F800ED00E200B800AD00A20097005F
:103900008C00810076006B00600055004A003C008E
:10391000454B4649C3F8EC7004223B2005F094FF68
:10392000237F0122134423772046F8BD3E4B4049B4
:10393000C3F8E87004223A2005F086FF237F0122B5
:10394000F0E7394B3B49C3F8E4700422392005F015
:103950007BFF237F0122E5E7334B3749C3F8E07053
:103960000422382005F070FF237F0122DAE72E4B76
:103970003249C3F8DC700422372005F065FF237F4D
:103980000122CFE7284B2E49C3F8D87004223620F5
:1039900005F05AFF237F0122C4E7234B2949C3F8CE
:1039A000D4700422352005F04FFF237F0122B9E7B0
:1039B0001D4B2549C3F8D0700422342005F044FF84
:1039C000237F0122AEE7184B2049C3F8CC700422B4
:1039D000332005F039FF237F0122A3E7124B1C4956
:1039E000C3F8C8700422322005F02EFF237F012285
:1039F00098E70D4B1749C3F8C4700422312005F035
:103A000023FF237F01228DE7074B1349C3F8C070C2
:103A10000422302005F018FF237F012282E700BF37
:103A20002C130100803801004C1EFF1F41150000BF
:103A300071170000E516000059160000CD150000B2
:103A4000F128000065280000D92700004D2700005C
:103A5000C126000035260000A9250000AC4BAD4969
:103A6000C3F8BC7004222F2005F0EEFE237F012254
:103A700058E7A74BA849C3F8B87004222E2005F0D8
:103A8000E3FE237F01224DE7A14BA449C3F8B470A4
:103A900004222D2005F0D8FE237F012242E79C4B13
:103AA0009F49C3F8B07004222C2005F0CDFE237F7F
:103AB000012237E7964B9B49C3F8AC7004222B20B8
:103AC00005F0C2FE237F01222CE7914B9649C3F8F3
:103AD000A87004222A2005F0B7FE237F012221E7E7
:103AE0008B4B9249C3F8A4700422292005F0ACFE48
:103AF000237F012216E7864B8D49C3F8A07004226C
:103B0000282005F0A1FE237F01220BE7804B894985
:103B1000C3F89C700422272005F096FE237F012223
:103B200000E77B4B8449C3F898700422262005F0F7
:103B30008BFE237F0122F5E6754B8049C3F8947014
:103B40000422252005F080FE237F0122EAE6704B47
:103B50007B49C3F890700422242005F075FE237F72
:103B60000122DFE66A4B7749C3F88C7004222320D8
:103B700005F06AFE237F0122D4E6654B7249C3F843
:103B800088700422222005F05FFE237F0122C9E60F
:103B90005F4B6E49C3F884700422212005F054FE67
:103BA000237F0122BEE65A4B6949C3F88070042284
:103BB000202005F049FE237F0122B3E6544B6549DE
:103BC000DF6704221F2005F03FFE237F0122A9E6C4
:103BD0004F4B61499F6704221E2005F035FE237F6D
:103BE00001229FE64A4B5D495F6704221D2005F0D4
:103BF0002BFE237F012295E6454B59491F6704227E
:103C00001C2005F021FE237F01228BE6404B554905
:103C1000DF6604221B2005F017FE237F012281E6C8
:103C20003B4B51499F6604221A2005F00DFE237F6D
:103C3000012277E6364B4D495F660422192005F0D4
:103C400003FE237F01226DE6314B49491F660422A2
:103C5000182005F0F9FD237F012263E62C4B45492E
:103C6000DF650422172005F0EFFD237F012259E6CE
:103C7000274B41499F650422162005F0E5FD237F6F
:103C800001224FE6224B3D495F650422152005F0D5
:103C9000DBFD237F012245E61D4B39491F650422C8
:103CA000142005F0D1FD237F01223BE6184B354956
:103CB000DF640422132005F0C7FD237F012231E6D3
:103CC000134B31499F640422122005F0BDFD237F70
:103CD000012227E60E4B2D495F640422112005F0D6
:103CE000B3FD237F01221DE6094B29491F640422ED
:103CF000102005F0A9FD237F012213E6044B25497E
:103D0000DF6304220F2005F09FFD237F012209E6D7
:103D10004C1EFF1F1D2500009124000005240000FB
:103D200079230000ED22000061220000D52100006F
:103D300049210000BD20000031200000A51F000027
:103D4000191F00008D1E0000011E0000751D0000DF
:103D5000E91C00005D1C0000D11B0000451B000099
:103D6000B91A00002D1A0000A11900001519000051
:103D700089180000FD170000B13100002531000056
:103D8000993000000D300000812F0000F52E00005A
:103D9000692E0000DD2D0000B34BB4499F6304225F
:103DA0000E2005F051FD237F0122BBE5AE4BB0494B
:103DB0005F6304220D2005F047FD237F0122B1E55A
:103DC000A94BAC491F6304220C2005F03DFD237F65
:103DD0000122A7E5A44BA849DF6204220B2005F0CD
:103DE00033FD237F01229DE59F4BA4499F6204225E
:103DF0000A2005F029FD237F012293E59A4BA04973
:103E00005F620422092005F01FFD237F012289E55E
:103E1000954B9C491F620422082005F015FD237F65
:103E200001227FE5904B9849DF610422072005F0CD
:103E30000BFD237F012275E58B4B94499F61042282
:103E4000062005F001FD237F01226BE5864B90499A
:103E50005F610422052005F0F7FC237F012261E564
:103E6000814B8C491F610422104605F0EDFC237F35
:103E7000012257E57C4B8849DF600422032005F0CE
:103E8000E3FC237F01224DE5774B84499F600422A8
:103E9000022005F0D9FC237F012243E5724B8049C3
:103EA0005F600422012005F0CFFC237F012239E569
:103EB0006D4B7C491F600422002005F0C5FC237F68
:103EC00001222FE5684B7849C3F8E87004223A20B4
:103ED00005F0BAFC0123D9E4634B7449C3F8E470DC
:103EE0000422392005F0B0FC0123CFE45E4B704979
:103EF000C3F8E0700422382005F0A6FC0123C5E4D5
:103F0000594B6C49C3F8DC700422372005F09CFC47
:103F10000123BBE4544B6849C3F8D870042236200F
:103F200005F092FC0123B1E44F4B6449C3F8D4700F
:103F30000422352005F088FC0123A7E44A4B6049A0
:103F4000C3F8D0700422342005F07EFC01239DE4E8
:103F5000454B5C49C3F8CC700422332005F074FC57
:103F6000012393E4404B5849C3F8C870042232201F
:103F700005F06AFC012389E43B4B5449C3F8C47043
:103F80000422312005F060FC01237FE4364B5049C8
:103F9000C3F8C0700422302005F056FC012375E4FC
:103FA000314B4C49C3F8BC7004222F2005F04CFC67
:103FB00001236BE42C4B4849C3F8B87004222E202F
:103FC00005F042FC012361E4274B4449C3F8B47077
:103FD00004222D2005F038FC012357E4224B4049F0
:103FE000C3F8B07004222C2005F02EFC01234DE410
:103FF0001D4B3C49C3F8AC7004222B2005F024FC77
:10400000012343E4184B3849C3F8A87004222A203E
:1040100005F01AFC012339E4134B3449C3F8A470AA
:104020000422292005F010FC01232FE40E4B304917
:10403000C3F8A0700422282005F006FC012325E423
:10404000094B2C49C3F89C700422272005F0FCFB87
:1040500001231BE4044B2849C3F89870042226204E
:1040600005F0F2FB012311E44C1EFF1F512D00004F
:10407000C52C0000392C0000AD2B0000212B0000C6
:10408000952A0000092A00007D29000085350000DE
:10409000F93400006D340000E133000055330000B6
:1040A000C93200003D32000071170000E516000023
:1040B00059160000CD150000F12800006528000009
:1040C000D92700004D270000C1260000352600003A
:1040D000A92500001D2500009124000005240000F2
:1040E00079230000ED22000061220000D5210000AC
:1040F00049210000BD20000031200000C34BC4490D
:10410000C3F894700422252005F09EFB0123FFF7DD
:10411000BDBBBE4BBF49C3F890700422242005F0FC
:1041200093FB0123FFF7B2BBB84BBB49C3F88C70BC
:104130000422232005F088FB0123FFF7A7BBB34B24
:10414000B649C3F888700422222005F07DFB0123C4
:10415000FFF79CBBAD4BB249C3F884700422212009
:1041600005F072FB0123FFF791BBA84BAD49C3F8E3
:1041700080700422202005F067FB0123FFF786BB37
:10418000A24BA949DF6704221F2005F05DFB012334
:10419000FFF77CBB9D4BA5499F6704221E2005F0BD
:1041A00053FB0123FFF772BB984BA1495F670422C1
:1041B0001D2005F049FB0123FFF768BB934B9D4988
:1041C0001F6704221C2005F03FFB0123FFF75EBBA5
:1041D0008E4B9949DF6604221B2005F035FB012335
:1041E000FFF754BB894B95499F6604221A2005F0BE
:1041F0002BFB0123FFF74ABB844B91495F660422E6
:10420000192005F021FB0123FFF740BB7F4B8D49AF
:104210001F660422182005F017FB0123FFF736BBA9
:104220007A4B8949DF650422172005F00DFB012335
:10423000FFF72CBB754B85499F650422162005F0BE
:1042400003FB0123FFF722BB704B81495F6504220A
:10425000152005F0F9FA0123FFF718BB6B4B7D49D8
:104260001F650422142005F0EFFA0123FFF70EBBAF
:10427000664B7949DF640422132005F0E5FA012337
:10428000FFF704BB614B75499F640422122005F0BF
:10429000DBFA0123FFF7FABA5C4B71495F64042231
:1042A000112005F0D1FA0123FFF7F0BA574B6D4901
:1042B0001F640422102005F0C7FA0123FFF7E6BAB5
:1042C000524B6949DF6304220F2005F0BDFA012338
:1042D000FFF7DCBA4D4B65499F6304220E2005F0C1
:1042E000B3FA0123FFF7D2BA484B61495F63042256
:1042F0000D2005F0A9FA0123FFF7C8BA434B5D4929
:104300001F6304220C2005F09FFA0123FFF7BEBAB9
:104310003E4B5949DF6204220B2005F095FA012338
:10432000FFF7B4BA394B55499F6204220A2005F0C1
:104330008BFA0123FFF7AABA344B51495F6204227A
:10434000092005F081FA0123FFF7A0BA2F4B4D4950
:104350001F620422082005F077FA0123FFF796BABE
:104360002A4B4949DF610422072005F06DFA012339
:10437000FFF78CBA254B45499F610422062005F0C2
:1043800063FA0123FFF782BA204B41495F6104229F
:10439000052005F059FA0123FFF778BA1B4B3D4978
:1043A0001F610422104605F04FFA0123FFF76EBA91
:1043B000164B3949DF600422032005F045FA01233A
:1043C000FFF764BA114B35499F600422022005F0C3
:1043D0003BFA0123FFF75ABA0C4B31495F600422C4
:1043E000012005F031FA0123FFF750BA074B2D49A0
:1043F0001F600422002005F027FA0123FFF746BAC8
:104400000022FFF78FBA0023FFF740BA4C1EFF1FB0
:10441000A51F0000191F00008D1E0000011E0000D6
:10442000751D0000E91C00005D1C0000D11B000090
:10443000451B0000B91A00002D1A0000A119000048
:104440001519000089180000FD170000B1310000A7
:1044500025310000993000000D300000812F000050
:10446000F52E0000692E0000DD2D0000512D00000A
:10447000C52C0000392C0000AD2B0000212B0000C2
:10448000952A0000092A00007D29000085350000DA
:10449000F93400006D340000E133000055330000B2
:1044A000C93200003D3200002DE9F04F072193B0E2
:1044B000A948AA4C04F014F95A21A74804F016F9A7
:1044C0000121112005F0D8FB01210E2005F0D4FBBD
:1044D0000121084605F0D0FB01210D2005F0CCFBA1
:1044E0000121112005F0C2FB01210E2005F0BEFBC9
:1044F0000121084605F0BAFB00210D2005F0B6FBAE
:10450000974804F02BFD00234FF46142A260C4F8E9
:10451000E43404F27C42C4F8E834C4F8F034C4F85B
:10452000EC3402E00133192B0AD052F8041F0029A1
:10453000F8D103F590718B4A44F82120643353601D
:10454000894A002302E00133192B0BD052F8041FD3
:104550000029F8D1854A04EB83017D33C1F81C247E
:104560009360D460804A002302E00133192B0BD002
:1045700052F8041F0029F8D17D4A04EB83017D33F2
:10458000C1F81C249360D460774A002302E0013311
:10459000192B0BD052F8041F0029F8D1754A04EBEF
:1045A00083017D33C1F81C249360D460724A0023D8
:1045B00002E00133192B0AD052F8041F0029F8D168
:1045C00003F590716D4A44F8212064335360664AC4
:1045D000002302E00133192B0BD052F8041F0029ED
:1045E000F8D1674A04EB83017D33C1F81C24936042
:1045F000D4605D4A002302E00133192B0BD052F83E
:10460000041F0029F8D15F4A04EB83017D33C1F810
:104610001C249360D460544A002302E00133192B18
:104620000BD052F8041F0029F8D1574A04EB83013C
:104630007D33C1F81C249360D4604B4A002302E010
:104640000133192B0BD052F8041F0029F8D14F4A1F
:1046500004EB83017D33C1F81C249360D460424A8B
:10466000002302E00133192B0BD052F8041F00295C
:10467000F8D1474A04EB83017D33C1F81C249360D1
:10468000D460394A002302E00133192B0BD052F8D1
:10469000041F0029F8D13F4A04EB83017D33C1F8A0
:1046A0001C249360D4603C4B94F8F824DFF8F0B0FD
:1046B0003A4EDFF8F09002930192A3F50775019B43
:1046C000002B40F00D8133680A93DDF828A0D4F860
:1046D000003542F6F822C3EB0A03934284BF9DF8EB
:1046E000043085F8F834D4F8E43433B1D5F804351F
:1046F0009A4584BF0023C5F8E434A2693AB133680F
:104700000E930E9BCAEB03039A42C0F0E1816068EE
:1047100003685B694B457ED106F030F900287DDBEC
:10472000D4F8F434D4F8E4240344072AC4F8F43465
:1047300000F02481C2BBFF2800F0338133680D9361
:104740000D9B41F28831CAEB03038B42D5D9034B51
:1047500083F8F824B7E700BF1C17FF1F5817FF1F87
:10476000B01DFF1F6C16FF1F701BFF1FB81DFF1F22
:10477000681DFF1F2C16FF1FD41BFF1FC81CFF1F27
:104780002417FF1F1416FF1FAC15FF1F3817FF1F3C
:10479000E41CFF1FE415FF1F7419FF1F4C1FFF1FB0
:1047A000D5090000BD070000012A00F00281022A9D
:1047B00000F05381032A00F05B81042A00F062813B
:1047C000052A00F06E81062A00F07381082A94D130
:1047D000C94A1A4000239A42C4F8E434C0F28281E4
:1047E000FF2A8AD1D4F8EC34002B00F0E4820A2BA3
:1047F00000F08E81062B00F0C0810B2B00F077813A
:10480000BC3355F8230000283FF477AF0368BB4959
:104810001B68984771E79847002881DA94F8F834C4
:104820000193002B3FF44FAFD5F8FC3440F6C4128F
:10483000C3EB0A0393427FF642AFFF21FE27B04B42
:1048400085F81C120821002285F81D7285F81E12B9
:10485000F7270A2103F1090085F8232285F824228D
:1048600085F8252285F8262285F8272285F8282232
:1048700085F8292285F82A2285F81F2285F8222228
:1048800085F8207285F8211201E013F8011F984283
:104890000A44FAD1029BD24384F82B22984603F1B2
:1048A0000F07FF2105E006F053F947450BD018F834
:1048B000011F626813681B685B450846F3D0104609
:1048C00098474745F3D133680993099BE36094F80F
:1048D000F8340193019BC4F8FCA4002B3FF4F3AE21
:1048E000884B894D0FCB07C52A46002101270E268C
:1048F00022F81339E8194FF0FF0E84F8237284F878
:104900002462FE27132684F8251284F8261284F8E0
:10491000271284F81F1284F822120B46EC25072177
:1049200084F81CE284F81D7284F81E6284F8205218
:1049300084F8211201E012F8011F90420B44FAD1D1
:10494000029DDB4384F8363205F11A06FF2105E0AB
:1049500006F0FEF8B5420BD015F8011F6268136827
:104960001B685B450846F3D010469847B542F3D123
:10497000012005F087F913B0BDE8F08FD5F8F024D9
:10498000D5F8E834A918013B01320877C5F8F024BE
:10499000C5F8E834002B7FF4B0AE0823C4F8E43443
:1049A000ABE601220AF11403C5F8E424C5F8043586
:1049B000A3E6FE2871D095F8F8240023C5F8E43466
:1049C000002A7FF49AAEFF21FE274D4B85F81C127A
:1049D000082185F81D7285F81E12F7270A2185F82F
:1049E000232285F8242285F8252285F8262285F8B9
:1049F000272285F8282285F8292285F82A2285F899
:104A00001F2285F8222203F1090085F8207285F81B
:104A1000211201E013F8011F98420A44FAD1029BC7
:104A2000D24384F82B221F4603F10F08FF2105E033
:104A300006F08EF847450BD017F8011F626813681F
:104A40001B685B450846F3D0104698474745F3D1AD
:104A500033680C930C9BE3604FE600220323C5F8F8
:104A6000E804C5F8F404C5F8F024C5F8E43444E6D5
:104A7000D5F8E83403EB00200423C5F8E804C5F8B2
:104A8000E4343AE61C4A1A40002A26DBFF2A0CBF0F
:104A900005230023C4F8E4342FE60223C5F8E434E8
:104AA0002BE60623C5F8EC04C5F8F404C5F8E43495
:104AB00023E6D5F8EC34D5F8E82403EB00230721EE
:104AC000C5F8EC34C5F8E414002A3FF466AF14E6E8
:104AD0000E4B93F8F8340193F1E5013A62F0FF02CE
:104AE0000132D3E7013A62F0FF02013278E6002397
:104AF00085F8F83401E600BFFF0000807417FF1F3F
:104B00007919FF1FD01101008019FF1F5817FF1FCF
:104B100033680F930F9BEA68CC48316811919B1A58
:104B2000296ADFF848E3DFF84883DDF844C0EA6922
:104B3000A0FB0307BF094FF47A708E4400FB1733C4
:104B400008FB03E30393C14BC149A3FB0C3E4FEAAF
:104B50009E1E039B013A00FB1EC03A4408FB103323
:104B6000CEEB0202081F6B612A6104F085FA3368FC
:104B70001093109BC5F80035BFE5EF69D5F81035E7
:104B80009F4206D9B900D5F8180508F0F3F8C5F822
:104B90001805C4F81075002F00F0FC804FF00408D1
:104BA0000023AC4FCDF80CA0C246984697F82210CF
:104BB00097F8210097F8202097F823E0090441EAAC
:104BC0000021D4F818050A4342EA0E6300EB88007E
:104BD0000422A149C4F8143504F0B8FCD4F8102517
:104BE00008F101084245504607F104070AF1040A9A
:104BF000DCD8C21D069200F10902D046DDF80CA0F7
:104C0000039200F10A02049200F10B0200F1080382
:104C1000059200F10C024146471D984600F1060E30
:104C20000792A6442744069A9EF81CE097F81CC0F9
:104C3000D4F81C05214422444FEA0E4E097F177F09
:104C40004EEA0C2E4EEA010141EA0767874208D975
:104C5000B900D5F82405069308F08CF8069BC5F832
:104C60002405C4F81C75002F00F0EE80002305EB2E
:104C70000807CDF80CA0C2469846B97F787F3A7FE6
:104C800097F81FE0090441EA00210A43D4F82405FB
:104C9000724942EA0E6E00EB88000422C1F800E07F
:104CA00004F054FCD4F81C2508F101084245514693
:104CB00007F104070AF1040ADFD84A1DD046DDF8DF
:104CC0000CA003928A1D0492CA1D4346059201F16D
:104CD0000807049A0399224421440846117FD4F816
:104CE00028250392059A007F2344224409041B7F50
:104CF00092F81C8041EA00210B4343EA0868039BB9
:104D0000984507D94FEA8801D5F8300508F032F800
:104D1000C5F83005C4F82885B8F1000F36D04FF03B
:104D2000000807F11C01002321449E4611F8012BC5
:104D30009A400833202B4EEA020EF7D1381D8644E4
:104D4000704509D207F11F03234402460132597806
:104D500003F8011B7245F9D304EB0E024FF000017A
:104D6000D1763F49431ED4F83005A1F5A262134421
:104D700000EB88000422C4F82C35774604F0E6FBEB
:104D8000D4F8283508F101084345CAD8012384F82E
:104D90000835B2E40C2207920B2205920A220492F3
:104DA0000922082303920722984606924FF0060E26
:104DB0000527042135E72B48A0F22A2100F8073CFB
:104DC000FE2781F81C224FF0080C0A4681F8243295
:104DD00081F8253281F8263281F8273281F828328D
:104DE00081F8293281F82A3281F81D7281F81F3248
:104DF00081F82232A0F1090EF72781F81EC20A219C
:104E000082F8207282F82112724601E012F8011F26
:104E100090420B44FAD1144FDB43A7F10F020292E8
:104E200084F82B329046FF2105E005F091FEB8454D
:104E300020D018F8011F626813681B685B4508469C
:104E4000F3D010469847F2E7079F42E7D34D621030
:104E50006C17FF1F5817FF1F6C1CFF1F781CFF1FCC
:104E6000841CFF1F8219FF1F8319FF1F00CA9A3B72
:104E700040420F0033680B93D14BCDF804A01A4683
:104E80000B9BE36092465AF8043F002B00F0BF8072
:104E900058689A6801680392D3F800908B68984725
:104EA000DAF80030804658680368DB689847DAF81B
:104EB0000030039A1E69632E074604DD94F8F83427
:104EC000002B00F0A480C2F30723484684F8232275
:104ED00084F8243208F074F90346020A000C4FEA01
:104EE000136E494684F8262284F827021A46B548EC
:104EF00084F82532039384F828E204F027FB404627
:104F000008F05EF9039B024603F229202044063391
:104F1000002122FA01FE0831202900F801EBF8D126
:104F2000A94804334146184402EB030804F00EFB81
:104F3000384608F045F908F223228146224400232E
:104F400029FA03F10833202B02F8011BF8D19E4BFC
:104F500008F10408394603EB08004A4604F0F6FA63
:104F600009EB0800071D5FFA87FCC7F3072E04EB67
:104F700000080CEB0E010022C943022388F82432FA
:104F800088F8232288F8252288F8262284F820121F
:104F9000F1B246F30726FF234FF0FE0884F82262A1
:104FA0007E1C84F81EC284F81FE284F81C3284F848
:104FB0001D8284F821120BDB00F22626834B2E443F
:104FC00001E013F8011FB3420A44FAD1D343DBB224
:104FD000E2190837B7F5007F82F8233200F34B81DE
:104FE000002F14DD00F22720794E2F1803E005F082
:104FF000AFFDBE420BD0626816F8011F13681B6834
:105000005B450846F3D010469847BE42F3D1714B3A
:1050100053457FF438AF9A465AF8040F002800F041
:10502000BF8090E80C0003939268D0F808909047F6
:105030008046DAF800000268D26890470746DAF83E
:10504000000002685268904763280646039B04DD0F
:1050500094F8F824002A00F0A380C3F307224846FE
:1050600084F8233284F8242208F0AAF80346020ABE
:10507000000C4FEA136E494684F8262284F8270272
:105080001A46504884F82532039384F828E204F045
:105090005DFA404608F094F8039B024603F229208B
:1050A00020440633002122FA01FE0831202900F8AD
:1050B00001EBF8D1444804334146184402EB03089D
:1050C00004F044FA384608F07BF808F223228146BF
:1050D0002244002329FA03F10833202B02F8011B94
:1050E000F8D1394B08F10408394603EB08004A4669
:1050F00004F02CFA09EB0800071D5FFA87FCC7F3E0
:10510000072E04EB00080CEB0E010022C94302231A
:1051100088F8243288F8232288F8252288F8262265
:1051200084F82012F1B246F30726FF234FF0FE0861
:1051300084F822627E1C84F81EC284F81FE284F880
:105140001C3284F81D8284F821120BDB00F2262623
:105150001E4B2E4401E013F8011FB3420A44FAD15A
:10516000D343DBB2E2190837B7F5007F82F8233268
:1051700034DC002F14DD00F22720154E2F1803E039
:1051800005F0E6FCBE420BD0626816F8011F1368FA
:105190001B685B450846F3D010469847BE42F3D1E2
:1051A0000D4B9A457FF438AFDDF804A0C4F8FCA499
:1051B0000123C4F800A584F8F834FFF791BB00BFC1
:1051C000701BFF1F8119FF1F7B19FF1F7919FF1F1C
:1051D0007319FF1FD41BFF1F381CFF1F4D4F4E4E6E
:1051E0000FCF0FC60FCF0FC60FCF0FC697E8030024
:1051F00000234FF0030E3827FF2285F823E285F8BD
:1052000024724FF0FE0E3D2785F8253285F82632B0
:1052100085F8273286E80300C22185F81C22072280
:10522000F01D85F81F3285F82232373E85F81DE2E1
:1052300085F81E7285F8201285F8212201E016F803
:10524000012FB0421344FAD1344EDB4384F860326C
:10525000A6F14407FF2005E005F07AFCB7429FD095
:1052600017F8010F626813681B685B450146F3D0AD
:1052700010469847F2E7274F274E0FCF0FC60FCFA4
:105280000FC60FCF0FC697E8030000234FF0030EA1
:105290003827FF2285F823E285F824724FF0FE0EAE
:1052A0003D2785F8253285F8263285F8273286E8AD
:1052B0000300C22185F81C220722F01D85F81F3249
:1052C00085F82232373E85F81DE285F81E7285F892
:1052D000201285F8212201E016F8012F864213449E
:1052E000FAD10E4EDB4384F86032A6F14407FF206A
:1052F00006E005F02DFCB7423FF489AE17F8010F28
:10530000626813681B685B450146F2D010469847F7
:10531000F1E700BF941101008019FF1FB819FF1FAA
:105320002DE9F04100212DED028BBC4803F076FE03
:1053300001210446B94803F071FEB94BD3ED007A60
:10534000F8EEE77AF5EE407AF1EE10FA0AD1B54BB5
:10535000D3ED007AF8EEE77AF5EE407AF1EE10FA46
:1053600000F04781B04B1B68B04AD2ED007AF8EEEE
:10537000E77AF5EE407AF1EE10FA14D1AC4AD2EDAC
:10538000007AF8EEE77AF5EE407AF1EE10FA0AD1FB
:10539000A84D2E6801B28A1BC832B2F5C87F84BFFF
:1053A00029600E4601E0A34A1668DFEDA35A9FED7F
:1053B000A36A9FEDA38A9FEDA35AA34FA34AE41AC1
:1053C00024B207EE904AB8EEE77A801B27EE257AE2
:1053D00000B2C7EE066A9E4BDC68996825682B68A8
:1053E0009C4DAB4207EE900AF8EEE77A76EE886ABB
:1053F00067EEA57A86EE857AC7EE866A87ED007A33
:1054000036EE888A82ED017A40F0FE80632903DD62
:1054100094F8F834002B60D017EE103AC3F3C7525B
:10542000002A40F0DF801646C3F3C340B5EEC07AD1
:105430000643F1EE10FA4FF000004FEA431748BF61
:1054400062F07F0284F8296284F82302DE1084F877
:105450002402DB1284F82502FF2084F8267284F8E7
:10546000276284F8283284F82A22F723FE270826A8
:10547000002284F81C02C8B241F3072184F82032CC
:1054800084F8221284F81D7284F81E6284F81F22A8
:1054900084F8210204F2212304F22A2101E013F806
:1054A000010F99420244FAD1D2436B4F84F82B2268
:1054B00004F21B2604F22B2803E005F049FBB0455B
:1054C0000BD0626816F8011F13681B68BB420846C0
:1054D000F3D010469847B045F3D19FED5A7A5F4B11
:1054E0005F48DC68996826685E4A3368C8EE077AC8
:1054F000AB42C0ED007AC2ED017A40F088806329AA
:1055000003DD94F8F834002B61D017EE903AC3F322
:10551000C752002A5FD11546F5EEC07AC3F3C340E7
:10552000F1EE10FA45EA00054FEA43174FF000008C
:105530004FEAE30648BF62F07F02DB1284F829528B
:1055400084F8230284F8240284F8250284F8267261
:10555000C8B284F8276241F3072184F8283284F81E
:105560002A22F723FF27FE260825002284F820326E
:1055700084F8221284F81C7284F81D6284F81E528A
:1055800084F81F2284F8210204F2212304F22A2144
:1055900001E013F8010F99420244FAD1D2432E4F91
:1055A00084F82B2204F21B2504F22B2603E005F0DD
:1055B000CFFAAE420BD0626815F8011F13681B6862
:1055C000BB420846F3D010469847AE42F3D1BDEC3B
:1055D000028BBDE8F08102F5607215016DB2C2F375
:1055E000071299E702F56072160176B2C2F307124C
:1055F0001AE70D4D2B6821B2CA1AC832B2F5C87F1E
:1056000084BF29600B46AFE62046984765E7BDECAE
:10561000028B2046BDE8F041184700BFB01DFF1FB8
:10562000E015FF1F2C1DFF1FD407FF1F2816FF1FAB
:10563000E016FF1FD807FF1FA69BC44000FEFF46D1
:1056400000000000022B873DCC1DFF1FC01CFF1F68
:10565000681DFF1F11360000D50900002C16FF1F22
:10566000D01DFF1F081EFF1F10B50849084C094A2E
:1056700000230B60112001212360136004F0F6FA6F
:1056800001210E20BDE8104004F0F0BA5017FF1FB2
:105690005417FF1FA416FF1F08B5DFED1C7AB4EEE8
:1056A000E70AF1EE10FA2DED028B2AD4DFED187A1D
:1056B000B4EEE70AF1EE10FAB0EE408A1DDC30EEEF
:1056C000277ADFED146ADFED145ADFED147A9FEDCF
:1056D000146A67EE266A86EEA57A77EE277A67EE79
:1056E000867AFDEEE77A17EE901A0E4802F0FEFF7A
:1056F000B0EE480ABDEC028B08BDB0EE678A00210F
:10570000F3E7B0EE678AB421EFE700BFE17AD4BED9
:10571000E17AD43EDB0F49C0E17A543FDB0F4940C8
:10572000E02E65421C17FF1F2DE9F04F2DED048B75
:10573000C34AC44BC449C54D91ED001AD2ED000ACD
:1057400093ED000AC24999B014A803F0B5FD2B7F70
:10575000149A0992012B159A089240F2908572B61C
:10576000AB69B3F1000AB8BF0AF1030A4FEAAA0A0B
:1057700062B6DFF820B36868DBF800301093109E43
:10578000B44C301A06F0F2FEABA3D3E9002307F0C5
:105790008DF8CDE90201A868C0EB0A0006F0F6FE1C
:1057A0006E608046C5F808A02868894606F0EEFEBF
:1057B00002460B464046494607F078F8DDE90223E9
:1057C00007F074F807F0E2F9237F0590012B40F20F
:1057D0008F8572B6A369B3F10008B8BF08F103085A
:1057E0004FEAA80862B6DBF800300F93DDF83CA062
:1057F0006068DFF8A492C0EB0A0006F0B7FE8EA343
:10580000D3E9002307F052F8CDE90201A068C0EB0C
:10581000080006F0BBFEC4F804A00646C4F80880E1
:1058200020680F4606F0B2FE02460B463046394667
:1058300007F03CF8DDE9022307F038F807F0A6F995
:1058400099F81C300290012B40F28C8572B6D9F881
:105850001860002EB8BF0336B61062B6DBF8003011
:105860000E93DDF83880D9F804007B4FC0EB0800B8
:1058700006F07CFE70A3D3E9002307F017F8CDE90A
:105880000601D9F80800301A06F080FEC9F8048035
:10589000CDE90A01C9F80860D9F8000006F076FEE3
:1058A00002460B46DDE90A0107F000F8DDE90623B0
:1058B00006F0FCFF07F06AF93B7F0690012B40F2EF
:1058C000918572B6BE69002EB8BF0336B61062B6B7
:1058D000DBF800300D93DDF834A07868C0EB0A00E7
:1058E00006F044FE54A3D3E9002306F0DFFFCDE920
:1058F0000A01B868301A06F049FEBE608046C7F853
:1059000004A03868894606F041FE02460B46404630
:10591000494606F0CBFFDDE90A2306F0C7FF07F092
:1059200035F92A7F494B012A064640F2548472B663
:105930009B6962B6002BB8BF0333207FDFF85C8120
:105940009B101A4601284FEAE373C8E90223414B32
:1059500040F26B8472B69B6962B6404A089CD2EDF5
:10596000007A3F4ADFF83891099F1460002BB8BFD6
:1059700003339B101A463B4D3B499DED057A3B4C4A
:105980000F60DB17C9E90223059A2A60FA1713464C
:105990003A46F8EEC78A36499DED027ADFF804A14F
:1059A00081ED007AC4E90223089B1946DA171346F1
:1059B0000A46CAE902232F4BB8EEC78AC3ED018A13
:1059C0002D4B83ED018A2D4B93ED007A2C4BF5EE98
:1059D000C07AF1EE10FAB5EEC07AD8BFF1EE677A70
:1059E000F1EE10FAD8BFB1EE477A77EE877A93EDF1
:1059F000007AF4EEC77AF1EE10FA40F13F83DDED64
:105A0000097A2048204DF8EEE79AF0EE680AB0EEE9
:105A1000690A03F013FD51EC100B07F0B7F8DDED48
:105A2000087A2860B8EEE79A1848194DB0EE490A8E
:105A30003AE000BFAFF3008000000000004CED40F2
:105A40005417FF1F5017FF1FA416FF1F4416FF1FF8
:105A5000F815FF1FC015FF1F481DFF1FCC1DFF1F9E
:105A60002816FF1F2C1DFF1FE015FF1F0817FF1F23
:105A7000E016FF1F101EFF1F9015FF1FD01DFF1FF8
:105A8000DC07FF1F801DFF1F1817FF1FF81CFF1FDB
:105A9000441DFF1F4C1FFF1FE416FF1FB016FF1F02
:105AA000D016FF1FC016FF1FF0EE480A03F0C6FC19
:105AB00051EC100B07F06AF8B0EE690A2860F0EEBE
:105AC000680AB24803F0BAFC51EC100B07F05EF81C
:105AD0000146AF4803F020FBAE48F0EE480AB0EEB6
