:10000000F8FF022099010000F9950000B195000069
:10001000B1950000B1950000B1950000B1950000C8
:10002000B1950000B1950000B1950000F995000070
:10003000F9950000B1950000B9AE0000BDAF000019
:10004000F9950000F9950000F9950000F995000078
:10005000F9950000F9950000F9950000F995000068
:10006000F9950000F9950000F9950000F995000058
:10007000F9950000F9950000F9950000F995000048
:10008000F9950000F9950000F9950000F995000038
:10009000F9950000F9950000F9950000F995000028
:1000A000458E0000518E0000F9950000F995000082
:1000B000F9950000F9950000F995000039B20000AB
:1000C000F995000065B30000F995000091B40000B7
:1000D000F995000089B50000F9950000F995000038
:1000E000F9950000F9950000F9950000F9950000D8
:1000F000F9950000F9950000F9950000F9950000C8
:10010000F9950000F9950000F9950000F9950000B7
:10011000C5860000B99E0000F9950000F995000021
:10012000F9950000F9950000F9950000F995000097
:10013000F9950000F9950000F9950000F995000087
:10014000F9950000F995000081B60000F9950000CE
:1001500079B70000F9950000F9950000F9950000C5
:10016000F9950000F99500005D8E0000F9950000FA
:10017000F9950000F9950000F9950000F995000047
:10018000F9950000F9950000F9950000F995000037
:10019000F9950000F9950000584B4CF2205210B52B
:1001A0001A804DF628121A8000BF00BF09F028FA05
:1001B000534B4FF030621A60524A9A60524ADA60EA
:1001C000524B4FF470021A60514A136813F4807353
:1001D00004D150490B604FF4A85313604E4B1A786A
:1001E000110703D51A7842F008021A704B4B4C499C
:1001F0002A221A704B4A4C4B8B4204D252F8040FFD
:1002000043F8040BF8E7494B494900228B4202D2DC
:1002100043F8042BFAE74749474A002352F82300E2
:1002200041F823000133662BF8D1444B444A802126
:1002300003F8011B9342FBD1424B3E4A1A60424BEA
:100240008A221A70A3F5805324225A70A0221A70B1
:100250009A799207FCD59A79D406FCD43B4A9379D3
:1002600003F00C03082B394BF9D103221A714622F3
:100270005A719A799006FCD5344A9179334B4906E4
:10028000FBD5334A4FF08271116009215160202261
:100290001A709A7902F00C020C2AFAD12D4B2E4AD0
:1002A0001A602E4B2E4A1A6000225A60072243F829
:1002B000042C2C4AC3F80C2D62B609F08FFC154BA8
:1002C0001B68DA0705D5284809F098FA274B284A11
:1002D0001A60284B1B785B0609D5244C244B2268F6
:1002E0009A4204D1204809F089FA002323600DF0D6
:1002F0006FF909F08BF90AF069FEFEE70E20054060
:1003000030800440823F04000100002B88ED00E0B3
:1003100010D0034014D0034002D0074000E0074053
:100320004815FF1FC8230100F806FF1F4815FF1FCF
:10033000D023FF1F0002FF1F0000000000E400E0C8
:1003400056E400E008ED00E00050064000400640A2
:100350004480044004800440C010050014E000E024
:10036000BFD4010000002020F520BC5F1CE003404A
:10037000A5C3945A00F00740FFFFFFFFFFFFFFFFF8
:10038000FFFFFFFFFFFFFFFFFFFFFFFFFFFFFFFF7D
:10039000FFFFFFFFFFFFFFFFFFFFFFFFFFFFFFFF6D
:1003A000FFFFFFFFFFFFFFFFFFFFFFFFFFFFFFFF5D
:1003B000FFFFFFFFFFFFFFFFFFFFFFFFFFFFFFFF4D
:1003C000FFFFFFFFFFFFFFFFFFFFFFFFFFFFFFFF3D
:1003D000FFFFFFFFFFFFFFFFFFFFFFFFFFFFFFFF2D
:1003E000FFFFFFFFFFFFFFFFFFFFFFFFFFFFFFFF1D
:1003F000FFFFFFFFFFFFFFFFFFFFFFFFFFFFFFFF0D
:10040000FFFFFFFFFFFFFFFFFFFFFFFFDEF9FFFF23
:1004100010B5054C237833B9044B13B10448AFF33E
:1004200000800123237010BD4815FF1F000000004D
:10043000C4230100084B10B51BB108490848AFF3AD
:1004400000800848036803B910BD074B002BFBD0A0
:10045000BDE81040184700BF000000004C15FF1F0A
:10046000C42301004815FF1F0000000043680B7003
:1004700043681B0A4B70C3888B70C379CB70836849
:100480000B7183681B0A4B7143898B71C37ACB71E3
:10049000082070470B7843604A7843EA02234360A0
:1004A0008A7843EA02434360CA7843EA02634360BE
:1004B0000B7983604A7943EA022383608A7943EAAD
:1004C00002438360CA7943EA02638360082070476D
:1004D00000487047081901000048704718190100CA
:1004E000F0B50C460A788280064614F8010F002306
:1004F00042EA0022B2801A4614F8010F98400833ED
:10050000202B42EA0002F7D1971D062F58D901F19E
:10051000050E551D73464C1913F8010F03F8010C15
:10052000A342F9D100234B5518460D44C6F808E004
:1005300015F8014F84400830202843EA0403F7D11E
:10054000381D0344834209D909320A440446013460
:1005500012F8015F02F8015CA342F8D80138CF1805
:100560000024084407F8014C2246F06017F8015BAC
:1005700095400832202A44EA0504F7D1181D0444A6
:10058000A04209D203330B440246013213F8015F43
:1005900003F8015CA242F8D30D1901380844002386
:1005A00005F8013C3061A8786B780A5DED780104AC
:1005B00041EA0323134343EA0563201D7361F0BD41
:1005C000551D01F1050EADE7004870473C190100CB
:1005D00000487047581901000B78F0B403710023EC
:1005E00006460C461D4614F8012F9A400833202B6E
:1005F00045EA0205F7D1681D052801F1040708D96D
:100600002C1D3B460C4413F8012F03F8012C9C428F
:10061000F9D10D4400232B71B760F0BC704700BFC7
:10062000004870477C19010000487047901901008C
:1006300000487047EC18010000487047B4190100E9
:1006400043680B701A0C10B41C0A1B0E4C708A7095
:10065000CB7083680B711C0A1A0C1B0E4C718A71CB
:10066000CB71C3680B72180A1A0C1B0E48728A727F
:100670000C20CB725DF8044B704700BF0A684260E3
:100680004A68826003468A68DA600C20704700BFBF
:1006900000487047D819010000487047F019010060
:1006A00000487047141A0100004870472C1A0100D6
:1006B00000487047501A010000487047641A010052
:1006C00043680B701A0C10B41C0A1B0E4C708A7015
:1006D000CB7083680B711C0A1A0C1B0E4C718A714B
:1006E000CB71C3680B72180A1A0C1B0E48728A72FF
:1006F0000C20CB725DF8044B704700BF0A68426063
:100700004A68826003468A68DA600C20704700BF3E
:1007100000487047881A010000487047981A010085
:10072000F0B48268C3680B711C0A180C170A160C07
:10073000150E1B0E4F708E70CD704C7188710A7043
:100740000820CB71F0BC70470B684A68C2608360B8
:100750000820704700487047BC1A010000487047E5
:10076000CC1A010000487047F01A01000048704799
:10077000041B010090F8F804704700BF006A70473E
:1007800000487047881A010000487047981A010015
:10079000406B704700487047501A0100004870478E
:1007A000641A010010B5D0ED027A1A4C1A4A90ED85
:1007B000087A1A4BC168C4ED007AF5EEC07AF1EE02
:1007C00010FA82B0116083ED007A09DCB5EE407A50
:1007D000F1EE10FA14D0F5EEC07AF1EE10FA0FDB5C
:1007E0000021112009F0A0F900210E2009F09CF948
:1007F0000B4A0C4B12680192019A1A6002B010BDAC
:100800000121112009F090F901210E2009F08CF945
:10081000EEE700BF4817FF1F4C17FF1F0416FF1F0E
:10082000641FFF1F3016FF1F0AF06CB943682DE9E3
:10083000F0470B7043681B0A4B70C3888B70C379F9
:10084000CB704368002B00F085800A460025042603
:10085000C36853F8253013711C0C1F0A1B0E9471CA
:100860005771D37143680135AB42344602F104023B
:1008700006F10406ECD804F1080204F1050A04F1BB
:10088000060904F1070804F1090C04F10A0E04F149
:100890000B0517460C3403698B5503691B0A01F8D5
:1008A0000A30438A01F80930C37C01F80830036933
:1008B000F3B101EB070E75460022836953F822302D
:1008C0000EF822301C0C1E0A1B0EAC706E70EB7002
:1008D0000369013293423C4605F1040507F1040720
:1008E000EBD804F1050C04F1060EE51D3A46083478
:1008F000C3698B54C3691B0A01F80C30C38B01F820
:100900000E30C37F4B55C3690BB30F46804600269C
:10091000D8F8243053F826000DF0F2F8B10005465F
:100920003A19002325FA03F00833202B02F8010BB3
:10093000F8D1D8F824300434381959582A4608F028
:100940009DFDD8F81C300136B3422C44E0D8204637
:10095000BDE8F087082217460C240B254FF00A0E3D
:100960004FF0090C4FF007084FF006094FF0050A49
:10097000042690E770B503790B70064680680D4633
:100980000DF0BEF82A460446002324FA03F108338A
:10099000202B02F8011FF8D1B168681D224608F02B
:1009A0006DFD601D70BD00BFF8B583880B70838836
:1009B0001B0A4B70064680680D460DF0A1F8030E29
:1009C000010A020C6B71A8702A71E9700246044694
:1009D000B168A81D08F052FDF0680DF091F8611D96
:1009E000024629440634002322FA03F00833202B60
:1009F00001F8010FF8D104342819F168144408F003
:100A00003DFD30690DF07CF82A190746002327FACE
:100A100003F10833202B02F8011BF8D10434281904
:100A20003A46316908F02AFD381973692B54054498
:100A3000190A1A0C1B0E6970AA70EB700430F8BD0D
:100A400008460AF049B900BF2DE9F04F43680C6829
:100A50009C4283B005460E4600F2B3806C60002CC9
:100A600000F0B88005F1080C334600274FF0040E63
:100A70009C795A79197993F80780E868240444EA44
:100A800002220A4342EA0862AA60DCF8002040F829
:100A900027206A680137BA42714603F104030EF158
:100AA000040EE5D801F1080847464B1D881DCA1DF4
:100AB00001F1090A01F10A0B01F10B0901F10C0422
:100AC000305CF35C16F80E1016F802E02A69000498
:100AD00040EA03230B4343EA0E63934200F2908003
:100AE0002B613BB305F1140CF3194FF0000E9C7809
:100AF0005A78197893F80380A869240444EA0222FA
:100B00000A4342EA08626A61DCF8002040F82E20BD
:100B10002A690EF1010E72453C4603F1040307F108
:100B20000407E4D804F1050A04F1060B04F10709EF
:100B3000B846083416F80B2016F80A0016F80830E4
:100B400016F80970E969120442EA0022134343EAE5
:100B500007678F424ED8EF617FB30027BC4605F18F
:100B6000200E00231946301910F8012B9A40083343
:100B7000202B41EA0201F7D104F1040841448845E1
:100B800009D2E31C33444246013213F8010F03F843
:100B9000010C8A42F8D3721808F1FF3802F801CC30
:100BA00006EB08032B626A6ADEF8003042F8273051
:100BB000EB690137BB420C46D3D8204603B0BDE8F1
:100BC000F08FA100C0680CF079FD6C60E860002C2B
:100BD0007FF448AF4FF0080847460C244FF00B094C
:100BE0004FF00A0B4FF0090A0722062005234FF0A9
:100BF000040E65E7B900686A0CF060FD6862AAE758
:100C00009900A86901930CF059FD019BA86167E761
:100C100010B590ED021AD0ED030A90ED010A0446DA
:100C20000F4808F023FC94ED021AD4ED030A94ED6A
:100C3000010A0C4808F01AFC94ED021AD4ED030ADC
:100C400094ED010A084808F011FC94ED021AD4ED65
:100C5000030A94ED010A0548BDE8104008F006BCFF
:100C6000901DFF1FF81CFF1F7816FF1F881CFF1F19
:100C7000034608681861486858618968DA699961AB
:100C800003F10C00104700BFD0ED017A17EE903A47
:100C9000C3F3C75270B412B302F56072140164B2A8
:100CA000C2F30712F5EEC07AC3F3C340F1EE10FAB7
:100CB00044EA00044FEA43164FF000004FEAE30510
:100CC00048BF62F07F02DB128C7108704870887038
:100CD000CE700D7108204B71CA7170BC70471446FC
:100CE000E0E700BFD0ED027A17EE903AC3F3C752A7
:100CF000F0B4002A00F0FD8002F5607215016DB2BB
:100D0000C2F30712F5EEC07AC3F3C344F1EE10FA52
:100D100045EA04054FEA43174FF000044FEAE306A3
:100D200048BF62F07F02DB124B71CA718D710C708B
:100D30004C708C70CF700E71D0ED037A17EE903A34
:100D4000C3F3C752002A00F0DE8002F5607215017D
:100D50006DB2C2F30712F5EEC07AC3F3C344F1EEED
:100D600010FA45EA04054FEA43174FF000044FEA32
:100D7000E30648BF62F07F02DB124B73CA738D73C8
:100D80000C724C728C72CF720E73D0ED047A17EE27
:100D9000903AC3F3C752002A00F0B38002F56072A4
:100DA00015016DB2C2F30712F5EEC07AC3F3C34466
:100DB000F1EE10FA45EA04054FEA43174FF000043C
:100DC0004FEAE30648BF62F07F02DB124B75CA753B
:100DD0008D750C744C748C74CF740E75D0ED067ACE
:100DE00017EE903AC3F3C752002A00F0888002F54C
:100DF000607215016DB2C2F30712F5EEC07AC3F34B
:100E0000C344F1EE10FA45EA04054FEA43174FF0E8
:100E100000044FEAE30648BF62F07F02DB124B7723
:100E2000CA778D770C764C768C76CF760E77D0EDB0
:100E3000077A17EE903AC3F3C752002A5DD002F545
:100E4000607215016DB2C2F30712F5EEC07AC3F3FA
:100E5000C344F1EE10FA45EA04054FEA43174FF098
:100E600000044FEAE30648BF62F07F02DB1281F81C
:100E7000253081F8272081F8265081F8204081F81C
:100E8000214081F8224081F8237081F82460D0ED60
:100E9000087A17EE903AC3F3C75262B302F5607254
:100EA000140164B2C2F30712F5EEC07AC3F3C34073
:100EB000F1EE10FA44EA00044FEA43164FF0000046
:100EC0004FEAE30548BF62F07F02DB1281F82E4053
:100ED00081F8280081F8290081F82A0081F82B6028
:100EE00081F82C50302081F82D3081F82F20F0BC73
:100EF0007047154606E71446D6E71546A5E715469A
:100F00007BE7154650E7154625E700BFD0ED017A8F
:100F100017EE903AC3F3C752F0B4002A71D002F52D
:100F2000607215016DB2C2F30712F5EEC07AC3F319
:100F3000C344F1EE10FA45EA04054FEA43174FF0B7
:100F400000044FEAE30648BF62F07F02DB124B71F8
:100F5000CA718D710C704C708C70CF700E71D0EDA9
:100F6000027A17EE903AC3F3C752002A4DD002F529
:100F7000607215016DB2C2F30712F5EEC07AC3F3C9
:100F8000C344F1EE10FA45EA04054FEA43174FF067
:100F900000044FEAE30648BF62F07F02DB124B73A6
:100FA000CA738D730C724C728C72CF720E73D0ED4B
:100FB000037A17EE903AC3F3C75222B302F5607278
:100FC000140164B2C2F30712F5EEC07AC3F3C34052
:100FD000F1EE10FA44EA00044FEA43164FF0000025
:100FE0004FEAE30548BF62F07F02DB128C7508749C
:100FF00048748874CE740D7518204B75CA75F0BC92
:101000007047154691E71446DEE71546B5E700BF81
:10101000CB785B0930B443600A7943EAC20343608A
:101020004A7943EAC22242608B79DB0403F4F0037D
:1010300013434360CC798D79220102F4FE6252EAB7
:10104000151205D0A2F5607243EAC2534360CC7911
:1010500024F07F0443EA0463436030BC08207047F7
:10106000CA78520970B442610346087942EAC00264
:101070005A61487942EAC02058618A79D20402F460
:10108000F00202435A61CD798E792C0104F4FE649A
:1010900054EA161403F10C0005D0A4F5607442EA7A
:1010A000C4525A61CD7925F07F0542EA05625A6142
:1010B000CA7A52099A610C7B42EAC4029A614C7B5B
:1010C00042EAC4249C618A7BD20402F4F0022243E7
:1010D0009A61CD7B8E7B2C0104F4FE6454EA1614D5
:1010E00005D0A4F5607442EAC4529A61CD7B25F024
:1010F0007F0542EA05629A61CA7C5209DA610C7D79
:1011000042EAC402DA614C7D42EAC424DC618A7D91
:10111000D20402F4F0022243DA61CD7D8E7D2C01EF
:1011200004F4FE6454EA161405D0A4F5607442EA8F
:10113000C452DA61CD7D25F07F0542EA0562DA61AD
:10114000CA7E52095A620C7F42EAC4025A624C7F3C
:1011500042EAC4245C628A7FD20402F4F002224391
:101160005A62CD7F8E7F2C0104F4FE6454EA16147B
:1011700005D0A4F5607442EAC4525A62CD7F25F0CE
:101180007F0542EA05625A6291F8232052099A6269
:1011900091F8244042EAC4029A6291F8254042EA5A
:1011A000C4249C6291F82620D20402F4F002224367
:1011B0009A6291F8275091F826602C0104F4FE649D
:1011C00054EA161406D0A4F5607442EAC4529A6236
:1011D00091F8275025F07F0542EA05629A6291F85E
:1011E0002B205209DA6291F82C4042EAC402DA62FA
:1011F00091F82D4042EAC424DC6291F82E20D204FA
:1012000002F4F0022243DA6291F82F5091F82E6036
:101210002C0104F4FE6454EA161406D0A4F560749C
:1012200042EAC452DA6291F82F5025F07F0542EA73
:101230000562DA6270BC1B6B184700BFCB785B0994
:1012400030B483600A7943EAC20383604A7943EA8F
:10125000C22282608B79DB0403F4F00313438360C2
:10126000CC798D79220102F4FE6252EA151205D082
:10127000A2F5607243EAC2538360CC7924F07F0404
:1012800043EA04638360CB7A5B09C3600A7B43EA69
:10129000C203C3604A7B43EAC222C2608B7BDB0489
:1012A00003F4F0031343C360CC7B8D7B220102F473
:1012B000FE6252EA151205D0A2F5607243EAC253EB
:1012C000C360CC7B24F07F0443EA0463C360CB7C1F
:1012D0005B0903610A7D43EAC20303614A7D43EA75
:1012E000C22202618B7DDB0403F4F003134303612C
:1012F000CC7D8D7D220102F4FE6252EA151205D0EA
:10130000A2F5607243EAC2530361CC7D24F07F04EE
:1013100043EA04630361CB7E5B0983610A7F43EA8E
:10132000C20383614A7F43EAC22282618B7FDB046E
:1013300003F4F00313438361CC7F8D7F220102F419
:10134000FE6252EA151205D0A2F5607243EAC2535A
:101350008361CC7F24F07F0443EA0463836191F8C6
:1013600023305B09C36191F8242043EAC203C361BF
:1013700091F8252043EAC222C26191F82630DB04AD
:1013800003F4F0031343C36191F8274091F826500A
:10139000220102F4FE6252EA151206D0A2F5607232
:1013A00043EAC253C36191F8274024F07F0443EA23
:1013B0000463C36191F82B305B09036291F82C2020
:1013C00043EAC203036291F82D2043EAC22202627B
:1013D00091F82E30DB0403F4F0031343036291F819
:1013E0002F4091F82E50220102F4FE6252EA1512AB
:1013F00006D0A2F5607243EAC253036291F82F400F
:1014000024F07F0443EA0463036230BC3020704759
:10141000CB785B0930B443600A7943EAC203436086
:101420004A7943EAC22242608B79DB0403F4F00379
:1014300013434360CC798D79220102F4FE6252EAB3
:10144000151205D0A2F5607243EAC2534360CC790D
:1014500024F07F0443EA04634360CB7A5B09836032
:101460000A7B43EAC20383604A7B43EAC22282606A
:101470008B7BDB0403F4F00313438360CC7B8D7B15
:10148000220102F4FE6252EA151205D0A2F5607242
:1014900043EAC2538360CC7B24F07F0443EA0463B5
:1014A0008360CB7C5B09C3600A7D43EAC203C360EF
:1014B0004A7D43EAC222C2608B7DDB0403F4F00361
:1014C0001343C360CC7D8D7D220102F4FE6252EA9B
:1014D000151205D0A2F5607243EAC253C360CC7DF9
:1014E00024F07F0443EA0463C36030BC18207047D3
:1014F000F0B585B0364A01920368364D0395032254
:101500008DF808201B6834498B425AD100233821BA
:10151000044680F8232205F1300E80F8241280F86A
:10152000253280F8263280F8273200F50A772E46D9
:101530000FCE764538607960BA60FB60354607F1BA
:101540001007F4D103CD00227960C2234FF0FF0EC3
:10155000FE263D250721386084F8203284F81CE2FD
:1015600084F81D6284F81E5284F81F2284F8222217
:1015700084F8211204F2212304F25F2001E013F821
:10158000011F83420A44FAD1D243144E84F86022E8
:1015900004F21B2504F5187703E009F09DFBBD421A
:1015A0000BD0626815F8011F13681B68B342084628
:1015B000F3D010469847BD42F3D14FF0FF3005B04D
:1015C000F0BD01AA072198474FF0FF3005B0F0BDEC
:1015D000F0170100281B0100E1150000410A00007E
:1015E00063292DE9F04103DD90F8F874002F53D002
:1015F000136805460F4610461B6805F223219847DD
:10160000C2B2C0F30721561885F81E2247F30722FD
:10161000F643FF234FF0FE0EFCB285F82222421C57
:1016200085F8206285F81F1285F81C3285F81DE2C6
:1016300085F821420DDB00F22221294405F2212305
:10164000002201E013F8014F99422244FAD1D3431A
:10165000DBB22A1800F10807B7F5007F82F82332C1
:101660001DDC002F05F5077616DD0730DFF8388022
:10167000064405F21B2403E009F02EFBB4420BD014
:101680006A6814F8011F13681B6843450846F3D0C5
:1016900010469847B442F3D13846BDE8F081284659
:1016A000BDE8F041FFF724BF410A0000214B10B410
:1016B000D3F8EC201368506819780478507A137ABC
:1016C000044201EA03011BD0937A03F0030309B13A
:1016D00043F0040343F008039910013B91720D2B72
:1016E0000BD8DFE803F021071B070A152121150A93
:1016F000071B0721D368013BD3605DF8044B70479B
:10170000937A03F003030029E6D043F00403E3E7F0
:10171000D3685DF8044B023BD3607047D3685DF833
:10172000044B0233D3607047D3685DF8044B013338
:10173000D3607047641EFF1F214B10B41A681368F2
:10174000506819780478507A137A044201EA030148
:101750001BD0937A03F0030309B143F0040343F071
:1017600008039910013B91720D2B0BD8DFE803F0B1
:1017700021071B070A152121150A071B0721D3681A
:10178000013BD3605DF8044B7047937A03F0030389
:101790000029E6D043F00403E3E7D3685DF8044B87
:1017A000023BD3607047D3685DF8044B0233D360CB
:1017B0007047D3685DF8044B0133D360704700BFB6
:1017C000641EFF1F214B10B45A68136850681978C3
:1017D0000478507A137A044201EA03011BD0937A09
:1017E00003F0030309B143F0040343F00803991025
:1017F000013B91720D2B0BD8DFE803F021071B078B
:101800000A152121150A071B0721D368013BD36064
:101810005DF8044B7047937A03F003030029E6D088
:1018200043F00403E3E7D3685DF8044B023BD36065
:101830007047D3685DF8044B0233D3607047D368B8
:101840005DF8044B0133D360704700BF641EFF1F77
:10185000214B10B49A681368506819780478507A4C
:10186000137A044201EA03011BD0937A03F00303C5
:1018700009B143F0040343F008039910013B91724E
:101880000D2B0BD8DFE803F021071B070A152121D8
:10189000150A071B0721D368013BD3605DF8044B91
:1018A0007047937A03F003030029E6D043F0040362
:1018B000E3E7D3685DF8044B023BD3607047D3681D
:1018C0005DF8044B0233D3607047D3685DF8044B76
:1018D0000133D360704700BF641EFF1F214B10B45B
:1018E000DA681368506819780478507A137A0442D9
:1018F00001EA03011BD0937A03F0030309B143F01B
:10190000040343F008039910013B91720D2B0BD88F
:10191000DFE803F021071B070A152121150A071B21
:101920000721D368013BD3605DF8044B7047937A7D
:1019300003F003030029E6D043F00403E3E7D36890
:101940005DF8044B023BD3607047D3685DF8044BED
:101950000233D3607047D3685DF8044B0133D36022
:10196000704700BF641EFF1F214B10B41A69136833
:10197000506819780478507A137A044201EA030116
:101980001BD0937A03F0030309B143F0040343F03F
:1019900008039910013B91720D2B0BD8DFE803F07F
:1019A00021071B070A152121150A071B0721D368E8
:1019B000013BD3605DF8044B7047937A03F0030357
:1019C0000029E6D043F00403E3E7D3685DF8044B55
:1019D000023BD3607047D3685DF8044B0233D36099
:1019E0007047D3685DF8044B0133D360704700BF84
:1019F000641EFF1F214B10B45A6913685068197890
:101A00000478507A137A044201EA03011BD0937AD6
:101A100003F0030309B143F0040343F008039910F2
:101A2000013B91720D2B0BD8DFE803F021071B0758
:101A30000A152121150A071B0721D368013BD36032
:101A40005DF8044B7047937A03F003030029E6D056
:101A500043F00403E3E7D3685DF8044B023BD36033
:101A60007047D3685DF8044B0233D3607047D36886
:101A70005DF8044B0133D360704700BF641EFF1F45
:101A8000214B10B49A691368506819780478507A19
:101A9000137A044201EA03011BD0937A03F0030393
:101AA00009B143F0040343F008039910013B91721C
:101AB0000D2B0BD8DFE803F021071B070A152121A6
:101AC000150A071B0721D368013BD3605DF8044B5F
:101AD0007047937A03F003030029E6D043F0040330
:101AE000E3E7D3685DF8044B023BD3607047D368EB
:101AF0005DF8044B0233D3607047D3685DF8044B44
:101B00000133D360704700BF641EFF1F214B10B428
:101B1000DA691368506819780478507A137A0442A5
:101B200001EA03011BD0937A03F0030309B143F0E8
:101B3000040343F008039910013B91720D2B0BD85D
:101B4000DFE803F021071B070A152121150A071BEF
:101B50000721D368013BD3605DF8044B7047937A4B
:101B600003F003030029E6D043F00403E3E7D3685E
:101B70005DF8044B023BD3607047D3685DF8044BBB
:101B80000233D3607047D3685DF8044B0133D360F0
:101B9000704700BF641EFF1F214B10B41A6A136800
:101BA000506819780478507A137A044201EA0301E4
:101BB0001BD0937A03F0030309B143F0040343F00D
:101BC00008039910013B91720D2B0BD8DFE803F04D
:101BD00021071B070A152121150A071B0721D368B6
:101BE000013BD3605DF8044B7047937A03F0030325
:101BF0000029E6D043F00403E3E7D3685DF8044B23
:101C0000023BD3607047D3685DF8044B0233D36066
:101C10007047D3685DF8044B0133D360704700BF51
:101C2000641EFF1F214B10B45A6A1368506819785C
:101C30000478507A137A044201EA03011BD0937AA4
:101C400003F0030309B143F0040343F008039910C0
:101C5000013B91720D2B0BD8DFE803F021071B0726
:101C60000A152121150A071B0721D368013BD36000
:101C70005DF8044B7047937A03F003030029E6D024
:101C800043F00403E3E7D3685DF8044B023BD36001
:101C90007047D3685DF8044B0233D3607047D36854
:101CA0005DF8044B0133D360704700BF641EFF1F13
:101CB000214B10B49A6A1368506819780478507AE6
:101CC000137A044201EA03011BD0937A03F0030361
:101CD00009B143F0040343F008039910013B9172EA
:101CE0000D2B0BD8DFE803F021071B070A15212174
:101CF000150A071B0721D368013BD3605DF8044B2D
:101D00007047937A03F003030029E6D043F00403FD
:101D1000E3E7D3685DF8044B023BD3607047D368B8
:101D20005DF8044B0233D3607047D3685DF8044B11
:101D30000133D360704700BF641EFF1F214B10B4F6
:101D4000DA6A1368506819780478507A137A044272
:101D500001EA03011BD0937A03F0030309B143F0B6
:101D6000040343F008039910013B91720D2B0BD82B
:101D7000DFE803F021071B070A152121150A071BBD
:101D80000721D368013BD3605DF8044B7047937A19
:101D900003F003030029E6D043F00403E3E7D3682C
:101DA0005DF8044B023BD3607047D3685DF8044B89
:101DB0000233D3607047D3685DF8044B0133D360BE
:101DC000704700BF641EFF1F214B10B41A6B1368CD
:101DD000506819780478507A137A044201EA0301B2
:101DE0001BD0937A03F0030309B143F0040343F0DB
:101DF00008039910013B91720D2B0BD8DFE803F01B
:101E000021071B070A152121150A071B0721D36883
:101E1000013BD3605DF8044B7047937A03F00303F2
:101E20000029E6D043F00403E3E7D3685DF8044BF0
:101E3000023BD3607047D3685DF8044B0233D36034
:101E40007047D3685DF8044B0133D360704700BF1F
:101E5000641EFF1F214B10B45A6B13685068197829
:101E60000478507A137A044201EA03011BD0937A72
:101E700003F0030309B143F0040343F0080399108E
:101E8000013B91720D2B0BD8DFE803F021071B07F4
:101E90000A152121150A071B0721D368013BD360CE
:101EA0005DF8044B7047937A03F003030029E6D0F2
:101EB00043F00403E3E7D3685DF8044B023BD360CF
:101EC0007047D3685DF8044B0233D3607047D36822
:101ED0005DF8044B0133D360704700BF641EFF1FE1
:101EE000214B10B49A6B1368506819780478507AB3
:101EF000137A044201EA03011BD0937A03F003032F
:101F000009B143F0040343F008039910013B9172B7
:101F10000D2B0BD8DFE803F021071B070A15212141
:101F2000150A071B0721D368013BD3605DF8044BFA
:101F30007047937A03F003030029E6D043F00403CB
:101F4000E3E7D3685DF8044B023BD3607047D36886
:101F50005DF8044B0233D3607047D3685DF8044BDF
:101F60000133D360704700BF641EFF1F214B10B4C4
:101F7000DA6B1368506819780478507A137A04423F
:101F800001EA03011BD0937A03F0030309B143F084
:101F9000040343F008039910013B91720D2B0BD8F9
:101FA000DFE803F021071B070A152121150A071B8B
:101FB0000721D368013BD3605DF8044B7047937AE7
:101FC00003F003030029E6D043F00403E3E7D368FA
:101FD0005DF8044B023BD3607047D3685DF8044B57
:101FE0000233D3607047D3685DF8044B0133D3608C
:101FF000704700BF641EFF1F214B10B41A6C13689A
:10200000506819780478507A137A044201EA03017F
:102010001BD0937A03F0030309B143F0040343F0A8
:1020200008039910013B91720D2B0BD8DFE803F0E8
:1020300021071B070A152121150A071B0721D36851
:10204000013BD3605DF8044B7047937A03F00303C0
:102050000029E6D043F00403E3E7D3685DF8044BBE
:10206000023BD3607047D3685DF8044B0233D36002
:102070007047D3685DF8044B0133D360704700BFED
:10208000641EFF1F214B10B45A6C136850681978F6
:102090000478507A137A044201EA03011BD0937A40
:1020A00003F0030309B143F0040343F0080399105C
:1020B000013B91720D2B0BD8DFE803F021071B07C2
:1020C0000A152121150A071B0721D368013BD3609C
:1020D0005DF8044B7047937A03F003030029E6D0C0
:1020E00043F00403E3E7D3685DF8044B023BD3609D
:1020F0007047D3685DF8044B0233D3607047D368F0
:102100005DF8044B0133D360704700BF641EFF1FAE
:10211000214B10B49A6C1368506819780478507A7F
:10212000137A044201EA03011BD0937A03F00303FC
:1021300009B143F0040343F008039910013B917285
:102140000D2B0BD8DFE803F021071B070A1521210F
:10215000150A071B0721D368013BD3605DF8044BC8
:102160007047937A03F003030029E6D043F0040399
:10217000E3E7D3685DF8044B023BD3607047D36854
:102180005DF8044B0233D3607047D3685DF8044BAD
:102190000133D360704700BF641EFF1F214B10B492
:1021A000DA6C1368506819780478507A137A04420C
:1021B00001EA03011BD0937A03F0030309B143F052
:1021C000040343F008039910013B91720D2B0BD8C7
:1021D000DFE803F021071B070A152121150A071B59
:1021E0000721D368013BD3605DF8044B7047937AB5
:1021F00003F003030029E6D043F00403E3E7D368C8
:102200005DF8044B023BD3607047D3685DF8044B24
:102210000233D3607047D3685DF8044B0133D36059
:10222000704700BF641EFF1F214B10B41A6D136866
:10223000506819780478507A137A044201EA03014D
:102240001BD0937A03F0030309B143F0040343F076
:1022500008039910013B91720D2B0BD8DFE803F0B6
:1022600021071B070A152121150A071B0721D3681F
:10227000013BD3605DF8044B7047937A03F003038E
:102280000029E6D043F00403E3E7D3685DF8044B8C
:10229000023BD3607047D3685DF8044B0233D360D0
:1022A0007047D3685DF8044B0133D360704700BFBB
:1022B000641EFF1F214B10B45A6D136850681978C3
:1022C0000478507A137A044201EA03011BD0937A0E
:1022D00003F0030309B143F0040343F0080399102A
:1022E000013B91720D2B0BD8DFE803F021071B0790
:1022F0000A152121150A071B0721D368013BD3606A
:102300005DF8044B7047937A03F003030029E6D08D
:1023100043F00403E3E7D3685DF8044B023BD3606A
:102320007047D3685DF8044B0233D3607047D368BD
:102330005DF8044B0133D360704700BF641EFF1F7C
:10234000214B10B49A6D1368506819780478507A4C
:10235000137A044201EA03011BD0937A03F00303CA
:1023600009B143F0040343F008039910013B917253
:102370000D2B0BD8DFE803F021071B070A152121DD
:10238000150A071B0721D368013BD3605DF8044B96
:102390007047937A03F003030029E6D043F0040367
:1023A000E3E7D3685DF8044B023BD3607047D36822
:1023B0005DF8044B0233D3607047D3685DF8044B7B
:1023C0000133D360704700BF641EFF1F214B10B460
:1023D000D3F8DC201368506819780478507A137A9F
:1023E000044201EA03011BD0937A03F0030309B10D
:1023F00043F0040343F008039910013B91720D2B45
:102400000BD8DFE803F021071B070A152121150A65
:10241000071B0721D368013BD3605DF8044B70476D
:10242000937A03F003030029E6D043F00403E3E7C3
:10243000D3685DF8044B023BD3607047D3685DF806
:10244000044B0233D3607047D3685DF8044B01330B
:10245000D3607047641EFF1F214B10B4D3F8E020F7
:102460001368506819780478507A137A044201EAA4
:1024700003011BD0937A03F0030309B143F0040373
:1024800043F008039910013B91720D2B0BD8DFE844
:1024900003F021071B070A152121150A071B072135
:1024A000D368013BD3605DF8044B7047937A03F027
:1024B00003030029E6D043F00403E3E7D3685DF8A3
:1024C000044B023BD3607047D3685DF8044B023382
:1024D000D3607047D3685DF8044B0133D360704715
:1024E000641EFF1F214B10B4D3F8E420136850681A
:1024F00019780478507A137A044201EA03011BD058
:10250000937A03F0030309B143F0040343F0080393
:102510009910013B91720D2B0BD8DFE803F02107D6
:102520001B070A152121150A071B0721D368013B48
:10253000D3605DF8044B7047937A03F003030029DE
:10254000E6D043F00403E3E7D3685DF8044B023BB5
:10255000D3607047D3685DF8044B0233D360704793
:10256000D3685DF8044B0133D3607047641EFF1FCE
:10257000214B10B4D3F8E820136850681978047818
:10258000507A137A044201EA03011BD0937A03F0D4
:10259000030309B143F0040343F008039910013B1E
:1025A00091720D2B0BD8DFE803F021071B070A15EA
:1025B0002121150A071B0721D368013BD3605DF871
:1025C000044B7047937A03F003030029E6D043F0ED
:1025D0000403E3E7D3685DF8044B023BD360704724
:1025E000D3685DF8044B0233D3607047D3685DF85D
:1025F000044B0133D3607047641EFF1F214B10B49E
:10260000DA6D1368506819780478507A137A0442A6
:1026100001EA03011BD0937A03F0030309B143F0ED
:10262000040343F008039910013B91720D2B0BD862
:10263000DFE803F021071B070A152121150A071BF4
:102640000721D368013BD3605DF8044B7047937A50
:1026500003F003030029E6D043F00403E3E7D36863
:102660005DF8044B023BD3607047D3685DF8044BC0
:102670000233D3607047D3685DF8044B0133D360F5
:10268000704700BF641EFF1F214B10B41A6E136801
:10269000506819780478507A137A044201EA0301E9
:1026A0001BD0937A03F0030309B143F0040343F012
:1026B00008039910013B91720D2B0BD8DFE803F052
:1026C00021071B070A152121150A071B0721D368BB
:1026D000013BD3605DF8044B7047937A03F003032A
:1026E0000029E6D043F00403E3E7D3685DF8044B28
:1026F000023BD3607047D3685DF8044B0233D3606C
:102700007047D3685DF8044B0133D360704700BF56
:10271000641EFF1F214B10B45A6E1368506819785D
:102720000478507A137A044201EA03011BD0937AA9
:1027300003F0030309B143F0040343F008039910C5
:10274000013B91720D2B0BD8DFE803F021071B072B
:102750000A152121150A071B0721D368013BD36005
:102760005DF8044B7047937A03F003030029E6D029
:1027700043F00403E3E7D3685DF8044B023BD36006
:102780007047D3685DF8044B0233D3607047D36859
:102790005DF8044B0133D360704700BF641EFF1F18
:1027A000214B10B49A6E1368506819780478507AE7
:1027B000137A044201EA03011BD0937A03F0030366
:1027C00009B143F0040343F008039910013B9172EF
:1027D0000D2B0BD8DFE803F021071B070A15212179
:1027E000150A071B0721D368013BD3605DF8044B32
:1027F0007047937A03F003030029E6D043F0040303
:10280000E3E7D3685DF8044B023BD3607047D368BD
:102810005DF8044B0233D3607047D3685DF8044B16
:102820000133D360704700BF641EFF1F214B10B4FB
:10283000DA6E1368506819780478507A137A044273
:1028400001EA03011BD0937A03F0030309B143F0BB
:10285000040343F008039910013B91720D2B0BD830
:10286000DFE803F021071B070A152121150A071BC2
:102870000721D368013BD3605DF8044B7047937A1E
:1028800003F003030029E6D043F00403E3E7D36831
:102890005DF8044B023BD3607047D3685DF8044B8E
:1028A0000233D3607047D3685DF8044B0133D360C3
:1028B000704700BF641EFF1F214B10B41A6F1368CE
:1028C000506819780478507A137A044201EA0301B7
:1028D0001BD0937A03F0030309B143F0040343F0E0
:1028E00008039910013B91720D2B0BD8DFE803F020
:1028F00021071B070A152121150A071B0721D36889
:10290000013BD3605DF8044B7047937A03F00303F7
:102910000029E6D043F00403E3E7D3685DF8044BF5
:10292000023BD3607047D3685DF8044B0233D36039
:102930007047D3685DF8044B0133D360704700BF24
:10294000641EFF1F214B10B45A6F1368506819782A
:102950000478507A137A044201EA03011BD0937A77
:1029600003F0030309B143F0040343F00803991093
:10297000013B91720D2B0BD8DFE803F021071B07F9
:102980000A152121150A071B0721D368013BD360D3
:102990005DF8044B7047937A03F003030029E6D0F7
:1029A00043F00403E3E7D3685DF8044B023BD360D4
:1029B0007047D3685DF8044B0233D3607047D36827
:1029C0005DF8044B0133D360704700BF641EFF1FE6
:1029D000214B10B49A6F1368506819780478507AB4
:1029E000137A044201EA03011BD0937A03F0030334
:1029F00009B143F0040343F008039910013B9172BD
:102A00000D2B0BD8DFE803F021071B070A15212146
:102A1000150A071B0721D368013BD3605DF8044BFF
:102A20007047937A03F003030029E6D043F00403D0
:102A3000E3E7D3685DF8044B023BD3607047D3688B
:102A40005DF8044B0233D3607047D3685DF8044BE4
:102A50000133D360704700BF641EFF1F214B10B4C9
:102A6000DA6F1368506819780478507A137A044240
:102A700001EA03011BD0937A03F0030309B143F089
:102A8000040343F008039910013B91720D2B0BD8FE
:102A9000DFE803F021071B070A152121150A071B90
:102AA0000721D368013BD3605DF8044B7047937AEC
:102AB00003F003030029E6D043F00403E3E7D368FF
:102AC0005DF8044B023BD3607047D3685DF8044B5C
:102AD0000233D3607047D3685DF8044B0133D36091
:102AE000704700BF641EFF1F214B10B4D3F8802035
:102AF0001368506819780478507A137A044201EA0E
:102B000003011BD0937A03F0030309B143F00403DC
:102B100043F008039910013B91720D2B0BD8DFE8AD
:102B200003F021071B070A152121150A071B07219E
:102B3000D368013BD3605DF8044B7047937A03F090
:102B400003030029E6D043F00403E3E7D3685DF80C
:102B5000044B023BD3607047D3685DF8044B0233EB
:102B6000D3607047D3685DF8044B0133D36070477E
:102B7000641EFF1F214B10B4D3F8842013685068E3
:102B800019780478507A137A044201EA03011BD0C1
:102B9000937A03F0030309B143F0040343F00803FD
:102BA0009910013B91720D2B0BD8DFE803F0210740
:102BB0001B070A152121150A071B0721D368013BB2
:102BC000D3605DF8044B7047937A03F00303002948
:102BD000E6D043F00403E3E7D3685DF8044B023B1F
:102BE000D3607047D3685DF8044B0233D3607047FD
:102BF000D3685DF8044B0133D3607047641EFF1F38
:102C0000214B10B4D3F888201368506819780478E1
:102C1000507A137A044201EA03011BD0937A03F03D
:102C2000030309B143F0040343F008039910013B87
:102C300091720D2B0BD8DFE803F021071B070A1553
:102C40002121150A071B0721D368013BD3605DF8DA
:102C5000044B7047937A03F003030029E6D043F056
:102C60000403E3E7D3685DF8044B023BD36070478D
:102C7000D3685DF8044B0233D3607047D3685DF8C6
:102C8000044B0133D3607047641EFF1F214B10B407
:102C9000D3F88C201368506819780478507A137A26
:102CA000044201EA03011BD0937A03F0030309B144
:102CB00043F0040343F008039910013B91720D2B7C
:102CC0000BD8DFE803F021071B070A152121150A9D
:102CD000071B0721D368013BD3605DF8044B7047A5
:102CE000937A03F003030029E6D043F00403E3E7FB
:102CF000D3685DF8044B023BD3607047D3685DF83E
:102D0000044B0233D3607047D3685DF8044B013342
:102D1000D3607047641EFF1F214B10B4D3F890207E
:102D20001368506819780478507A137A044201EADB
:102D300003011BD0937A03F0030309B143F00403AA
:102D400043F008039910013B91720D2B0BD8DFE87B
:102D500003F021071B070A152121150A071B07216C
:102D6000D368013BD3605DF8044B7047937A03F05E
:102D700003030029E6D043F00403E3E7D3685DF8DA
:102D8000044B023BD3607047D3685DF8044B0233B9
:102D9000D3607047D3685DF8044B0133D36070474C
:102DA000641EFF1F214B10B4D3F8942013685068A1
:102DB00019780478507A137A044201EA03011BD08F
:102DC000937A03F0030309B143F0040343F00803CB
:102DD0009910013B91720D2B0BD8DFE803F021070E
:102DE0001B070A152121150A071B0721D368013B80
:102DF000D3605DF8044B7047937A03F00303002916
:102E0000E6D043F00403E3E7D3685DF8044B023BEC
:102E1000D3607047D3685DF8044B0233D3607047CA
:102E2000D3685DF8044B0133D3607047641EFF1F05
:102E3000214B10B4D3F8982013685068197804789F
:102E4000507A137A044201EA03011BD0937A03F00B
:102E5000030309B143F0040343F008039910013B55
:102E600091720D2B0BD8DFE803F021071B070A1521
:102E70002121150A071B0721D368013BD3605DF8A8
:102E8000044B7047937A03F003030029E6D043F024
:102E90000403E3E7D3685DF8044B023BD36070475B
:102EA000D3685DF8044B0233D3607047D3685DF894
:102EB000044B0133D3607047641EFF1F214B10B4D5
:102EC000D3F89C201368506819780478507A137AE4
:102ED000044201EA03011BD0937A03F0030309B112
:102EE00043F0040343F008039910013B91720D2B4A
:102EF0000BD8DFE803F021071B070A152121150A6B
:102F0000071B0721D368013BD3605DF8044B704772
:102F1000937A03F003030029E6D043F00403E3E7C8
:102F2000D3685DF8044B023BD3607047D3685DF80B
:102F3000044B0233D3607047D3685DF8044B013310
:102F4000D3607047641EFF1F214B10B4D3F8A0203C
:102F50001368506819780478507A137A044201EAA9
:102F600003011BD0937A03F0030309B143F0040378
:102F700043F008039910013B91720D2B0BD8DFE849
:102F800003F021071B070A152121150A071B07213A
:102F9000D368013BD3605DF8044B7047937A03F02C
:102FA00003030029E6D043F00403E3E7D3685DF8A8
:102FB000044B023BD3607047D3685DF8044B023387
:102FC000D3607047D3685DF8044B0133D36070471A
:102FD000641EFF1F214B10B4D3F8A420136850685F
:102FE00019780478507A137A044201EA03011BD05D
:102FF000937A03F0030309B143F0040343F0080399
:103000009910013B91720D2B0BD8DFE803F02107DB
:103010001B070A152121150A071B0721D368013B4D
:10302000D3605DF8044B7047937A03F003030029E3
:10303000E6D043F00403E3E7D3685DF8044B023BBA
:10304000D3607047D3685DF8044B0233D360704798
:10305000D3685DF8044B0133D3607047641EFF1FD3
:10306000214B10B4D3F8A82013685068197804785D
:10307000507A137A044201EA03011BD0937A03F0D9
:10308000030309B143F0040343F008039910013B23
:1030900091720D2B0BD8DFE803F021071B070A15EF
:1030A0002121150A071B0721D368013BD3605DF876
:1030B000044B7047937A03F003030029E6D043F0F2
:1030C0000403E3E7D3685DF8044B023BD360704729
:1030D000D3685DF8044B0233D3607047D3685DF862
:1030E000044B0133D3607047641EFF1F214B10B4A3
:1030F000D3F8AC201368506819780478507A137AA2
:10310000044201EA03011BD0937A03F0030309B1DF
:1031100043F0040343F008039910013B91720D2B17
:103120000BD8DFE803F021071B070A152121150A38
:10313000071B0721D368013BD3605DF8044B704740
:10314000937A03F003030029E6D043F00403E3E796
:10315000D3685DF8044B023BD3607047D3685DF8D9
:10316000044B0233D3607047D3685DF8044B0133DE
:10317000D3607047641EFF1F214B10B4D3F8B020FA
:103180001368506819780478507A137A044201EA77
:1031900003011BD0937A03F0030309B143F0040346
:1031A00043F008039910013B91720D2B0BD8DFE817
:1031B00003F021071B070A152121150A071B072108
:1031C000D368013BD3605DF8044B7047937A03F0FA
:1031D00003030029E6D043F00403E3E7D3685DF876
:1031E000044B023BD3607047D3685DF8044B023355
:1031F000D3607047D3685DF8044B0133D3607047E8
:10320000641EFF1F214B10B4D3F8B420136850681C
:1032100019780478507A137A044201EA03011BD02A
:10322000937A03F0030309B143F0040343F0080366
:103230009910013B91720D2B0BD8DFE803F02107A9
:103240001B070A152121150A071B0721D368013B1B
:10325000D3605DF8044B7047937A03F003030029B1
:10326000E6D043F00403E3E7D3685DF8044B023B88
:10327000D3607047D3685DF8044B0233D360704766
:10328000D3685DF8044B0133D3607047641EFF1FA1
:10329000214B10B4D3F8B82013685068197804781B
:1032A000507A137A044201EA03011BD0937A03F0A7
:1032B000030309B143F0040343F008039910013BF1
:1032C00091720D2B0BD8DFE803F021071B070A15BD
:1032D0002121150A071B0721D368013BD3605DF844
:1032E000044B7047937A03F003030029E6D043F0C0
:1032F0000403E3E7D3685DF8044B023BD3607047F7
:10330000D3685DF8044B0233D3607047D3685DF82F
:10331000044B0133D3607047641EFF1F214B10B470
:10332000D3F8BC201368506819780478507A137A5F
:10333000044201EA03011BD0937A03F0030309B1AD
:1033400043F0040343F008039910013B91720D2BE5
:103350000BD8DFE803F021071B070A152121150A06
:10336000071B0721D368013BD3605DF8044B70470E
:10337000937A03F003030029E6D043F00403E3E764
:10338000D3685DF8044B023BD3607047D3685DF8A7
:10339000044B0233D3607047D3685DF8044B0133AC
:1033A000D3607047641EFF1F214B10B4D3F8C020B8
:1033B0001368506819780478507A137A044201EA45
:1033C00003011BD0937A03F0030309B143F0040314
:1033D00043F008039910013B91720D2B0BD8DFE8E5
:1033E00003F021071B070A152121150A071B0721D6
:1033F000D368013BD3605DF8044B7047937A03F0C8
:1034000003030029E6D043F00403E3E7D3685DF843
:10341000044B023BD3607047D3685DF8044B023322
:10342000D3607047D3685DF8044B0133D3607047B5
:10343000641EFF1F214B10B4D3F8C42013685068DA
:1034400019780478507A137A044201EA03011BD0F8
:10345000937A03F0030309B143F0040343F0080334
:103460009910013B91720D2B0BD8DFE803F0210777
:103470001B070A152121150A071B0721D368013BE9
:10348000D3605DF8044B7047937A03F0030300297F
:10349000E6D043F00403E3E7D3685DF8044B023B56
:1034A000D3607047D3685DF8044B0233D360704734
:1034B000D3685DF8044B0133D3607047641EFF1F6F
:1034C000214B10B4D3F8C8201368506819780478D9
:1034D000507A137A044201EA03011BD0937A03F075
:1034E000030309B143F0040343F008039910013BBF
:1034F00091720D2B0BD8DFE803F021071B070A158B
:103500002121150A071B0721D368013BD3605DF811
:10351000044B7047937A03F003030029E6D043F08D
:103520000403E3E7D3685DF8044B023BD3607047C4
:10353000D3685DF8044B0233D3607047D3685DF8FD
:10354000044B0133D3607047641EFF1F214B10B43E
:10355000D3F8CC201368506819780478507A137A1D
:10356000044201EA03011BD0937A03F0030309B17B
:1035700043F0040343F008039910013B91720D2BB3
:103580000BD8DFE803F021071B070A152121150AD4
:10359000071B0721D368013BD3605DF8044B7047DC
:1035A000937A03F003030029E6D043F00403E3E732
:1035B000D3685DF8044B023BD3607047D3685DF875
:1035C000044B0233D3607047D3685DF8044B01337A
:1035D000D3607047641EFF1F214B10B4D3F8D02076
:1035E0001368506819780478507A137A044201EA13
:1035F00003011BD0937A03F0030309B143F00403E2
:1036000043F008039910013B91720D2B0BD8DFE8B2
:1036100003F021071B070A152121150A071B0721A3
:10362000D368013BD3605DF8044B7047937A03F095
:1036300003030029E6D043F00403E3E7D3685DF811
:10364000044B023BD3607047D3685DF8044B0233F0
:10365000D3607047D3685DF8044B0133D360704783
:10366000641EFF1F214B10B4D3F8D4201368506898
:1036700019780478507A137A044201EA03011BD0C6
:10368000937A03F0030309B143F0040343F0080302
:103690009910013B91720D2B0BD8DFE803F0210745
:1036A0001B070A152121150A071B0721D368013BB7
:1036B000D3605DF8044B7047937A03F0030300294D
:1036C000E6D043F00403E3E7D3685DF8044B023B24
:1036D000D3607047D3685DF8044B0233D360704702
:1036E000D3685DF8044B0133D3607047641EFF1F3D
:1036F000214B10B4D3F8D820136850681978047897
:10370000507A137A044201EA03011BD0937A03F042
:10371000030309B143F0040343F008039910013B8C
:1037200091720D2B0BD8DFE803F021071B070A1558
:103730002121150A071B0721D368013BD3605DF8DF
:10374000044B7047937A03F003030029E6D043F05B
:103750000403E3E7D3685DF8044B023BD360704792
:10376000D3685DF8044B0233D3607047D3685DF8CB
:10377000044B0133D3607047641EFF1FF8B5044645
:1037800015460E46084602211F4606F0D3F9284684
:10379000022106F0CFF99B499B4A51F83600276079
:1037A000012300F50077E760237551F83510637544
:1037B00001F500770023A36127611346013BFDD18A
:1037C00090F8003291F8002203F00103D20744BFC1
:1037D00043F00203DBB2A37504F10C073B2E00F2A9
:1037E0000486DFE816F0F505EB05E105D705CD0504
:1037F000C305B905AF05A5059B05910587057D05A1
:10380000730569055F0555054B05410537052D0510
:10381000230519050F050505FB04F104E704DD0484
:10382000D304C904BF04B404A9049E049304880407
:103830007D0429041F0415040B040104F703ED03A0
:10384000E303D903CF03C503BB03B103A7039D0360
:10385000930389037F0375036B0361033C006B4B88
:103860006B49C3F8EC7004223B2005F04BFF0123A9
:1038700023773B2D00F2B685DFE815F00C03020339
:10388000F802EE02E402DA02D002C602BC02B20280
:10389000A8029E0294028A028002320228021E02BC
:1038A00014020A020002F601EC01E201D801CE0185
:1038B000C401BA01B001A6019C01920187017C01FB
:1038C000710166015B01500145013A012F0124019C
:1038D00019010E010301F800ED00E200B800AD008F
:1038E000A20097008C00810076006B0060005500FC
:1038F0004A003C00454B4649C3F8EC7004223B208B
:1039000005F000FF237F0122134423772046F8BDF2
:103910003E4B4049C3F8E87004223A2005F0F2FE1D
:10392000237F0122F0E7394B3B49C3F8E4700422BE
:10393000392005F0E7FE237F0122E5E7334B3749C5
:10394000C3F8E0700422382005F0DCFE237F01225A
:10395000DAE72E4B3249C3F8DC700422372005F039
:10396000D1FE237F0122CFE7284B2E49C3F8D87020
:103970000422362005F0C6FE237F0122C4E7234B34
:103980002949C3F8D4700422352005F0BBFE237FFB
:103990000122B9E71D4B2549C3F8D0700422342019
:1039A00005F0B0FE237F0122AEE7184B2049C3F893
:1039B000CC700422332005F0A5FE237F0122A3E76B
:1039C000124B1C49C3F8C8700422322005F09AFE3D
:1039D000237F012298E70D4B1749C3F8C4700422D6
:1039E000312005F08FFE237F01228DE7074B13491D
:1039F000C3F8C0700422302005F084FE237F01222A
:103A000082E700BFC81C010080380100641EFF1F50
:103A1000AD16000071250000E524000059240000C7
:103A2000CD230000F136000065360000D9350000D6
:103A30004D350000C134000035340000A9330000CA
:103A4000AC4BAD49C3F8BC7004222F2005F05AFEE0
:103A5000237F012258E7A74BA849C3F8B870042276
:103A60002E2005F04FFE237F01224DE7A14BA449F4
:103A7000C3F8B47004222D2005F044FE237F0122F8
:103A800042E79C4B9F49C3F8B07004222C2005F0FC
:103A900039FE237F012237E7964B9B49C3F8AC7070
:103AA00004222B2005F02EFE237F01222CE7914BD0
:103AB0009649C3F8A87004222A2005F023FE237F2C
:103AC000012221E78B4B9249C3F8A47004222920DC
:103AD00005F018FE237F012216E7864B8D49C3F8B7
:103AE000A0700422282005F00DFE237F01220BE7A1
:103AF000804B8949C3F89C700422272005F002FE00
:103B0000237F012200E77B4B8449C3F8987004228D
:103B1000262005F0F7FD237F0122F5E6754B80494D
:103B2000C3F894700422252005F0ECFD237F0122C8
:103B3000EAE6704B7B49C3F890700422242005F01C
:103B4000E1FD237F0122DFE66A4B7749C3F88C70E1
:103B50000422232005F0D6FD237F0122D4E6654B05
:103B60007249C3F888700422222005F0CBFD237F20
:103B70000122C9E65F4B6E49C3F8847004222120FC
:103B800005F0C0FD237F0122BEE65A4B6949C3F808
:103B900080700422202005F0B5FD237F0122B3E6CA
:103BA000544B6549DF6704221F2005F0ABFD237FDE
:103BB0000122A9E64F4B61499F6704221E2005F0B0
:103BC000A1FD237F01229FE64A4B5D495F670422E6
:103BD0001D2005F097FD237F012295E6454B5949AD
:103BE0001F6704221C2005F08DFD237F01228BE638
:103BF000404B5549DF6604221B2005F083FD237FDF
:103C0000012281E63B4B51499F6604221A2005F0B0
:103C100079FD237F012277E6364B4D495F6604220A
:103C2000192005F06FFD237F01226DE6314B4949D4
:103C30001F660422182005F065FD237F012263E63C
:103C40002C4B4549DF650422172005F05BFD237FDF
:103C5000012259E6274B41499F650422162005F0B1
:103C600051FD237F01224FE6224B3D495F6504222F
:103C7000152005F047FD237F012245E61D4B3949FC
:103C80001F650422142005F03DFD237F01223BE641
:103C9000184B3549DF640422132005F033FD237FE0
:103CA000012231E6134B31499F640422122005F0B2
:103CB00029FD237F012227E60E4B2D495F64042254
:103CC000112005F01FFD237F01221DE6094B294924
:103CD0001F640422102005F015FD237F012213E646
:103CE000044B2549DF6304220F2005F00BFD237FE1
:103CF000012209E6641EFF1F1D33000091320000FF
:103D00000532000079310000ED3000006130000024
:103D1000D52F0000492F0000BD2E0000312E0000DD
:103D2000A52D0000192D00008D2C0000012C000095
:103D3000752B0000E92A00005D2A0000D12900004F
:103D400045290000B92800002D280000A127000007
:103D50001527000089260000FD25000041230000F2
:103D6000B5220000292200009D2100001121000041
:103D700085200000F91F00006D1F0000B34BB449FF
:103D80009F6304220E2005F0BDFC237F0122BBE5CA
:103D9000AE4BB0495F6304220D2005F0B3FC237FD6
:103DA0000122B1E5A94BAC491F6304220C2005F0A8
:103DB000A9FC237F0122A7E5A44BA849DF620422C6
:103DC0000B2005F09FFC237F01229DE59F4BA4491A
:103DD0009F6204220A2005F095FC237F012293E5CF
:103DE0009A4BA0495F620422092005F08BFC237FD7
:103DF000012289E5954B9C491F620422082005F0A9
:103E000081FC237F01227FE5904B9849DF610422EA
:103E1000072005F077FC237F012275E58B4B944941
:103E20009F610422062005F06DFC237F01226BE5D3
:103E3000864B90495F610422052005F063FC237FD7
:103E4000012261E5814B8C491F610422104605F077
:103E500059FC237F012257E57C4B8849DF6004220F
:103E6000032005F04FFC237F01224DE5774B844969
:103E70009F600422022005F045FC237F012243E5D8
:103E8000724B80495F600422012005F03BFC237FD8
:103E9000012239E56D4B7C491F600422002005F0AA
:103EA00031FC237F01222FE5684B7849C3F8E87085
:103EB00004223A2005F026FC0123D9E4634B74491F
:103EC000C3F8E4700422392005F01CFC0123CFE480
:103ED0005E4B7049C3F8E0700422382005F012FCF4
:103EE0000123C5E4594B6C49C3F8DC700422372028
:103EF00005F008FC0123BBE4544B6849C3F8D870B3
:103F00000422362005F0FEFB0123B1E44F4B644947
:103F1000C3F8D4700422352005F0F4FB0123A7E494
:103F20004A4B6049C3F8D0700422342005F0EAFB04
:103F300001239DE4454B5C49C3F8CC700422332037
:103F400005F0E0FB012393E4404B5849C3F8C870E7
:103F50000422322005F0D6FB012389E43B4B54496F
:103F6000C3F8C4700422312005F0CCFB01237FE4A8
:103F7000364B5049C3F8C0700422302005F0C2FB14
:103F8000012375E4314B4C49C3F8BC7004222F2047
:103F900005F0B8FB01236BE42C4B4849C3F8B8701B
:103FA00004222E2005F0AEFB012361E4274B444997
:103FB000C3F8B47004222D2005F0A4FB012357E4BC
:103FC000224B4049C3F8B07004222C2005F09AFB24
:103FD00001234DE41D4B3C49C3F8AC7004222B2057
:103FE00005F090FB012343E4184B3849C3F8A8704F
:103FF00004222A2005F086FB012339E4134B3449BF
:10400000C3F8A4700422292005F07CFB01232FE4CF
:104010000E4B3049C3F8A0700422282005F072FB33
:10402000012325E4094B2C49C3F89C700422272066
:1040300005F068FB01231BE4044B2849C3F8987082
:104040000422262005F05EFB012311E4641EFF1FFD
:10405000E11E0000551E0000C91D00003D1D0000AE
:10406000B11C0000251C0000991B00000D1B000066
:10407000811A0000F519000069190000DD18000020
:1040800051180000C5170000391700007125000005
:10409000E524000059240000CD230000F136000083
:1040A00065360000D93500004D350000C1340000F0
:1040B00035340000A93300001D33000091320000A8
:1040C0000532000079310000ED3000006130000061
:1040D000D52F0000492F0000BD2E0000312E00001A
:1040E000C34BC449C3F894700422252005F00AFB91
:1040F0000123FFF7BDBBBE4BBF49C3F8907004223C
:10410000242005F0FFFA0123FFF7B2BBB84BBB49EF
:10411000C3F88C700422232005F0F4FA0123FFF782
:10412000A7BBB34BB649C3F888700422222005F020
:10413000E9FA0123FFF79CBBAD4BB249C3F8847089
:104140000422212005F0DEFA0123FFF791BBA84BE2
:10415000AD49C3F880700422202005F0D3FA012372
:10416000FFF786BBA24BA949DF6704221F2005F099
:10417000C9FA0123FFF77CBB9D4BA5499F67042229
:104180001E2005F0BFFA0123FFF772BB984BA1492F
:104190005F6704221D2005F0B5FA0123FFF768BB15
:1041A000934B9D491F6704221C2005F0ABFA0123A5
:1041B000FFF75EBB8E4B9949DF6604221B2005F09A
:1041C000A1FA0123FFF754BB894B95499F6604224E
:1041D0001A2005F097FA0123FFF74ABB844B914957
:1041E0005F660422192005F08DFA0123FFF740BB1A
:1041F0007F4B8D491F660422182005F083FA0123A6
:10420000FFF736BB7A4B8949DF650422172005F09A
:1042100079FA0123FFF72CBB754B85499F65042272
:10422000162005F06FFA0123FFF722BB704B81497E
:104230005F650422152005F065FA0123FFF718BB1E
:104240006B4B7D491F650422142005F05BFA0123A6
:10425000FFF70EBB664B7949DF640422132005F09B
:1042600051FA0123FFF704BB614B75499F64042297
:10427000122005F047FA0123FFF7FABA5C4B7149A7
:104280005F640422112005F03DFA0123FFF7F0BA24
:10429000574B6D491F640422102005F033FA0123A7
:1042A000FFF7E6BA524B6949DF6304220F2005F09D
:1042B00029FA0123FFF7DCBA4D4B65499F630422BD
:1042C0000E2005F01FFA0123FFF7D2BA484B6149CF
:1042D0005F6304220D2005F015FA0123FFF7C8BA29
:1042E000434B5D491F6304220C2005F00BFA0123A8
:1042F000FFF7BEBA3E4B5949DF6204220B2005F09E
:1043000001FA0123FFF7B4BA394B55499F620422E1
:104310000A2005F0F7F90123FFF7AABA344B5149F7
:104320005F620422092005F0EDF90123FFF7A0BA2E
:104330002F4B4D491F620422082005F0E3F90123A9
:10434000FFF796BA2A4B4949DF610422072005F09E
:10435000D9F90123FFF78CBA254B45499F61042207
:10436000062005F0CFF90123FFF782BA204B41491F
:104370005F610422052005F0C5F90123FFF778BA33
:104380001B4B3D491F610422104605F0BBF9012378
:10439000FFF76EBA164B3949DF600422032005F09F
:1043A000B1F90123FFF764BA114B35499F6004222C
:1043B000022005F0A7F90123FFF75ABA0C4B314947
:1043C0005F600422012005F09DF90123FFF750BA38
:1043D000074B2D491F600422002005F093F90123AB
:1043E000FFF746BA0022FFF78FBA0023FFF740BA63
:1043F000641EFF1FA52D0000192D00008D2C00004C
:10440000012C0000752B0000E92A00005D2A000045
:10441000D129000045290000B92800002D280000FE
:10442000A12700001527000089260000FD250000B7
:1044300041230000B5220000292200009D21000038
:104440001121000085200000F91F00006D1F0000F1
:10445000E11E0000551E0000C91D00003D1D0000AA
:10446000B11C0000251C0000991B00000D1B000062
:10447000811A0000F519000069190000DD1800001C
:1044800051180000C5170000391700002DE9F04F42
:10449000072193B0AB48AC4C04F0B8F85A21A948B6
:1044A00004F0BAF80121112005F044FB01210E208F
:1044B00005F040FB0121112005F036FB01210E2003
:1044C00005F032FBA14804F0D9FC00234FF461420F
:1044D000A260C4F8E43404F27C42C4F8E834C4F8BE
:1044E000F034C4F8EC3402E00133192B0AD052F84E
:1044F000041F0029F8D103F59071954A44F8212052
:1045000064335360934A002302E00133192B0AD02D
:1045100052F8041F0029F8D103F590718E4A44F82F
:104520002120643353608D4A002302E00133192BAC
:104530000BD052F8041F0029F8D1894A04EB8301FB
:104540007D33C1F81C249360D460844A002302E0C8
:104550000133192B0BD052F8041F0029F8D1814ADE
:1045600004EB83017D33C1F81C249360D4607B4A43
:10457000002302E00133192B0BD052F8041F00294D
:10458000F8D1794A04EB83017D33C1F81C24936090
:10459000D460724A002302E00133192B0BD052F889
:1045A000041F0029F8D1714A04EB83017D33C1F85F
:1045B0001C249360D460694A002302E00133192B64
:1045C0000BD052F8041F0029F8D1694A04EB83018B
:1045D0007D33C1F81C249360D460604A002302E05C
:1045E0000133192B0BD052F8041F0029F8D1614A6E
:1045F00004EB83017D33C1F81C249360D460574AD7
:10460000002302E00133192B0BD052F8041F0029BC
:10461000F8D1594A04EB83017D33C1F81C2493601F
:10462000D4604E4A002302E00133192B0BD052F81C
:10463000041F0029F8D1514A04EB83017D33C1F8EE
:104640001C249360D460454A002302E00133192BF7
:104650000BD052F8041F0029F8D1494A04EB83011A
:104660007D33C1F81C249360D4603C4A002302E0EF
:104670000133192B0BD052F8041F0029F8D1414AFD
:1046800004EB83017D33C1F81C249360D4603E4B5E
:1046900094F8F824DFF8F8A03C4EDFF8F890029385
:1046A0000192A3F50775019B002B40F0128133683E
:1046B0000A93DDF828B0D4F8003542F6F822C3EBAF
:1046C0000B03934284BF9DF8043085F8F834D4F886
:1046D000E43433B1D5F804359B4584BF0023C5F8D5
:1046E000E434A2693AB133680E930E9BCBEB03031B
:1046F0009A42C0F0E681606803685B694B4540F010
:10470000828006F0FFF90028C0F28180D4F8F434EA
:10471000D4F8E4240344072AC4F8F43400F02781D1
:10472000002A39D1FF2800F0358133680D930D9BA5
:1047300041F28831CBEB03038B42D2D9024B83F891
:10474000F824B4E71417FF1F5017FF1FC01DFF1FE9
:10475000E015FF1FCC1BFF1F3C16FF1F681BFF1F30
:10476000C81DFF1F7C1DFF1F1C16FF1FE01DFF1F24
:104770001C17FF1F1C1EFF1FA815FF1F3017FF1F50
:10478000DC1CFF1F0816FF1F6C19FF1F641FFF1F93
:10479000410A000029080000012A00F00381022AD2
:1047A00000F05481032A00F05C81042A00F0638148
:1047B000052A00F06F81062A00F07481082A90D142
:1047C000C94A1A4000239A42C4F8E434C0F28381F3
:1047D000FF2A86D1D4F8EC34002B00F0CF820A2BCC
:1047E00000F08E81062B00F0C0810B2B00F0788149
:1047F000BC3355F8230000283FF473AF0368BB496E
:104800001B6898476DE798470028BFF67FAF94F87C
:10481000F8340193002B3FF44AAFD5F8FC3440F64E
:10482000C412C3EB0B0393427FF63DAFFF21FE277B
:10483000AF4B85F81C120821002285F81D7285F8FF
:104840001E12F7270A2103F1090085F8232285F8B3
:10485000242285F8252285F8262285F8272285F846
:10486000282285F8292285F82A2285F81F2285F832
:10487000222285F8207285F8211201E013F8011F29
:1048800098420A44FAD1029BD24384F82B229846DC
:1048900003F10F07FF2105E006F01EFA47450BD094
:1048A00018F8011F626813681B6853450846F3D067
:1048B000104698474745F3D133680993099BE36055
:1048C00094F8F8340193019BC4F8FCB4002B3FF436
:1048D000EEAE884E884D0FCE0FC52B46326823F8BA
:1048E00017290126FF210022A8194FF0120EFE27DA
:1048F00084F82362E825172684F81C12072184F81F
:1049000024E284F8252284F8262284F8272284F8D9
:104910001F2284F8222284F81D7284F81E6284F813
:10492000205284F8211201E013F8011F98420A4432
:10493000FAD1029DD24384F83A2205F11E06FF21E6
:1049400005E006F0C9F9B5420BD015F8011F626801
:1049500013681B6853450846F3D010469847B54284
:10496000F3D1012005F0ECF813B0BDE8F08FD5F8D5
:10497000F024D5F8E834A918013B01320877C5F8CE
:10498000F024C5F8E834002B7FF4ABAE0823C4F85C
:10499000E434A6E601220BF11403C5F8E424C5F8BB
:1049A00004359EE6FE2871D095F8F8240023C5F85A
:1049B000E434002A7FF495AEFF21FE274C4B85F8A6
:1049C0001C12082185F81D7285F81E12F7270A218E
:1049D00085F8232285F8242285F8252285F82622C9
:1049E00085F8272285F8282285F8292285F82A22A9
:1049F00085F81F2285F8222203F1090085F820722C
:104A000085F8211201E013F8011F98420A44FAD1F7
:104A1000029BD24384F82B221F4603F10F08FF218B
:104A200005E006F059F947450BD017F8011F6268F9
:104A300013681B6853450846F3D01046984747450E
:104A4000F3D133680C930C9BE3604AE60022032306
:104A5000C5F8E804C5F8F404C5F8F024C5F8E43452
:104A60003FE6D5F8E83403EB00200423C5F8E8045A
:104A7000C5F8E43435E61C4A1A40002A26DBFF2A32
:104A80000CBF05230023C4F8E4342AE60223C5F84A
:104A9000E43426E60623C5F8EC04C5F8F404C5F8AA
:104AA000E4341EE6D5F8EC34D5F8E82403EB002313
:104AB0000721C5F8EC34C5F8E414002A3FF466AFCA
:104AC0000FE60E4B93F8F8340193ECE5013A62F0EF
:104AD000FF020132D3E7013A62F0FF02013277E6CA
:104AE000002385F8F834FCE5FF0000806C17FF1FF9
:104AF0007119FF1F641B01007819FF1F5017FF1F5A
:104B000033680F930F9BEA68C248316811919B1A72
:104B1000296ADFF814E3DFF81483DDF844C0EA699A
:104B2000A0FB0307BF094FF47A708E4400FB1733D4
:104B300008FB03E30393B74BB749A3FB0C3E4FEAD3
:104B40009E1E039B013A00FB1EC03A4408FB103333
:104B5000CEEB0202081F6B612A6104F01DFA336874
:104B60001093109BC5F80035BBE5EF69D5F81035FB
:104B70009F4206D9B900D5F8180508F09FFDC5F881
:104B80001805C4F81075002F00F0E680A34A04232E
:104B900002F2145E002792F8221092F821C092F8D7
:104BA0002000090441EA0C2192F823C0014341EAA4
:104BB0000C61C4F81415D4F81815DEF8000041F89B
:104BC0002700D4F810050137B842194602F1040253
:104BD00003F10403DFD8059301F10B0301F109028E
:104BE00001F10808049301F10C0303924746481DA4
:104BF00001F1060E01F1070C01F10A020693A64429
:104C0000059B211823449EF81C0091F81CE01B7F93
:104C1000D4F81C15A44400049CF81CC040EA0E20E3
:104C2000034343EA0C638B420AD99900D5F8240563
:104C30000792059308F042FD079A059BC5F82405E5
:104C4000C4F81C35002B00F0E280DFF8E4E1EB193A
:104C500000219A7F93F81DC0187F120442EA0C22AB
:104C600093F81FC0024342EA0C62CEF80020D4F849
:104C70002425DEF8000042F82100D4F81C2501317B
:104C80008A42384603F1040307F10407E1D8431DC3
:104C90000393C31DB846821D049300F10807039BCC
:104CA00023442244187F049B117FD4F82825A04474
:104CB00023449E46090498F81C309EF81C8041EA63
:104CC00000210B4343EA0868904507D94FEA880161
:104CD000D5F8300508F0F2FCC5F83005C4F8288591
:104CE000B8F1000F34D0DFF84CE100210EF5A26CD2
:104CF00007F11C080023A0441A4618F8010B98403D
:104D00000833202B42EA0002F7D1381D02449042BA
:104D10000AD207F11F0323440746013793F80180A5
:104D200003F8018B9742F8D3A3184FF0000701381E
:104D3000DF767044D4F83035C4F82C05DCF8000078
:104D400043F82100D4F8283501318B421746CFD8DB
:104D5000012384F80835C4E40C2306930B23049341
:104D600009234FF008080393042347460A224FF013
:104D7000070C4FF0060E0520059340E72848A0F2E7
:104D80002A2100F8073CFE2781F81C224FF0080C6E
:104D90000A4681F8243281F8253281F8263281F8DA
:104DA000273281F8283281F8293281F82A3281F8B5
:104DB0001D7281F81F3281F82232A0F1090EF72707
:104DC00081F81EC20A2182F8207282F821127246EE
:104DD00001E012F8011F82420B44FAD1114FDB436C
:104DE000A7F10F02029284F82B329046FF2105E0D2
:104DF00005F072FF47451FD018F8011F626813685D
:104E00001B6853450846F3D010469847F2E7069FC3
:104E100045E700BFD34D62106417FF1F5017FF1FF7
:104E20007A19FF1F7B19FF1F00CA9A3B40420F00EF
:104E3000701CFF1F6C17FF1F33680B93D14BCDF80D
:104E400004B01A460B9BE36093465BF8043F002BCB
:104E500000F0BF8058689A6801680392D3F8009008
:104E60008B689847DBF80030804658680368DB6839
:104E70009847DBF80030039A1E69632E074604DD6D
:104E800094F8F834002B00F0A480C2F307234846BE
:104E900084F8232284F8243208F032FE0346020A02
:104EA000000C4FEA136E494684F8262284F8270244
:104EB0001A46B54884F82532039384F828E204F0B2
:104EC000DDFA404608F01CFE039B024603F229204F
:104ED00020440633002122FA01FE0831202900F87F
:104EE00001EBF8D1A94804334146184402EB03080A
:104EF00004F0C4FA384608F003FE08F22322814683
:104F00002244002329FA03F10833202B02F8011B65
:104F1000F8D19E4B08F10408394603EB08004A46D5
:104F200004F0ACFA09EB0800071D5FFA87FCC7F331
:104F3000072E04EB00080CEB0E010022C9430223EC
:104F400088F8243288F8232288F8252288F8262237
:104F500084F82012F1B246F30726FF234FF0FE0833
:104F600084F822627E1C84F81EC284F81FE284F852
:104F70001C3284F81D8284F821120BDB00F22626F5
:104F8000834B2E4401E013F8011FB3420A44FAD1C7
:104F9000D343DBB2E2190837B7F5007F82F823323A
:104FA00000F34B81002F14DD00F22720794E2F18DB
:104FB00003E005F091FEBE420BD0626816F8011FB7
:104FC00013681B6853450846F3D010469847BE4205
:104FD000F3D1714B9B457FF438AF9B465BF8040FD0
:104FE000002800F0BF8090E80C0003939268D0F88E
:104FF000089090478046DBF800000268D26890472E
:105000000746DBF8000002685268904763280646AE
:10501000039B04DD94F8F824002A00F0A380C3F376
:105020000722484684F8233284F8242208F068FDD9
:105030000346020A000C4FEA136E494684F8262202
:1050400084F827021A46504884F82532039384F8DE
:1050500028E204F013FA404608F052FD039B024692
:1050600003F2292020440633002122FA01FE0831F0
:10507000202900F801EBF8D1444804334146184494
:1050800002EB030804F0FAF9384608F039FD08F29B
:10509000232281462244002329FA03F10833202BDE
:1050A00002F8011BF8D1394B08F10408394603EB2B
:1050B00008004A4604F0E2F909EB0800071D5FFA10
:1050C00087FCC7F3072E04EB00080CEB0E0100224F
:1050D000C943022388F8243288F8232288F825223D
:1050E00088F8262284F82012F1B246F30726FF231F
:1050F0004FF0FE0884F822627E1C84F81EC284F8F9
:105100001FE284F81C3284F81D8284F821120BDB24
:1051100000F226261E4B2E4401E013F8011FB34275
:105120000A44FAD1D343DBB2E2190837B7F5007F5E
:1051300082F8233234DC002F14DD00F22720154ED4
:105140002F1803E005F0C8FDB7420BD0626816F8CF
:10515000011F13681B6853450846F3D01046984753
:10516000B742F3D10D4B9B457FF438AFDDF804B067
:10517000C4F8FCB40123C4F800B584F8F834FFF790
:10518000A8BB00BF681BFF1F7919FF1F7319FF1F02
:105190007119FF1F6B19FF1FCC1BFF1F301CFF1F56
:1051A0004D4F4E4E0FCF0FC60FCF0FC60FCF0FC6AE
:1051B00097E8030000234FF0030E3827FF2285F8FD
:1051C00023E285F824724FF0FE0E3D2785F8253244
:1051D00085F8263285F8273286E80300C22185F853
:1051E0001C220722F01D85F81F3285F82232373E37
:1051F00085F81DE285F81E7285F8201285F82122B7
:1052000001E016F8012FB0421344FAD1344EDB43CB
:1052100084F86032A6F14407FF2005E005F05CFD4C
:10522000B7429FD017F8010F626813681B68534597
:105230000146F3D010469847F2E7274F274E0FCF8D
:105240000FC60FCF0FC60FCF0FC697E8030000237E
:105250004FF0030E3827FF2285F823E285F82472E9
:105260004FF0FE0E3D2785F8253285F8263285F869
:10527000273286E80300C22185F81C220722F01D90
:1052800085F81F3285F82232373E85F81DE285F811
:105290001E7285F8201285F8212201E016F8012FF0
:1052A000B0421344FAD10E4EDB4384F86032A6F1CB
:1052B0004407FF2006E005F00FFDB7423FF489AE3A
:1052C00017F8010F626813681B6853450146F2D056
:1052D00010469847F1E700BF281B01007819FF1F0F
:1052E000B019FF1F2DE9F04100212DED028BB948C7
:1052F00003F024FE01210446B64803F01FFEB64B1E
:10530000D3ED007AF8EEE77AF5EE407AF1EE10FA96
:105310000AD1B24BD3ED007AF8EEE77AF5EE407A97
:10532000F1EE10FA00F04181AD4B1B68AD4AD2EDB1
:10533000007AF8EEE77AF5EE407AF1EE10FA14D141
:10534000A94AD2ED007AF8EEE77AF5EE407AF1EE6E
:1053500010FA0AD1A54D2E6801B28A1BC832B2F5E7
:10536000C87F84BF29600E4601E0A04A1668DFEDC1
:10537000A05A9FEDA06A9FEDA08A9FEDA05AA04D74
:10538000A04AE41A24B207EE904AB8EEE77A801BEE
:1053900027EE257A00B2C7EE066A9B4BDC68996857
:1053A00027683B68AB4207EE900AF8EEE77A36EEE4
:1053B000887A67EEA57AC7EE056A87EE867AC2ED2F
:1053C000016A37EE088A40F0FB80632903DD94F818
:1053D000F834002B60D016EE903AC3F3C752002A7F
:1053E00040F0DC801646C3F3C340F5EEC06A0643C6
:1053F000F1EE10FA4FF000004FEA431748BF62F099
:105400007F0284F8296284F82302DE1084F82402E3
:10541000DB1284F82502FF2084F8267284F82762C4
:1054200084F8283284F82A22F723FE27082600224F
:1054300084F81C02C8B241F3072184F8203284F8B2
:10544000221284F81D7284F81E6284F81F2284F8E8
:10545000210204F2212304F22A2101E013F8010FB2
:1054600099420244FAD1D243684F84F82B2204F2C5
:105470001B2604F22B2803E005F02EFCB0450BD0D0
:10548000626816F8011F13681B68BB420846F3D018
:1054900010469847B045F3D19FED587A5C4B5D4A72
:1054A000DC6899682368C8EE077A1B68AB42C2EDD6
:1054B000017A40F08880632903DD94F8F834002BEA
:1054C00061D017EE903AC3F3C752002A5FD1154658
:1054D000F5EEC07AC3F3C340F1EE10FA45EA0005D9
:1054E0004FEA43174FF000004FEAE30648BF62F06F
:1054F0007F02DB1284F8295284F8230284F8240204
:1055000084F8250284F82672C8B284F8276241F331
:10551000072184F8283284F82A22F723FF27FE2661
:105520000825002284F8203284F8221284F81C72A4
:1055300084F81D6284F81E5284F81F2284F8210228
:1055400004F2212304F22A2101E013F8010F994209
:105550000244FAD1D2432D4F84F82B2204F21B25AA
:1055600004F22B2603E005F0B7FBAE420BD06268D5
:1055700015F8011F13681B68BB420846F3D010469C
:105580009847AE42F3D1BDEC028BBDE8F08102F545
:10559000607215016DB2C2F3071299E702F56072ED
:1055A000160176B2C2F307121DE70D4D2B6821B22A
:1055B000CA1AC832B2F5C87F84BF29600B46B5E667
:1055C0002046984768E7BDEC028B2046BDE8F041D5
:1055D000184700BFC01DFF1FDC15FF1F301DFF1F38
:1055E000D407FF1F281DFF1FD816FF1FD807FF1F56
:1055F000A69BC44000FEFF4600000000022B873D32
:10560000E1150000D41CFF1F7C1DFF1F410A000094
:105610001C16FF1F141EFF1F08B5DFED1C7AB4EE29
:10562000E70AF1EE10FA2DED028B2AD4DFED187A9D
:10563000B4EEE70AF1EE10FAB0EE408A1DDC30EE6F
:10564000277ADFED146ADFED145ADFED147A9FED4F
:10565000146A67EE266A86EEA57A77EE277A67EEF9
:10566000867AFDEEE77A17EE901A0E4802F0D4FF24
:10567000B0EE480ABDEC028B08BDB0EE678A00218F
:10568000F3E7B0EE678AB421EFE700BFE17AD4BE5A
:10569000E17AD43EDB0F49C0E17A543FDB0F494049
:1056A000E02E65421417FF1F2DE9F04F2DED048BFE
:1056B000C14AC24BC249C34D91ED001AD2ED000A56
:1056C00093ED000AC04999B014A803F085FD2B7F23
:1056D000149A0892012B159A099240F2748572B6B9
:1056E000AB69B3F1000AB8BF0AF1030A4FEAAA0A8C
:1056F00062B6DFF810B36868DBF800301093109ED4
:10570000B24C301A07F0D6FBA9A3D3E9002307F067
:1057100071FDCDE90201A868C0EB0A0007F0DAFBD1
:105720006E608046C5F808A02868894607F0D2FB5D
:1057300002460B464046494607F05CFDDDE9022380
:1057400007F058FD07F0C6FE237F0290012B40F2C0
:10575000738572B6A369B3F10008B8BF08F10308F6
:105760004FEAA80862B6DBF800300F93DDF83CA0E2
:105770006068DFF89492C0EB0A0007F09BFB8CA3F3
:10578000D3E9002307F036FDCDE90401A068C0EBA2
:10579000080007F09FFBC4F804A00646C4F8088080
:1057A00020680F4607F096FB02460B463046394606
:1057B00007F020FDDDE9042307F01CFD07F08AFE59
:1057C00099F81C300490012B40F2708572B6D9F81C
:1057D0001860002EB8BF0336B61062B6DBF8003092
:1057E0000E93DDF83880D9F80400794FC0EB08003B
:1057F00007F060FB6EA3D3E9002307F0FBFCCDE9C3
:105800000601D9F80800301A07F064FBC9F80480D3
:10581000CDE90A01C9F80860D9F8000007F05AFB81
:1058200002460B46DDE90A0107F0E4FCDDE9062348
:1058300007F0E0FC07F04EFE3B7F0690012B40F2A4
:10584000758572B6BE69002EB8BF0336B61062B653
:10585000DBF800300D93DDF834A07868C0EB0A0067
:1058600007F028FB52A3D3E9002307F0C3FCCDE9DE
:105870000A01B868301A07F02DFBBE608046C7F8F1
:1058800004A03868894607F025FB02460B464046CF
:10589000494607F0AFFCDDE90A2307F0ABFC07F04F
:1058A00019FE2A7F474B012A064640F2388472B619
:1058B0009B6962B6002BB8BF0333207F45499B101C
:1058C0001A4601284FEAE373C1E902233F4B40F235
:1058D000508472B69B6962B6DDED087A3E4A089D37
:1058E0003E4CDFF828912560F8EEE79ADDED027A6C
:1058F000099C3B49DFF818B13A48DFF818A1046069
:10590000002BB8BF0333F8EEE78A9B10C2ED018A83
:105910001A46DB17C9E902234FEAE5782A46324BDB
:10592000049DC3ED007A07EE905A4346B8EEE78A2D
:105930000D60CBE902232D492D4881ED018AE21744
:105940001346F0EE680A2246B0EE690ACAE902235D
:1059500003F004FD51EC100B07F0BCFD07EE904A7C
:10596000244B254D1860B8EEE79A2448164CF0EE0B
:10597000480AB0EE490A03F0F1FC51EC100B07F0B5
:10598000A9FDF0EE680A2860B0EE690A184803F035
:10599000E5FC51EC100B07F09DFD0146184803F0A3
:1059A0004BFB1648F0EE480AB0EE490A34E000BF5F
:1059B00000000000004CED404C17FF1F4817FF1F70
:1059C0000416FF1F5C1DFF1FB81CFF1FBC15FF1F27
:1059D000F41DFF1FA816FF1FF01CFF1FDC15FF1F83
:1059E000D816FF1F281DFF1F301DFF1F8C15FF1F1E
:1059F000901DFF1F1017FF1F581DFF1FF81CFF1FD2
:105A00006415FF1F641FFF1FDC16FF1FC816FF1F52
:105A10000017FF1FB816FF1F03F0A0FC51EC100B7E
:105A200007F058FD0146AE4803F006FBDDED167A9F
:105A3000AC48B8EEE70ADDED067AF8EEE70A03F0C7
:105A40008DFC51EC100B07F045FD0146A64803F014
:105A5000F3FADDED177AA548B8EEE70A07EE906A8B
:105A6000F8EEE70A03F07AFC51EC100B07F032FD78
:105A700001469F4803F0E0FA2378023B012B40F2F5
:105A80003D830096049A0299069B204603F00CFC85
:105A90008DED110ACDED120A8DED131A9549964E32
:105AA000CD68964A2B68119F1C681298139B8968D1
:105AB0005760B4429060D36040F01D83632903DDDA
:105AC00095F8F824002A59D03C0A3A0C85F823723C
:105AD00085F824423F0E040A85F82522020C85F839
