:10000000F8FF0220990100006D3900002539000039
:100010002539000025390000253900002539000068
:100020002539000025390000253900006D39000010
:100030006D39000025390000695000006D50000046
:100040006D3900006D3900006D3900006D39000018
:100050006D3900006D3900006D3900006D39000008
:100060006D3900006D3900006D3900006D390000F8
:100070006D3900006D3900006D3900006D390000E8
:100080006D3900006D3900006D3900006D390000D8
:100090006D3900006D3900006D3900006D390000C8
:1000A0006D3900006D3900006D3900006D390000B8
:1000B0006D3900006D3900006D3900006D390000A8
:1000C0006D3900006D3900006D3900006D39000098
:1000D0006D3900006D3900006D3900006D39000088
:1000E0006D3900006D3900006D3900006D39000078
:1000F0006D3900006D3900006D3900006D39000068
:100100006D3900006D3900006D3900006D39000057
:100110006D390000314100006D3900006D3900007B
:100120006D3900006D3900006D3900006D39000037
:100130006D3900006D3900006D3900006D39000027
:100140006D3900006D3900006D3900006D39000017
:100150006D3900006D3900006D3900006D39000007
:100160006D3900006D3900006D3900006D390000F7
:100170006D3900006D3900006D3900006D390000E7
:100180006D3900006D3900006D3900006D390000D7
:100190006D3900006D390000584B4CF2205210B5FB
:1001A0001A804DF628121A8000BF00BF03F0E2FB50
:1001B000534B4FF030621A60524A9A60524ADA60EA
:1001C000524B4FF470021A60514A136813F4807353
:1001D00004D150490B604FF4A85313604E4B1A786A
:1001E000110703D51A7842F008021A704B4B4C499C
:1001F0002A221A704B4A4C4B8B4204D252F8040FFD
:1002000043F8040BF8E7494B494900228B4202D2DC
:1002100043F8042BFAE74749474A002352F82300E2
:1002200041F823000133662BF8D1444B444A802126
:1002300003F8011B9342FBD1424B3E4A1A60424BEA
:100240008A221A70A3F5805324225A70A0221A70B1
:100250009A799207FCD59A79D406FCD43B4A9379D3
:1002600003F00C03082B394BF9D103221A714622F3
:100270005A719A799006FCD5344A9179334B4906E4
:10028000FBD5334A4FF08271116009215160202261
:100290001A709A7902F00C020C2AFAD12D4B2E4AD0
:1002A0001A602E4B2E4A1A6000225A60072243F829
:1002B000042C2C4AC3F80C2D62B603F0CBFD154B71
:1002C0001B68DA0705D5284803F0D4FB274B284ADA
:1002D0001A60284B1B785B0609D5244C244B2268F6
:1002E0009A4204D1204803F0C5FB0023236005F0A7
:1002F0005BFC03F045FB04F0C1FEFEE70E20054069
:1003000030800440823F04000100002B88ED00E0B3
:1003100010D0034014D0034002D0074000E0074053
:100320006811FF1F20A70000F806FF1F6811FF1FBC
:100330000019FF1F0002FF1F0000000000E400E0A2
:1003400056E400E008ED00E00050064000400640A2
:100350004480044004800440C010050014E000E024
:10036000BFD40100000020200146D35F1CE0034001
:10037000A5C3945A00F00740FFFFFFFFFFFFFFFFF8
:10038000FFFFFFFFFFFFFFFFFFFFFFFFFFFFFFFF7D
:10039000FFFFFFFFFFFFFFFFFFFFFFFFFFFFFFFF6D
:1003A000FFFFFFFFFFFFFFFFFFFFFFFFFFFFFFFF5D
:1003B000FFFFFFFFFFFFFFFFFFFFFFFFFFFFFFFF4D
:1003C000FFFFFFFFFFFFFFFFFFFFFFFFFFFFFFFF3D
:1003D000FFFFFFFFFFFFFFFFFFFFFFFFFFFFFFFF2D
:1003E000FFFFFFFFFFFFFFFFFFFFFFFFFFFFFFFF1D
:1003F000FFFFFFFFFFFFFFFFFFFFFFFFFFFFFFFF0D
:10040000FFFFFFFFFFFFFFFFFFFFFFFFDEF9FFFF23
:1004100010B5054C237833B9044B13B10448AFF33E
:1004200000800123237010BD6811FF1F0000000031
:100430001CA70000084B10B51BB108490848AFF3D2
:1004400000800848036803B910BD074B002BFBD0A0
:10045000BDE81040184700BF000000006C11FF1FEE
:100460001CA700006811FF1F0000000043680B700C
:1004700043681B0A4B70C3888B70C379CB70836849
:100480000B7183681B0A4B7143898B71C37ACB71E3
:10049000082070470B7843604A7843EA02234360A0
:1004A0008A7843EA02434360CA7843EA02634360BE
:1004B0000B7983604A7943EA022383608A7943EAAD
:1004C00002438360CA7943EA02638360082070476D
:1004D00000487047B49F000000487047C49F000068
:1004E000F0B50C460A788280064614F8010F002306
:1004F00042EA0022B2801A4614F8010F98400833ED
:10050000202B42EA0002F7D1971D062F58D901F19E
:10051000050E551D73464C1913F8010F03F8010C15
:10052000A342F9D100234B5518460D44C6F808E004
:1005300015F8014F84400830202843EA0403F7D11E
:10054000381D0344834209D909320A440446013460
:1005500012F8015F02F8015CA342F8D80138CF1805
:100560000024084407F8014C2246F06017F8015BAC
:1005700095400832202A44EA0504F7D1181D0444A6
:10058000A04209D203330B440246013213F8015F43
:1005900003F8015CA242F8D30D1901380844002386
:1005A00005F8013C3061A8786B780A5DED780104AC
:1005B00041EA0323134343EA0563201D7361F0BD41
:1005C000551D01F1050EADE700487047E89F00009A
:1005D0000048704704A000000B78F0B403710023BA
:1005E00006460C461D4614F8012F9A400833202B6E
:1005F00045EA0205F7D1681D052801F1040708D96D
:100600002C1D3B460C4413F8012F03F8012C9C428F
:10061000F9D10D4400232B71B760F0BC704700BFC7
:100620000048704728A00000004870473CA0000028
:1006300000487047D8A100000048704760A0000043
:100640000048704784A00000004870479CA000004C
:1006500000487047C0A0000000487047D4A00000C8
:1006600003790B70012070470B78037101207047EC
:1006700000487047F8A000000048704708A100003B
:1006800070B4094B81681B68084A094D094C916098
:1006900083B021600193019E036A07482E601362B4
:1006A000036003B070BC70478417FF1FBC16FF1FA8
:1006B000B816FF1F3817FF1F8017FF1F10B4064919
:1006C000064C90F90430064A0B710021236011603A
:1006D0005DF8044B704700BF7417FF1F3417FF1FEE
:1006E000E016FF1F0B78037443690C30184700BFF6
:1006F0008069704700487047F8A0000000487047C4
:1007000008A10000406B704700487047C0A000007F
:1007100000487047D4A0000090F8F804704700BF6C
:1007200004F016BB43682DE9F0470B7043681B0AC1
:100730004B70C3888B70C379CB704368002B00F07B
:1007400085800A4600250426C36853F825301371B6
:100750001C0C1F0A1B0E94715771D371436801352D
:10076000AB42344602F1040206F10406ECD804F16F
:10077000080204F1050A04F1060904F1070804F16E
:10078000090C04F10A0E04F10B0517460C34036939
:100790008B5503691B0A01F80A30438A01F80930B6
:1007A000C37C01F808300369F3B101EB070E75460D
:1007B0000022836953F822300EF822301C0C1E0AE6
:1007C0001B0EAC706E70EB700369013293423C46B5
:1007D00005F1040507F10407EBD804F1050C04F159
:1007E000060EE51D3A460834C3698B54C3691B0ADB
:1007F00001F80C30C38B01F80E30C37F4B55C36931
:100800000BB30F4680460026D8F8243053F8260054
:1008100005F076FCB10005463A19002325FA03F0ED
:100820000833202B02F8010BF8D1D8F82430043417
:10083000381959582A4602F0DBFFD8F81C30013627
:10084000B3422C44E0D82046BDE8F0870822174682
:100850000C240B254FF00A0E4FF0090C4FF007083F
:100860004FF006094FF0050A042690E770B50379AA
:100870000B70064680680D4605F042FC2A46044689
:10088000002324FA03F10833202B02F8011FF8D1CA
:10089000B168681D224602F0ABFF601D70BD00BF4D
:1008A000F8B583880B7083881B0A4B7006468068F6
:1008B0000D4605F025FC030E010A020C6B71A870B1
:1008C0002A71E97002460446B168A81D02F090FF43
:1008D000F06805F015FC611D02462944063400232A
:1008E00022FA03F00833202B01F8010FF8D1043469
:1008F0002819F168144402F07BFF306905F000FC10
:100900002A190746002327FA03F10833202B02F89F
:10091000011BF8D1043428193A46316902F068FF06
:10092000381973692B540544190A1A0C1B0E697087
:10093000AA70EB700430F8BD084604F0F3BA00BFAB
:100940002DE9F04F43680C689C4283B005460E4683
:1009500000F2B3806C60002C00F0B88005F1080C48
:10096000334600274FF0040E9C795A79197993F891
:100970000780E868240444EA02220A4342EA086243
:10098000AA60DCF8002040F827206A680137BA42E4
:10099000714603F104030EF1040EE5D801F10808D5
:1009A00047464B1D881DCA1D01F1090A01F10A0BBA
:1009B00001F10B0901F10C04305CF35C16F80E1028
:1009C00016F802E02A69000440EA03230B4343EAD5
:1009D0000E63934200F290802B613BB305F1140C3F
:1009E000F3194FF0000E9C785A78197893F8038029
:1009F000A869240444EA02220A4342EA08626A61BE
:100A0000DCF8002040F82E202A690EF1010E724514
:100A10003C4603F1040307F10407E4D804F1050A96
:100A200004F1060B04F10709B846083416F80B2048
:100A300016F80A0016F8083016F80970E969120469
:100A400042EA0022134343EA07678F424ED8EF6120
:100A50007FB30027BC4605F1200E0023194630194C
:100A600010F8012B9A400833202B41EA0201F7D1FC
:100A700004F104084144884509D2E31C334442464A
:100A8000013213F8010F03F8010C8A42F8D37218EF
:100A900008F1FF3802F801CC06EB08032B626A6A02
:100AA000DEF8003042F82730EB690137BB420C46D4
:100AB000D3D8204603B0BDE8F08FA100C06805F090
:100AC000E9F86C60E860002C7FF448AF4FF008084C
:100AD00047460C244FF00B094FF00A0B4FF0090A60
:100AE0000722062005234FF0040E65E7B900686A67
:100AF00005F0D0F86862AAE79900A869019305F0AB
:100B0000C9F8019BA86167E7D0ED027A17EE903A29
:100B1000C3F3C752F0B4002A00F0FD8002F5607202
:100B200015016DB2C2F30712F5EEC07AC3F3C344E8
:100B3000F1EE10FA45EA04054FEA43174FF00004BE
:100B40004FEAE30648BF62F07F02DB124B71CA71C5
:100B50008D710C704C708C70CF700E71D0ED037A6B
:100B600017EE903AC3F3C752002A00F0DE8002F578
:100B7000607215016DB2C2F30712F5EEC07AC3F3CD
:100B8000C344F1EE10FA45EA04054FEA43174FF06B
:100B900000044FEAE30648BF62F07F02DB124B73AA
:100BA000CA738D730C724C728C72CF720E73D0ED4F
:100BB000047A17EE903AC3F3C752002A00F0B380CC
:100BC00002F5607215016DB2C2F30712F5EEC07A3C
:100BD000C3F3C344F1EE10FA45EA04054FEA4317A4
:100BE0004FF000044FEAE30648BF62F07F02DB12D9
:100BF0004B75CA758D750C744C748C74CF740E75EE
:100C0000D0ED067A17EE903AC3F3C752002A00F0EF
:100C1000888002F5607215016DB2C2F30712F5EE1D
:100C2000C07AC3F3C344F1EE10FA45EA04054FEA73
:100C300043174FF000044FEAE30648BF62F07F021B
:100C4000DB124B77CA778D770C764C768C76CF7625
:100C50000E77D0ED077A17EE903AC3F3C752002A09
:100C60005DD002F5607215016DB2C2F30712F5EEA8
:100C7000C07AC3F3C344F1EE10FA45EA04054FEA23
:100C800043174FF000044FEAE30648BF62F07F02CB
:100C9000DB1281F8253081F8272081F8265081F871
:100CA000204081F8214081F8224081F8237081F8AA
:100CB0002460D0ED087A17EE903AC3F3C75262B3BE
:100CC00002F56072140164B2C2F30712F5EEC07A45
:100CD000C3F3C340F1EE10FA44EA00044FEA4316AE
:100CE0004FF000004FEAE30548BF62F07F02DB12DD
:100CF00081F82E4081F8280081F8290081F82A0027
:100D000081F82B6081F82C50302081F82D3081F84B
:100D10002F20F0BC7047154606E71446D6E7154667
:100D2000A5E715467BE7154650E7154625E700BFC2
:100D3000CA78520970B442610346087942EAC00297
:100D40005A61487942EAC02058618A79D20402F493
:100D5000F00202435A61CD798E792C0104F4FE64CD
:100D600054EA161403F10C0005D0A4F5607442EAAD
:100D7000C4525A61CD7925F07F0542EA05625A6175
:100D8000CA7A52099A610C7B42EAC4029A614C7B8E
:100D900042EAC4249C618A7BD20402F4F00222431A
:100DA0009A61CD7B8E7B2C0104F4FE6454EA161408
:100DB00005D0A4F5607442EAC4529A61CD7B25F057
:100DC0007F0542EA05629A61CA7C5209DA610C7DAC
:100DD00042EAC402DA614C7D42EAC424DC618A7DC5
:100DE000D20402F4F0022243DA61CD7D8E7D2C0123
:100DF00004F4FE6454EA161405D0A4F5607442EAC3
:100E0000C452DA61CD7D25F07F0542EA0562DA61E0
:100E1000CA7E52095A620C7F42EAC4025A624C7F6F
:100E200042EAC4245C628A7FD20402F4F0022243C4
:100E30005A62CD7F8E7F2C0104F4FE6454EA1614AE
:100E400005D0A4F5607442EAC4525A62CD7F25F001
:100E50007F0542EA05625A6291F8232052099A629C
:100E600091F8244042EAC4029A6291F8254042EA8D
:100E7000C4249C6291F82620D20402F4F00222439A
:100E80009A6291F8275091F826602C0104F4FE64D0
:100E900054EA161406D0A4F5607442EAC4529A6269
:100EA00091F8275025F07F0542EA05629A6291F891
:100EB0002B205209DA6291F82C4042EAC402DA622D
:100EC00091F82D4042EAC424DC6291F82E20D2042D
:100ED00002F4F0022243DA6291F82F5091F82E606A
:100EE0002C0104F4FE6454EA161406D0A4F56074D0
:100EF00042EAC452DA6291F82F5025F07F0542EAA7
:100F00000562DA6270BC1B6B184700BFCB785B09C7
:100F100030B483600A7943EAC20383604A7943EAC2
:100F2000C22282608B79DB0403F4F00313438360F5
:100F3000CC798D79220102F4FE6252EA151205D0B5
:100F4000A2F5607243EAC2538360CC7924F07F0437
:100F500043EA04638360CB7A5B09C3600A7B43EA9C
:100F6000C203C3604A7B43EAC222C2608B7BDB04BC
:100F700003F4F0031343C360CC7B8D7B220102F4A6
:100F8000FE6252EA151205D0A2F5607243EAC2531E
:100F9000C360CC7B24F07F0443EA0463C360CB7C52
:100FA0005B0903610A7D43EAC20303614A7D43EAA8
:100FB000C22202618B7DDB0403F4F003134303615F
:100FC000CC7D8D7D220102F4FE6252EA151205D01D
:100FD000A2F5607243EAC2530361CC7D24F07F0422
:100FE00043EA04630361CB7E5B0983610A7F43EAC2
:100FF000C20383614A7F43EAC22282618B7FDB04A2
:1010000003F4F00313438361CC7F8D7F220102F44C
:10101000FE6252EA151205D0A2F5607243EAC2538D
:101020008361CC7F24F07F0443EA0463836191F8F9
:1010300023305B09C36191F8242043EAC203C361F2
:1010400091F8252043EAC222C26191F82630DB04E0
:1010500003F4F0031343C36191F8274091F826503D
:10106000220102F4FE6252EA151206D0A2F5607265
:1010700043EAC253C36191F8274024F07F0443EA56
:101080000463C36191F82B305B09036291F82C2053
:1010900043EAC203036291F82D2043EAC2220262AE
:1010A00091F82E30DB0403F4F0031343036291F84C
:1010B0002F4091F82E50220102F4FE6252EA1512DE
:1010C00006D0A2F5607243EAC253036291F82F4042
:1010D00024F07F0443EA0463036230BC302070478D
:1010E000CB785B0930B443600A7943EAC2034360BA
:1010F0004A7943EAC22242608B79DB0403F4F003AD
:1011000013434360CC798D79220102F4FE6252EAE6
:10111000151205D0A2F5607243EAC2534360CC7940
:1011200024F07F0443EA04634360CB7A5B09836065
:101130000A7B43EAC20383604A7B43EAC22282609D
:101140008B7BDB0403F4F00313438360CC7B8D7B48
:10115000220102F4FE6252EA151205D0A2F5607275
:1011600043EAC2538360CC7B24F07F0443EA0463E8
:101170008360CB7C5B09C3600A7D43EAC203C36022
:101180004A7D43EAC222C2608B7DDB0403F4F00394
:101190001343C360CC7D8D7D220102F4FE6252EACE
:1011A000151205D0A2F5607243EAC253C360CC7D2C
:1011B00024F07F0443EA0463C36030BC1820704706
:1011C000D0ED017A17EE903AC3F3C752F0B4002A7B
:1011D00071D002F5607215016DB2C2F30712F5EE1F
:1011E000C07AC3F3C344F1EE10FA45EA04054FEAAE
:1011F00043174FF000044FEAE30648BF62F07F0256
:10120000DB124B71CA718D710C704C708C70CF7089
:101210000E71D0ED027A17EE903AC3F3C752002A4E
:101220004DD002F5607215016DB2C2F30712F5EEF2
:10123000C07AC3F3C344F1EE10FA45EA04054FEA5D
:1012400043174FF000044FEAE30648BF62F07F0205
:10125000DB124B73CA738D730C724C728C72CF722B
:101260000E73D0ED037A17EE903AC3F3C75222B350
:1012700002F56072140164B2C2F30712F5EEC07A8F
:10128000C3F3C340F1EE10FA44EA00044FEA4316F8
:101290004FF000004FEAE30548BF62F07F02DB1227
:1012A0008C75087448748874CE740D7518204B754D
:1012B000CA75F0BC7047154691E71446DEE715463F
:1012C000B5E700BFF0B585B0364A01920368364DE8
:1012D000039503228DF808201B6834498B425AD1AC
:1012E00000233821044680F8232205F1300E80F8CF
:1012F000241280F8253280F8263280F8273200F553
:101300000A772E460FCE764538607960BA60FB606A
:10131000354607F11007F4D103CD00227960C223CE
:101320004FF0FF0EFE263D250721386084F820325D
:1013300084F81CE284F81D6284F81E5284F81F228F
:1013400084F8222284F8211204F2212304F25F207F
:1013500001E013F8011F83420A44FAD1D243144E2C
:1013600084F8602204F21B2504F5187703E003F0EB
:10137000D9FDBD420BD0626815F8011F13681B68C8
:10138000B3420846F3D010469847BD42F3D14FF020
:10139000FF3005B0F0BD01AA072198474FF0FF309C
:1013A00005B0F0BD009F00002CA10000B5130000A7
:1013B000390900002DE9F041632984B003DD90F87C
:1013C000F874002F53D0136805460F4610461B686B
:1013D00005F223219847C2B2C0F30721561885F8B9
:1013E0001E2247F30722F643FF234FF0FE0EFCB206
:1013F00085F82222421C85F8206285F81F1285F8A4
:101400001C3285F81DE285F821420DDB00F2222115
:10141000294405F22123002201E013F8014F9942EB
:101420002244FAD1D343DBB22A1800F10807B7F5FA
:10143000007F82F823321EDC002F05F5077616DDCB
:101440000730DFF81081064405F21B2403E003F0A7
:1014500069FDB4420BD06A6814F8011F13681B6859
:1014600043450846F3D010469847B442F3D1384676
:1014700004B0BDE8F081344A0192344C2B680394E7
:1014800003228DF808201B6831498B4255D1002377
:10149000382185F8232204F1300E85F8241285F8CE
:1014A000253285F8263285F8273205F50A76274653
:1014B0000FCF774530607160B260F3603C4606F153
:1014C0001006F4D103CC00227160C2234FF0FF0E4E
:1014D000FE273D240721306085F8203285F81CE284
:1014E00085F81D7285F81E4285F81F2285F8222294
:1014F00085F8211205F2212305F25F2001E013F89F
:10150000011F98420A44FAD1D243DFF8488085F897
:10151000602205F21B2405F5187603E003F002FDB6
:10152000B4420ED06A6814F8011F13681B68434563
:101530000846F3D010469847F2E7284601AA07214B
:1015400098474FF0FF3093E7009F00002CA1000068
:10155000B51300003909000010B52B4C002304F22C
:101560007C421146C4F8E434C4F8E834C4F8F034DA
:10157000C4F8EC3402E00133192B0AD051F8040FFF
:101580000028F8D103F59070204944F82010643306
:101590004B60002302E00133192B0AD052F8041FDC
:1015A0000029F8D103F59071194A44F821206433D9
:1015B00053600121142002F0F9FB0121084602F0DA
:1015C000F5FB0121152002F0F1FB0121082002F0BA
:1015D000EDFB0121062002F0E9FB0121052002F0CC
:1015E000E5FB0121112002F0E1FB01210E2002F0B8
:1015F000DDFB0121112002F0D3FB01210E20BDE80B
:10160000104002F0CDBB00BF8411FF1F3C17FF1F2D
:10161000E416FF1F2DE9F04FDFF840B3C34CDBF8B1
:10162000003093B042F6F8220793DDF81CA0D4F8FE
:101630000035C3EB0A03934284BF002384F8F834D7
:10164000D4F8E434B94A33B1D2F804359A4584BFAA
:101650000023C2F8E434B64EB44DA2693AB1DBF8C7
:1016600000300B930B9BCAEB03039A4227D36068AD
:1016700003685B69B34240F0778103F069FB00289F
:10168000C0F27681D4F8F434D4F8E424A74F0344AC
:10169000072AC4F8F43400F03581002A40F0F680BF
:1016A000FF2800F0C381DBF800300A930A9B41F267
:1016B0008831CAEB03038B42CFD987F8F824DBF8D3
:1016C00000309C4A05931168059B42F20F725B1A29
:1016D000934205D99849994B3220002208601A603C
:1016E000974BDFED986AD3ED007A974EDBF8003028
:1016F000069386EEA77A069F3368FB1A07EE903AA8
:10170000F8EE677AF4EEC77AF1EE10FA40F305824C
:10171000DFF82492D9F800000A2800F0E7821428A4
:1017200000F066841E2800F09483282840F0198277
:10173000DFF80882D8F800A0BAF1000F40F0EC8181
:101740005146142002F02CFBDFF81492DFF814B29B
:10175000764D0121084602F023FBD9ED007AFDEE1B
:10176000E77A152017EE901A02F096F951460820F4
:1017700002F016FB0121062002F012FBDBED007ADD
:10178000FDEEE77A052017EE901A02F085F90121A7
:10179000112002F005FB01210E2002F001FBD9ED22
:1017A000007A9BED007A69496948BDEEC77AFDEE83
:1017B000E77A17EE103A17EE902A04F063FC012343
:1017C000634884F8233204F09BFC81464FEA1941B8
:1017D000000A4FEA19634A4684F8250284F8261263
:1017E00005F50A705A4984F8273284F8249201F0EA
:1017F000FFFF09F10500C3B2C0F307215A18D24315
:1018000084F82022FE2284F81E3284F81F12FF235F
:10181000072184F81D22421C84F822A284F81C327D
:1018200084F821120DDB09F2272E5246AE4405F250
:10183000212301E013F8011F9E450A44FAD1D34346
:10184000DBB2211800F10802B2F5007F81F82332E3
:10185000364800F35C81002A40F35B8109F50A7980
:1018600000EB090A3B4D00F21B2904E003F05AFB90
:10187000CA4500F04E81626819F8011F13681B68A1
:10188000AB420846F2D010469847F1E7012A00F033
:10189000D580022A00F02681032A00F02E81042A36
:1018A00000F03E81052A00F04B81062A00F0FC8101
:1018B000082A7FF4D2AE284F1F4000239F42C4F86D
:1018C000E434C0F23F84FF2F7FF4C7AED4F8EC3489
:1018D000DFF85880002B00F0C8850A2B00F06984DF
:1018E000062B00F0B3840B2B00F05E84BC3355F85C
:1018F000230000283FF4B1AE036808F11C011B6807
:101900009847AAE6D5F8F024D5F8E834A918013BA1
:1019100001320877C5F8F024C5F8E834002B7FF4CD
:101920009CAE0823C4F8E43497E600BF8411FF1F7F
:1019300021070000B816FF1F3417FF1FE016FF1F16
:10194000F806FF1F00007A447C17FF1F9CA10000CF
:101950000017FF1F39090000FF0000808417FF1FD8
:101960003817FF1F8017FF1F98470028BFF68AAE61
:1019700094F8F834D448002B3FF4A1AED0F8FC34EE
:1019800040F6C412C3EB0A0393427FF698AEFF23DE
:10199000FE21002280F81C3280F81D12F723082552
:1019A0000A2180F8203280F8232280F8242280F84F
:1019B000252280F8262280F8272280F8282280F825
:1019C000292280F82A2280F81F2280F8222280F81B
:1019D0001E5280F8211200F2212300F22A2001E099
:1019E00013F8011F98420A44FAD1B84EB84DD243B9
:1019F00084F82B2206F10F07FF2005E003F092FA8E
:101A0000BE420BD016F8010F626813681B68AB4228
:101A10000146F3D010469847BE42F3D1DBF80030C0
:101A20000F930F9BC4F8FCA4E36048E601220AF17F
:101A30001403C5F8E424C5F804350EE6FE287BD06F
:101A400095F8F8240023C5F8E434002A7FF405AEA5
:101A5000FF23FE21082085F81C3285F81D12F7238C
:101A60000A2185F8203285F8232207F2212385F800
:101A7000242285F8252285F8262285F8272285F854
:101A8000282285F8292285F82A2285F81F2285F840
:101A9000222285F81E0285F8211207F22A2701E08A
:101AA00013F8011FBB420A44FAD1DFF82082884FA5
:101AB000D24384F82B2208F10F09FF2101E018F826
:101AC000011F626813681B68BB42084640F021850D
:101AD00003F028FAC145F2D1DBF800300993099BE5
:101AE000E360BAE500220323C5F8E804C5F8F4046E
:101AF000C5F8F024C5F8E434AFE5D5F8E83403EBD5
:101B000000200423C5F8E804C5F8E434A5E5FFF790
:101B1000D9FB0123C8F80030376013B0BDE8F08F5F
:101B20006C4A1A40002AC0F28F81FF2A0CBF05239D
:101B30000023C4F8E43490E50223C5F8E4348CE5CE
:101B40000623C5F8EC04C5F8F404C5F8E43484E5CC
:101B5000FFF7B8FBD9F8000001232828C8F80030A7
:101B6000DAD03228D8D1DFF88081D8F800A0BAF1D5
:101B7000000FD1D10121112002F012F901210E2014
:101B800002F00EF95146142002F00AF951460120E4
:101B900002F006F95146152001F07EFF514608205B
:101BA00002F0FEF85146062002F0FAF851460520F0
:101BB00001F072FF484A494B92ED007AD3ED007A6A
:101BC00047494848404DBDEEC77AFDEEE77A17EE2B
:101BD000103A17EE902A04F055FA0123414884F890
:101BE000233204F08DFA81464FEA1941000A4FEA88
:101BF00019634A4684F8250284F8261205F50A700E
:101C0000384984F8273284F8249201F0F1FD09F173
:101C10000500C3B2C0F307215A18D24384F820222A
:101C2000FE2284F81E3284F81F12FF23072184F855
:101C30001D22421C84F822A284F81C3284F821124E
:101C40000DDB09F2272E5246AE4405F2212301E0B6
:101C500013F8011F9E450A44FAD1D343DBB2211881
:101C600000F10802B2F5007F81F8233216483FF7F1
:101C70004EAF002A7FF74DAF09F50A7900EB090A4C
:101C8000134D00F21B2904E003F04CF9CA453FF460
:101C900040AF626819F8011F13681B68AB42084621
:101CA000F2D010469847F1E7D5F8EC34D5F8E8249F
:101CB00003EB00230721C5F8EC34C5F8E414002A2F
:101CC0003FF42FAEC9E400BF8411FF1FA013FF1F14
:101CD00039090000FF0000808017FF1F3817FF1F21
:101CE000B0A100000017FF1FE016FF1FDFF8F88209
:101CF000D8F800B0BBF1000F7FF40EAFB44BDFF8A3
:101D0000ECA200930121142002F04AF85946012068
:101D100002F046F8DAED007AAE4DFDEEE77A1520D6
:101D200017EE901A01F0B8FE0121082002F038F8F1
:101D30005946062002F034F8009BD3ED007AFDEE00
:101D4000E77A052017EE901A01F0A6FE59461120F9
:101D500002F026F859460E2002F022F8009BDAED38
:101D6000007A93ED007A9C499C48BDEEC77AFDEE5F
:101D7000E77A17EE103A17EE902A04F083F9012360
:101D8000964884F8233204F0BBF982464FEA1A41A0
:101D9000000A4FEA1A63524684F8250284F8261294
:101DA00005F50A708D4984F8273284F824A201F0E1
:101DB0001FFD0AF10501CBB2C1F307201A18D24367
:101DC00084F82022FE2284F81E3284F81F02FF23AA
:101DD000072084F81D224A1C84F822B284F81C32A1
:101DE00084F821020DDB0AF2272E5A46AE4405F292
:101DF000212301E013F8010F73450244FAD1D343C4
:101E0000DBB262180831B1F5007F82F823327148E5
:101E100000F3A781002940F3A6810AF50A7A704DE4
:101E2000824400F21B2B04E003F07CF8D34500F061
:101E30009A8162681BF8011F13681B68AB42084651
:101E4000F2D010469847F1E7013A62F0FF02013202
:101E50006BE6DFF89481D8F80050002D7FF45CAE7B
:101E6000DFF888A1DAED007AF5EEC07AF1EE10FA2B
:101E700040F38D810121142001F092FF29460120B9
:101E800001F08EFFDAED007ADFF844B1FDEEE77A7B
:101E9000152017EE901A01F0FFFDDBED007AF5EE4C
:101EA000C07AF1EE10FA40F365810121082001F0BB
:101EB00077FF0021062001F073FFDBED007A454D2E
:101EC000FDEEE77A052017EE901A01F0E5FD0021FE
:101ED000112001F065FF00210E2001F061FFDAED15
:101EE000007A9BED007A3F493C48BDEEC77AFDEE93
:101EF000E77A17EE103A17EE902A04F0C3F80123A0
:101F0000364884F8233204F0FBF8010A4FEA104EF9
:101F1000030E8246024684F8251205F50A702F4901
:101F200084F826E284F8273284F824A201F060FCC9
:101F30000AF10500C1B2C0F3072E01EB0E02D24335
:101F4000FF2384F81E124FF0FE0C84F82022072194
:101F50000022B0F1FF3F84F81FE284F81C3284F8BD
:101F60001DC284F8211284F822220CDB0AF2272EEB
:101F7000AE4405F2212301E013F8011F9E450A44F7
:101F8000FAD1D343DBB2211800F10802B2F5007F89
:101F900081F823320F483FF7DBAD002A7FF7DAAD37
:101FA0000AF50A7A00EB0A0B0D4D00F21B2A04E039
:101FB00002F0B8FFD3453FF4CDAD62681AF8011FB7
:101FC00013681B68AB420846F2D010469847F1E709
:101FD0008017FF1F8411FF1F68A100000017FF1F5B
:101FE0003909000088A10000E016FF1F3817FF1F05
:101FF000DFF84C82D8F800B0BBF1000F7FF48CAD55
:10200000884BDFF840A20093012101F0C9FE594638
:10201000012001F0C5FEDAED007A834DFDEEE77A8E
:10202000152017EE901A01F037FD0121082001F06C
:10203000B7FE5946062001F0B3FE009BD3ED007AAF
:10204000FDEEE77A052017EE901A01F025FD5946BE
:10205000112001F0A5FE59460E2001F0A1FE009BC3
:10206000DAED007A93ED007A70497148BDEEC77AD7
:10207000FDEEE77A17EE103A17EE902A04F002F818
:1020800001236B4884F8233204F03AF882464FEA81
:102090001A41000A4FEA1A63524684F8250284F86E
:1020A000261205F50A70624984F8273284F824A2C2
:1020B00001F09EFB0AF10501CBB2C1F307201A180B
:1020C000D24384F82022FE2284F81E3284F81F02B4
:1020D000FF23072084F81D224A1C84F822B284F8CA
:1020E0001C3284F821020DDB0AF2272E5A46AE4438
:1020F00005F2212301E013F8010F73450244FAD1E0
:10210000D343DBB262180831B1F5007F82F8233285
:1021100045481DDC00291DDD0AF50A7A454D82443B
:1021200000F21B2B03E002F0FDFEDA4512D06268DC
:102130001BF8011F13681B68AB420846F3D010461A
:102140009847F2E7013F67F0FF070137FFF7BBBB96
:10215000FFF7B8F80123D9F80000C8F80030FFF7FE
:10216000E1BAFFF7AFF80123D9F80000C8F8003052
:10217000FFF7D5BA7FF5A3AE0021082001F010FECD
:102180000121062001F00CFEDBED007A97E67FF5D9
:102190007BAE2946142001F003FE0121084601F020
:1021A000FFFDDAED007A6FE6002385F8F834FFF7DB
:1021B00054BADBF800300C930C9BEA68DBF8001093
:1021C0000E911D492F6ADFF880E0DDF838C09B1AB8
:1021D000A1FB031080094FF47A71BE44174FEA69DE
:1021E00001FB103307FB03EE134BA3FB0C394FEA43
:1021F0009919013A01FB19C1024407FB11E3C9EB2C
:10220000020208F1140108F110006B612A6101F06B
:10221000DBFADBF800300D930D9BC5F80035FFF7B6
:102220001CBA00BF8017FF1F8411FF1F78A1000098
:102230000017FF1F39090000D34D621040420F0004
:10224000E016FF1F3817FF1F00CA9A3BEF69D5F849
:1022500010359F4206D9B900D5F8180503F01AFDCC
:10226000C5F81805C4F81075002F00F0ED80AB4FCD
:10227000042107F2145C4FF0000E97F8223097F813
:10228000210097F820201B0443EA002397F823003D
:10229000134343EA0063C4F81435D4F81835DCF866
:1022A000000043F82E00D4F810350EF1010E7345EE
:1022B0000A4607F1040701F10401DED802F109031F
:1022C00002F10809029102F10B01501D02F1060E04
:1022D00002F1070C01934F4602F10A0300910C3200
:1022E000A64402999EF81CE02044214490F81C80EA
:1022F000097FA4444FEA0E4E4EEA082E9CF81C00BB
:102300004EEA010ED4F81C154EEA006888450BD938
:102310004FEA8801D5F824050392029303F0BAFC32
:10232000039A029BC5F82405C4F81C85B8F1000F78
:1023300000F08880DFF8F4E1EA190021937F92F839
:102340001DC0107F1B0443EA0C2392F81FC00343F7
:1023500043EA0C63CEF80030D4F82435DEF80000F0
:1023600043F82100D4F81C3501318B42384602F184
:10237000040207F10407E1D8431DC21DB9460193C9
:102380000092831D00F10807019A22442344107F24
:10239000009A197FD4F828352244A14496460904AE
:1023A00099F81C209EF81C8041EA00210A4342EA69
:1023B0000868984507D94FEA8801D5F8300503F039
:1023C00069FCC5F83005C4F82885B8F1000F34D091
:1023D0005349002201F5A26C964607F11C0900231F
:1023E000A144984619F8010B98400833202B48EA7D
:1023F0000008F7D1381D804440450AD207F11F0379
:1024000023440746013793F8019003F8019B4745A1
:10241000F8D304EB0803013883F81BE00844D4F830
:102420003035C4F82C05DCF8000043F82200D4F85D
:102430002835013293424746CFD8012384F8083526
:10244000FFF70BB917469FE709210B234FF0080947
:102450000191042100934F460C220A234FF0070CF0
:102460004FF0060E052002913AE7994608F2232123
:102470002C4B0F930FA8CDF84090CDF84490FDF76A
:10248000F5FFC1B2C0F307228B18DB4388F81E1298
:10249000FE2588F820320A21431C88F81C7288F82F
:1024A000229288F81F2288F81D5288F82112C0F263
:1024B000D98200F222254B46454408F2212201E050
:1024C00012F8011FAA420B44FAD1DB43DBB22218F7
:1024D00000F10801B1F5007F82F823320F4F00F3BD
:1024E0007682002924DD00F223203E180E4D07F2EB
:1024F0001B2703E002F016FDB74219D0626817F8F7
:10250000011F13681B68AB420846F3D0104698477A
:10251000F2E710469847FFF7DDBA00BF8411FF1FAE
:10252000A011FF1FD09E000039090000A416FF1F54
:10253000DBF800300893874BCDF804A01A46089BBF
:10254000E360134664330093A2F5836592465AF81C
:10255000043F002B00F0188158689A6801680292C5
:10256000D3F800908B689847DAF8003080465868B6
:102570000368DB689847DAF80030029A1E69632E18
:10258000074604DD94F8F834002B00F0FD80C2F318
:102590000723484684F8232284F8243203F0B0FD50
:1025A0000346020A000C4FEA136E494684F82622BD
:1025B00084F827021A46684884F82532029384F882
:1025C00028E201F015F9404603F09AFD029B02460D
:1025D00003F2292020440633002122FA01FE0831AB
:1025E000202900F801EBF8D15C4804334146184437
:1025F00002EB030801F0FCF8384603F081FD08F215
:10260000232281462244002329FA03F10833202B98
:1026100002F8011BF8D1514B08F10408394603EBCD
:1026200008004A4601F0E4F809EB0800071D5FFACC
:1026300087FCC7F3072E04EB00080CEB0E01002209
:10264000C943022388F8243288F8232288F82522F7
:1026500088F8262284F82012F1B246F30726FF23D9
:102660004FF0FE0884F822627E1C84F81EC284F8B3
:102670001FE284F81C3284F81D8284F821120BDBDF
:1026800000F22626364B2E4401E013F8011FB34218
:102690000A44FAD1D343DBB2E2190837B7F5007F19
:1026A00082F8233216DC002F6EDD00F227202D4E3B
:1026B0002F1803E002F036FCB74265D062682A4862
:1026C000136816F8011F1B6883420846F2D01046B3
:1026D0009847F1E7254F264E0FCF0FC60FCF0FC6F5
:1026E0000FCF0FC697E8030000234FF0030E3827E3
:1026F000FF2285F823E285F824724FF0FE0E3D2775
:1027000085F8253285F8263285F8273286E80300D9
:10271000C22085F81C220722A6F1370185F81F3256
:1027200085F82232073685F81DE285F81E7285F895
:10273000200285F8212201E011F8012F8E42134476
:10274000FAD10C4EDB4384F8603206F14407FF21D6
:1027500014E000BF9C15FF1FAD13FF1FA713FF1F41
:10276000A513FF1F9F13FF1F390900002CA10000B4
:10277000AC13FF1FA013FF1F16F8011F606803684A
:102780001B689847BE42F7D1009B9A457FF4DFAEA5
:10279000B54BDDF800A0A3F59C655AF8040F00289E
:1027A00000F0068190E80C0000939268D0F8089041
:1027B00090478046DAF800000268D26890470746E2
:1027C000DAF8000002685268904763280646009BCA
:1027D00004DD94F8F824002A00F0EA80C3F307220D
:1027E000484684F8233284F8242203F089FC034607
:1027F000020A000C4FEA136E494684F8262284F838
:1028000027021A46994884F82532009384F828E272
:1028100000F0EEFF404603F073FC009B024603F21B
:10282000292020440633002122FA01FE0831202904
:1028300000F801EBF8D18E4804334146184402EB0E
:10284000030800F0D5FF384603F05AFC08F22322B3
:1028500081462244002329FA03F10833202B02F891
:10286000011BF8D1824B08F10408394603EB08003C
:102870004A4600F0BDFF09EB0800071D5FFA87FC20
:10288000C7F3072E04EB00080CEB0E010022C9432E
:10289000022388F8243288F8232288F8252288F831
:1028A000262284F82012F1B246F30726FF234FF0C8
:1028B000FE0884F822627E1C84F81EC284F81FE29F
:1028C00084F81C3284F81D8284F821120BDB00F29C
:1028D0002626684B2E4401E013F8011FB3420A4438
:1028E000FAD1D343DBB2E2190837B7F5007F82F89B
:1028F000233216DC002F5BDD00F227205E4E2F18FE
:1029000003E002F00FFBBE4252D062685B481368DE
:1029100016F8011F1B6883420846F2D010469847FC
:10292000F1E7574F574E0FCF0FC60FCF0FC60FCF40
:102930000FC697E8030000234FF0030E3827FF224D
:1029400085F823E285F824724FF0FE0E3D2785F8C6
:10295000253285F8263285F8273286E80300C22022
:1029600085F81C220722A6F1370185F81F3285F869
:102970002232073685F81DE285F81E7285F820029E
:1029800085F8212201E011F8012FB1421344FAD158
:102990003D4EDB4384F8603206F14407FF2101E03D
:1029A00016F8011F606803681B689847B742F7D1A3
:1029B0002D4B9A457FF4F1AEDDF804A0C4F8FCA4D9
:1029C0000123C4F800A584F8F834FEF778BE2C4E35
:1029D0000FCE07F50A750FC50FCE0FC50FCE0FC569
:1029E00096E8030000230326382287F8236287F83D
:1029F000242287F8253287F8263287F827324FF0CD
:102A0000FF0C85E803004FF0FE0E3D264FF0C20894
:102A1000072187F81F3287F822321A46A5F13700BE
:102A2000EB1D87F81CC287F81DE287F81E6287F845
:102A3000208287F8211201E010F8011F83420A4426
:102A4000FAD1114DD34384F8603205F14406FF21D9
:102A5000606803681B689847B5423FF469AD15F894
:102A6000011FF5E73B4632E56416FF1FAD13FF1F5C
:102A7000A713FF1FA513FF1F9F13FF1F3909000096
:102A80002CA10000AC13FF1FA013FF1F2DE9F04F76
:102A90008DB0D04AD04B06920022044600F58366E2
:102AA00000F27C45ADF81C200B92089309930A9321
:102AB00056F8043F002B00F0D28058681F68016868
:102AC0009A6808978B68ADF81C209847336809907E
:102AD00058680368DB689847236831680A904FF4A8
:102AE00000721B68D1F810800B92BC4A9342824658
:102AF00040F0B581B8F1630F04DD94F8F834002B91
:102B000000F0AD80BDF81C30DDF8209084F8233251
:102B10001B0A84F82432484603F0F2FA07463B0EBB
:102B20003A0C000A494684F8283284F8257284F861
:102B3000260284F8272204F229203A4600F058FEA3
:102B4000DDF824B0584603F0DBFA04F22329791D9E
:102B5000024606374944002322FA03F00833202BAB
:102B600001F8010FF8D10437594609EB0700174463
:102B700000F03EFE504603F0C3FA09EB070283461D
:102B800000232BFA03F10833202B02F8011BF8D1A4
:102B90000437514609EB07005A4600F029FE0BEBBB
:102BA000070E0EF104075FFA87FAC7F3072C09EB4B
:102BB0000E010AEB0C000022C0434FF0020B09F893
:102BC0000E20FF238A70CA7081F801B04FF0FE0911
:102BD0005FFA88F184F8200248F30728781C84F80B
:102BE0001EA284F81FC284F81C3284F81D9284F857
:102BF000211284F82282C0F20A820EF2262020449A
:102C000004F2212301E013F8011F98420A44FAD18B
:102C1000D243D2B2E11907F10803B3F5007F81F87E
:102C2000232200F32481002B04F5077717DD0EF132
:102C30000B0EDFF8AC91774404F21B2803E002F09E
:102C400071F947450BD0626818F8011F13681B68BB
:102C50004B450846F3D0104698474745F3D1B54257
:102C60007FF426AFDFF8749104F59C6855F8040FE3
:102C7000002800F0E3808168036842680891ADF89D
:102C80001C209B6898472B6809901A681846D368DF
:102C900098472B6821680A901A680E6852684FF4AA
:102CA000007118460B9190474E45074640F0CF8083
:102CB000632804DD94F8F834002B00F0BF80BDF8E1
:102CC0001C30089E84F823321B0A84F824323046D4
:102CD00003F016FA82464FEA1A634FEA1A42000AD4
:102CE000314684F8283284F825A284F8260284F834
:102CF000272204F22920524600F07AFD0999019119
:102D0000084603F0FDF904F223260AF105020199B1
:102D100083460AF1060A324400232BFA03F00833F3
:102D2000202B02F8010FF8D10AF1040A5A4606EBEB
:102D30000A0000F05DFD0A990191084603F0E0F9F0
:102D4000D3440199824606EB0B0200232AFA03F0D2
:102D50000833202B02F8010BF8D10BF1040B06EB22
:102D60000B00524600F044FD0AEB0B020B9BB354E0
:102D7000111D16445FFA81FCC1F3072E4FEA132B95
:102D80004FEA134A0CEB0E001B0E86F801B086F8D2
:102D900002A0F370C043FEB24FF0FF0B4FF0FE0AEB
:102DA00047F307274B1C84F8200284F81EC284F8DE
:102DB0001FE284F81CB284F81DA284F8216284F812
:102DC000227218DB02F22627274404F22123002076
:102DD0000AE000BFE89E000064A10000B5130000F7
:102DE0003909000013F8016FBB423044FAD16FEA91
:102DF000000B5FFA8BFB63180831B1F5007F83F895
:102E000023B200F3A080002904F5077716DD0B320A
:102E1000DFF820A2174404F21B2603E002F082F838
:102E2000BE420BD0626816F8011F13681B68534539
:102E30000846F3D010469847BE42F3D1A8457FF428
:102E400015AF012384F8F8340DB0BDE8F08F0146CA
:102E500006AA2046B047A8457FF408AFF1E74146EF
:102E600006AA20469847B5427FF422AEFAE66E499C
:102E7000039103226D49236805918DF810201B688A
:102E80006B498B4240F0CA80684F84F823220023AC
:102E9000382207F1300884F8242284F8253284F897
:102EA000263284F8273204F50A7EBC46BCE80F00BF
:102EB000C445CEF80000CEF80410CEF80820CEF8B5
:102EC0000C3067460EF1100EEFD103CF0022CEF882
:102ED0000000CEF804103D20C2234FF0FF0CFE2767
:102EE000072184F81E0284F8203284F81CC284F87A
:102EF0001D7284F81F2284F8222284F8211204F221
:102F0000212304F25F2001E013F8011F98420A44D4
:102F1000FAD1D243DFF81C9184F8602204F21B2717
:102F200004F5187804E001F0FDFF47453FF497AE43
:102F3000626817F8011F13681B684B450846F2D0FA
:102F400010469847F1E7384903910322236837492F
:102F500005918DF810201B684B455AD1002384F849
:102F6000232238220E4601F1300C84F8242284F802
:102F7000253284F8263284F8273204F50A77B646DB
:102F8000BEE80F00E64538607960BA60FB607646BF
:102F900007F11007F3D103CE0022386079603D209D
:102FA000C2234FF0FF0EFE26072184F81E0284F88C
:102FB000203284F81CE284F81D6284F81F2284F811
:102FC000222284F8211204F2212304F25F2001E07E
:102FD00013F8011F98420A44FAD1D243DFF854A0F3
:102FE00084F8602204F21B2604F5187704E001F04F
:102FF00099FFBE423FF422AF626816F8011F1368C2
:103000001B6853450846F2D010469847F1E71A4628
:1030100000E603AA0721204698470FE703AA0721E5
:10302000204698471BE600BF009F00002CA100002F
:10303000B5130000390900002DE9F04FC74E93B0D9
:1030400033680693069DD0F8003542F6F822EB1A55
:10305000934284BF002380F8F834D0F8E434044667
:1030600033B1D0F80435AB423CBF0023C0F8E434A0
:10307000BB4FDFF8FCB2A26932B133680793079BFC
:103080005B1B9A42C0F02481606803685B69BB42A5
:1030900066D101F05DFE002865DBD4F8F434D4F885
:1030A000E4240344072AC4F8F43447D082B9FF2843
:1030B00069D033680893089B41F288315B1B8B42CF
:1030C000D9D984F8F8246FF0010013B0BDE8F08F6F
:1030D000012A60D0022A00F0BF80032A00F0C780D6
:1030E000042A00F0CE80052A00F0DB80062A00F0DA
:1030F000E080082ABFD19B4A1A4000239A42C4F8B4
:10310000E434C0F26081FF2AB5D1D4F8EC34002B4E
:1031100000F094820A2B00F05E82062B00F05C81A6
:103120000B2B00F05581BC3354F823000028A2D0AB
:10313000036804F11C011B6898479CE7D4F8F0343D
:10314000E2180133C4F8F0341077D4F8E834013BC6
:10315000C4F8E834002B8ED10823C4F8E4348AE79D
:103160009847002899DA94F8F8040028ADD0D4F8EC
:10317000FC3440F6C412EB1A934200F2AE800020F9
:1031800013B0BDE8F08F012205F11403C4F8E42464
:10319000C4F804356FE7FE287FD094F8F8240023A4
:1031A000C4F8E434002A7FF466AF6F4923680F91B6
:1031B0001B686E4910928B42119240F0FF80FF21F4
:1031C0000820F7234FF0FE0E84F81C120A2184F821
:1031D0001E0284F8203284F8232284F8242284F802
:1031E000252284F8262284F8272284F8282284F8CD
:1031F000292284F82A2284F81F2284F8222284F8C3
:103200001DE284F8211204F2212304F22A2001E0B5
:1032100013F8011F98420A44FAD1D243DFF85491BF
:1032200084F82B2204F21B2804F22B2A03E001F07D
:1032300079FEC2450BD0626818F8011F13681B683D
:103240004B450846F3D010469847C245F3D1336842
:103250000993099BE3600EE700220323C4F8E80406
:10326000C4F8F404C4F8F024C4F8E43403E7D4F850
:10327000E83403EB00200423C4F8E804C4F8E43481
:10328000F9E6384A1A40002AC0F28580FF2A0CBFAE
:1032900005230023C4F8E434EDE60223C4F8E43443
:1032A000E9E60623C4F8EC04C4F8F404C4F8E434F2
:1032B000E1E6D4F8EC34D4F8E82403EB002307214A
:1032C000C4F8EC34C4F8E414002A3FF445AFD2E665
:1032D0006FF0010013B0BDE8F08F234A23680F920E
:1032E0001B68224900228B421092119258D1FF2173
:1032F0000820F723FE2784F81C120A2184F81E02F6
:1033000084F8203284F8232284F8242284F82522A9
:1033100084F8262284F8272284F8282284F8292297
:1033200084F82A2284F81F2284F8222284F81D724D
:1033300084F8211204F2212304F22A2001E013F878
:10334000011F98420A44FAD1D243DFF8288084F85A
:103350002B2204F21B2704F22B2911E08417FF1FF4
:1033600021070000FF000080D09E0000B513000080
:1033700040420F003909000001F0D4FDB94513D0D7
:10338000626817F8011F13681B6843450846F3D0AD
:1033900010469847F2E7013A62F0FF02013275E702
:1033A0000FAA0A212046984733680B930B9BC4F859
:1033B000FC540020E36013B0BDE8F08F0FAA0A218F
:1033C0002046984743E7013A62F0FF0201329AE64D
:1033D000002384F8F8344EE6D4F81C90D4F8103565
:1033E000994504F11C0807D94FEA8901D4F818055A
:1033F00002F050FCC4F81805C4F81095B9F1000F9C
:1034000000F0378104F2145C424604214FF0000EB4
:10341000937992F8059010791B0443EA092392F8F6
:103420000790034343EA0963C4F81435D4F8183508
:10343000DCF8000043F82E00D4F810350EF1010E30
:103440007345084602F1040201F10401E0D803913A
:1034500000F10B0100F1090200F10803029100F1F3
:103460000C010192994600F1050E00F1060C00F1E5
:10347000070A00F10A02049118F80C00039918F8E1
:103480000EE018F801C018F80AA0D4F81C150004C2
:1034900040EA0E2040EA0C0C4CEA0A6A8A450BD935
:1034A0004FEA8A01D4F824050592039302F0F2FB57
:1034B000059A039BC4F82405C4F81CA5BAF1000FB3
:1034C00000F0D48004F5A46C08EB0903002104F299
:1034D0000C5E9A7893F801A01878120442EA0A2246
:1034E00093F803A0024342EA0A62CEF81420D4F80B
:1034F0002425DCF8000042F82100D4F81C25013115
:103500008A42484603F1040309F10409E1D8421D47
:10351000C11D4B4601920291821D00F1080918F865
:103520000200019A18F8033018F80210029A0004F9
:1035300018F802A0D4F8282540EA01210B4343EAF9
:103540000A6A924507D94FEA8A01D4F8300502F099
:10355000A1FBC4F83005C4F828A5BAF1000F36D095
:1035600000218E4604F22C5000231A4608EB090A6B
:103570001AF801CB0CFA03FC0833202B42EA0C02A8
:10358000F6D109F1040C624494450BD209F103030E
:103590004344E14609F1010913F801AF03F801AC16
:1035A0009145F7D308EB02030CF1FF3C03F801EC63
:1035B000C444D4F83035C4F82CC5D0F800C043F862
:1035C00021C0D4F8283501318B429146CCD8012353
:1035D00084F808354FE533680C930C9BE2682E485D
:1035E000D4F820C031680E919A1AA0FB02E02B4B50
:1035F000DDF83880E1694FF47A7E80090EFB1022F5
:1036000063440BFB0232244BA3FB083C4FEA9C1C97
:10361000013908440EFB1C8321460BFB1323CCEB22
:103620000002226104F1100041F8143F00F0CCF8D0
:1036300033680D930D9BC4F800351CE522681849CA
:103640000F91109311930A21136820460FAA9847EF
:1036500033680A930A9BE3602046FFF717FAC4F821
:10366000FC54C4F800554FF0FF302EE5DDF8109003
:1036700055E70C2209210823049201910B22042111
:10368000029299460A224FF0070A4FF0060C4FF0BB
:10369000050E0391F0E600BFD34D621000CA9A3BBD
:1036A000D09E0000F0B5344C344A354B354822608A
:1036B00000214FF46142A260C4F80C35606084F8C8
:1036C000F814C4F81015C4F81815C4F81C15C4F87B
:1036D0002415C4F82815C4F8301504F5836204F2E3
:1036E0007C4342F8041F9342FBD12749002243F850
:1036F000042F8B42FBD1254A002102F5007302F80A
:10370000011F9342FBD12248002103F8011F984278
:103710004FF00002F9D11F4B1F48204F204D214E82
:103720000760DF60A261204F204C1C630021204C09
:103730009F60DFF890E04460012744611C611C62D7
:103740008160C16001618161C161016259619961FA
:10375000D96159629962D962C3F800E0154C1648E4
:1037600016495F632A74164B3271AF612C60686131
:10377000A960EB603360F0BD8411FF1F789F0000EB
:10378000189F00000807FF1F6416FF1F9F11FF1FEF
:103790009F15FF1F3C17FF1FBC16FF1F489F00000F
:1037A000E416FF1F7417FF1FC0A100008106000070
:1037B000309F0000A49F0000BD060000CCA10000C7
:1037C000609F00008C9F000070B40D68064B046879
:1037D000064E6A0AA3FB0232D3091C4406FB1353AC
:1037E00004600B6070BC7047834B040000CA9A3BB6
:1037F000844641EA000313F003036DD1403A41D3FC
:1038000051F8043B40F8043B51F8043B40F8043BBA
:1038100051F8043B40F8043B51F8043B40F8043BAA
:1038200051F8043B40F8043B51F8043B40F8043B9A
:1038300051F8043B40F8043B51F8043B40F8043B8A
:1038400051F8043B40F8043B51F8043B40F8043B7A
:1038500051F8043B40F8043B51F8043B40F8043B6A
:1038600051F8043B40F8043B51F8043B40F8043B5A
:1038700051F8043B40F8043B51F8043B40F8043B4A
:10388000403ABDD2303211D351F8043B40F8043BEA
:1038900051F8043B40F8043B51F8043B40F8043B2A
:1038A00051F8043B40F8043B103AEDD20C3205D3FA
:1038B00051F8043B40F8043B043AF9D2043208D0F2
:1038C000D2071CBF11F8013B00F8013B01D30B8864
:1038D00003806046704700BF082A13D38B078DD042
:1038E00010F003038AD0C3F10403D21ADB071CBF14
:1038F00011F8013B00F8013B80D331F8023B20F87E
:10390000023B7BE7043AD9D3013A11F8013B00F8B6
:10391000013BF9D20B7803704B7843708B7883703E
:103920006046704708B5104C08E0236859050DD46F
:1039300023681A050FD42368DB0411D423685803C5
:10394000F3D500F0F5FB23685905F1D500F00EF82A
:1039500023681A05EFD500F009F82368DB04EDD5DC
:1039600000F004F8EAE700BF3480044008B5FFF730
:10397000D9FF00BF014B10221A807047002005407C
:10398000704700BF094908B50B6830B16A46184452
:10399000A2F50052904202D20860184608BD02F01B
:1039A000FDF80C2303604FF0FF3008BDFC06FF1F3D
:1039B00010B4114B53F8302092F8804234B10123F7
:1039C00079B182F880305DF8044B704703EBC00397
:1039D0005B681A6851B922F002021A605DF8044B64
:1039E000704782F800315DF8044B704742F00302E3
:1039F0001A605DF8044B7047F4A100001C4A02EB0A
:103A0000C00301295B6811D004291BD052F8300093
:103A1000002280F8802229B1022920D0032922D057
:103A20001A6070474FF480721A60704752F8300085
:103A30004FF4A27280F880121A601A6822F02002F5
:103A40001A60704752F830104FF4A272012081F8CA
:103A500080021A601A6842F020021A60704740F231
:103A600003121A6070474FF481721A60704700BFEA
:103A7000F4A1000030B4054B054D064C0022102186
:103A80001A602A602060196030BC704714D003406F
:103A900004D0034000D0034038B5A0F14203012B0D
:103AA00004461FD9002975DD904B1B78012505FAC6
:103AB00003F28A4202D83F2827D938BDC21E012A04
:103AC0002BD9A0F11D02012A73D90E2856D9A4F1D1
:103AD0002302032A57D9864A126802FB011222FAEE
:103AE00003F320E0814B1B780B2B0AD90C2B1CBF56
:103AF0000C3B1941422C084657D0BDE8384001F034
:103B0000D7BBC3F10C039940F4E72946FFF750FFF8
:103B10002946BDE83840FFF771BF764A126802FBBC
:103B2000011222FA03F3A21E242A00F2D580DFE854
:103B300012F0CC00C500BE00B700B000A900A20082
:103B40009B009400D300D300D3008D00D300D3009A
:103B5000D300D300D30086007F0078007100D3002B
:103B6000D300D300D300D3006A006300D300D30096
:103B7000D300D3005C0055004E00470044F284128D
:103B8000C240D207A3D55C4A126802FB011222FA96
:103B900003F3C8E73F2890D80021FFF709FF20462C
:103BA0000121BDE83840FFF729BFBDE8384001F0EA
:103BB00061BB524A126802FB011222FA03F3B2E718
:103BC0004F49504A0B604FF45173136038BD4E4952
:103BD0004E4A0B604FF45173136038BD4C494D4A47
:103BE0000B604FF45173136038BD4B494B4A0B6067
:103BF0004FF45173136038BD49494A4A0B604FF482
:103C00005173136038BD4849484A0B604FF45173F3
:103C1000136038BD4649474A0B6040F24443136085
:103C200038BD4549454A0B6040F24443136038BDF6
:103C30004349444A0B6040F24443136038BD424953
:103C4000424A0B6040F24443136038BD4049414A48
:103C50000B6040F24443136038BD3F493F4A0B605C
:103C600040F24443136038BD3D493E4A0B6040F288
:103C70004443136038BD3C493C4A0B6040F2444326
:103C8000136038BD3A493B4A0B6040F2444313602D
:103C900038BD3949394A0B6040F24443136038BD9E
:103CA0003749384A0B6040F24443136038BD364907
:103CB000364A0B604FF45173136038BD3449354AAE
:103CC0000B604FF45173136038BD3349334A0B60B6
:103CD00040F24443136038BD3F2C3FF6EEAE7F29DF
:103CE000D4BF00210121204657E700BF0007FF1F76
:103CF000088003400890034008900B4008800B4068
:103D000048900B402CB0044040900B4028B0044039
:103D100038900B4024B0044030900B4020B0044059
:103D200018800B404CA0044010800B4048A0044079
:103D30001880034008B004401080034004B00440E1
:103D40004080034018C004403880034014C0044041
:103D500018900B4004C004402880034010B0044079
:103D6000208003400CB0044028900B400CC004405D
:103D700020900B4008C004403080034010C0044035
:103D8000488003401CC00440189003403490044015
:103D9000109003403090044010900B4000C004404D
:103DA0003F2801D8FFF704BE704700BF3F2801D865
:103DB000FFF724BE704700BF2DE9F843054672B6F1
:103DC000204F214B214A1B683C68126862B65201A1
:103DD00002D5322B88BF013495B3C3F5EA331C4EAC
:103DE000DFF86490DFF86480BF334FF47A72A6FB8B
:103DF000031302FB04F404EB931472B6D9F8001019
:103E00003A68D8F800E062B6C1F5EA33BF33A6FBE2
:103E100003031EF0806FC4EB93134FF47A7002D04B
:103E2000322988BF013200FB0233B3F57A7F04D315
:103E3000013D05D004F57A74DFE701F035F9DCE7E0
:103E4000BDE8F8838417FF1F18E000E004ED00E0F0
:103E500089888888F8B53E4B3E49DFF818C13E4E48
:103E60003E4ADFF814E13E4D3E4C3F4F4FF00060BC
:103E700018604FF0805018604FF0005018604FF0FD
:103E8000804018604FF00040186000200860282330
:103E90004EF6FF71CCF80010CEF8003033600EF50E
:103EA000012E13602B60236005F500253B6004F5AF
:103EB0000024B36207F50027936206F5012602F598
:103EC00001220EF1100E05F6E87504F6E87407F508
:103ED0007F67103220362B602360CEF800303B60C5
:103EE00013603360214EBB61936109223260A7F5F4
:103EF000002706F58056203F083638603160BB60E9
:103F0000F36047F8042C06F5FD2607F5FE2706F2B8
:103F1000FC76043730603960B360FB6046F8042CEF
:103F20000836C7F8FC0F06F6FC76114831602B60A6
:103F30002360026001F02EF91920FFF73DFF00F029
:103F40005DFE40F21310BDE8F840FFF735BF00BF3B
:103F500004E100E004800340148003401C8003401F
:103F6000248003402C8003403480034000800340C1
:103F700000900B40088003400C800340431E032B3D
:103F800014D872B60A4951F8230068B170B4094CCC
:103F9000058834F81320466841F82360521B24F842
:103FA000132062B670BC704762B67047002070473D
:103FB000E017FF1FE818FF1F013803280BD872B65F
:103FC000074B53F8203043B100205B680130002BD1
:103FD000FBD162B67047002070471846F9E700BF72
:103FE0003418FF1F30B472B62B4A13781D0706D55C
:103FF0002A4B196A002936D0996A002941D0537892
:104000001C0706D5254B196C00293ED0996C002958
:1040100039D09378190705D5204B196E002936D071
:10402000996E89B1D3781B0707D51C4BD3F8802034
:104030007AB3D3F8882011213AB162B6184B002226
:104040001A7030BC00F05EBE0D21154C154D227863
:1040500043F8315003EBC1030830013A5860227035
:1040600062B630BC704704220D4C0F4D217843F8E6
:10407000325003EBC20308304A1E5860227062B609
:10408000EFE70521E1E70921DFE70822ECE70C2251
:10409000EAE71022E8E700BF1CA400000000FF1FB1
:1040A0005D18FF1FC800400088004000431E032B1E
:1040B0001DD81B4A400140F0100030B4104472B6C5
:1040C000184CE25C032A1BD8DFE802F00212151735
:1040D00003220D88E25410F0080F14BFC823882370
:1040E00043EA054308310360416062B630BC704763
:1040F00008300222EDE70522EBE708300422E8E76A
:10410000094A52F8230038B1084A52F823004160A6
:1041100042F8231062B6E9E742F82310034AF7E7B2
:104120000000FF1F6C18FF1F3418FF1F4418FF1FEB
:104130002DE9F04FDFF818B3DFF818A387B044E09B
:10414000AE4F4FEA930807EBC809013ED9F80420A7
:1041500003F00803F6B2A2F1080003F0FF04002BFD
:1041600040F0048157F838301B0C99B222F8081C33
:10417000002B00F0F280A24B22F8064C42F8044CCF
:1041800053F82620002A00F06E819E4D55F8263007
:1041900058609D4C45F8260034F81630194424F830
:1041A000161000F08FFD002800F05681974A984BBA
:1041B00019F0080F00F1080018BF1346C9F80400F1
:1041C00047F8383008238BF800309BF80040E4B201
:1041D00061071BD58F4B1B78ABB18F490A7802F072
:1041E000FF032AB1013BDBB20B70002B00F0EF8420
:1041F0008A490A7802F0FF032AB1013BDBB20B7057
:10420000002B00F0F78004238BF8003004F0080343
:1042100003F0FF02002B00F0D6809AF80030DBB2EA
:104220001E098DD19C08DFF8D49159F8342009EB90
:10423000C401C2F38302013A49680C2A7ED8DFE840
:1042400002F081817D7D7D7D7D7D477D7D7D0700C7
:104250000868734D4A68734F734E286081B240F20C
:1042600081606A4B6A604FF0010E0022814249F87A
:1042700034303A60C9F81020C9F8182086F800E0F8
:104280005E4C00F2F480B1F5D06F80F07883B1F528
:10429000817F00F0628300F28782802900F0EC8247
:1042A000822940F01E83A98801F07F01042900F2D1
:1042B00018835E485E4C8900084422706270027860
:1042C000930740F1798384F800E04FF0020ED8E2C2
:1042D000544F3A6842B3574B534E57491888347875
:1042E0000D784028864645F0020828BF4FF0400E62
:1042F000002C84F001043470CEEB00000CBF882445
:10430000C82409EBC80680B285F0010544EA0E44D2
:104310007260188049F8384072440D7018B9BEF1C7
:10432000400F18BF00223A603D4B1A88B2F5A06FCB
:1043300004D100219A785970404B1A70404A0123E9
:1043400013703FE7364A158842F22100854200F09B
:10435000FF812E4A49F83420F0E72C4A2C4B19F003
:10436000080F18BF134647F838302BE700F0CAFC97
:10437000344A354952F82630002B00F0B68158688F
:104380008C5D42F8260003F10802C9F80420032CD2
:1043900005D8DFE804F0120F150204228A551A88A6
:1043A00019F0080F0CBF8823C82343EA024347F8DB
:1043B000383007E702228A55F1E703228A55EEE7F3
:1043C00005228A55EBE7E00700F11A82210600F189
:1043D0004982A20706D51D4A1D4913780220DBB287
:1043E00013700870E30602D5194B10221A7007B03B
:1043F000BDE8F08F00F0F2FD05E700BF0000FF1FF1
:10440000E017FF1F8C17FF1FE818FF1FC8004000B0
:10441000880040006818FF1FF117FF1F7018FF1F6A
:104420005418FF1F8817FF1FF017FF1FC0200740F9
:104430006018FF1F9C17FF1F5C18FF1F9820074084
:10444000942007403418FF1F6C18FF1F8820074076
:104450008020074090200740AB4A47F83800137887
:1044600001331370AEE643F82600A84D91E642F200
:104470002100814200F0358100F2AF81B1F5086F73
:1044800000F01B82B1F5106F40F02B82226AA04928
:10449000A8780870120600F14583D9F828209D49B4
:1044A000130600F13A83D9F830209A49150600F135
:1044B0002F83D9F838209749140600F12483D9F8BE
:1044C00040209449100600F11983D9F848209149F9
:1044D000120600F10E83D9F850208E49130600F120
:1044E0000383D9F858208B49150600F1F882D9F8D2
:1044F00060208849140600F12983D9F8682085498D
:10450000100600F11E83D9F870208249120600F1CE
:104510001383D9F878207F49130600F10883D9F86E
:1045200080207C49150600F11C83D9F88820794940
:10453000140600F11083D9F890207649100600F196
:10454000C882D9F898207349120600F1BC827248DB
:10455000724A7349019073486C4D734C0497002361
:1045600005960295804617460E461D460394386808
:1045700028B1446800F0C6FB2046002CF9D1002386
:104580003B60029B30681A46002342F8253028B170
:10459000446800F0B7FB2046002CF9D100223260BD
:1045A000019A98F800301146002241F8042B039A32
:1045B0000191023B4FF0000122F81510032B09D89E
:1045C000DFE813F04B0104004B0104004FF001033E
:1045D00088F800300135042D07F1040706F10406C0
:1045E00008F10108C3D1514C514B2278464D049F2C
:1045F000059E002129701A70130700F14F8262781E
:104600004C49DFF810810A7010074FF00001C9F81B
:104610003010C9F8381000F12B824749A2780A708F
:104620000021C9F85010C9F858101107DFF8E480CC
:1046300000F1DC81E2784149364C0A700021120712
:10464000C9F87010C9F8781000F1B9813378019376
:10465000002183F00102C9F89010C9F898100020D9
:10466000029080468446044635490D7845F0020E96
:1046700009EBCE030393019B002B039B5C600CBFF3
:104680008824C82444EA080385F0010449F83E3030
:1046900032700C70DFF87CE02A4BDFF8A480002831
:1046A00040F02681BCF1400F1BD144F0020C09EB15
:1046B000CC03029CDFF85CE05C60002A40F02E81B5
:1046C000020442F088029DF804304EF83C20044475
:1046D00033700D702346402803D100201A4A3B60F6
:1046E00010801A4A0123137028E68B5D032B00F219
:1046F0002D8101A252F823F0C5410000C541000000
:104700004F480000554800005D18FF1F8C17FF1F21
:104710006818FF1F0000FF1F4418FF1FE017FF1F4E
:104720003418FF1F6C18FF1FE818FF1F1CA400009F
:10473000C4200740C8200740CC200740D0200740B5
:104740005C18FF1FF017FF1F9C17FF1F94200740E6
:10475000928892B9B14A0D784878157050708D786A
:10476000C8789570D07010680D79157186284D79CC
:1047700089795571917100F0A580A949A94E0A78EF
:10478000307882F00105002842F002020D700CBF63
:104790008821C82149F8321009EBC20280F00100DB
:1047A000002130705160D4E540F20232914240F075
:1047B0008D80A98801F07F01042900F292806A8827
:1047C000002A40F08E809848CDF804E08900084423
:1047D000017841F00201017041E742F2212081425B
:1047E0007BD1A988002940F0E480904B904A914801
:1047F000AC781D681560CDF804E00A4604702EE719
:104800008D4B8E4886491A614FF0020E80F800E009
:10481000854F0A708A49196099608A4E8A4D8B4C7F
:104820009A610D213970FF213170DFF840E2297063
:104830002270874D874A8EF800109F27012406F8C2
:10484000047C5D600470DA6007B0BDE8F08F00237F
:104850008B55B7E401238B55B4E44FF0000388F87F
:104860000030B7E67049784B80220D2008701A702E
:10487000A2077FF5B7ADAEE5774C4FF0020E227080
:104880006270EA88724580F0A38165490D78402AFC
:10489000944645F0020E28BF4FF0400C04EB0C0389
:1048A00009EBCE000293012344604FEA0C48CCEBA5
:1048B000020001930022C824E4E6684A664C12789C
:1048C0002270DEE7664A0F21117056E7B1F5A06F3E
:1048D00007D1012300220193C1E642F22132914225
:1048E000F7D0514A0F231370544A0123137025E562
:1048F00040287FF6DAAE44F002040EEBC401029EBB
:104900004E60BAB19DF80410564A197033464038CB
:1049100088F8005040334EF83420DFE69DF804302C
:1049200033700204029B0D7042F0C80203444EF83B
:104930003C20D0E69DF804101970029B404A88F88C
:104940000050403840334EF83420C7E619F0080FC5
:104950000CBF022303238B5534E4A98801F07F01A7
:104960000429BED86A88002ABBD12F48CDF804E0BC
:1049700089000844017821F0020101706FE63A4A8B
:104980005468002CADD06888B5F804E003E00C3220
:104990005468002CA5D013888342F8D153887345FE
:1049A000F5D1000A03280CBF94F800E0B2F808E043
:1049B00067E7CDF804E052E64FF0020E61E700F041
:1049C00081F9002800F0F18008301D4AC4F8840005
:1049D000C4F8802000F076F9002800F0E08008306C
:1049E000204AC9F88C00C9F888202FE600F06AF93F
:1049F000002800F0E6800830114AC8F86400C8F8C2
:104A0000602000F05FF9002800F0D5800830154ADA
:104A1000C9F86C00C9F868200CE600BFF018FF1F49
:104A20005C18FF1FF017FF1FC02007408417FF1FEF
:104A3000F818FF1F8018FF1F0000FF1F9420074079
:104A400088004000882007408020074098200740C9
:104A5000A017FF1FF417FF1F6018FF1F6818FF1F24
:104A6000F117FF1FC800400020A400008C20074061
:104A700000F028F9002800F08C8008305D4AC8F862
:104A80004400C8F8402000F01DF900287BD0083011
:104A9000594AC9F84C00C9F84820BEE500F012F99F
:104AA00000286AD00830534AC9F82400C9F82020E9
:104AB00000F008F900285AD008304F4AC9F82C00F5
:104AC000C9F828209BE5D1F89C00083800F01AF9B5
:104AD0003DE5D1F89400083800F014F931E5C86DCF
:104AE000083800F00FF902E5486D083800F00AF9BF
:104AF000F7E4C86C083800F005F9ECE4486C0838B5
:104B000000F000F9E1E4C86B083800F0FBF8D6E4E7
:104B1000486B083800F0F6F8CBE4C86A083800F0B3
:104B2000F1F8C0E4606A083800F0ECF8B5E4C86F4A
:104B3000083800F0E7F8F2E4486F083800F0E2F8CF
:104B4000E7E4C86E083800F0DDF8DCE4486E0838A9
:104B500000F0D8F8D1E4D1F88C00083800F0D2F891
:104B6000E9E4D1F88400083800F0CCF8DDE42A78D4
:104B7000C9F8280001322A7041E52A78C9F82000D6
:104B800001322A7094E72A78C9F8480001322A7065
:104B900043E52A78C8F8400001322A7073E72A7882
:104BA000C9F8880001322A7050E52A78C4F88000DC
:104BB00001322A700EE72A78C9F8680001322A709B
:104BC00038E52A78C8F8600001322A7019E700BE7B
:104BD000BEF1400FF44628BF4FF0400C04EB0C032D
:104BE00002930123CCEB0E004FEA0C480022019304
:104BF0003AE500BF88004000C80040002DE9F843B6
:104C0000244C00F073FB002204F1A00023461A603C
:104C10005A60083383424FF00001F8D11E481F4A02
:104C20000368DFF890E01E4F1E4D1F4EDFF88880AE
:104C3000DFF888C0DFF8889043F4802303601368AE
:104C40001A4843F040731360C4F307238EF8003012
:104C5000C4F307433B70240EFF2302F5C9222C70D6
:104C600002F5847288F80030114D8CF800303370F2
:104C7000012389F8003070268EF864104FF4001478
:104C8000102107F82C3C2E70046011700EF1640E98
:104C9000BDE8F8830000FF1F3480044000D80040C6
:104CA000B0200740B42007401020074004E100E096
:104CB00035E400E09C200740802007408820074022
:104CC0009420074072B60D480268B2FA82F30B2BAB
:104CD00010DC4FF00041D94022EA0102026062B6C6
:104CE000074803EBC303DB00C2180021C150104684
:104CF0005160704762B60020704700BF0407FF1F75
:104D00009803FF1F0D4B0E4AC31AA2FB03231B0976
:104D10000B2B0CD80B4A127852B972B60A484FF0D6
:104D20000041026821FA03F31A43026062B6704739
:104D3000064A1278002AF0D0FFF754B99803FF1FF3
:104D4000398EE3385D18FF1F0407FF1F6818FF1F27
:104D500038B50F4D286878B143880288C1180133EF
:104D600093420C7A02D24380204638BDFFF7CAFF37
:104D7000002320462B6038BD064B1B782BB1032047
:104D8000FFF7FCF828600028E6D14FF0FF3038BD6F
:104D90007C18FF1F6818FF1F10B5094C206818B158
:104DA00043881844007A10BD064B1B782BB10320B2
:104DB000FFF7E4F820600028F2D14FF0FF3010BD7B
:104DC0007C18FF1F6818FF1F044B054A1B6890885A
:104DD0001BB11A885B88D31A184470477C18FF1FD0
:104DE000E818FF1F0B4B1B789BB110B50A4C2068CD
:104DF00048B1FFF787FF002303202360FFF7BEF8C9
:104E000030B1FFF77FFF0320FFF7B8F80028F8D193
:104E100010BD70476818FF1F7C18FF1F2DE9F04F69
:104E2000DFF8F89083B0012289F80020019169B37E
:104E3000DFF8EC80364F019E8346D8F80000B0B30F
:104E4000344D4488C4F14001B14228BF314604EBDF
:104E5000010E00221FFA8EFE2A70761AA0F802E0D8
:104E600000F1080251B1013C224459441BF8014BA6
:104E700002F8014F8B45F9D1B0F802E0BEF13F0FC7
:104E80000BD8254A05211170002ED6D10198002398
:104E900089F8003003B0BDE8F08F4022028001465F
:104EA0000420FFF703F90022C8F80020E9E73A7868
:104EB0002AB3184D4DF2E9044FF0010A07E0013C16
:104EC00016D02A78A2B900F0EFF83A78BAB10420E7
:104ED000FFF772F80728F2D889F800A0FFF7F2FE72
:104EE000C8F800000028ACD10C4B013C1870E8D188
:104EF00001234FF0FF302B7003B0BDE8F08F00238B
:104F00004FF0FF3089F8003003B0BDE8F08F00BFEC
:104F10006818FF1F7818FF1F7018FF1F7118FF1FF8
:104F20007418FF1F00B583B002AB012103F8010D17
:104F30001846FFF773FF03B05DF804FB38B50E4D5C
:104F40000E4C28680123237028B140880023237069
:104F5000C0F1400038BD0A4B1B7813B90020207007
:104F600038BD0420FFF728F80728F7D8FFF7AAFE76
:104F700028600028E9D1F1E77418FF1F7118FF1F9E
:104F80006818FF1FF8B5114B1B788BB1104E114DEF
:104F9000346801272F7064B10F4A638800271770A7
:104FA000214623800420FFF781F8376000232B700F
:104FB000F8BDFFF787FE084B28B1014604201C709E
:104FC000FFF774F8F2E71F70F0E700BF6818FF1FE3
:104FD0007418FF1F7118FF1F7018FF1F38B50E4B94
:104FE0001B7873B90D4C216861B103F0FF054B8844
:104FF0000B800420FFF75AF8256038BD084B0122CA
:105000001A7038BDFFF75EFE0028F7D00146BDE8F4
:1050100038400420FFF74AB87118FF1F7418FF1FAB
:105020007018FF1F70B5EFF3108272B60C4C206839
:1050300080B10C4E00254369236073B19D6102B9B4
:1050400062B6457783689847EFF3108272B620689E
:105050000028F0D102B962B670BD3360EFE700BF3F
:105060008418FF1F8818FF1FFFF7DCBF024A136870
:1050700001331360704700BF8417FF1F08B5FCF7AA
:105080006BFAFCF7C7FA00F00FF8FAE7FFF7AABED1
:10509000FFF782BEFFF798BEFFF774BFFFF74EBF62
:1050A00008461146FFF7BABE2DE9F843314E337872
:1050B00093B1314F3A787AB90122D9073A7036D490
:1050C0009A0719D400225B073A7005D52B4B1A6852
:1050D00012B1EFF305820AB1BDE8F883EFF3108156
:1050E00072B6186818B1264C2278002A2ED00029F2
:1050F000F2D162B6BDE8F883DFF8908098F800201E
:10510000002ADFD0DFF88890002405E0013498F809
:105110000030E4B2A34212D959F824502B68284633
:105120001B6998470028F1D02B699847EEE7FFF7F5
:105130004BFEC8B9134B1B781BB93378C0E73378E3
:10514000C0E7337803F0FE033370B9E745691D60AB
:10515000012323705DB1AA6101B962B600254577CC
:10516000836898472570B7E700F0FEF8E2E7064B42
:105170001D60F1E71807FF1F9518FF1F9018FF1F0C
:105180009418FF1FBE07FF1F8C18FF1FB018FF1FCA
:105190009818FF1F30B42948294A2A4B2A4D602409
:1051A000E121047011701B78284C082B30D00A2B99
:1051B0002748284937D00C2B0CBF35225D221223FB
:1051C0002A60236002600B60234B24491B78244A29
:1051D000BBB101230B601360224B23491B78234A88
:1051E000012B26D9042B0FD9082B1ED9102B94BFC5
:1051F000862387230B6013601D4B01221A7030BC7D
:1052000070470B601360E7E784230B601360F3E7DC
:1052100000F58E200F490830212213232A602360D5
:1052200002600B60D0E73922F7E785230B6013603B
:10523000E2E780230B601360DEE700BF0040074019
:10524000014007401907FF1F08B003400CB003409E
:1052500008B00B400CB00B409718FF1F20B0034064
:1052600020B00B401A07FF1F24B0034024B00B40AE
:105270009618FF1F0A4A0B49136843F480531360C2
:105280000B7843B9084BC0221A70084B80F30C000E
:1052900000B218807047044B80221A70F5E700BFF7
:1052A0002C8004409718FF1F21C00C4000C00C4008
:1052B0000A4A0B49136843F4005313600B7843B94F
:1052C000084BC0221A70084B80F30C0000B2188003
:1052D0007047044B80221A70F5E700BF2C80044011
:1052E0009718FF1F21D00C4000D00C4072B6184A0E
:1052F000184B19491160702280211A701A461970D2
:1053000013781B06FCD510B5144B84B0186862B630
:10531000134B144C984298BF00EB800001A998BF32
:1053200040000A2200F022F801A92046002311F8CB
:10533000012B01333AB10A2B20F8022FF7D11623A3
:10534000237004B010BD5B00DBB2237004B010BD4D
:105350000400024000000240000007410C0002402F
:105360007F969800A807FF1F704700BFF0B44D1E3E
:105370002E46002400E00134B0FBF2F302FB1300E0
:10538000092800F130078ABF3730F8B2C0B206F8FA
:10539000010F1846002BEED10A1953704CB110784A
:1053A00015F8016F28700133E01A834202F8016991
:1053B000F5DB0846F0BC704781F0004102E000BF19
:1053C00083F0004330B54FEA41044FEA430594EAC5
:1053D000050F08BF90EA020F1FBF54EA000C55EA00
:1053E000020C7FEA645C7FEA655C00F0E2804FEAD1
:1053F0005454D4EB5555B8BF6D420CDD2C4480EAB3
:10540000020281EA030382EA000083EA010180EAE2
:10541000020281EA0303362D88BF30BD11F0004F30
:105420004FEA01314FF4801C4CEA113102D0404266
:1054300061EB410113F0004F4FEA03334CEA1333A1
:1054400002D0524263EB430394EA050F00F0A780B9
:10545000A4F10104D5F1200E0DDB02FA0EFC22FAB4
:1054600005F2801841F1000103FA0EF2801843FAA8
:1054700005F359410EE0A5F120050EF1200E012A99
:1054800003FA0EFC28BF4CF0020C43FA05F3C018D7
:1054900051EBE37101F0004507D54FF0000EDCF150
:1054A000000C7EEB00006EEB0101B1F5801F1BD3F9
:1054B000B1F5001F0CD349085FEA30004FEA3C0CFD
:1054C00004F101044FEA445212F5800F80F09A80F3
:1054D000BCF1004F08BF5FEA500C50F1000041EBF7
:1054E000045141EA050130BD5FEA4C0C404141EBFB
:1054F000010111F4801FA4F10104E9D191F0000F22
:1055000004BF01460020B1FA81F308BF2033A3F1A4
:105510000B03B3F120020CDA0C3208DD02F1140C9B
:10552000C2F10C0201FA0CF021FA02F10CE002F1D6
:105530001402D8BFC2F1200C01FA02F120FA0CFCCF
:10554000DCBF41EA0C019040E41AA2BF01EB045118
:10555000294330BD6FEA04041F3C1CDA0C340EDC16
:1055600004F11404C4F1200220FA04F001FA02F359
:1055700040EA030021FA04F345EA030130BDC4F117
:105580000C04C4F1200220FA02F001FA04F340EA0C
:105590000300294630BD21FA04F0294630BD94F0BD
:1055A000000F83F4801306BF81F480110134013DA4
:1055B0004EE77FEA645C18BF7FEA655C29D094EA15
:1055C000050F08BF90EA020F05D054EA000C04BF93
:1055D0001946104630BD91EA030F1EBF002100207E
:1055E00030BD5FEA545C05D14000494128BF41F01D
:1055F000004130BD14F580043CBF01F5801130BD81
:1056000001F0004545F0FE4141F470014FF000000B
:1056100030BD7FEA645C1ABF194610467FEA655CBC
:105620001CBF0B46024650EA013406BF52EA03355E
:1056300091EA030F41F4002130BD00BF90F0000F4C
:1056400004BF0021704730B54FF4806404F1320488
:105650004FF000054FF0000150E700BF90F0000F41
:1056600004BF0021704730B54FF4806404F1320468
:1056700010F0004548BF40424FF000013EE700BF38
:1056800042004FEAE2014FEA31014FEA02701FBFC8
:1056900012F07F4393F07F4F81F06051704792F09A
:1056A000000F14BF93F07F4F704730B54FF4607414
:1056B00001F0004521F0004120E700BF50EA01025F
:1056C00008BF704730B54FF000050AE050EA01020C
:1056D00008BF704730B511F0004502D5404261EB7C
:1056E00041014FF4806404F132045FEA915C3FF4BD
:1056F000DCAE4FF003025FEADC0C18BF03325FEA56
:10570000DC0C18BF033202EBDC02C2F1200300FA0A
:1057100003FC20FA02F001FA03FE40EA0E0021FA2F
:1057200002F11444C1E600BF70B54FF0FF0C4CF419
:10573000E06C1CEA11541DBF1CEA135594EA0C0FCF
:1057400095EA0C0F00F0DEF82C4481EA030621EA0A
:105750004C5123EA4C5350EA013518BF52EA033545
:1057600041F4801143F4801338D0A0FB02CE4FF0F7
:105770000005E1FB02E506F00042E0FB03E54FF027
:105780000006E1FB03569CF0000F18BF4EF0010E1F
:10579000A4F1FF04B6F5007F64F5407404D25FEA1B
:1057A0004E0E6D4146EB060642EAC62141EA5551CE
:1057B0004FEAC52040EA5E504FEACE2EB4F1FD0C10
:1057C00088BFBCF5E06F1ED8BEF1004F08BF5FEA8E
:1057D000500E50F1000041EB045170BD06F0004640
:1057E00046EA010140EA020081EA0301B4EB5C04ED
:1057F000C2BFD4EB0C0541EA045170BD41F48011E5
:105800004FF0000E013C00F3AB8014F1360FDEBF09
:10581000002001F0004170BDC4F10004203C35DAE5
:105820000C341BDC04F11404C4F1200500FA05F368
:1058300020FA04F001FA05F240EA020001F0004209
:1058400021F0004110EBD37021FA04F642EB06017F
:105850005EEA430E08BF20EAD37070BDC4F10C04A9
:10586000C4F1200500FA04F320FA05F001FA04F26D
:1058700040EA020001F0004110EBD37041F1000159
:105880005EEA430E08BF20EAD37070BDC4F1200564
:1058900000FA05F24EEA020E20FA04F301FA05F2CC
:1058A00043EA020321FA04F001F0004121FA04F274
:1058B00020EA020000EBD3705EEA430E08BF20EA44
:1058C000D37070BD94F0000F0FD101F0004640007E
:1058D00041EB010111F4801F08BF013CF7D041EA00
:1058E000060195F0000F18BF704703F00046520004
:1058F00043EB030313F4801F08BF013DF7D043EAD5
:105900000603704794EA0C0F0CEA135518BF95EA8A
:105910000C0F0CD050EA410618BF52EA4306D1D111
:1059200081EA030101F000414FF0000070BD50EA30
:10593000410606BF1046194652EA430619D094EABA
:105940000C0F02D150EA013613D195EA0C0F05D1A4
:1059500052EA03361CBF104619460AD181EA0301F8
:1059600001F0004141F0FE4141F470014FF00000B0
:1059700070BD41F0FE4141F4780170BD70B54FF04B
:10598000FF0C4CF4E06C1CEA11541DBF1CEA1355CB
:1059900094EA0C0F95EA0C0F00F0A7F8A4EB0504AD
:1059A00081EA030E52EA03354FEA013100F08880A4
:1059B0004FEA03334FF0805545EA131343EA12636D
:1059C0004FEA022245EA111545EA10654FEA002622
:1059D0000EF000419D4208BF964244F1FD0404F5DB
:1059E000407402D25B084FEA3202B61A65EB030537
:1059F0005B084FEA32024FF480104FF4002CB6EBF4
:105A0000020E75EB030E22BFB61A754640EA0C0073
:105A10005B084FEA3202B6EB020E75EB030E22BFB3
:105A2000B61A754640EA5C005B084FEA3202B6EBF4
:105A3000020E75EB030E22BFB61A754640EA9C00B3
:105A40005B084FEA3202B6EB020E75EB030E22BF83
:105A5000B61A754640EADC0055EA060E18D04FEA41
:105A6000051545EA16754FEA06164FEAC30343EAE1
:105A700052734FEAC2025FEA1C1CC0D111F4801FAE
:105A80000BD141EA00014FF000004FF0004CB6E7A7
:105A900011F4801F04BF01430020B4F1FD0C88BF46
:105AA000BCF5E06F3FF6AFAEB5EB030C04BFB6EB51
:105AB000020C5FEA500C50F1000041EB045170BD44
:105AC0000EF0004E4EEA113114EB5C04C2BFD4EB71
:105AD0000C0541EA045170BD41F480114FF0000EF5
