:10000000F8FF02209901000041380000F937000094
:10001000F9370000F9370000F9370000F937000020
:10002000F9370000F9370000F937000041380000C7
:1000300041380000F9370000055000000951000068
:1000400041380000413800004138000041380000CC
:1000500041380000413800004138000041380000BC
:1000600041380000413800004138000041380000AC
:10007000413800004138000041380000413800009C
:10008000413800004138000041380000413800008C
:10009000413800004138000041380000413800007C
:1000A000413800004138000041380000413800006C
:1000B00041380000413800004138000085530000FD
:1000C00041380000B154000041380000DD55000007
:1000D00041380000D556000041380000413800008A
:1000E000413800004138000041380000413800002C
:1000F000413800004138000041380000413800001C
:10010000413800004138000041380000413800000B
:10011000413800000540000041380000413800002F
:1001200041380000413800004138000041380000EB
:1001300041380000413800004138000041380000DB
:100140004138000041380000CD5700004138000020
:10015000C558000041380000413800004138000017
:1001600041380000413800004138000041380000AB
:10017000413800004138000041380000413800009B
:10018000413800004138000041380000413800008B
:100190004138000041380000584B4CF2205210B555
:1001A0001A804DF628121A8000BF00BF03F04CFBE6
:1001B000534B4FF030621A60524A9A60524ADA60EA
:1001C000524B4FF470021A60514A136813F4807353
:1001D00004D150490B604FF4A85313604E4B1A786A
:1001E000110703D51A7842F008021A704B4B4C499C
:1001F0002A221A704B4A4C4B8B4204D252F8040FFD
:1002000043F8040BF8E7494B494900228B4202D2DC
:1002100043F8042BFAE74749474A002352F82300E2
:1002200041F823000133662BF8D1444B444A802126
:1002300003F8011B9342FBD1424B3E4A1A60424BEA
:100240008A221A70A3F5805324225A70A0221A70B1
:100250009A799207FCD59A79D406FCD43B4A9379D3
:1002600003F00C03082B394BF9D103221A714622F3
:100270005A719A799006FCD5344A9179334B4906E4
:10028000FBD5334A4FF08271116009215160202261
:100290001A709A7902F00C020C2AFAD12D4B2E4AD0
:1002A0001A602E4B2E4A1A6000225A60072243F829
:1002B000042C2C4AC3F80C2D62B603F035FD154B07
:1002C0001B68DA0705D5284803F03EFB274B284A70
:1002D0001A60284B1B785B0609D5244C244B2268F6
:1002E0009A4204D1204803F02FFB0023236005F03D
:1002F000BDFF03F0AFFA04F00FFFFEE70E2005404C
:1003000030800440823F04000100002B88ED00E0B3
:1003100010D0034014D0034002D0074000E0074053
:100320006811FF1FE0AD0000F806FF1F6811FF1FF6
:10033000EC1BFF1F0002FF1F0000000000E400E0B4
:1003400056E400E008ED00E00050064000400640A2
:100350004480044004800440C010050014E000E024
:10036000BFD401000000202094484E5F1CE00340F1
:10037000A5C3945A00F00740FFFFFFFFFFFFFFFFF8
:10038000FFFFFFFFFFFFFFFFFFFFFFFFFFFFFFFF7D
:10039000FFFFFFFFFFFFFFFFFFFFFFFFFFFFFFFF6D
:1003A000FFFFFFFFFFFFFFFFFFFFFFFFFFFFFFFF5D
:1003B000FFFFFFFFFFFFFFFFFFFFFFFFFFFFFFFF4D
:1003C000FFFFFFFFFFFFFFFFFFFFFFFFFFFFFFFF3D
:1003D000FFFFFFFFFFFFFFFFFFFFFFFFFFFFFFFF2D
:1003E000FFFFFFFFFFFFFFFFFFFFFFFFFFFFFFFF1D
:1003F000FFFFFFFFFFFFFFFFFFFFFFFFFFFFFFFF0D
:10040000FFFFFFFFFFFFFFFFFFFFFFFFDEF9FFFF23
:1004100010B5054C237833B9044B13B10448AFF33E
:1004200000800123237010BD6811FF1F0000000031
:10043000DCAD0000084B10B51BB108490848AFF30C
:1004400000800848036803B910BD074B002BFBD0A0
:10045000BDE81040184700BF000000006C11FF1FEE
:10046000DCAD00006811FF1F0000000043680B7046
:1004700043681B0A4B70C3888B70C379CB70836849
:100480000B7183681B0A4B7143898B71C37ACB71E3
:10049000082070470B7843604A7843EA02234360A0
:1004A0008A7843EA02434360CA7843EA02634360BE
:1004B0000B7983604A7943EA022383608A7943EAAD
:1004C00002438360CA7943EA02638360082070476D
:1004D0000048704774A600000048704784A60000DA
:1004E000F0B50C460A788280064614F8010F002306
:1004F00042EA0022B2801A4614F8010F98400833ED
:10050000202B42EA0002F7D1971D062F58D901F19E
:10051000050E551D73464C1913F8010F03F8010C15
:10052000A342F9D100234B5518460D44C6F808E004
:1005300015F8014F84400830202843EA0403F7D11E
:10054000381D0344834209D909320A440446013460
:1005500012F8015F02F8015CA342F8D80138CF1805
:100560000024084407F8014C2246F06017F8015BAC
:1005700095400832202A44EA0504F7D1181D0444A6
:10058000A04209D203330B440246013213F8015F43
:1005900003F8015CA242F8D30D1901380844002386
:1005A00005F8013C3061A8786B780A5DED780104AC
:1005B00041EA0323134343EA0563201D7361F0BD41
:1005C000551D01F1050EADE700487047A8A60000D3
:1005D00000487047C4A600000B78F0B403710023F4
:1005E00006460C461D4614F8012F9A400833202B6E
:1005F00045EA0205F7D1681D052801F1040708D96D
:100600002C1D3B460C4413F8012F03F8012C9C428F
:10061000F9D10D4400232B71B760F0BC704700BFC7
:1006200000487047E8A6000000487047FCA600009C
:100630000048704798A800000048704720A70000B5
:100640000048704744A70000004870475CA70000BE
:100650000048704780A700000048704794A700003A
:1006600003790B70012070470B78037101207047EC
:1006700000487047B8A7000000487047C8A70000AE
:1006800010B48168036A054C054A064821609160F0
:10069000136203605DF8044B704700BF3817FF1FFB
:1006A000D416FF1F7C17FF1F10B40649064C90F9A3
:1006B0000430064A0B710021236011605DF8044B81
:1006C000704700BF7417FF1F3417FF1FF816FF1F76
:1006D0000B78037443690C30184700BF806970477A
:1006E00000487047B8A7000000487047C8A700003E
:1006F000406B70470048704780A700000048704773
:1007000094A7000090F8F804704700BF04F0A0BA66
:1007100043682DE9F0470B7043681B0A4B70C38890
:100720008B70C379CB704368002B00F085800A463C
:1007300000250426C36853F8253013711C0C1F0ACA
:100740001B0E94715771D37143680135AB42344627
:1007500002F1040206F10406ECD804F1080204F1E7
:10076000050A04F1060904F1070804F1090C04F173
:100770000A0E04F10B0517460C3403698B55036907
:100780001B0A01F80A30438A01F80930C37C01F8DA
:1007900008300369F3B101EB070E75460022836947
:1007A00053F822300EF822301C0C1E0A1B0EAC70BF
:1007B0006E70EB700369013293423C4605F104050B
:1007C00007F10407EBD804F1050C04F1060EE51D52
:1007D0003A460834C3698B54C3691B0A01F80C30CC
:1007E000C38B01F80E30C37F4B55C3690BB30F4663
:1007F00080460026D8F8243053F8260005F0E0FFA4
:10080000B10005463A19002325FA03F00833202BDE
:1008100002F8010BF8D1D8F82430043438195958AB
:100820002A4602F04FFFD8F81C300136B3422C4460
:10083000E0D82046BDE8F087082217460C240B2597
:100840004FF00A0E4FF0090C4FF007084FF0060961
:100850004FF0050A042690E770B503790B70064641
:1008600080680D4605F0ACFF2A460446002324FAB2
:1008700003F10833202B02F8011FF8D1B168681D7D
:10088000224602F01FFF601D70BD00BFF8B58388CF
:100890000B7083881B0A4B70064680680D4605F076
:1008A0008FFF030E010A020C6B71A8702A71E970A8
:1008B00002460446B168A81D02F004FFF06805F086
:1008C0007FFF611D024629440634002322FA03F00B
:1008D0000833202B01F8010FF8D104342819F168EE
:1008E000144402F0EFFE306905F06AFF2A1907464A
:1008F000002327FA03F10833202B02F8011BF8D15B
:10090000043428193A46316902F0DCFE381973695B
:100910002B540544190A1A0C1B0E6970AA70EB704F
:100920000430F8BD084604F07DBA00BF2DE9F04F51
:1009300043680C689C4283B005460E4600F2B380C3
:100940006C60002C00F0B88005F1080C33460027DD
:100950004FF0040E9C795A79197993F80780E8686A
:10096000240444EA02220A4342EA0862AA60DCF84C
:10097000002040F827206A680137BA42714603F127
:1009800004030EF1040EE5D801F1080847464B1D9B
:10099000881DCA1D01F1090A01F10A0B01F10B09B9
:1009A00001F10C04305CF35C16F80E1016F802E04E
:1009B0002A69000440EA03230B4343EA0E6393428F
:1009C00000F290802B613BB305F1140CF3194FF04A
:1009D000000E9C785A78197893F80380A86924044B
:1009E00044EA02220A4342EA08626A61DCF8002013
:1009F00040F82E202A690EF1010E72453C4603F1A3
:100A0000040307F10407E4D804F1050A04F1060B16
:100A100004F10709B846083416F80B2016F80A0046
:100A200016F8083016F80970E969120442EA002243
:100A3000134343EA07678F424ED8EF617FB3002725
:100A4000BC4605F1200E00231946301910F8012B81
:100A50009A400833202B41EA0201F7D104F104083F
:100A60004144884509D2E31C33444246013213F81D
:100A7000010F03F8010C8A42F8D3721808F1FF380D
:100A800002F801CC06EB08032B626A6ADEF800303C
:100A900042F82730EB690137BB420C46D3D82046D9
:100AA00003B0BDE8F08FA100C06805F055FC6C6094
:100AB000E860002C7FF448AF4FF0080847460C244C
:100AC0004FF00B094FF00A0B4FF0090A07220620DE
:100AD00005234FF0040E65E7B900686A05F03CFC99
:100AE0006862AAE79900A869019305F035FC019BAB
:100AF000A86167E7D0ED027A17EE903AC3F3C752C8
:100B0000F0B4002A00F0FD8002F5607215016DB2AC
:100B1000C2F30712F5EEC07AC3F3C344F1EE10FA44
:100B200045EA04054FEA43174FF000044FEAE30695
:100B300048BF62F07F02DB124B71CA718D710C707D
:100B40004C708C70CF700E71D0ED037A17EE903A26
:100B5000C3F3C752002A00F0DE8002F5607215016F
:100B60006DB2C2F30712F5EEC07AC3F3C344F1EEDF
:100B700010FA45EA04054FEA43174FF000044FEA24
:100B8000E30648BF62F07F02DB124B73CA738D73BA
:100B90000C724C728C72CF720E73D0ED047A17EE19
:100BA000903AC3F3C752002A00F0B38002F5607296
:100BB00015016DB2C2F30712F5EEC07AC3F3C34458
:100BC000F1EE10FA45EA04054FEA43174FF000042E
:100BD0004FEAE30648BF62F07F02DB124B75CA752D
:100BE0008D750C744C748C74CF740E75D0ED067AC0
:100BF00017EE903AC3F3C752002A00F0888002F53E
:100C0000607215016DB2C2F30712F5EEC07AC3F33C
:100C1000C344F1EE10FA45EA04054FEA43174FF0DA
:100C200000044FEAE30648BF62F07F02DB124B7715
:100C3000CA778D770C764C768C76CF760E77D0EDA2
:100C4000077A17EE903AC3F3C752002A5DD002F537
:100C5000607215016DB2C2F30712F5EEC07AC3F3EC
:100C6000C344F1EE10FA45EA04054FEA43174FF08A
:100C700000044FEAE30648BF62F07F02DB1281F80E
:100C8000253081F8272081F8265081F8204081F80E
:100C9000214081F8224081F8237081F82460D0ED52
:100CA000087A17EE903AC3F3C75262B302F5607246
:100CB000140164B2C2F30712F5EEC07AC3F3C34065
:100CC000F1EE10FA44EA00044FEA43164FF0000038
:100CD0004FEAE30548BF62F07F02DB1281F82E4045
:100CE00081F8280081F8290081F82A0081F82B601A
:100CF00081F82C50302081F82D3081F82F20F0BC65
:100D00007047154606E71446D6E71546A5E715468B
:100D10007BE7154650E7154625E700BFCA7852091C
:100D200070B442610346087942EAC0025A614879C8
:100D300042EAC02058618A79D20402F4F0020243E8
:100D40005A61CD798E792C0104F4FE6454EA1614AC
:100D500003F10C0005D0A4F5607442EAC4525A6154
:100D6000CD7925F07F0542EA05625A61CA7A5209B7
:100D70009A610C7B42EAC4029A614C7B42EAC42429
:100D80009C618A7BD20402F4F00222439A61CD7BFB
:100D90008E7B2C0104F4FE6454EA161405D0A4F5ED
:100DA000607442EAC4529A61CD7B25F07F0542EA25
:100DB00005629A61CA7C5209DA610C7D42EAC4027A
:100DC000DA614C7D42EAC424DC618A7DD20402F4FB
:100DD000F0022243DA61CD7D8E7D2C0104F4FE64A5
:100DE00054EA161405D0A4F5607442EAC452DA61DC
:100DF000CD7D25F07F0542EA0562DA61CA7E52099F
:100E00005A620C7F42EAC4025A624C7F42EAC4240E
:100E10005C628A7FD20402F4F00222435A62CD7FE0
:100E20008E7F2C0104F4FE6454EA161405D0A4F558
:100E3000607442EAC4525A62CD7F25F07F0542EACF
:100E400005625A6291F8232052099A6291F824406F
:100E500042EAC4029A6291F8254042EAC4249C62A4
:100E600091F82620D20402F4F00222439A6291F80B
:100E7000275091F826602C0104F4FE6454EA1614FD
:100E800006D0A4F5607442EAC4529A6291F82750E1
:100E900025F07F0542EA05629A6291F82B205209FB
:100EA000DA6291F82C4042EAC402DA6291F82D40ED
:100EB00042EAC424DC6291F82E20D20402F4F0024B
:100EC0002243DA6291F82F5091F82E602C0104F43D
:100ED000FE6454EA161406D0A4F5607442EAC452C3
:100EE000DA6291F82F5025F07F0542EA0562DA6256
:100EF00070BC1B6B184700BFCB785B0930B48360B4
:100F00000A7943EAC20383604A7943EAC2228260D3
:100F10008B79DB0403F4F00313438360CC798D7980
:100F2000220102F4FE6252EA151205D0A2F56072A7
:100F300043EAC2538360CC7924F07F0443EA04631C
:100F40008360CB7A5B09C3600A7B43EAC203C36058
:100F50004A7B43EAC222C2608B7BDB0403F4F003CA
:100F60001343C360CC7B8D7B220102F4FE6252EA04
:100F7000151205D0A2F5607243EAC253C360CC7B60
:100F800024F07F0443EA0463C360CB7C5B09036104
:100F90000A7D43EAC20303614A7D43EAC222026139
:100FA0008B7DDB0403F4F00313430361CC7D8D7D63
:100FB000220102F4FE6252EA151205D0A2F5607217
:100FC00043EAC2530361CC7D24F07F0443EA046307
:100FD0000361CB7E5B0983610A7F43EAC2038361BD
:100FE0004A7F43EAC22282618B7FDB0403F4F00371
:100FF00013438361CC7F8D7F220102F4FE6252EAAB
:10100000151205D0A2F5607243EAC2538361CC7F0A
:1010100024F07F0443EA0463836191F823305B0981
:10102000C36191F8242043EAC203C36191F82520EB
:1010300043EAC222C26191F82630DB0403F4F003D4
:101040001343C36191F8274091F82650220102F41E
:10105000FE6252EA151206D0A2F5607243EAC2534C
:10106000C36191F8274024F07F0443EA0463C3611D
:1010700091F82B305B09036291F82C2043EAC203FC
:10108000036291F82D2043EAC222026291F82E30C9
:10109000DB0403F4F0031343036291F82F4091F84B
:1010A0002E50220102F4FE6252EA151206D0A2F579
:1010B000607243EAC253036291F82F4024F07F0428
:1010C00043EA0463036230BC30207047CB785B098D
:1010D00030B443600A7943EAC20343604A7943EA81
:1010E000C22242608B79DB0403F4F00313434360B4
:1010F000CC798D79220102F4FE6252EA151205D0F4
:10110000A2F5607243EAC2534360CC7924F07F04B5
:1011100043EA04634360CB7A5B0983600A7B43EA5A
:10112000C20383604A7B43EAC22282608B7BDB047A
:1011300003F4F00313438360CC7B8D7B220102F424
:10114000FE6252EA151205D0A2F5607243EAC2535C
:101150008360CC7B24F07F0443EA04638360CB7C10
:101160005B09C3600A7D43EAC203C3604A7D43EA68
:10117000C222C2608B7DDB0403F4F0031343C3601F
:10118000CC7D8D7D220102F4FE6252EA151205D05B
:10119000A2F5607243EAC253C360CC7D24F07F04A1
:1011A00043EA0463C36030BC18207047D0ED017A75
:1011B00017EE903AC3F3C752F0B4002A71D002F58B
:1011C000607215016DB2C2F30712F5EEC07AC3F377
:1011D000C344F1EE10FA45EA04054FEA43174FF015
:1011E00000044FEAE30648BF62F07F02DB124B7156
:1011F000CA718D710C704C708C70CF700E71D0ED07
:10120000027A17EE903AC3F3C752002A4DD002F586
:10121000607215016DB2C2F30712F5EEC07AC3F326
:10122000C344F1EE10FA45EA04054FEA43174FF0C4
:1012300000044FEAE30648BF62F07F02DB124B7303
:10124000CA738D730C724C728C72CF720E73D0EDA8
:10125000037A17EE903AC3F3C75222B302F56072D5
:10126000140164B2C2F30712F5EEC07AC3F3C340AF
:10127000F1EE10FA44EA00044FEA43164FF0000082
:101280004FEAE30548BF62F07F02DB128C750874F9
:1012900048748874CE740D7518204B75CA75F0BCEF
:1012A0007047154691E71446DEE71546B5E700BFDF
:1012B000F0B585B0364A01920368364D0395032296
:1012C0008DF808201B6834498B425AD100233821FD
:1012D000044680F8232205F1300E80F8241280F8AD
:1012E000253280F8263280F8273200F50A772E461C
:1012F0000FCE764538607960BA60FB60354607F1FD
:101300001007F4D103CD00227960C2234FF0FF0E05
:10131000FE263D250721386084F8203284F81CE23F
:1013200084F81D6284F81E5284F81F2284F8222259
:1013300084F8211204F2212304F25F2001E013F863
:10134000011F83420A44FAD1D243144E84F860222A
:1013500004F21B2504F5187703E003F063FDBD429A
:101360000BD0626815F8011F13681B68B34208466A
:10137000F3D010469847BD42F3D14FF0FF3005B08F
:10138000F0BD01AA072198474FF0FF3005B0F0BD2E
:10139000C0A50000ECA70000A11300002509000073
:1013A0002DE9F041632984B003DD90F8F874002F33
:1013B00053D0136805460F4610461B6805F22321DB
:1013C0009847C2B2C0F30721561885F81E2247F38A
:1013D0000722F643FF234FF0FE0EFCB285F82222CF
:1013E000421C85F8206285F81F1285F81C3285F8AA
:1013F0001DE285F821420DDB00F22221294405F28D
:101400002123002201E013F8014F99422244FAD12E
:10141000D343DBB22A1800F10807B7F5007F82F842
:1014200023321EDC002F05F5077616DD0730DFF8C6
:101430001081064405F21B2403E003F0F3FCB442E0
:101440000BD06A6814F8011F13681B6843450846EF
:10145000F3D010469847B442F3D1384604B0BDE803
:10146000F081344A0192344C2B68039403228DF8A6
:1014700008201B6831498B4255D10023382185F85B
:10148000232204F1300E85F8241285F8253285F8E0
:10149000263285F8273205F50A7627460FCF77459D
:1014A00030607160B260F3603C4606F11006F4D122
:1014B00003CC00227160C2234FF0FF0EFE273D24B3
:1014C0000721306085F8203285F81CE285F81D720E
:1014D00085F81E4285F81F2285F8222285F8211200
:1014E00005F2212305F25F2001E013F8011F984265
:1014F0000A44FAD1D243DFF8488085F8602205F229
:101500001B2405F5187603E003F08CFCB4420ED0E2
:101510006A6814F8011F13681B6843450846F3D036
:1015200010469847F2E7284601AA072198474FF04E
:10153000FF3093E7C0A50000ECA70000A113000056
:101540002509000010B52B4C002304F27C42114603
:10155000C4F8E434C4F8E834C4F8F034C4F8EC3423
:1015600002E00133192B0AD051F8040F0028F8D1FA
:1015700003F59070204944F8201064334B60002339
:1015800002E00133192B0AD052F8041F0029F8D1C8
:1015900003F59071194A44F8212064335360012106
:1015A000142002F06DFB0121084602F069FB0121C5
:1015B000152002F065FB0121082002F061FB0121EA
:1015C000062002F05DFB0121052002F059FB0121FC
:1015D000122002F055FB01210E2002F051FB0121E7
:1015E000122002F047FB01210E20BDE8104002F05E
:1015F00041BB00BF8411FF1F3C17FF1FB816FF1F20
:101600002DE9F04FDFF888B3D84CDBF8003091B00B
:1016100042F6F8220593DDF814A0D4F80035C3EBA8
:101620000A03934284BF002384F8F834D4F8E434E6
:10163000CE4A33B1D2F804359A4584BF0023C2F8AC
:10164000E434CB4EC94DA2693AB1DBF800300993BE
:10165000099BCAEB03039A4227D3606803685B695E
:10166000B34240F0478103F0F3FA0028C0F246810C
:10167000D4F8F434D4F8E424BC4F0344072AC4F863
:10168000F43400F02481002A40F0E580FF2800F0C7
:10169000AF81DBF800300893089B41F28831CAEB38
:1016A00003038B42CFD987F8F824B24BDFEDB26A3F
:1016B000D3ED007AB14EDBF80030049386EEA77AC2
:1016C000049F3368FB1A07EE903AF8EE677AF4EE5F
:1016D000C77AF1EE10FA40F30282DFF8B892D9F837
:1016E00000000A2800F0E482142800F063841E2819
:1016F00000F09183282840F01682DFF89C82D8F809
:1017000000A0BAF1000F40F0E9815146142002F028
:10171000B1FADFF88892DFF888B2944D01210846CB
:1017200002F0A8FAD9ED007AFDEEE77A152017EE5F
:10173000901A02F01BF95146082002F09BFA012191
:10174000062002F097FADBED007AFDEEE77A05203D
:1017500017EE901A02F00AF90121122002F08AFA1B
:1017600001210E2002F086FAD9ED007A9BED007A75
:1017700083498448BDEEC77AFDEEE77A17EE103A4A
:1017800017EE902A04F0E0FF01237E4884F823320C
:1017900005F016F881464FEA1941000A4FEA19632D
:1017A0004A4684F8250284F8261205F50A70754920
:1017B00084F8273284F8249201F084FF09F10500AF
:1017C000C3B2C0F307215A18D24384F82022FE2264
:1017D00084F81E3284F81F12FF23072184F81D228B
:1017E000421C84F822A284F81C3284F821120DDBFA
:1017F00009F2272E5246AE4405F2212301E013F8E8
:10180000011F73450A44FAD1D343DBB2211800F11A
:101810000802B2F5007F81F82332544800F3598161
:10182000002A40F3588109F50A7900EB090A564D60
:1018300000F21B2904E003F0F5FAD14500F04B81DA
:10184000626819F8011F13681B68AB420846F2D0A2
:1018500010469847F1E7012A00F0D280022A00F0F2
:101860002381032A00F02B81042A00F03B81052A02
:1018700000F04881062A00F0F981082A7FF4E3AEDF
:10188000424F1F4000239F42C4F8E434C0F23C841E
:10189000FF2F7FF4D8AED4F8EC34DFF8D080002BE3
:1018A00000F0C5850A2B00F06684062B00F0B0849A
:1018B0000B2B00F05B84BC3355F8230000283FF469
:1018C000C2AE036808F11C011B689847BBE6D5F857
:1018D000F024D5F8E834A918013B01320877C5F89F
:1018E000F024C5F8E834002B7FF4ADAE0823C4F82B
:1018F000E434A8E698470028BFF6BAAE94F8F83466
:101900001A48002B3FF4D1AED0F8FC3440F6C41294
:10191000C3EB0A0393427FF6C8AEFF23FE210022E9
:1019200080F81C3280F81D12F72308250A2180F860
:10193000203280F8232280F8242280F8252280F8A3
:10194000262280F8272280F8282280F8292280F891
:101950002A2280F81F2280F8222280F81E5280F866
:10196000211200F2212300F22A201DE08411FF1F22
:101970000D070000F806FF1F00007A44FC16FF1F49
:101980005CA800000017FF1F25090000FF00008071
:101990008017FF1F3417FF1FF816FF1F3817FF1F90
:1019A0007C17FF1F13F8011F98420A44FAD1B74E63
:1019B000B74DD24384F82B2206F10F07FF2005E034
:1019C00003F030FABE420BD016F8010F62681368BC
:1019D0001B68AB420146F3D010469847BE42F3D194
:1019E000DBF800300D930D9BC4F8FCA4E3605CE6CB
:1019F00001220AF11403C5F8E424C5F8043522E6EF
:101A0000FE287BD095F8F8240023C5F8E434002A9A
:101A10007FF419AEFF23FE21082085F81C3285F8DB
:101A20001D12F7230A2185F8203285F8232207F2B8
:101A3000212385F8242285F8252285F8262285F899
:101A4000272285F8282285F8292285F82A2285F878
:101A50001F2285F8222285F81E0285F8211207F23E
:101A60002A2701E013F8011F9F420A44FAD1DFF848
:101A70001C82874FD24384F82B2208F10F09FF21E3
:101A800001E018F8011F626813681B68BB42084632
:101A900040F0218503F0C6F9C145F2D1DBF80030F2
:101AA0000793079BE360CEE500220323C5F8E80413
:101AB000C5F8F404C5F8F024C5F8E434C3E5D5F856
:101AC000E83403EB00200423C5F8E804C5F8E43447
:101AD000B9E5FFF7EDFB0123C8F80030376011B01E
:101AE000BDE8F08F6B4A1A40002AC0F28F81FF2AAE
:101AF0000CBF05230023C4F8E434A4E50223C5F891
:101B0000E434A0E50623C5F8EC04C5F8F404C5F8F0
:101B1000E43498E5FFF7CCFBD9F80000012328282E
:101B2000C8F80030DAD03228D8D1DFF88081D8F870
:101B300000A0BAF1000FD1D10121122002F09AF8D1
:101B400001210E2002F096F85146142002F092F87E
:101B50005146012002F08EF85146152001F006FF93
:101B60005146082002F086F85146062002F082F81D
:101B70005146052001F0FAFE474A484B92ED007AA3
:101B8000D3ED007A46494748474DBDEEC77AFDEE92
:101B9000E77A17EE103A17EE902A04F0D5FD0123EC
:101BA000404884F8233204F00BFE81464FEA194185
:101BB000000A4FEA19634A4684F8250284F826127F
:101BC00005F50A70374984F8273284F8249201F029
:101BD00079FD09F10500C3B2C0F307215A18D243B9
:101BE00084F82022FE2284F81E3284F81F12FF237C
:101BF000072184F81D22421C84F822A284F81C329A
:101C000084F821120DDB09F2272E5246AE4405F26C
:101C1000212301E013F8011F73450A44FAD1D3438D
:101C2000DBB2211800F10802B2F5007F81F82332FF
:101C30001D483FF74EAF002A7FF74DAF09F50A79EF
:101C400000EB090A124D00F21B2904E003F0EAF848
:101C5000CA453FF440AF626819F8011F13681B685A
:101C6000AB420846F2D010469847F1E7D5F8EC347D
:101C7000D5F8E82403EB00230721C5F8EC34C5F8B8
:101C8000E414002A3FF432AEDDE400BFA013FF1FCE
:101C900025090000FF0000807C17FF1F3817FF1F79
:101CA00070A800000017FF1F8411FF1FF816FF1F08
:101CB000DFF8F882D8F800B0BBF1000F7FF40EAF68
:101CC000B44BDFF8ECA200930121142001F0D2FF05
:101CD0005946012001F0CEFFDAED007AAE4DFDEE5F
:101CE000E77A152017EE901A01F040FE0121082036
:101CF00001F0C0FF5946062001F0BCFF009BD3ED68
:101D0000007AFDEEE77A052017EE901A01F02EFE1C
:101D10005946122001F0AEFF59460E2001F0AAFFED
:101D2000009BDAED007A93ED007A9C499C48BDEE69
:101D3000C77AFDEEE77A17EE103A17EE902A04F014
:101D400003FD0123964884F8233204F039FD8246CE
:101D50004FEA1A41000A4FEA1A63524684F82502F4
:101D600084F8261205F50A708D4984F8273284F824
:101D700024A201F0A7FC0AF10501CBB2C1F30720B0
:101D80001A18D24384F82022FE2284F81E3284F8E6
:101D90001F02FF23072084F81D224A1C84F822B268
:101DA00084F81C3284F821020DDB0AF2272E5A46F1
:101DB000AE4405F2212301E013F8010F73450244FC
:101DC000FAD1D343DBB262180831B1F5007F82F853
:101DD0002332714800F3A781002940F3A6810AF558
:101DE0000A7A704D824400F21B2B04E003F01AF8CB
:101DF000D34500F09A8162681BF8011F13681B68C5
:101E0000AB420846F2D010469847F1E7013A62F03B
:101E1000FF0201326BE6DFF89481D8F80050002D04
:101E20007FF45CAEDFF888A1DAED007AF5EEC07AD7
:101E3000F1EE10FA40F38D810121142001F01AFF18
:101E40002946012001F016FFDAED007ADFF844B1EF
:101E5000FDEEE77A152017EE901A01F087FDDBED15
:101E6000007AF5EEC07AF1EE10FA40F365810121B7
:101E7000082001F0FFFE0021062001F0FBFEDBED53
:101E8000007A454DFDEEE77A052017EE901A01F035
:101E90006DFD0021122001F0EDFE00210E2001F069
:101EA000E9FEDAED007A9BED007A3F493C48BDEE51
:101EB000C77AFDEEE77A17EE103A17EE902A04F093
:101EC00043FC0123364884F8233204F079FC010AEC
:101ED0004FEA104E030E8246024684F8251205F59D
:101EE0000A702F4984F826E284F8273284F824A265
:101EF00001F0E8FB0AF10500C1B2C0F3072E01EBC7
:101F00000E02D243FF2384F81E124FF0FE0C84F819
:101F1000202207210022B0F1FF3F84F81FE284F85D
:101F20001C3284F81DC284F8211284F822220CDBB2
:101F30000AF2272EAE4405F2212301E013F8011F17
:101F400073450A44FAD1D343DBB2211800F10802E9
:101F5000B2F5007F81F823320F483FF7DBAD002A4E
:101F60007FF7DAAD0AF50A7A00EB0A0B0D4D00F2A5
:101F70001B2A04E002F056FFD3453FF4CDAD626862
:101F80001AF8011F13681B68AB420846F2D01046CE
:101F90009847F1E77C17FF1F8411FF1F28A8000056
:101FA0000017FF1F2509000048A80000F816FF1FB2
:101FB0003817FF1FDFF84C82D8F800B0BBF1000FD4
:101FC0007FF48CAD884BDFF840A20093012101F033
:101FD00051FE5946012001F04DFEDAED007A834DA5
:101FE000FDEEE77A152017EE901A01F0BFFC0121F3
:101FF000082001F03FFE5946062001F03BFE009B01
:10200000D3ED007AFDEEE77A052017EE901A01F085
:10201000ADFC5946122001F02DFE59460E2001F06C
:1020200029FE009BDAED007A93ED007A7049714841
:10203000BDEEC77AFDEEE77A17EE103A17EE902A5A
:1020400004F082FB01236B4884F8233204F0B8FBD0
:1020500082464FEA1A41000A4FEA1A63524684F850
:10206000250284F8261205F50A70624984F82732A1
:1020700084F824A201F026FB0AF10501CBB2C1F3DA
:1020800007201A18D24384F82022FE2284F81E3238
:1020900084F81F02FF23072084F81D224A1C84F8BD
:1020A00022B284F81C3284F821020DDB0AF2272EBA
:1020B0005A46AE4405F2212301E013F8010F9E4574
:1020C0000244FAD1D343DBB262180831B1F5007F84
:1020D00082F8233245481DDC00291DDD0AF50A7A05
:1020E000454D824400F21B2B03E002F09BFEDA45D3
:1020F00012D062681BF8011F13681B68AB420846C8
:10210000F3D010469847F2E7013F67F0FF07013729
:10211000FFF7BEBBFFF7CCF80123D9F80000C8F8E1
:102120000030FFF7E4BAFFF7C3F80123D9F8000045
:10213000C8F80030FFF7D8BA7FF5A3AE0021082019
:1021400001F098FD0121062001F094FDDBED007AFD
:1021500097E67FF57BAE2946142001F08BFD012127
:10216000084601F087FDDAED007A6FE6002385F876
:10217000F834FFF768BADBF800300A930A9BEA6884
:10218000DBF800100C911D492F6ADFF880E0DDF8C4
:1021900030C09B1AA1FB031080094FF47A71BE4432
:1021A000174FEA6901FB103307FB03EE134BA3FB48
:1021B0000C394FEA9919013A01FB19C1024407FB96
:1021C00011E3C9EB020208F1140108F110006B6180
:1021D0002A6101F063FADBF800300B930B9BC5F822
:1021E0000035FFF730BA00BF7C17FF1F8411FF1FB7
:1021F00038A800000017FF1F25090000D34D62100A
:1022000040420F00F816FF1F3817FF1F00CA9A3B05
:10221000EF69D5F810359F4206D9B900D5F81805F1
:1022200004F09AF8C5F81805C4F81075002F00F0EE
:10223000ED80AB4F042107F2145C4FF0000E97F8CD
:10224000223097F8210097F820201B0443EA00234E
:1022500097F82300134343EA0063C4F81435D4F815
:102260001835DCF8000043F82E00D4F810350EF1D4
:10227000010E73450A4607F1040701F10401DED897
:1022800002F1090302F10809029102F10B01501D4C
:1022900002F1060E02F1070C01934F4602F10A0308
:1022A00000910C32A64402999EF81CE0204421447F
:1022B00090F81C80097FA4444FEA0E4E4EEA082E87
:1022C0009CF81C004EEA010ED4F81C154EEA00687A
:1022D00088450BD94FEA8801D5F82405039302926B
:1022E00004F03AF8039B029AC5F82405C4F81C854B
:1022F000B8F1000F00F08880DFF8F4E1EA1900215E
:10230000937F92F81DC0107F1B0443EA0C2392F8C0
:102310001FC0034343EA0C63CEF80030D4F82435E1
:10232000DEF8000043F82100D4F81C3501318B425F
:10233000384602F1040207F10407E1D8431DC21D2B
:10234000B94601930092831D00F10807019A2244C7
:102350002344107F009A197FD4F828352244A144E1
:102360009646090499F81C209EF81C8041EA002139
:102370000A4342EA0868984507D94FEA8801D5F828
:10238000300503F0E9FFC5F83005C4F82885B8F139
:10239000000F34D05349002201F5A26C964607F194
:1023A0001C090023A144984619F8010B98400833F2
:1023B000202B48EA0008F7D1381D804440450AD256
:1023C00007F11F0323440746013793F8019003F8F0
:1023D000019B4745F8D304EB0803013883F81BE061
:1023E0000844D4F83035C4F82C05DCF8000043F874
:1023F0002200D4F82835013293424746CFD8012332
:1024000084F80835FFF71FB917469FE709210B230A
:102410004FF008090191042100934F460C220A2332
:102420004FF0070C4FF0060E052002913AE799464F
:1024300008F223212C4B0D930DA8CDF83890CDF840
:102440003C90FEF713F8C1B2C0F307228B18DB43B0
:1024500088F81E12FE2588F820320A21431C88F8CD
:102460001C7288F8229288F81F2288F81D5288F87A
:102470002112C0F2688200F222254B46454408F240
:10248000212201E012F8011FAA420B44FAD1DB43DA
:10249000DBB2221800F10801B1F5007F82F8233287
:1024A0000F4F00F30582002924DD00F223203E189F
:1024B0000E4D07F21B2703E002F0B4FCB74219D01F
:1024C000626817F8011F13681B68AB420846F3D017
:1024D00010469847F2E710469847FFF7DDBA00BF6D
:1024E0008411FF1FA011FF1F90A500002509000007
:1024F000A416FF1FDBF800300693CE4D069BE36069
:1025000005F16403009355F8043F002B00F0D480DC
:1025100058689A6801680192D3F800908B689847D0
:102520002B68064658680368DB6898472B68019A51
:102530001F69632F804604DD94F8F834002B00F007
:10254000BB80C2F30723484684F8232284F8243250
:1025500004F036F90346020A000C49464FEA136EAE
:1025600084F8262284F827021A46B34884F82532D4
:10257000019384F828E201F0A5F8304604F020F930
:10258000019B03F2292103F106090246214400239D
:1025900022FA03F00833202B01F8010BF8D1A74BE6
:1025A00009F1040903EB09003146914401F08AF86E
:1025B000404604F005F909F223220646224400238E
:1025C00026FA03F10833202B02F8011BF8D19B4BAC
:1025D00009F10409414603EB090032464E4401F07B
:1025E00071F806F1040EA1195FFA8EFCCEF30720F4
:1025F000002202230CEB000981F8243281F8232207
:1026000081F8252281F826226FEA0909F9B2FF2311
:102610004FF0FE0847F30727BEF1FF3F84F82092F2
:1026200084F81EC284F81F0284F81C3284F81D82CC
:1026300084F8211284F822720EDB814B6FF4087744
:1026400006F22620DF19384401E013F8011F834207
:102650000A44FAD1D343DBB204EB0E020EF1080EAA
:10266000BEF5007F82F823321ADCBEF1000F23DDB5
:10267000744FDFF8E48106F22726A7F21B231E44DD
:1026800003E002F0CFFBB74216D0626817F8011FD3
:1026900013681B6843450846F3D010469847F2E795
:1026A0000321694A694B0D928DF8381068480F93E1
:1026B0000DAA0721FEF774FE009B9D427FF423AF15
:1026C000644BCDF804A0DDF800A0A3F59C695AF88E
:1026D000040F002800F0DD8090E80C000093926861
:1026E000D0F8088090470746DAF800000268D26800
:1026F00090470646DAF8000002685268904763285F
:102700000546009B04DD94F8F824002A00F0C180FF
:10271000C3F30722404684F8233284F8242204F0CD
:102720004FF80346020A000C4FEA136E414684F844
:10273000262284F827021A463F4884F8253200935F
:1027400084F828E200F0BEFF384604F039F8009B18
:10275000024603F2292020440633002122FA01FE1A
:102760000831202900F801EBF8D134480433394608
:102770001844D71800F0A6FF304604F021F807F2FD
:10278000232280462244002328FA03F10833202B19
:1027900002F8011BF8D1294B04373146D8194246BB
:1027A00000F090FF08EB0700061D5FFA86FEC6F3F7
:1027B000072704EB000C0EEB07010022C94302239C
:1027C0008CF824328CF823228CF825228CF82622CF
:1027D00084F82012E9B245F30725FF234FF0FE0CE1
:1027E00084F82252751C84F81EE284F81F7284F863
:1027F0001C3284F81DC284F821120BDB00F226255E
:102800000F4B4D4401E013F8011FAB420A44FAD1CB
:10281000D343DBB2A2190836B6F5007F82F8233223
:102820002BDC002E35DD00F22720064F0A4E09EB87
:10283000000517E09C15FF1FAD13FF1FA713FF1F17
:10284000A513FF1F9F13FF1FC0A50000ECA70000EA
:102850008411FF1F6416FF1F2509000002F0E2FA31
:10286000AF4216D0626817F8011F13681B68B342A5
:102870000846F3D010469847F2E70321334A344B19
:102880000D928DF8381033480F930DAA0721FEF7EB
:1028900087FD314B9A457FF41AAFDDF804A0C4F8E8
:1028A000FCA40123C4F800A584F8F834FEF7FDBEAB
:1028B000274E0FCE07F50A750FC50FCE0FC50FCEE9
:1028C0000FC596E8030000230326382287F8236209
:1028D00087F8242287F8253287F8263287F82732AE
:1028E0004FF0FF0C85E803004FF0FE0E3D264FF041
:1028F000C208072187F81F3287F822321A46A5F14D
:102900003700EB1D87F81CC287F81DE287F81E62AE
:1029100087F8208287F8211201E010F8011F834216
:102920000A44FAD10D4DD34384F8603205F14406D0
:10293000FF21606803681B689847B5423FF4DAAD31
:1029400015F8011FF5E73B46A3E500BFC0A5000051
:10295000ECA700008411FF1F6416FF1FA013FF1FC8
:102960002DE9F04F8DB0D04AD04B0692002204469C
:1029700000F5836600F27C45ADF81C200B920893AD
:1029800009930A9356F8043F002B00F0D280586850
:102990001F6801689A6808978B68ADF81C209847F3
:1029A0003368099058680368DB6898472368316882
:1029B0000A904FF400721B68D1F810800B92BC4A49
:1029C0009342824640F0B581B8F1630F04DD94F87C
:1029D000F834002B00F0AD80BDF81C30DDF82090FD
:1029E00084F823321B0A84F82432484603F0E8FEB8
:1029F00007463B0E3A0C000A494684F8283284F810
:102A0000257284F8260284F8272204F229203A4607
:102A100000F058FEDDF824B0584603F0D1FE04F271
:102A20002329791D024606374944002322FA03F080
:102A30000833202B01F8010FF8D10437594609EB70
:102A40000700174400F03EFE504603F0B9FE09EBC4
:102A50000702834600232BFA03F10833202B02F8E8
:102A6000011BF8D10437514609EB07005A4600F024
:102A700029FE0BEB070E0EF104075FFA87FAC7F386
:102A8000072C09EB0E010AEB0C000022C0434FF0AB
:102A9000020B09F80E20FF238A70CA7081F801B07A
:102AA0004FF0FE095FFA88F184F8200248F3072806
:102AB000781C84F81EA284F81FC284F81C3284F8A3
:102AC0001D9284F8211284F82282C0F20A820EF24A
:102AD0002620204404F2212301E013F8011F98422C
:102AE0000A44FAD1D243D2B2E11907F10803B3F58F
:102AF000007F81F8232200F32481002B04F507775F
:102B000017DD0EF10B0EDFF8AC91774404F21B28B1
:102B100003E002F087F947450BD0626818F8011FFF
:102B200013681B684B450846F3D010469847474545
:102B3000F3D1B5427FF426AFDFF8749104F59C68B9
:102B400055F8040F002800F0E380816803684268AC
:102B50000891ADF81C209B6898472B6809901A686B
:102B60001846D36898472B6821680A901A680E683F
:102B700052684FF4007118460B9190474E45074636
:102B800040F0CF80632804DD94F8F834002B00F087
:102B9000BF80BDF81C30089E84F823321B0A84F8DD
:102BA0002432304603F00CFE82464FEA1A634FEAA5
:102BB0001A42000A314684F8283284F825A284F8A3
:102BC000260284F8272204F22920524600F07AFDDA
:102BD00009990191084603F0F3FD04F223260AF156
:102BE0000502019983460AF1060A324400232BFAB2
:102BF00003F00833202B02F8010FF8D10AF1040A80
:102C00005A4606EB0A0000F05DFD0A99019108465C
:102C100003F0D6FDD3440199824606EB0B02002354
:102C20002AFA03F00833202B02F8010BF8D10BF13C
:102C3000040B06EB0B00524600F044FD0AEB0B02BE
:102C40000B9BB354111D16445FFA81FCC1F3072E90
:102C50004FEA132B4FEA134A0CEB0E001B0E86F8BB
:102C600001B086F802A0F370C043FEB24FF0FF0B34
:102C70004FF0FE0A47F307274B1C84F8200284F824
:102C80001EC284F81FE284F81CB284F81DA284F8E6
:102C9000216284F8227218DB02F22627274404F20C
:102CA000212300200AE000BFA8A5000024A80000FE
:102CB000A11300002509000013F8016FBB42304446
:102CC000FAD16FEA000B5FFA8BFB63180831B1F59C
:102CD000007F83F823B200F3A080002904F5077772
:102CE00016DD0B32DFF820A2174404F21B2603E0A6
:102CF00002F098F8BE420BD0626816F8011F136804
:102D00001B6853450846F3D010469847BE42F3D19E
:102D1000A8457FF415AF012384F8F8340DB0BDE861
:102D2000F08F014606AA2046B047A8457FF408AFB9
:102D3000F1E7414606AA20469847B5427FF422AE05
:102D4000FAE66E49039103226D49236805918DF8D7
:102D500010201B686B498B4240F0CA80684F84F892
:102D600023220023382207F1300884F8242284F833
:102D7000253284F8263284F8273204F50A7EBC46D0
:102D8000BCE80F00C445CEF80000CEF80410CEF821
:102D90000820CEF80C3067460EF1100EEFD103CFAD
:102DA0000022CEF80000CEF804103D20C2234FF0E0
:102DB000FF0CFE27072184F81E0284F8203284F8D5
:102DC0001CC284F81D7284F81F2284F8222284F821
:102DD000211204F2212304F25F2001E013F8011F05
:102DE00098420A44FAD1D243DFF81C9184F8602259
:102DF00004F21B2704F5187804E002F013F84745A5
:102E00003FF497AE626817F8011F13681B684B45C3
:102E10000846F2D010469847F1E73849039103225B
:102E20002368374905918DF810201B684B455AD10E
:102E3000002384F8232238220E4601F1300C84F856
:102E4000242284F8253284F8263284F8273204F5C7
:102E50000A77B646BEE80F00E64538607960BA608A
:102E6000FB60764607F11007F3D103CE00223860ED
:102E700079603D20C2234FF0FF0EFE26072184F823
:102E80001E0284F8203284F81CE284F81D6284F863
:102E90001F2284F8222284F8211204F2212304F252
:102EA0005F2001E013F8011F98420A44FAD1D2438F
:102EB000DFF854A084F8602204F21B2604F518778A
:102EC00004E001F0AFFFBE423FF422AF626816F8A3
:102ED000011F13681B6853450846F2D010469847F7
:102EE000F1E71A4600E603AA0721204698470FE7B4
:102EF00003AA0721204698471BE600BFC0A5000093
:102F0000ECA70000A1130000250900002DE9F04FF7
:102F1000C74E93B033680693069DD0F8003542F64D
:102F2000F822EB1A934284BF002380F8F834D0F8DB
:102F3000E434044633B1D0F80435AB423CBF00233F
:102F4000C0F8E434BB4FDFF8FCB2A26932B1336899
:102F50000793079B5B1B9A42C0F02481606803685B
:102F60005B69BB4266D101F073FE002865DBD4F8D3
:102F7000F434D4F8E4240344072AC4F8F43447D0E2
:102F800082B9FF2869D033680893089B41F28831E1
:102F90005B1B8B42D9D984F8F8246FF0010013B081
:102FA000BDE8F08F012A60D0022A00F0BF80032A1A
:102FB00000F0C780042A00F0CE80052A00F0DB80F4
:102FC000062A00F0E080082ABFD19B4A1A4000235D
:102FD0009A42C4F8E434C0F26081FF2AB5D1D4F833
:102FE000EC34002B00F094820A2B00F05E82062B5A
:102FF00000F05C810B2B00F05581BC3354F82300AA
:103000000028A2D0036804F11C011B6898479CE7C4
:10301000D4F8F034E2180133C4F8F0341077D4F85F
:10302000E834013BC4F8E834002B8ED10823C4F8FF
:10303000E4348AE79847002899DA94F8F8040028DD
:10304000ADD0D4F8FC3440F6C412EB1A934200F22F
:10305000AE80002013B0BDE8F08F012205F114030B
:10306000C4F8E424C4F804356FE7FE287FD094F850
:10307000F8240023C4F8E434002A7FF466AF6F49D3
:1030800023680F911B686E4910928B42119240F099
:10309000FF80FF210820F7234FF0FE0E84F81C125A
:1030A0000A2184F81E0284F8203284F8232284F84E
:1030B000242284F8252284F8262284F8272284F802
:1030C000282284F8292284F82A2284F81F2284F8EE
:1030D000222284F81DE284F8211204F2212304F252
:1030E0002A2001E013F8011F98420A44FAD1D24382
:1030F000DFF8549184F82B2204F21B2804F22B2AC7
:1031000003E001F08FFEC2450BD0626818F8011F82
:1031100013681B684B450846F3D010469847C245D4
:10312000F3D133680993099BE3600EE70022032380
:10313000C4F8E804C4F8F404C4F8F024C4F8E4348F
:1031400003E7D4F8E83403EB00200423C4F8E804D0
:10315000C4F8E434F9E6384A1A40002AC0F28580FF
:10316000FF2A0CBF05230023C4F8E434EDE6022354
:10317000C4F8E434E9E60623C4F8EC04C4F8F40423
:10318000C4F8E434E1E6D4F8EC34D4F8E82403EBF2
:1031900000230721C4F8EC34C4F8E414002A3FF4F7
:1031A00045AFD2E66FF0010013B0BDE8F08F234ABF
:1031B00023680F921B68224900228B4210921192C1
:1031C00058D1FF210820F723FE2784F81C120A217A
:1031D00084F81E0284F8203284F8232284F8242202
:1031E00084F8252284F8262284F8272284F82822CD
:1031F00084F8292284F82A2284F81F2284F82222C3
:1032000084F81D7284F8211204F2212304F22A208A
:1032100001E013F8011F98420A44FAD1D243DFF8C3
:10322000288084F82B2204F21B2704F22B2911E0BA
:103230008017FF1F0D070000FF00008090A5000011
:10324000A113000040420F002509000001F0EAFD33
:10325000B94513D0626817F8011F13681B6843450E
:103260000846F3D010469847F2E7013A62F0FF02B1
:10327000013275E70FAA0A212046984733680B935D
:103280000B9BC4F8FC540020E36013B0BDE8F08F42
:103290000FAA0A212046984743E7013A62F0FF024D
:1032A00001329AE6002384F8F8344EE6D4F81C90F4
:1032B000D4F81035994504F11C0807D94FEA890163
:1032C000D4F8180503F048F8C4F81805C4F81095A8
:1032D000B9F1000F00F0378104F2145C424604217A
:1032E0004FF0000E937992F8059010791B0443EA91
:1032F000092392F80790034343EA0963C4F814359D
:10330000D4F81835DCF8000043F82E00D4F8103556
:103310000EF1010E7345084602F1040201F10401A9
:10332000E0D8039100F10B0100F1090200F108035C
:10333000029100F10C010192994600F1050E00F195
:10334000060C00F1070A00F10A02049118F80C00BB
:10335000039918F80EE018F801C018F80AA0D4F87C
:103360001C15000440EA0E2040EA0C0C4CEA0A6AE4
:103370008A450BD94FEA8A01D4F8240505920393B4
:1033800002F0EAFF059A039BC4F82405C4F81CA5C3
:10339000BAF1000F00F0D48004F5A46C08EB090327
:1033A000002104F20C5E9A7893F801A018781204B8
:1033B00042EA0A2293F803A0024342EA0A62CEF8E4
:1033C0001420D4F82425DCF8000042F82100D4F8B9
:1033D0001C2501318A42484603F1040309F104091E
:1033E000E1D8421DC11D4B4601920291821D00F1A0
:1033F000080918F80200019A18F8033018F80210AA
:10340000029A000418F802A0D4F8282540EA012105
:103410000B4343EA0A6A924507D94FEA8A01D4F876
:10342000300502F099FFC4F83005C4F828A5BAF1B8
:10343000000F36D000218E4604F22C5000231A468D
:1034400008EB090A1AF801CB0CFA03FC0833202B0D
:1034500042EA0C02F6D109F1040C624494450BD205
:1034600009F103034344E14609F1010913F801AFEF
:1034700003F801AC9145F7D308EB02030CF1FF3CD4
:1034800003F801ECC444D4F83035C4F82CC5D0F8A6
:1034900000C043F821C0D4F8283501318B42914651
:1034A000CCD8012384F808354FE533680C930C9B86
:1034B000E2682E48D4F820C031680E919A1AA0FB19
:1034C00002E02B4BDDF83880E1694FF47A7E800909
:1034D0000EFB102263440BFB0232244BA3FB083C7F
:1034E0004FEA9C1C013908440EFB1C8321460BFB50
:1034F0001323CCEB0002226104F1100041F8143FC9
:1035000000F0CCF833680D930D9BC4F800351CE532
:10351000226818490F91109311930A2113682046CD
:103520000FAA984733680A930A9BE3602046FFF787
:1035300017FAC4F8FC54C4F800554FF0FF302EE5DC
:10354000DDF8109055E70C2209210823049201911F
:103550000B220421029299460A224FF0070A4FF0EB
:10356000060C4FF0050E0391F0E600BFD34D62103C
:1035700000CA9A3B90A50000F0B5344C344A354B54
:103580003548226000214FF46142A260C4F80C3536
:10359000606084F8F814C4F81015C4F81815C4F85D
:1035A0001C15C4F82415C4F82815C4F8301504F502
:1035B000836204F27C4342F8041F9342FBD1274903
:1035C000002243F8042F8B42FBD1254A002102F54B
:1035D000007302F8011F9342FBD12248002103F837
:1035E000011F98424FF00002F9D11F4B1F48204F96
:1035F000204D214E0760DF60A261204F204C1C63EC
:103600000021204C9F60DFF890E044600127446176
:103610001C611C628160C16001618161C1610162E4
:1036200059619961D96159629962D962C3F800E020
:10363000154C164816495F632A74164B3271AF61F8
:103640002C606861A960EB603360F0BD8411FF1FDE
:1036500038A60000D8A500000807FF1F6416FF1F4A
:103660009F11FF1F9F15FF1F3C17FF1FD416FF1F41
:1036700008A60000B816FF1F7417FF1F80A80000DF
:1036800081060000F0A5000064A60000A906000065
:103690008CA8000020A600004CA6000070B40D68A5
:1036A000064B0468064E6A0AA3FB0232D3091C4487
:1036B00006FB135304600B6070BC7047834B04001F
:1036C00000CA9A3B844641EA000313F003036DD11C
:1036D000403A41D351F8043B40F8043B51F8043BD5
:1036E00040F8043B51F8043B40F8043B51F8043BDC
:1036F00040F8043B51F8043B40F8043B51F8043BCC
:1037000040F8043B51F8043B40F8043B51F8043BBB
:1037100040F8043B51F8043B40F8043B51F8043BAB
:1037200040F8043B51F8043B40F8043B51F8043B9B
:1037300040F8043B51F8043B40F8043B51F8043B8B
:1037400040F8043B51F8043B40F8043B51F8043B7B
:1037500040F8043B403ABDD2303211D351F8043B1B
:1037600040F8043B51F8043B40F8043B51F8043B5B
:1037700040F8043B51F8043B40F8043B103AEDD2CA
:103780000C3205D351F8043B40F8043B043AF9D21B
:10379000043208D0D2071CBF11F8013B00F8013BEE
:1037A00001D30B8803806046704700BF082A13D3FB
:1037B0008B078DD010F003038AD0C3F10403D21A13
:1037C000DB071CBF11F8013B00F8013B80D331F847
:1037D000023B20F8023B7BE7043AD9D3013A11F8C7
:1037E000013B00F8013BF9D20B7803704B78437032
:1037F0008B7883706046704708B5104C08E02368EA
:1038000059050DD423681A050FD42368DB0411D49D
:1038100023685803F3D500F0F5FB23685905F1D56B
:1038200001F0B0FD23681A05EFD501F041FE2368D1
:10383000DB04EDD501F0D2FEEAE700BF348004409E
:1038400008B5FFF7D9FF00BF014B10221A8070475F
:1038500000200540704700BF094908B50B6830B12A
:103860006A461844A2F50052904202D208601846F7
:1038700008BD02F0F5FC0C2303604FF0FF3008BDDB
:10388000FC06FF1F10B4114B53F8302092F8804211
:1038900034B1012379B182F880305DF8044B704770
:1038A00003EBC0035B681A6851B922F002021A6088
:1038B0005DF8044B704782F800315DF8044B7047A7
:1038C00042F003021A605DF8044B7047B4A8000090
:1038D0001C4A02EBC00301295B6811D004291BD0EC
:1038E00052F83000002280F8802229B1022920D02D
:1038F000032922D01A6070474FF480721A60704713
:1039000052F830004FF4A27280F880121A601A68E0
:1039100022F020021A60704752F830104FF4A27261
:10392000012081F880021A601A6842F020021A60B1
:10393000704740F203121A6070474FF481721A60A8
:10394000704700BFB4A8000030B4054B054D064CCD
:10395000002210211A602A602060196030BC704774
:1039600014D0034004D0034000D0034038B5A0F188
:103970004203012B04461FD9002975DD904B1B78AB
:10398000012505FA03F28A4202D83F2827D938BD1B
:10399000C21E012A2BD9A0F11D02012A73D90E28BB
:1039A00056D9A4F12302032A57D9864A126802FB8A
:1039B000011222FA03F320E0814B1B780B2B0AD96A
:1039C0000C2B1CBF0C3B1941422C084657D0BDE8BC
:1039D000384001F0A9BCC3F10C039940F4E7294633
:1039E000FFF750FF2946BDE83840FFF771BF764A20
:1039F000126802FB011222FA03F3A21E242A00F22B
:103A0000D580DFE812F0CC00C500BE00B700B000E2
:103A1000A900A2009B009400D300D300D3008D0026
:103A2000D300D300D300D300D30086007F007800FA
:103A30007100D300D300D300D300D3006A00630029
:103A4000D300D300D300D3005C0055004E004700E4
:103A500044F28412C240D207A3D55C4A126802FB2A
:103A6000011222FA03F3C8E73F2890D80021FFF79C
:103A700009FF20460121BDE83840FFF729BFBDE816
:103A8000384001F033BC524A126802FB011222FA9C
:103A900003F3B2E74F49504A0B604FF45173136080
:103AA00038BD4E494E4A0B604FF45173136038BD18
:103AB0004C494D4A0B604FF45173136038BD4B496C
:103AC0004B4A0B604FF45173136038BD49494A4A61
:103AD0000B604FF45173136038BD4849484A0B607E
:103AE0004FF45173136038BD4649474A0B6040F2AA
:103AF0004443136038BD4549454A0B6040F2444396
:103B0000136038BD4349444A0B6040F2444313609C
:103B100038BD4249424A0B6040F24443136038BD0D
:103B20004049414A0B6040F24443136038BD3F496D
:103B30003F4A0B6040F24443136038BD3D493E4A62
:103B40000B6040F24443136038BD3C493C4A0B6073
:103B500040F24443136038BD3A493B4A0B6040F29F
:103B60004443136038BD3949394A0B6040F244433D
:103B7000136038BD3749384A0B6040F24443136044
:103B800038BD3649364A0B604FF45173136038BD67
:103B90003449354A0B604FF45173136038BD3349D3
:103BA000334A0B6040F24443136038BD3F2C3FF66C
:103BB000EEAE7F29D4BF00210121204657E700BF88
:103BC0000007FF1F088003400890034008900B4047
:103BD00008800B4048900B402CB0044040900B40B4
:103BE00028B0044038900B4024B0044030900B4083
:103BF00020B0044018800B404CA0044010800B40C3
:103C000048A004401880034008B0044010800340DE
:103C100004B004404080034018C004403880034092
:103C200014C0044018900B4004C004402880034096
:103C300010B00440208003400CB0044028900B409A
:103C40000CC0044020900B4008C00440308003406A
:103C500010C00440488003401CC00440189003403A
:103C600034900440109003403090044010900B407A
:103C700000C004403F2801D8FFF704BE704700BFD2
:103C80003F2801D8FFF724BE704700BF2DE9F84355
:103C9000054672B6204F214B214A1B683C681268CA
:103CA00062B6520102D5322B88BF013495B3C3F5F9
:103CB000EA331C4EDFF86490DFF86480BF334FF4C2
:103CC0007A72A6FB031302FB04F404EB931472B69E
:103CD000D9F800103A68D8F800E062B6C1F5EA33C6
:103CE000BF33A6FB03031EF0806FC4EB93134FF4A6
:103CF0007A7002D0322988BF013200FB0233B3F55B
:103D00007A7F04D3013D05D004F57A74DFE701F032
:103D10001BFADCE7BDE8F8838017FF1F18E000E01E
:103D200004ED00E089888888F8B53E4B3E49DFF80D
:103D300018C13E4E3E4ADFF814E13E4D3E4C3F4F27
:103D40004FF0006018604FF0805018604FF0005046
:103D500018604FF0804018604FF00040186000205D
:103D6000086028234EF6FF71CCF80010CEF8003022
:103D700033600EF5012E13602B60236005F50025DE
:103D80003B6004F50024B36207F50027936206F553
:103D9000012602F501220EF1100E05F6E87504F673
:103DA000E87407F57F67103220362B602360CEF869
:103DB00000303B6013603360214EBB619361092288
:103DC0003260A7F5002706F58056203F0836386098
:103DD0003160BB60F36047F8042C06F5FD2607F55B
:103DE000FE2706F2FC76043730603960B360FB6072
:103DF00046F8042C0836C7F8FC0F06F6FC76114886
:103E000031602B602360026001F000FA1920FFF797
:103E10003DFF00F05DFE40F21310BDE8F840FFF7F3
:103E200035BF00BF04E100E004800340148003407C
:103E30001C800340248003402C80034034800340D6
:103E40000080034000900B40088003400C8003403A
:103E5000431E032B14D872B60A4951F8230068B1E7
:103E600070B4094C058834F81320466841F8236083
:103E7000521B24F8132062B670BC704762B67047BC
:103E800000207047DC17FF1FD41BFF1F01380328D9
:103E90000BD872B6074B53F8203043B100205B6853
:103EA0000130002BFBD162B67047002070471846E6
:103EB000F9E700BF3018FF1F30B472B62B4A1378F1
:103EC0001D0706D52A4B196A002936D0996A0029A0
:103ED00041D053781C0706D5254B196C00293ED0DC
:103EE000996C002939D09378190705D5204B196EA4
:103EF000002936D0996E89B1D3781B0707D51C4BA2
:103F0000D3F880207AB3D3F8882011213AB162B671
:103F1000184B00221A7030BC00F074BE0D21154CF5
:103F2000154D227843F8315003EBC1030830013AB4
:103F30005860227062B630BC704704220D4C0F4DA1
:103F4000217843F8325003EBC20308304A1E586010
:103F5000227062B6EFE70521E1E70921DFE70822D9
:103F6000ECE70C22EAE71022E8E700BFDCAA000039
:103F70000000FF1F5918FF1FC800400088004000C4
:103F8000431E032B1DD81B4A400140F0100030B4E3
:103F9000104472B6184CE25C032A1BD8DFE802F02A
:103FA0000212151703220D88E25410F0080F14BFF7
:103FB000C823882343EA054308310360416062B6A1
:103FC00030BC704708300222EDE70522EBE70830ED
:103FD0000422E8E7094A52F8230038B1084A52F8A7
:103FE0002300416042F8231062B6E9E742F823104B
:103FF000034AF7E70000FF1F6818FF1F3018FF1F74
:104000004018FF1F2DE9F04FDFF818B3DFF818A3B1
:1040100087B044E0AE4F4FEA930807EBC809013E72
:10402000D9F8042003F00803F6B2A2F1080003F067
:10403000FF04002B40F0048157F838301B0C99B274
:1040400022F8081C002B00F0F280A24B22F8064C4C
:1040500042F8044C53F82620002A00F06E819E4D51
:1040600055F8263058609D4C45F8260034F8163037
:10407000194424F8161000F0A5FD002800F0568120
:10408000974A984B19F0080F00F1080018BF134623
:10409000C9F8040047F8383008238BF800309BF843
:1040A0000040E4B261071BD58F4B1B78ABB18F4941
:1040B0000A7802F0FF032AB1013BDBB20B70002B40
:1040C00000F0EF848A490A7802F0FF032AB1013B2D
:1040D000DBB20B70002B00F0F78004238BF800306C
:1040E00004F0080303F0FF02002B00F0D6809AF8DA
:1040F0000030DBB21E098DD19C08DFF8D49159F84D
:10410000342009EBC401C2F38302013A49680C2A46
:104110007ED8DFE802F081817D7D7D7D7D7D477DDC
:104120007D7D07000868734D4A68734F734E2860A1
:1041300081B240F281606A4B6A604FF0010E00224A
:10414000814249F834303A60C9F81020C9F8182083
:1041500086F800E05E4C00F2F480B1F5D06F80F09C
:104160007883B1F5817F00F0628300F28782802935
:1041700000F0EC82822940F01E83A98801F07F01C3
:10418000042900F218835E485E4C890008442270BE
:1041900062700278930740F1798384F800E04FF071
:1041A000020ED8E2544F3A6842B3574B534E574928
:1041B000188834780D784028864645F0020828BFD4
:1041C0004FF0400E002C84F001043470CEEB000060
:1041D0000CBF8824C82409EBC80680B285F001050D
:1041E00044EA0E447260188049F8384072440D70F9
:1041F00018B9BEF1400F18BF00223A603D4B1A8833
:10420000B2F5A06F04D100219A785970404B1A7012
:10421000404A012313703FE7364A158842F22100D5
:10422000854200F0FF812E4A49F83420F0E72C4AFD
:104230002C4B19F0080F18BF134647F838302BE7FE
:1042400000F0E0FC344A354952F82630002B00F0EB
:10425000B68158688C5D42F8260003F10802C9F85F
:104260000420032C05D8DFE804F0120F1502042205
:104270008A551A8819F0080F0CBF8823C82343EA0F
:10428000024347F8383007E702228A55F1E7032254
:104290008A55EEE705228A55EBE7E00700F11A821E
:1042A000210600F14982A20706D51D4A1D4913784F
:1042B0000220DBB213700870E30602D5194B1022FE
:1042C0001A7007B0BDE8F08F00F008FE05E700BFE8
:1042D0000000FF1FDC17FF1F8817FF1FD41BFF1FE5
:1042E000C8004000880040006418FF1FED17FF1F42
:1042F0006C18FF1F5018FF1F8417FF1FEC17FF1FBC
:10430000C02007405C18FF1F9817FF1F5818FF1F99
:1043100098200740942007403018FF1F6818FF1F9F
:10432000882007408020074090200740AB4A47F88C
:104330003800137801331370AEE643F82600A84D19
:1043400091E642F22100814200F0358100F2AF8116
:10435000B1F5086F00F01B82B1F5106F40F02B82B1
:10436000226AA049A8780870120600F14583D9F89E
:1043700028209D49130600F13A83D9F830209A4944
:10438000150600F12F83D9F838209749140600F15B
:104390002483D9F840209449100600F11983D9F8F4
:1043A00048209149120600F10E83D9F850208E4919
:1043B000130600F10383D9F858208B49150600F144
:1043C000F882D9F860208849140600F12983D9F8C9
:1043D00068208549100600F11E83D9F870208249B3
:1043E000120600F11383D9F878207F49130600F1F3
:1043F0000883D9F880207C49150600F11C83D9F880
:1044000088207949140600F11083D9F89020764964
:10441000100600F1C882D9F898207349120600F1FD
:10442000BC827248724A7349019073486C4D734C58
:104430000497002305960295804617460E461D46B2
:104440000394386828B1446800F0DCFB2046002C57
:10445000F9D100233B60029B30681A46002342F8E2
:10446000253028B1446800F0CDFB2046002CF9D15E
:1044700000223260019A98F800301146002241F87B
:10448000042B039A0191023B4FF0000122F8151012
:10449000032B09D8DFE813F04B0104004B010400A3
:1044A0004FF0010388F800300135042D07F10407AF
:1044B00006F1040608F10108C3D1514C514B227892
:1044C000464D049F059E002129701A70130700F1C4
:1044D0004F8262784C49DFF810810A7010074FF064
:1044E0000001C9F83010C9F8381000F12B82474993
:1044F000A2780A700021C9F85010C9F858101107A5
:10450000DFF8E48000F1DC81E2784149364C0A7042
:1045100000211207C9F87010C9F8781000F1B981AC
:1045200033780193002183F00102C9F89010C9F893
:1045300098100020029080468446044635490D7844
:1045400045F0020E09EBCE030393019B002B039B66
:104550005C600CBF8824C82444EA080385F0010489
:1045600049F83E3032700C70DFF87CE02A4BDFF8FF
:10457000A480002840F02681BCF1400F1BD144F0FC
:10458000020C09EBCC03029CDFF85CE05C60002AC3
:1045900040F02E81020442F088029DF804304EF86B
:1045A0003C20044433700D702346402803D1002082
:1045B0001A4A3B6010801A4A0123137028E68B5D6B
:1045C000032B00F22D8101A252F823F09940000044
:1045D0009940000023470000294700005918FF1F99
:1045E0008817FF1F6418FF1F0000FF1F4018FF1FE0
:1045F000DC17FF1F3018FF1F6818FF1FD41BFF1F99
:10460000DCAA0000C4200740C8200740CC20074097
:10461000D02007405818FF1FEC17FF1F9817FF1FE7
:1046200094200740928892B9B14A0D784878157065
:1046300050708D78C8789570D07010680D791571AC
:1046400086284D7989795571917100F0A580A94925
:10465000A94E0A78307882F00105002842F0020263
:104660000D700CBF8821C82149F8321009EBC20235
:1046700080F00100002130705160D4E540F2023238
:10468000914240F08D80A98801F07F01042900F259
:1046900092806A88002A40F08E809848CDF804E025
:1046A00089000844017841F00201017041E742F2BB
:1046B000212081427BD1A988002940F0E480904BE1
:1046C000904A9148AC781D681560CDF804E00A4620
:1046D00004702EE78D4B8E4886491A614FF0020E0A
:1046E00080F800E0854F0A708A49196099608A4E07
:1046F0008A4D8B4C9A610D213970FF213170DFF8A2
:1047000040E229702270874D874A8EF800109F275B
:10471000012406F8047C5D600470DA6007B0BDE82F
:10472000F08F00238B55B7E401238B55B4E44FF091
:10473000000388F80030B7E67049784B80220D20DE
:1047400008701A70A2077FF5B7ADAEE5774C4FF051
:10475000020E22706270EA88724580F0A38165497A
:104760000D78402A944645F0020E28BF4FF0400CC9
:1047700004EB0C0309EBCE000293012344604FEAE3
:104780000C48CCEB020001930022C824E4E6684AFE
:10479000664C12782270DEE7664A0F21117056E7E8
:1047A000B1F5A06F07D1012300220193C1E642F2C7
:1047B00021329142F7D0514A0F231370544A0123FA
:1047C000137025E540287FF6DAAE44F002040EEBC4
:1047D000C401029E4E60BAB19DF80410564A197089
:1047E0003346403888F8005040334EF83420DFE636
:1047F0009DF8043033700204029B0D7042F0C80231
:1048000003444EF83C20D0E69DF804101970029B3A
:10481000404A88F80050403840334EF83420C7E60C
:1048200019F0080F0CBF022303238B5534E4A98829
:1048300001F07F010429BED86A88002ABBD12F4825
:10484000CDF804E089000844017821F002010170EC
:104850006FE63A4A5468002CADD06888B5F804E099
:1048600003E00C325468002CA5D013888342F8D1A1
:1048700053887345F5D1000A03280CBF94F800E073
:10488000B2F808E067E7CDF804E052E64FF0020E18
:1048900061E700F097F9002800F0F18008301D4A28
:1048A000C4F88400C4F8802000F08CF9002800F0DF
:1048B000E0800830204AC9F88C00C9F888202FE62B
:1048C00000F080F9002800F0E6800830114AC8F8AE
:1048D0006400C8F8602000F075F9002800F0D58069
:1048E0000830154AC9F86C00C9F868200CE600BF0A
:1048F000DC1BFF1F5818FF1FEC17FF1FC0200740CD
:104900008017FF1FE41BFF1F7C18FF1F0000FF1F05
:1049100094200740880040008820074080200740FE
:10492000982007409C17FF1FF017FF1F5C18FF1F00
:104930006418FF1FED17FF1FC8004000E0AA000029
:104940008C20074000F03EF9002800F08C800830F1
:104950005D4AC8F84400C8F8402000F033F9002848
:104960007BD00830594AC9F84C00C9F84820BEE548
:1049700000F028F900286AD00830534AC9F824000A
:10498000C9F8202000F01EF900285AD008304F4AFC
:10499000C9F82C00C9F828209BE5D1F89C000838FC
:1049A00000F030F93DE5D1F89400083800F02AF91C
:1049B00031E5C86D083800F025F902E5486D083882
:1049C00000F020F9F7E4C86C083800F01BF9ECE4BB
:1049D000486C083800F016F9E1E4C86B083800F0BC
:1049E00011F9D6E4486B083800F00CF9CBE4C86A3A
:1049F000083800F007F9C0E4606A083800F002F9EE
:104A0000B5E4C86F083800F0FDF8F2E4486F0838E4
:104A100000F0F8F8E7E4C86E083800F0F3F8DCE4DA
:104A2000486E083800F0EEF8D1E4D1F88C00083870
:104A300000F0E8F8E9E4D1F88400083800F0E2F882
:104A4000DDE42A78C9F8280001322A7041E52A7885
:104A5000C9F8200001322A7094E72A78C9F8480082
:104A600001322A7043E52A78C8F8400001322A70E2
:104A700073E72A78C9F8880001322A7050E52A784D
:104A8000C4F8800001322A700EE72A78C9F868005D
:104A900001322A7038E52A78C8F8600001322A709D
:104AA00019E700BEBEF1400FF44628BF4FF0400C9E
:104AB00004EB0C0302930123CCEB0E004FEA0C48ED
:104AC000002201933AE500BF88004000C800400082
:104AD0002DE9F04100F062FF2F4C304B3048DFF8F9
:104AE000D880304F304D314EDFF8D0C0DFF8D0E005
:104AF00000221A605A609A60DA601A615A619A61FB
:104B0000DA611A625A629A62DA621A635A639A63C3
:104B1000DA631A645A649A64DA641A655A659A65A3
:104B2000DA651A665A669A66DA661A675A679A6783
:104B3000DA67C3F880202168C3F8842041F480211B
:104B40002160016841F040710160C3F3072188F8DA
:104B5000001004F52834C3F307411B0E3970CC3420
:104B60002B7000F12040FF238CF80030104D8EF8A0
:104B7000003000F6041033700E49012308F8083C99
:104B8000702622704FF40014102207F82C3C2E706F
:104B900004600A70BDE8F081348004400000FF1F0B
:104BA00000D80040B0200740B42007401020074044
:104BB00035E400E0082107409C20074080200740A2
:104BC0008820074072B60D480268B2FA82F30B2BB8
:104BD00010DC4FF00041D94022EA0102026062B6C7
:104BE000074803EBC303DB00C2180021C150104685
:104BF0005160704762B60020704700BF0407FF1F76
:104C00009803FF1F0D4B0E4AC31AA2FB03231B0977
:104C10000B2B0CD80B4A127852B972B60A484FF0D7
:104C20000041026821FA03F31A43026062B670473A
:104C3000064A1278002AF0D0FFF73EB99803FF1F0A
:104C4000398EE3385918FF1F0407FF1F6418FF1F30
:104C500038B50F4D286878B143880288C1180133F0
:104C600093420C7A02D24380204638BDFFF7CAFF38
:104C7000002320462B6038BD064B1B782BB1032048
:104C8000FFF7E6F828600028E6D14FF0FF3038BD86
:104C90007818FF1F6418FF1F10B5094C206818B161
:104CA00043881844007A10BD064B1B782BB10320B3
:104CB000FFF7CEF820600028F2D14FF0FF3010BD92
:104CC0007818FF1F6418FF1F044B054A1B68908863
:104CD0001BB11A885B88D31A184470477818FF1FD5
:104CE000D41BFF1F0B4B1B789BB110B50A4C2068DF
:104CF00048B1FFF787FF002303202360FFF7A8F8E0
:104D000030B1FFF77FFF0320FFF7A2F80028F8D1AA
:104D100010BD70476418FF1F7818FF1F2DE9F04F72
:104D2000DFF8F89083B0012289F80020019169B37F
:104D3000DFF8EC80364F019E8346D8F80000B0B310
:104D4000344D4488C4F14001B14228BF314604EBE0
:104D5000010E00221FFA8EFE2A70761AA0F802E0D9
:104D600000F1080251B1013C224459441BF8014BA7
:104D700002F8014F8B45F9D1B0F802E0BEF13F0FC8
:104D80000BD8254A05211170002ED6D10198002399
:104D900089F8003003B0BDE8F08F40220280014660
:104DA0000420FFF7EDF80022C8F80020E9E73A7880
:104DB0002AB3184D4DF2E9044FF0010A07E0013C17
:104DC00016D02A78A2B900F0BFF93A78BAB1042017
:104DD000FFF75CF80728F2D889F800A0FFF7F2FE89
:104DE000C8F800000028ACD10C4B013C1870E8D189
:104DF00001234FF0FF302B7003B0BDE8F08F00238C
:104E00004FF0FF3089F8003003B0BDE8F08F00BFED
:104E10006418FF1F7418FF1F6C18FF1F6D18FF1F09
:104E20007018FF1F00B583B002AB012103F8010D1C
:104E30001846FFF773FF03B05DF804FB38B50E4D5D
:104E40000E4C28680123237028B14088002323706A
:104E5000C0F1400038BD0A4B1B7813B90020207008
:104E600038BD0420FFF712F80728F7D8FFF7AAFE8D
:104E700028600028E9D1F1E77018FF1F6D18FF1FA7
:104E80006418FF1FF8B5114B1B788BB1104E114DF4
:104E9000346801272F7064B10F4A638800271770A8
:104EA000214623800420FFF76BF8376000232B7026
:104EB000F8BDFFF787FE084B28B1014604201C709F
:104EC000FFF75EF8F2E71F70F0E700BF6418FF1FFE
:104ED0007018FF1F6D18FF1F6C18FF1F38B50E4BA1
:104EE0001B7873B90D4C216861B103F0FF054B8845
:104EF0000B800420FFF744F8256038BD084B0122E1
:104F00001A7038BDFFF75EFE0028F7D00146BDE8F5
:104F100038400420FFF734B86D18FF1F7018FF1FCA
:104F20006C18FF1F10B4EFF3108272B6437F33B9D1
:104F3000017F012908D0032910D00123437702B94A
:104F400062B65DF8044B7047114C2168A1B111495C
:104F500043610B68836108605861EEE70E4C21687D
:104F600081B10E4943610B688361086058610C4B45
:104F70004FF080511960E0E7064B4161816120608C
:104F80001860DAE7054B4161816120601860EEE747
:104F90009018FF1F8C18FF1F8018FF1F8418FF1F19
:104FA00004ED00E010B4047F4160022CC26003D025
:104FB0005DF8044BFFF7B6BF83685DF8044B1847F4
:104FC00070B5EFF3108272B60C4C206880B10C4EB5
:104FD00000254369236073B19D6102B962B64577CC
:104FE00083689847EFF3108272B620680028F0D1EA
:104FF00002B962B670BD3360EFE700BF8018FF1FD3
:105000008418FF1FFFF7DCBF184A30B41468002C67
:1050100027D0036821688B420ED2CB1A002184600E
:10502000C1602360E06010600223037530BC7047EC
:1050300011688B42144608D3A2685B1A0360002AE9
:10504000F6D18260C460A060EEE7D268C26084607E
:10505000E060C568CB1A0222A8602360027530BCEC
:1050600070478460C4601060DEE700BF8818FF1FCF
:10507000F8B5224E34682CB32368002B3AD1204F68
:105080001D4604E03468ECB12368002B32D1A368DC
:1050900003B1DD6020693360036825751B68BB427E
:1050A00021D1037F4560022BC46020D0FFF73AFF77
:1050B0006368002BE6D023602046FFF7A5FF346825
:1050C000002CE1D1EFF3108372B60E4A0021106874
:1050D000116003B962B628B18468FFF795FF2046D6
:1050E0000028F9D1F8BD224600219847E0E78368FF
:1050F0009847DDE7013B2360E4E700BF8818FF1F06
:10510000A54F00009818FF1F024A1368013313606F
:10511000FFF7AEBF8017FF1F08B5FCF713FAFCF7C7
:105120006FFA00F011F8FAE7FFF7DCBDFFF7B4BD46
:10513000FFF7CABDFFF7A6BEFFF780BE08461146BF
:10514000FFF7ECBD704700BF38B52C4C237803B196
:1051500038BD01232370FFF7B7FD002842D100F0CE
:1051600001F900283BD100F093F9002834D100F078
:1051700025FA70BB00F09EFA40BB00F017FB10BB95
:1051800000F090FBE0B900232370EFF30583002BC0
:10519000DED1EFF3108172B6194B186828B3194CA1
:1051A000227812BB45691D60012323700DB3AA61EB
:1051B00001B962B600254577836898472570C7E72F
:1051C00000F034FCDFE700F02FFCD9E700F02AFC08
:1051D000D3E700F025FCCDE700F020FCC7E700F0A6
:1051E0001BFCC0E7FFF7AEFFB9E70029B0D162B6FC
:1051F00038BD054B1D600029DCD1DAE79C18FF1F84
:105200009018FF1F9418FF1F8C18FF1F30B42948F7
:10521000294A2A4B2A4D6024E121047011701B7821
:10522000284C082B30D00A2B2748284937D00C2B84
:105230000CBF35225D2212232A60236002600B60BE
:10524000234B24491B78244ABBB101230B60136014
:10525000224B23491B78234A012B26D9042B0FD933
:10526000082B1ED9102B94BF862387230B60136055
:105270001D4B01221A7030BC70470B601360E7E7CA
:1052800084230B601360F3E700F58E200F4908308C
:10529000212213232A60236002600B60D0E73922A9
:1052A000F7E785230B601360E2E780230B60136050
:1052B000DEE700BF00400740014007401807FF1F1E
:1052C00008B003400CB0034008B00B400CB00B40DA
:1052D0009E18FF1F20B0034020B00B401907FF1F8E
:1052E00024B0034024B00B409D18FF1F0A4A0B490D
:1052F000136843F4805313600B7843B9084BC02202
:105300001A70084B80F30C0000B218807047044BF1
:1053100080221A70F5E700BF2C8004409E18FF1F02
:1053200021C00C4000C00C400A4A0B49136843F4EA
:10533000005313600B7843B9084BC0221A70084B16
:1053400080F30C0000B218807047044B80221A7062
:10535000F5E700BF2C8004409E18FF1F21D00C40B1
:1053600000D00C40054A064B10781B78C0B2DBB267
:10537000984238BF4030C01A704700BFA418FF1FC2
:10538000A518FF1FF0B4384B1A7912F0300F2CD04B
:1053900072B6997D01F0FF0200293DD062B6334F0D
:1053A000334938780D78334E1C46C0B2EDB2431CF9
:1053B000402BE17928BF0023AB4202F1FF32C9B292
:1053C0001CBFF154184612F0FF02F0D12A4B1B68A3
:1053D000C2B23A704BB1A84236BFC5F14005401B7E
:1053E00040192728C4BF01221A701F49CA78D2B2B7
:1053F000150616D452060DD51B4B1B795B0609D535
:105400001E4B1F491B6800220A7003B11A70164B0D
:105410003C22DA70F0BC70474022D9795A7462B6E7
:10542000E3E70B791C06E5D5164B174E1C7833784D
:10543000E4B2DBB29C420ED0144D01E0A3420AD08C
:105440000133402B28BF00230879E85CC0B2C87143
:10545000087D0728F2D9DBB2034933700B791806AF
:1054600044BF7C23CB70C5E700A00640A418FF1FF3
:10547000A518FF1FE818FF1FA018FF1F2C19FF1FFA
:105480002819FF1F3019FF1F2919FF1FA818FF1F18
:10549000054A064B10781B78C0B2DBB2984238BF81
:1054A0004030C01A704700BFA419FF1F3919FF1FF1
:1054B000F0B4384B1A7912F0300F2CD072B6997DB7
:1054C00001F0FF0200293DD062B6334F33493878EE
:1054D0000D78334E1C46C0B2EDB2431C402BE1792F
:1054E00028BF0023AB4202F1FF32C9B21CBFF15406
:1054F000184612F0FF02F0D12A4B1B68C2B23A7074
:105500004BB1A84236BFC5F14005401B40192728C2
:10551000C4BF01221A701F49CA78D2B2150616D428
:1055200052060DD51B4B1B795B0609D51E4B1F4937
:105530001B6800220A7003B11A70164B3C22DA7005
:10554000F0BC70474022D9795A7462B6E3E70B7910
:105550001C06E5D5164B174E1C783378E4B2DBB247
:105560009C420ED0144D01E0A3420AD00133282BF7
:1055700028BF00230879E85CC0B2C871087D0728FD
:10558000F2D9DBB2034933700B79180644BF7C2390
:10559000CB70C5E700B00640A419FF1F3919FF1FE3
:1055A0006419FF1F3419FF1FA819FF1F3819FF1FA7
:1055B000AC19FF1FA519FF1F3C19FF1F054A064B19
:1055C00010781B78C0B2DBB2984238BF4030C01AA6
:1055D000704700BFB419FF1FB519FF1F30B42B4B24
:1055E0001A7994061FD52A48DA79037829490133B4
:1055F0003F2B0978C8BF00238B42D2B203D0264C80
:10560000D9B2E2540170254A116861B1244A127876
:10561000D2B2934236BFC2F140029B1A9B18272B8D
:10562000C4BF01230B70194AD378DBB2180611D41A
:105630005A060DD5154B1B795B0609D5194B1A492E
:105640001B6800220A7003B11A70104B2C22DA700A
:1056500030BC704711790906EAD5144910480C7816
:105660000178C9B28C420DD04A1C272A84BF002180
:105670000A460F4D054C98BFD1B2AA5CD2B2E27176
:105680000170D5E76C21D170D2E700BF00C00640A1
:10569000B419FF1FB519FF1FE019FF1FB019FF1F35
:1056A000211AFF1F241AFF1F201AFF1F281AFF1F8D
:1056B000B819FF1F054A064B10781B78C0B2DBB241
:1056C000984238BF4030C01A704700BF301AFF1FE1
:1056D000311AFF1F30B42B4B1A7994061FD52A4874
:1056E000DA790378294901333F2B0978C8BF0023B1
:1056F0008B42D2B203D0264CD9B2E2540170254A73
:10570000116861B1244A1278D2B2934236BFC2F115
:1057100040029B1A9B18272BC4BF01230B70194A08
:10572000D378DBB2180611D45A060DD5154B1B7968
:105730005B0609D5194B1A491B6800220A7003B190
:105740001A70104B2C22DA7030BC704711790906A0
:10575000EAD5144910480C780178C9B28C420DD0B2
:105760004A1C272A84BF00210A460F4D054C98BFCA
:10577000D1B2AA5CD2B2E2710170D5E76C21D170CE
:10578000D2E700BF00D00640301AFF1F311AFF1FBA
:105790005C1AFF1F2C1AFF1F9D1AFF1FA01AFF1F64
:1057A0009C1AFF1FA41AFF1F341AFF1F054A064B3D
:1057B00010781B78C0B2DBB2984238BF4030C01AB4
:1057C000704700BFAC1AFF1FAD1AFF1F30B42B4B40
:1057D0001A7994061FD52A48DA79037829490133C2
:1057E0003F2B0978C8BF00238B42D2B203D0264C8E
:1057F000D9B2E2540170254A116861B1244A127885
:10580000D2B2934236BFC2F140029B1A9B18272B9B
:10581000C4BF01230B70194AD378DBB2180611D428
:105820005A060DD5154B1B795B0609D5194B1A493C
:105830001B6800220A7003B11A70104B2C22DA7018
:1058400030BC704711790906EAD5144910480C7824
:105850000178C9B28C420DD04A1C272A84BF00218E
:105860000A460F4D054C98BFD1B2AA5CD2B2E27184
:105870000170D5E76C21D170D2E700BF00A00E40C7
:10588000AC1AFF1FAD1AFF1FD81AFF1FA81AFF1F5F
:10589000191BFF1F1C1BFF1F181BFF1F201BFF1FB7
:1058A000B01AFF1F054A064B10781B78C0B2DBB256
:1058B000984238BF4030C01A704700BF281BFF1FF6
:1058C000291BFF1F30B42B4B1A7994061FD52A4889
:1058D000DA790378294901333F2B0978C8BF0023BF
:1058E0008B42D2B203D0264CD9B2E2540170254A81
:1058F000116861B1244A1278D2B2934236BFC2F124
:1059000040029B1A9B18272BC4BF01230B70194A16
:10591000D378DBB2180611D45A060DD5154B1B7976
:105920005B0609D5194B1A491B6800220A7003B19E
:105930001A70104B2C22DA7030BC704711790906AE
:10594000EAD5144910480C780178C9B28C420DD0C0
:105950004A1C272A84BF00210A460F4D054C98BFD8
:10596000D1B2AA5CD2B2E2710170D5E76C21D170DC
:10597000D2E700BF00B00E40281BFF1F291BFF1FEE
:10598000541BFF1F241BFF1F951BFF1F981BFF1F8E
:10599000941BFF1F9C1BFF1F2C1BFF1F72B6184A76
:1059A000184B19491160702280211A701A4619701B
:1059B00013781B06FCD510B5144B84B0186862B67A
:1059C000134B144C984298BF00EB800001A998BF7C
:1059D00040000A2200F02CF801A92046002311F80B
:1059E000012B01333AB10A2B20F8022FF7D11623ED
:1059F000237004B010BD5B00DBB2237004B010BD97
:105A00000400024000000240000007410C00024078
:105A10007F969800A807FF1F704700BF704700BF20
:105A2000704700BF704700BF704700BF704700BF9E
:105A3000F0B44D1E2E46002400E00134B0FBF2F31A
:105A400002FB1300092800F130078ABF3730F8B293
:105A5000C0B206F8010F1846002BEED10A19537098
:105A60004CB1107815F8016F28700133E01A8342A9
:105A700002F80169F5DB0846F0BC704781F000418F
:105A800002E000BF83F0004330B54FEA41044FEA23
:105A9000430594EA050F08BF90EA020F1FBF54EABE
:105AA000000C55EA020C7FEA645C7FEA655C00F05A
:105AB000E2804FEA5454D4EB5555B8BF6D420CDD2B
:105AC0002C4480EA020281EA030382EA000083EAAE
:105AD000010180EA020281EA0303362D88BF30BD4E
